:020000040800F2
:1000000000800120D57A0008257B0008996500084A
:100010009F650008A5650008AB65000800000000AA
:100020000000000000000000000000002938000867
:10003000257B000800000000C3380008D338000802
:10004000257B0008257B0008257B0008257B000810
:10005000257B0008257B0008257B0008257B000800
:10006000257B0008257B0008257B0008257B0008F0
:10007000257B0008257B0008257B0008257B0008E0
:10008000257B0008257B0008257B00080000000078
:10009000000000000000000000000000257B0008B8
:1000A000257B0008257B0008257B0008257B0008B0
:1000B000257B0008257B0008257B0008257B0008A0
:1000C000257B0008257B0008257B0008257B000890
:1000D000257B0008257B0008257B00080000000028
:1000E000257B0008257B0008257B00080000000018
:1000F000000000000000000000000000257B000858
:1001000000000000257B0008257B0008257B0008F7
:1001100000000000000000000000000000000000DF
:10012000257B0008257B0008257B0008257B00082F
:10013000257B000800000000000000000000000017
:10014000000000000000000000000000257B000807
:10015000257B0008257B0008257B0008257B0008FF
:10016000257B0008257B000800000000000000003F
:10017000000000000000000000000000000000007F
:1001800000000000257B00080000000000000000C7
:10019000257B000810B5054C237833B9044B13B107
:1001A0000448AFF300800123237010BD600D0020D0
:1001B000000000002487010808B5034B1BB1034968
:1001C0000348AFF3008008BD00000000640D00206C
:1001D00024870108A3F5803A704700BF174B002B16
:1001E00008BF134B9D46FFF7F5FF00218B460F46D6
:1001F0001348144A121A0DF0BBFF0E4B002B00D00F
:1002000098470D4B002B00D0984700200021040098
:100210000D000D48002802D00C4807F05FF90DF0E2
:10022000B1FA2000290004F0D9FF07F053FB00BF0A
:100230000000080000000000395100080080012083
:10024000600D002060340020DD7400080000000014
:100250007047704713B50023144608460DF1060297
:100260000A49ADF806300EF067F8C0B2012803BFA6
:10027000074BBDF806200749074908BF1A802046EA
:1002800002B0BDE810400EF039BA00BF185D010899
:100290009E0D00201C5D0108205D010830B5C36083
:1002A000039B0361049B43610025059B0570C0E926
:1002B0000112836130BD7047F0B589B00023044658
:1002C000154608460DF1030254498DF803300EF02F
:1002D00033F8534B1B78002B40F097809DF8036058
:1002E0001E2E00F294804F4BF340DB0740F18F80CD
:1002F0002670002E33D14C4F3B78002B2FD04B492A
:100300003246284606F06BFC4949A06801AA02F073
:10031000FBFD322007F0CEFB4549E06801AA02F060
:10032000FBFE322007F0C6FB4149206901AA03F019
:1003300057F9322007F0BEFB3D49606901AA00F081
:1003400081F9322007F0B6FB3949A06901AA03F010
:10035000D7F8384960683E7001AA02F0B7FA9DF8F4
:1003600003200F2A01D01E2A4FD12F4E33780F2B96
:1003700034D02E49284606F032FC2F49606901AA84
:1003800000F080F90F2333702C4B1B7823B92C49D4
:10039000A06801AA02F0B8FD2A4B1B7823B92849AE
:1003A000E06801AA02F0B8FE274B1B7823B9244964
:1003B000206901AA03F014F9244B1B7823B92049C2
:1003C000A06901AA03F09CF81949606901AA00F02C
:1003D00039F91F49606801AA02F078FA9DF80370A4
:1003E0001E2F12D133781E2B0FD010493A462846C3
:1003F00006F0F5FB10496069377001AA00F042F978
:100400001449606801AA02F061FA09B0F0BD12490E
:10041000284609B0BDE8F0400EF070B9995D0108BA
:100420007C0D002001800040B90D00209271010870
:1004300048730108856701082D5D01087E0D0020C5
:10044000335D01087F0D00207D0D0020800D002010
:10045000F56D0108315D0108205D010810B5034B01
:100460000360044603F042F9204610BDC45D010854
:1004700010B50446FFF7F2FF2046402107F064FA6A
:10048000204610BD30B590F82830013B9BB00446A3
:10049000032B1BD8DFE803F0021C2432406A216BD7
:1004A00003681B689847236B294A642101A806F05A
:1004B000A7FBE56901A80EF083F92B6802461B69CA
:1004C00001A928469847002384F828301BB030BD86
:1004D000006A616B03681B689847636B1D4AE4E719
:1004E000006A616B03681B689847606A03689B68D1
:1004F0009847194901A80EF001F9DAE7C18D828DFC
:10050000438D0A44934220DB406A036800211B6844
:100510009847206A036800211B68984794F8383090
:10052000E069002584F828503BB903680B491B6932
:100530000F221BB0BDE830401847036808491B690B
:100540001222984784F83850C0E70B444385BDE732
:10055000355D0108435D0108515D01085E5D0108DC
:100560006D5D010838B50446154603F0B1F80A4B35
:100570002360049BE361059B2362069B6362002367
:10058000C4E90C3384F828306385A385E58584F8B5
:100590003830204638BD00BFC45D010837B5044679
:1005A0001546084601AA0E490DF0C6FE012814D1D1
:1005B0000C4B1B781E2B09D184F82800606A019926
:1005C00003685B689847206303B030BD064928463E
:1005D00003B0BDE830400EF091B80449F7E700BF22
:1005E00092710108B90D00207F5D0108205D0108AE
:1005F00037B504461546084601AA0E490DF09CFE83
:10060000012815D10C4B1B781E2B0AD1206A0199A9
:10061000022384F8283003685B689847606303B05E
:1006200030BD0649284603B0BDE830400EF066B83C
:100630000349F7E792710108B90D00207F5D0108B9
:10064000205D010837B504461546084601AA0B4946
:100650000DF072FE01280AD1206A0199032384F863
:10066000283003685B689847606303B030BD044975
:10067000284603B0BDE830400EF040B89271010842
:10068000205D010830B587B00DF10F0300930446DB
:1006900005AB08461546204904AA0DF04DFE1F4B38
:1006A0001B781E2B06D01E49284607B0BDE83040F7
:1006B0000EF024B8C0B29DF80F10A185032829D1EF
:1006C000049A02F5FA73B3F57A7F23D8059B03F1F8
:1006D000E800B0F5E87F1DD800912846114906F0E2
:1006E0007EFA002363859DF80F30206A059903EB9D
:1006F000830303EB83039B00A385042384F8283042
:1007000003681B689847606A049903681B689847E8
:1007100007B030BD0449C7E7935D0108B90D00205B
:100720007F5D01089E5D0108A75D010830B587B0B7
:100730000DF10F030093044605AB08461546234907
:1007400004AA0DF0F9FD224B1B781E2B06D021497F
:10075000284607B0BDE830400DF0D0BFC0B29DF8CC
:100760000F30A38503282ED1049A02F5FA72B2F550
:100770007A7F28D8059901F58872B2F5087F22D8CA
:1007800003EB830303EB83039B00206AA38504230D
:1007900084F828300368002262851B689847606AE5
:1007A000049903681B689847D4E908320A49B3F9E9
:1007B0000430B2F90420284606F011FA012384F827
:1007C000383007B030BD0549C2E700BF935D01086E
:1007D000B90D00207F5D0108A15D0108A75D01083A
:1007E00030B5044685B0154600230DF10F020846CA
:1007F0000A498DF80F300DF09FFD206A0368DB6811
:1008000098470190206A03689B689847019A0449B9
:100810000346284606F0E3F905B030BD995D0108AE
:10082000A15D010813B50023144608460DF1070227
:1008300005498DF807300DF07FFD0449204602B0D0
:10084000BDE810400DF05ABF995D0108335D010805
:10085000074B10B504460360806A08B106F0F2F950
:10086000236913B19B68201D9847204610BD00BF27
:10087000EC6A010810B50446FFF7EAFF20464FF482
:10088000847107F061F8204610BD38B504461D4656
:1008900004F024FF6C23C4F8083104F5867318466D
:1008A0001C2200210DF064FCBDF91010002205F09F
:1008B00077FB2046294604F034FE204638BD10B5AB
:1008C0000446FFF7C5FF204610BD1FB50023009367
:1008D0008DF80C108DF80D20D0F80811022303AA12
:1008E00004F032FEB0FA80F0400905B05DF804FB78
:1008F000072210B511460446FFF7E7FF30B1204646
:100900000022BDE810400821FFF7DFBF10BD30B561
:1009100085B00023009315468DF80E100123D0F802
:1009200008110DF10E02044604F00EFE10B1002075
:1009300005B030BD8DF80F000090D4F808110123E8
:100940000DF10F02204604F01EFE0028EFD19DF8A5
:100950000F302B700120EBE70A460B21FFF7D7BFC2
:1009600007B500230DF107018DF80730FFF7F4FFFD
:1009700018B19DF80700C0F3401003B05DF804FB08
:100980000A461A21FFF7C3BF30B585B00023009394
:1009900015468DF80B100123D0F808110DF10B024C
:1009A000044604F0D1FD10B1002005B030BDADF813
:1009B0000C000090D4F80811022303AA204604F08A
:1009C000E2FD0028F0D1BDF80C305BBA2B8001208D
:1009D000EBE713B500230C460DF106020C21ADF830
:1009E0000630FFF7D1FF20B1BDF80630C3F30B038B
:1009F000238002B010BD42600022C0E902220160E3
:100A000002828274704713B5002304460DF106017B
:100A10000068ADF80630FFF7DCFF38B1A27CBDF806
:100A200006102AB901232182A374E26002B010BD2E
:100A3000238ACB1AB3F5006F08DDA3F58053A068B5
:100A400021821844C4E902031046EFE713F5006F52
:100A5000B8BF03F58053F2E780687047D0ED037AA2
:100A600090ED017AF8EEE77A67EE877AFDEEE77AA5
:100A700017EE900A7047008A704700002DE9F34195
:100A8000DFF8F080C568C8F8000000248DF8024047
:100A90008DF80340ADF804400DF103020123072156
:100AA000407AA8470546D8F800000DF10202066911
:100AB000407A21460123B0472844C5B2D8F8000047
:100AC0009DF80230037001230469407A0DF102029F
:100AD0001946A0472844C4B2D8F800009DF8023057
:100AE000056943710DF1020201230221407AA847F2
:100AF0002044C7B2D8F800009DF802300469837121
:100B00000DF1020201230321407AA0473844C6B206
:100B1000D8F800009DF802300469C3710DF102029B
:100B200001230621407AA0473044C5B2D8F800001E
:100B30009DF802300469037201AA02230421407A5D
:100B4000A0472844C4B2D8F80000BDF804300569B5
:100B500043800DF1020201230721407AA847D8F80B
:100B600000309DF802201A71204440B202B0BDE866
:100B7000F08100BFBC0D00201346074A30B4146852
:100B800034B1E5680A46AC460146607A30BC60473D
:100B90006FF07E0030BC7047BC0D002073B5124D65
:100BA0000446286800238DF80730B0B10669407A02
:100BB00001230DF107020721B04788B928688DF895
:100BC0000740C668407A01230DF107020721B047AC
:100BD00008B92B681C7102B070BD6FF07E00FAE797
:100BE0004FF0FF30F7E700BFBC0D002037B5114CC8
:100BF000236805460020ADF80400C3B11B795BB93A
:100C0000206802230469407A01AA1421A047BDF894
:100C100004302B8003B030BDFFF7C0FF0028EFD0B9
:100C200023681B79002BEBD04FF0FF30F2E76FF019
:100C30007E00EFE7BC0D002037B5114C2368054658
:100C40000020ADF80400C3B11B795BB92068022312
:100C50000469407A01AA1621A047BDF804302B8010
:100C600003B030BDFFF79AFF0028EFD023681B794F
:100C7000002BEBD04FF0FF30F2E76FF07E00EFE794
:100C8000BC0D002037B5114C236805460020ADF897
:100C90000400C3B11B795BB9206802230469407A60
:100CA00001AA1821A047BDF804302B8003B030BD45
:100CB000FFF774FF0028EFD023681B79002BEBD0DF
:100CC0004FF0FF30F2E76FF07E00EFE7BC0D002041
:100CD00037B5114C236805460020ADF80400C3B1B8
:100CE0001B795BB9206802230469407A01AA1A21A2
:100CF000A047BDF804302B8003B030BDFFF74EFF96
:100D00000028EFD023681B79002BEBD04FF0FF3089
:100D1000F2E76FF07E00EFE7BC0D002037B5114C15
:100D2000236805460020ADF80400C3B11B795BB908
:100D3000206802230469407A01AA1C21A047BDF85B
:100D400004302B8003B030BDFFF728FF0028EFD020
:100D500023681B79002BEBD04FF0FF30F2E76FF0E8
:100D60007E00EFE7BC0D002037B5114C2368054627
:100D70000020ADF80400C3B11B795BB920680223E1
:100D80000469407A01AA1E21A047BDF804302B80D7
:100D900003B030BDFFF702FF0028EFD023681B79B6
:100DA000002BEBD04FF0FF30F2E76FF07E00EFE763
:100DB000BC0D002037B5114C236805460020ADF866
:100DC0000400C3B11B795BB9206802230469407A2F
:100DD00001AA2821A047BDF804302B8003B030BD04
:100DE000FFF7DCFE0028EFD023681B79002BEBD047
:100DF0004FF0FF30F2E76FF07E00EFE7BC0D002010
:100E000037B5114C236805460020ADF80400C3B186
:100E10001B795BB9206802230469407A01AA2A2160
:100E2000A047BDF804302B8003B030BDFFF7B6FEFD
:100E30000028EFD023681B79002BEBD04FF0FF3058
:100E4000F2E76FF07E00EFE7BC0D002037B5114CE4
:100E5000236805460020ADF80400C3B11B795BB9D7
:100E6000206802230469407A01AA2C21A047BDF81A
:100E700004302B8003B030BDFFF790FE0028EFD088
:100E800023681B79002BEBD04FF0FF30F2E76FF0B7
:100E90007E00EFE7BC0D002037B5134C23680546F4
:100EA00000208DF80700DBB11B7973B9206801239E
:100EB0000469407A0DF107023B21A0479DF80730F5
:100EC000C3F380032B7003B030BDFFF767FE00282B
:100ED000ECD023681B79002BE8D04FF0FF30F2E70D
:100EE0006FF07E00EFE700BFBC0D002037B5134C5C
:100EF0002368054600208DF80700DBB11B7973B924
:100F0000206801230469407A0DF107023D21A047C2
:100F10009DF8073003F00F032B7003B030BDFFF7CF
:100F20003DFE0028ECD023681B79002BE8D04FF061
:100F3000FF30F2E76FF07E00EFE700BFBC0D00204E
:100F400073B52F4D00238DF806308DF807302B68D0
:100F50000646002B4ED00DF10700FFF7C7FF002813
:100F60004BD12B681C69587A9DF8073003BB0123CD
:100F70000DF106023D21A0470446B0B99DF80630A8
:100F8000286823F00F0306F00F061E438DF8066055
:100F9000C468407A01230DF106023D21A0472B6869
:100FA00004465B694FF416709847204602B070BD46
:100FB00001230DF106023D21A047044680B99DF8AA
:100FC0000630012223F00F030DF106013D208DF8BC
:100FD0000630FFF7D1FD2B6804465B691420984763
:100FE000002EE2D0286801230469407A0DF1060240
:100FF0003D21C0E76FF07E04D7E74FF0FF34D4E720
:10100000BC0D002073B5224E00238DF806308DF8FC
:10101000073033680546002B37D00DF10700FFF786
:1010200065FF58B14FF0FF349DF8070018B1FFF786
:1010300087FF204444B2204602B070BD9DF80730BF
:10104000F3B9306801230469407A0DF106023B21AF
:10105000A04704460028E7D19DF806303068AD006F
:1010600023F0040305F004051D43C4688DF8065001
:10107000407A01230DF106023B21A0470446D3E745
:10108000FFF75EFF0028CDD1DBE76FF07E04D2E7EB
:10109000BC0D002073B5224E00238DF806308DF86C
:1010A000073033680546002B36D00DF10700FFF7F7
:1010B0001DFF58B14FF0FF349DF8070018B1FFF73E
:1010C0003FFF204444B2204602B070BD9DF8073077
:1010D000EBB9306801230469407A0DF106023E2124
:1010E000A04704460028E7D19DF8063005F003002C
:1010F00023F0030318438DF8060030680123C46809
:10110000407A0DF106023E21A0470446D4E7FFF7DE
:1011100017FF0028CED1DCE76FF07E04D3E700BFD5
:10112000BC0D00207047704710B54FF4887104461D
:1011300006F00AFC204610BD0B6803604B68436054
:101140008B688360704710B4D0E901320168541095
:1011500001EB6200D20748BF0A595DF8044B48BF53
:10116000D358184737B5044672B6FF25E06904F036
:10117000FDFBA8B3D4F82431D4F828110133B3FB14
:10118000F5F2C2EB02229B1A8B4229D0E069036878
:1011900001225B690DF107019847D4F82431D4F896
:1011A00028110133B3FBF5F2C2EB02229B1A8B42EA
:1011B000DCD0D4F824319DF80720234483F8242080
:1011C000D4F824310133B3FBF5F2C2EB02229B1AAF
:1011D000C4F82431D4F82C310133C4F82C31C5E7DC
:1011E00062B603B030BD0000F7B50546382006F002
:1011F00095FB00F118030361D5E904630446F71871
:101200001EB917B114480AF097FB0F2B019308D9A8
:10121000002201A904F110000AF0BEFB019B20612D
:10122000A3613A46314620690AF0E2FB019B22693C
:1012300063610021D1546B6B63632BB15B6805F173
:10124000280104F1280098472B78237020460023BA
:10125000C4E9023303B0F0BDD45D0108F8B505461A
:101260000E46FFF7C1FF46600446E86818B1214604
:10127000FFF7F4FFE060AE68274676B13046FFF72F
:10128000B3FFB86047600546F06818B12946FFF71C
:10129000E5FFE860B6682F46EFE72046F8BD00009E
:1012A0002DE9F047D0F8282104460132D0F8240176
:1012B000FF23B2FBF3F1C1EB0121521A8242ADF5DB
:1012C000027D2AD0D4F82821D4F824010132B2FBBF
:1012D000F3F1C1EB0121521A824222D0D4F8282125
:1012E0000132B2FBF3F3C3EB0323D31AC4F8283162
:1012F000D4F82831234493F82420D4F82C31232A1D
:1013000003F1FF335FFA82F8C4F82C310BD184F873
:10131000408204F24123C4F840330DF5027DBDE85C
:10132000F0874FF00008D4F8403304F55072934230
:10133000F3D0B8F10A0F68D113F8032C3B2A64D11B
:1013400013F8022C3B2A60D113F8013C0D2B5CD121
:1013500004F5107A314912AB02AA50460CF0ECFFAA
:10136000022850D122AF3A4602A942A80AF09CFBBB
:1013700004F55279D4F84C634D4666B106F110007D
:1013800042A90AF049FBD6E902320028AABF354635
:1013900016461E46F1E7A94508D005F1100142A8FE
:1013A0000AF03AFB35EA200528BF4D4642A80AF06C
:1013B00017FB4D4527D000217C2223A839600CF073
:1013C000D7FE6B6B2BB9164916484FF4FD7205F02A
:1013D00035FD1B683A4612A905F1280098473B786D
:1013E0008BB1114A009702AB4FF4807142A805F00F
:1013F00007FCE56942A80DF0E3F92B6802461B697A
:1014000042A928469847C4F840A3D4F8403383F84B
:101410000080D4F8403301337DE700BFFE5D010852
:10142000665E0108715E01087D5E0108C3680BB14C
:101430009B681847704738B504468CB1E068FFF7E1
:10144000FAFF04F12800A568FFF7F0FF04F110008F
:101450000AF0C6FA2046382106F076FA2C46ECE768
:1014600038BD000010B5064B03600446D0F84C03AD
:10147000FFF7E1FF204602F039F9204610BD00BF1A
:10148000AC5E010810B50446FFF7ECFF20464FF4B0
:10149000587106F059FA204610BD00002DE9FF41B1
:1014A00004461646002300220D46DFF8CC8002F0E9
:1014B0000FF92E4B2360E561FF2200250021FE2756
:1014C000C4F8208004F124000CF052FEC4F824512A
:1014D000FF22C4F828712946C4F82C51C4F8308181
:1014E00004F59A700CF044FE04F51073C4F83452FD
:1014F0002946C4F838724FF48072C4F83C5218463A
:101500000CF036FE04F55271C4E9D351C4F840031F
:10151000B06884F84853C4E9D515A0B1FFF79EFE22
:1015200003461A469B68002BFBD1C4F850230346A0
:101530001A46DB68002BFBD17369C4F85423C4F846
:101540005833C4F84C030A4BE06903930022094B5B
:10155000019369460292009404F02AFA6846FFF764
:1015600065FF204604B0BDE8F08100BFAC5E010815
:10157000985E010865110008905E01084FF4FA704A
:1015800070470000004870470CFEFFFF0448B1F5AB
:10159000FA7FA8BF4FF4FA718842B8BF0846704777
:1015A0000CFEFFFF818D07EE901AF8EE677A083087
:1015B00017EE901A04F0CEB82DE9F04105461E460C
:1015C000002383801B4B45F8083B044617462846FA
:1015D00004F01EF9C4E90C76174E40F2D3534FF0D5
:1015E0001408A385314684F82E80642204F1380063
:1015F0000CF0A8FC6422B11804F19C000CF0A2FCD1
:1016000006F1C801642204F580700CF09BFC642292
:1016100006F5967104F5B2700CF094FC414628462C
:1016200004F0A6F82846A18D04F0BEF82046BDE8D7
:10163000F08100BF54600108BC5E010810B5044B86
:10164000044640F8083B04F001F9204610BD00BFF5
:10165000546001083348F0B5CA1700240546D0E9A4
:101660000076B94272EB0606234600F1080004F149
:10167000010404DBD0E900768F42964107DA0A2C98
:10168000EDD16FF40C739942ACBF0923002305EB35
:10169000C30455F833006668091A62EB0606A1FB1D
:1016A00001C501FB06F205EB42051F4A01FB05F4EB
:1016B0004FEA431E02EB4313A1FB0C070CFB06444D
:1016C00027445C6852F80E20444307FB0244A2FB07
:1016D00000021444D3E902720CFB02F205FB07225C
:1016E000A7FB0C75C0191544D3E9047201FB02F283
:1016F00006FB0722A7FB01711144D3E9062344EB43
:101700000505C01941EB0501801841EB03010029D3
:1017100003DA064BC01841F10001000D40EA013028
:10172000F0BD00BF68600108C0600108FFFF0F0046
:1017300010B5044649B9838D8380B4F9041004F1CF
:101740000800BDE8104004F02FB8FFF783FFA08029
:10175000F3E7CB296FF0B800A8BFCB218842B8BF10
:1017600008467047CB2070476FF0B8007047000004
:10177000F8B505461E46002383801B4B45F8083B01
:1017800004462846174604F043F840F2DC53E3626F
:10179000142384F83030154B93E80700C4E90D7624
:1017A00004F13C0686E8070003F10C0207CA04F1C5
:1017B000480686E8070003F1180207CA243304F13B
:1017C000540686E8070093E8070004F1600686E8FF
:1017D000070042F2107006F06DF92846E16A03F046
:1017E000E3FF2046F8BD00BF38620108006201082F
:1017F00010B5044B044640F8083B04F027F8204697
:1018000010BD00BF386201083248F0B5CB17002484
:101810000546D0E90076B94273EB0606224600F190
:10182000080004F1010404DBD0E900768F429E41F8
:1018300006DA082CEDD111F1A40FCCBF072200224B
:1018400005EBC20455F832006568234F091A63EBB3
:101850000505A1FB01C401FB05F304EB430401FBF7
:1018600004F34FEA421E07EB4212A1FB0C060CFBED
:1018700005331E44536857F80E70434306FB073385
:10188000A7FB00071F44D2E902630CFB03F304FB30
:101890000633A6FB0C6480191C44D2E9046301FBE7
:1018A00003F305FB0633A6FB01611944D2E90632B6
:1018B00047EB0407801941EB0701C01841EB020117
:1018C000002903DA054BC01841F10001000D40EA80
:1018D0000130F0BD4862010890620108FFFF0F006F
:1018E00010B50446FFF790FF01B2A18004F1080093
:1018F000BDE8104003F058BF10B5034B0360044629
:1019000004F0A0F8204610BD406B0108A0F1E400EF
:10191000F2E700BF70B4D0E901340568661005EB4A
:101920006400E40744BFAC59E35870BC184770B476
:10193000D0E901340568661005EB6400E40744BF94
:10194000AC59E35870BC184770B4D0E9013405684D
:10195000661005EB6400E40744BFAC59E35870BC63
:10196000184770B4D0E901340568661005EB6400CF
:10197000E40744BFAC59E35870BC184770B4D0E9D1
:1019800001340568661005EB6400E40744BFAC59F8
:10199000E35870BC184770B4D0E90134056866108C
:1019A00005EB6400E40744BFAC59E35870BC18472A
:1019B00070B4D0E901340568661005EB6400E407F3
:1019C00044BFAC59E35870BC1847000000F108034D
:1019D00073B5044603600D46D9B108460CF0F0FE1D
:1019E0000F2805EB0006019007D9002201A9204627
:1019F00009F0D2FF019B2060A3603246294620688F
:101A00000AF000F8019B226863600021D15402B003
:101A100070BD014809F090FFD45D0108CB68C36038
:101A20000BB15B681847704738B504468CB1E06865
:101A3000FFF7FAFF04F12800A568FFF7F7FC04F1AF
:101A4000100009F0CDFF2046382105F07DFF2C461F
:101A5000ECE738BD10B504468068FFF7E5FF204687
:101A600010BD000070B5144C144D154E15490422DC
:101A7000204604F0E3F929461322204604F0DEF95B
:101A800031461322204604F0D9F90F49132220468B
:101A900004F0D4F931461322204604F0CFF9294648
:101AA0001322204604F0CAF908490222204604F015
:101AB000C5F9002070BD00BF6811002095630108C2
:101AC000A963010890630108BD63010892630108DE
:101AD00038B5FFF7C7FF60B9064D074C2B7823B127
:101AE000C82005F0E7FF07F0DDFB204601F08CFE83
:101AF000F4E738BD7C0D0020E817002038B5044617
:101B00001546FFF763FF04F118002946FFF786FF2B
:101B1000204638BDF8B50546064655F8044B8CB945
:101B20000D4F386818B14FF0FF3102F065FD346891
:101B300024B9284605F07EFF2C463560386808B188
:101B400002F072FDAC4204D0044905488B2205F036
:101B500075F92046F8BD00BFD82F00202B6401087E
:101B60003A64010808B50348FFF7D4FFBDE8084010
:101B700005F068BFFC2F002008B50348FFF7CAFF37
:101B8000BDE8084005F07CBFFC2F002038B50546B5
:101B9000064B45F8043B0446FFF7E4FF284604F0F3
:101BA0009BF92046FFF7E8FF204638BDF4640108A2
:101BB00010B50446FFF7EAFF2046542105F0C4FEA5
:101BC000204610BD10B586B00446684680E80C007B
:101BD00006A800E90C00039110E90700034BE3603D
:101BE00084E80700204606B010BD00BF4C65010820
:101BF00008B509F011FFC00F08BD2DE9F0418D684F
:101C000004460F4690460E1D012065B105F11001F6
:101C10004046FFF7EDFFD5E9023200282E460CBF03
:101C200015461D46F1E7A0B1FB68B34204D125601B
:101C300066602046BDE8F081304609F093FD054618
:101C4000414605F11000FFF7D3FF20B100232360C8
:101C5000EEE73546F4E7C4E90050EAE700F108038F
:101C6000F7B50360D1E9006304460D46F7181EB9C5
:101C700017B1104809F060FE0F2B019307D900221D
:101C800001A9204609F088FE019B2060A36020681E
:101C90003A46314609F0ACFE2046019B50F8182B1D
:101CA00063600021D15405F11801FFF7B7FE20460B
:101CB00003B0F0BDD45D01082DE9F04105463820A0
:101CC0000E4605F02BFE05F1100104461030FFF71B
:101CD000C5FF2B78E86823700023C4E902336660EF
:101CE00018B12146FFF7E8FFE060AE6827464FF0E5
:101CF0000008BEB1382005F011FE06F110010546BE
:101D00001030FFF7ABFF33782B70C5E90288BD6058
:101D10006F60F06818B12946FFF7CEFFE860B6683B
:101D20002F46E6E72046BDE8F08100002DE9F04FA0
:101D3000C14EDFF8CC93DFF8CC83DFF8CCB3DFF80B
:101D4000CCA3ADF5437D4FF4E133304603220221AD
:101D500004F0B2F83046B94AB94905F0BDFB304647
:101D6000B8492522002740AC04F068F8B64B1C2285
:101D7000394620461F600CF0FBF90521204604F08F
:101D800013F9A446BCE80F006D460FC59CE8070098
:101D9000002385E807004FF4FA72AC48AC4D00F020
:101DA0009FFEAC49A54AA94805F096FB002341F2E5
:101DB0008832484600F074FDA04AA749484605F01D
:101DC0008BFB0421A54A204603F03AFB0023CDE912
:101DD00000464FF47A72404601F07EF92046FFF744
:101DE000D5FE964A9E49404605F076FB21219B4A46
:101DF000204603F025FBCDE90046002340F6B8322B
:101E0000984801F0D1FB2046FFF7C0FE96498B4A67
:101E1000944805F061FB192318220096CDE90132A0
:101E200092480023962201F0BDF89149834A8F48D9
:101E300005F052FB0096002396228E4800F0F0FD3C
:101E40007E4A8D498B4805F047FB4FF4FA738B4A65
:101E500013215846FFF7B0FB784A8949584605F0E8
:101E60003BFBFA236FF0F90215215046FFF780FC87
:101E70008449724A504605F02FFB0096CDE901AB2C
:101E80000023DFF88CB201222846FEF76BFB7E4967
:101E90006A4A284605F020FB0096002341F288326A
:101EA000584601F01DFB654A7849584605F014FB79
:101EB0006C4B6E4A009349464346CDE9015B74483A
:101EC000FEF7ECF973495D4A714805F005FB654B77
:101ED0006F4A0092CDE90163CDE9038900236422B2
:101EE0006D4801F095FA554A6C496B4805F0F4FAD3
:101EF0000F216B48FEF7ACF9504A6A49684805F073
:101F0000EBFA694BC4E90037294694E80C003CA879
:101F1000FFF758FE3CA90A4620466449FFF7EEFD4C
:101F2000634B0DF1D009C9E90037294699E80C0047
:101F300038A8FFF747FE38A90A464AA85D49FFF7C7
:101F4000DDFD5D4B0DF1C00ACAE9003729469AE86C
:101F50000C004846FFF736FE58494A4654A8FFF79A
:101F6000CDFD574BCDE92C372CA991E80C005046FC
:101F70002946FFF727FE53495EA8FFF727FD514684
:101F800064A8FFF74BFD504BCDE9283728A991E80D
:101F90000C002CA82946FFF715FE4C4968A8FFF74E
:101FA00015FD2CA96EA8FFF739FD494BCDE9243763
:101FB00024A991E80C0028A82946FFF703FE45490B
:101FC00072A8FFF703FD28A978A8FFF727FD424B69
:101FD00020AEC6E90037294696E80C0024A8FFF792
:101FE000F1FD24A90A467CA83C493D4DFFF786FD3A
:101FF0003C4BF3601B4B33603B4B3C49C6E901371C
:1020000086A8FFF7E3FC31468CA8FFF707FD384BA5
:102010001F93384B3849CDF8708090A8CDE91D3713
:10202000FFF7D4FC1CA996A8FFF7F8FC334B1B93D1
:102030000E4B18936EE000BF68110020980100203D
:10204000F91800085D640108D80D0020900F0020E9
:1020500028110020B92A0008812300080000C07F51
:10206000513200083818002091360008C80F0020AF
:10207000112B0008280E0020692900080CFEFFFF24
:102080003D160008F11700085D04000841340008FF
:10209000A8100020B7020008C810002081320008F4
:1020A000880F0020530200089D0500088464010881
:1020B000F10500088A6401084506000890640108DB
:1020C00085060008966401082D0700089A64010837
:1020D000E1070008A364010825080008AF640108AF
:1020E000C00D002040650108E1350008B564010815
:1020F0003465010819310008BD640108286501082C
:10210000E00D002028100020B015002078170020D6
:10211000001100207A4B7B499AA8CDE91937FFF7C7
:1021200055FC18A9A0A8FFF779FC774B1793774BBC
:10213000774A78491492A4A8CDE91537FFF746FCF1
:1021400014A9AAA8FFF76AFC734B1393734B10935F
:10215000734B7449AEA8CDE91137FFF737FC10A9CE
:10216000B4A8FFF75BFC704B0F93704B7049CDF830
:1021700030B0B8A8CDE90D37FFF728FC0CA9BEA8F0
:10218000FFF74CFC2B1DC5E903330D232F71AF6006
:102190006F61089327466B694BB1D5F810B039468B
:1021A0000BF11000FFF724FD002840F0A3803A4611
:1021B00029460AA8FFF721FDDDE90A3BBBF1000F24
:1021C0001DD0002B40F093805A4B9B4500F08F8030
:1021D0000BF110013846FFF70BFD8046382005F063
:1021E0009DFB394609901030FFF738FD514B099996
:1021F0005A46404609F0D0FA6B6901336B61089B7F
:10220000013B07F128070893C5D1C2AD283D05F170
:102210001800FFF70BF9284609F0E2FBA542F5D1BB
:102220000CA8FFF703F910A8FFF700F914A8FFF7AF
:10223000FDF818A8FFF7FAF81CA8FFF7F7F83046E2
:10224000FFF7F4F824A8FFF7F1F828A8FFF7EEF855
:102250002CA8FFF7EBF85046FFF7E8F84846FFF7E1
:10226000E5F8354D38A8FFF7E1F83CA8FFF7DEF8B0
:102270003249334A284605F02FF9A868002341A9BE
:10228000C4E903112371A360636180B1FFF714FDFA
:1022900003461A469B68002BFBD1E26003461A46B0
:1022A000DB68002BFBD16B6922616361A060224671
:1022B00024492548FFF7F2F8A068FFF7B5FB204A4C
:1022C0002249214805F008F9214B22492248D3E947
:1022D0000023CDE900230A2201F06AFA184A1F49B7
:1022E0001D480DF5437DBDE8F04F05F0F5B84FF002
:1022F000010873E7BBF1000F7FF466AF7FE700BF13
:10230000092F0008C56401081C650108B90200080E
:10231000A8100020C964010810650108880F00207A
:1023200055020008CC640108046501080135000865
:10233000DC640108C40D0020C00D0020551A0008FF
:102340009801002068110020501200206514000838
:1023500058650108A0010020E81700206537000833
:1023600010B50446FFF7C8FA2046E82105F0ECFA5C
:10237000204610BDA0F1E400F2E7FFF7D7BC000053
:1023800010B5054B044640F81C3B03F05FFA2046AD
:1023900001F0ACF9204610BD6865010810B504468F
:1023A000FFF7EEFF2046482105F0CEFA204610BD8B
:1023B000437E37B50446002B6ED090F84430012B95
:1023C00040F08F8190F840301C2B00F27F81DFE8D5
:1023D00013F01D0042006500EC00650083008C00D6
:1023E000A70028010001A700BA00C200D4006500C0
:1023F000EC00D400DC00E400EC0000011401140146
:102400006500280128013C014F01620190F842302B
:1024100093B904F11C004FF4FD61019003F0B6F98B
:102420004FF47D71019803F0BFF9012384F8423025
:10243000002384F841302FE090F84130092B40F21E
:10244000218200211C3003F0AFF9002384F84130D1
:1024500084F842301BE090F8422090F84130002A86
:1024600040F010820B2B40F20D8204F11C004FF45F
:102470007D71019003F08AF94FF4FD71019803F02A
:1024800093F9012384F84230002384F8413094F812
:102490004030013384F8403003B030BD90F8422022
:1024A00090F841305AB1092B40F2EC81002104F13F
:1024B0001C0003F079F9002384F84230E5E70B2B88
:1024C00040F2E08104F11C0040F24751019003F01A
:1024D0005DF940F2A321D1E790F8422090F8413015
:1024E0000AB10B2BE0E7132B67E090F8425090F80D
:1024F00041300DB10E2BD7E7182B40F2C3811C30B1
:102500004FF4EF61019003F041F94FF46F710198BE
:1025100003F04AF9012384F8423084F84150B6E7C9
:1025200090F8422090F84130002ABCD10B2B40F2A9
:10253000A98104F11C0040F2BB31019003F026F99F
:1025400040F2DD119AE790F8422090F84130002ADD
:10255000C7D1132B6DE090F8425090F84130002D18
:10256000C8D1182B40F28E811C304FF4FD610190D0
:1025700003F00CF94FF47D71C9E790F8422090F810
:102580004130002A3FF46EAF8DE790F8422090F87A
:102590004130002AA5D1132B92E790F8422090F801
:1025A0004130002AA6D1182B07E090F8422090F87D
:1025B0004130002A7FF477AF0B2B40F2638104F1A6
:1025C0001C0040F24761019003F0E0F840F2233133
:1025D00054E790F8422090F84130002A7FF463AF2E
:1025E0000B2B40F24F8104F11C0040F2ED510190A1
:1025F00003F0CCF840F2F62140E790F8422090F842
:102600004130002A7FF44FAF0B2B40F23B8104F1A5
:102610001C004FF4B361019003F0B8F84FF433712C
:102620002CE790F8422090F84130002A7FF43BAF2D
:102630000B2B40F2278104F11C0040F2FB4101907A
:1026400003F0A4F840F27D2118E790F8425090F88A
:102650004130002D7FF427AF0B2B40F213811C304B
:1026600040F2B341019003F091F840F259214EE756
:1026700090F8425090F84130002D7FF414AF0B2BAE
:1026800040F200811C304FF48E61019003F07EF81F
:102690004FF40E713BE790F8425090F84130002D16
:1026A0007FF401AF0B2B40F2ED801C304FF47D71B5
:1026B000019003F06BF801984FF4FD7103F074F88A
:1026C0000123A4F8405084F84230E5E60021A0F848
:1026D000401080F842101C3003B0BDE8304003F0D9
:1026E00063B8022B6DD190F84030042B3FF6D4AE86
:1026F000DFE803F003122130490094F84230002B48
:1027000040F0B88004F11C0040F6E861019003F04D
:102710003DF840F2747185E694F84230002B40F0A9
:10272000A98004F11C0040F64951019003F02EF8F5
:1027300040F2A46176E694F84230002B40F09A8093
:1027400004F11C0040F6D631019003F01FF840F26E
:10275000EB5167E690F842304BB904F11C0040F6AB
:10276000F711019003F012F840F2FB415AE694F899
:102770004130092B40F28680002104F11C0003F057
:1027800013F8002364E604F11C00022100250190E7
:1027900002F0FCFF0198012103F006F80198A4F86B
:1027A000405084F84250294602F0FEFF84F844501D
:1027B00041F28831204600F09AFF41F2883363836A
:1027C0006AE6032B45D190F84030062B3FF664AE05
:1027D00001A252F823F000BF37270008192700088C
:1027E000FB260008F52700081F28000839280008E4
:1027F0008727000890F84250002DB8D11C304FF4C4
:102800007D61019002F0C2FF4FF4FD61019802F07A
:10281000CBFF012384F8423084F841503CE690F825
:102820004250002DA3D11C3041F2C111019002F0A1
:10283000ADFF4FF40E61E9E790F84250002D96D1BC
:102840001C3041F2EE31019002F0A0FF40F6F7118A
:10285000DCE7042B7FF420AE90F8401001290CD067
:10286000022911D000297FF417AE90F84230002BD6
:102870003FF473AF94F8413015E690F84230002BE6
:10288000F8D1C6E50133D4E51C30019002F07EFF9B
:102890000198012102F088FF002384F8443087E783
:1028A00070B504461646002500F012FF064B236063
:1028B00065766683172104F11C0002F0A9FF2564E8
:1028C00084F84450204670BD68650108F0B585B0B5
:1028D000044615460846002721498DF80F700DF172
:1028E0000F020BF029FDC6B2012E32D19DF80F2048
:1028F0001B49D31B18BF01236376284604F06FF9E8
:102900009DF80F3084F844309BB904F11C0002217B
:10291000019002F03BFF0198314602F045FF41F281
:102920008831204600F0E3FE41F28833638305B02E
:10293000F0BD013B032BFAD8204627640A2100F0A2
:10294000D6FE0A236383394604F11C0002F02CFFF3
:10295000EDE70449284605B0BDE8F0400BF0CEBED7
:10296000995D0108205D010810B5054B044640F84B
:102970001C3BFDF7A4FF204600F0B8FE204610BD2A
:10298000A065010810B50446FFF7EEFF20464FF49E
:10299000B07104F0D9FF204610BD00002DE9F041D0
:1029A00090F85C31A0B00446ABB300F5A2752846A0
:1029B000FEF729F878B32846FEF75DF8059028461B
:1029C000FEF74AF806462846FEF748F804F11C08C8
:1029D00005464046FDF7C4FF002207460DF11F01E2
:1029E00040468DF81F20FDF7CBFF059B08B98DF8F9
:1029F0001F009DF81F206021CDE90272CDE900651E
:102A0000064A08A804F0FCF80246D4F85801016808
:102A10000C6908A9A04720B0BDE8F08178650108DD
:102A20002DE9F3410446254617461E4600F050FEA8
:102A3000194B45F81C3B0A2300930822174B292108
:102A40002846FDF722FF012F76F1000304F5A27856
:102A50001EDB3846314611F0DDFF9FED117A07EE9F
:102A6000900AC7EE277A2946404617EE902AFDF7CE
:102A7000C2FF089BC4F85831002384F85C31284613
:102A8000FDF736FF84F85C01204602B0BDE8F08116
:102A9000F7EE007AE7E700BFA0650108A086010015
:102AA00000007A44036A1A68C3691A4216BF826A30
:102AB000426A1B041360704710B5034B0360044661
:102AC00000F014FE204610BDB865010810B504469C
:102AD000FFF7F2FF2046382104F036FF204610BDF4
:102AE00070B50646344600F0F3FD04AD064B44F8DD
:102AF0001C3B0FCD0FC495E8070084E80700736AFC
:102B0000F2691A60304670BDB865010804F0D2BFA2
:102B100038B5094B094D036004460220FEF7BAFAA6
:102B2000286820B10368DB68984700232B602046A3
:102B300000F0DCFD204638BD50660108B0180020CA
:102B400010B50446FFF7E4FF2046602104F0FCFEC8
:102B5000204610BD30B585B0054608468DF8080002
:102B600011460DF109001A461C460BF0EBF9002244
:102B700007480092631CDBB202AA2946006802F0F3
:102B8000E3FC003818BF0120404205B030BD00BF53
:102B9000B01800202DE9F04186B015460027DFF877
:102BA00054808DF80F101A46CDE9047704468DF84D
:102BB0001010284604A91E460BF0C4F9D8F80000EE
:102BC000009701230DF10F02214602F0BDFC70B900
:102BD00000903346D8F800002A46214602F0D3FC84
:102BE000C01B18BF0120404206B0BDE8F0814FF085
:102BF000FF30F9E7B01800202DE9F04F90F834309D
:102C0000D1B00446002B00F05E8190F85930002BC3
:102C100000F0598100230DF16600ADF86630ADF883
:102C20006830ADF86A30ADF86C30ADF86E30ADF8A4
:102C30007030ADF87230ADF87430ADF87630FEF724
:102C400047F8002840F03F811AA8FEF78DF80028C9
:102C500040F039810DF16A00FEF760F8002840F07D
:102C600032811BA8BDF966A0BDF96890BDF96A5014
:102C7000FEF7A0F8002840F026810DF16E00FEF767
:102C8000BFF8002840F01F811CA8FEF7DFF883463C
:102C9000002840F01881BDF96C60BDF96E70BDF977
:102CA000708006EB860607EB870708EB88080DF1B6
:102CB000720076007F004FEA4808FDF797FF08B1E1
:102CC000ADF872B01DA8FDF7B7FF10B10023ADF845
:102CD00074300DF17600FDF7D5FF10B10023ADF88B
:102CE0007630BDF872E0BDF874B04FF47A731EFB15
:102CF00003FE4FF47A731BFB03FBBDF87630BEF185
:102D0000000F4FF47A7213FB02F3B8BF0EF10F0EEF
:102D1000BBF1000FB8BF0BF10F0B06F16E02002BD9
:102D2000B8BF0F33DC2A4EF30F1E4BF30F1B43F3D8
:102D30000F1300F2CB8007F16E02DC2A00F2C6808E
:102D400094F848200132D2B20A2A84F8482005D1EA
:102D50000022C4E90F22626484F848204FF47A709C
:102D60001AFB00FC4FF47A7219FB00F0BCF1000F63
:102D70004FF47A7115FB01F193FBF2F9B8BF0CF136
:102D80000F0C02FB193300281BB2B8BF0F3000290B
:102D9000B8BF0F31002BB8BF5B429BB2656C169376
:102DA0000FFA89F315939BFBF2F302FB13BB1BB2E3
:102DB00013930FFA8BFB9EFBF2F302FB13EEBBF1B6
:102DC000000F0FFA8EFEB8BFCBF1000BBEF1000F63
:102DD000B8BFCEF1000E1FFA8EFECDF848E01BB250
:102DE00098FBF2FE02FB1E88119388EAE873A3EBBE
:102DF000E873CDE90FE397FBF2F302FB1377002FA3
:102E0000B8BF7F42CDE90D3796FBF2F302FB1366A4
:102E1000002EB8BF7642CDE90B3695FBF2F302FBEC
:102E20001355002DB8BF6D42CDE909351FFA8BFB54
:102E3000CDF850B0236C93FBF2F502FB1533002B59
:102E4000B8BF5B42CDE90753E36B93FBF2F502FB9E
:102E50001533002B4CF30F1CB8BF5B42CDE9055373
:102E60009CFBF2F502FB15C31BB2002BB8BF5B4203
:102E700040F30F109BB241F30F11049390FBF2F358
:102E800002FB130000B291FBF2FA02FB1A120028B7
:102E900012B2B8BF4042002AB8BF524280B21BB241
:102EA00092B22DB2029001930092C821154A039567
:102EB0000FFA8AF31EA803F0A3FE0246A06B016876
:102EC0000C691EA9A04751B0BDE8F08FB4F85010AE
:102ED0004FF47A7006FB01F292FBF0FCE26B624465
:102EE000E26307FB01F292FBF0FC226C6244226475
:102EF000626C08FB01F191FBF0F111446164002266
:102F00002AE700BFC865010837B500230546144607
:102F100008460DF1070211498DF807300BF00CFA45
:102F2000C0B2012817D10E4B1B780F2B01D01E2BDE
:102F30000FD19DF807300B4A0B49003B18BF012306
:102F400085F834301370204603B0BDE830400BF0F4
:102F5000D5BB0649F7E70649F5E700BF995D0108CB
:102F6000B90D00207E0D0020335D01083166010897
:102F7000205D0108064B8362064BC3624900064B85
:102F8000036380F825104FF4967004F093BD00BFE2
:102F9000552B0008952B00080D2B00082921FFF761
:102FA000E9BF000073B504461D46164600F090FBCD
:102FB000374B2360069B0021962EC4E90E3175F134
:102FC0000003C4E91011C4E9146584F8341084F8CE
:102FD000481084F8591007D29621204600F087FB4C
:102FE00096220023C4E914234FF4847004F096FC65
:102FF000BDF92020BDF91C10054602F06FFB254BE2
:1030000025491D60284602F08CFA4FF42F7004F019
:1030100051FD04F11C0520462921FFF7ABFF28468E
:10302000FDF72CFDD0B120462821FFF7A3FF28464D
:10303000FDF724FD90B1C82004F03CFD2046292175
:10304000FFF798FF2846FDF719FD38B120462821E3
:10305000FFF790FF2846FDF711FDA8B9012384F87A
:1030600059300020FEF716F80C20FDF769FF002507
:103070000DF107008DF80750FDF70EFF9DF80730A2
:1030800013B12846FDF7BEFF204602B070BD00BF59
:1030900050660108B0180020A086010010B590F815
:1030A000703086B0044683B1094B0A4A1B68182168
:1030B000684603F0A5FD646F68460BF081FB23684A
:1030C00002461B6969462046984706B010BD00BFFE
:1030D000840D002064660108F8B50446069F164674
:1030E0001D4600F0F5FA0A4B23600A4BE3614C22BF
:1030F000391D04F120000AF025FF3B6DE366002333
:1031000084F87030079BE567C4E91D362046F8BD9A
:1031100080660108F464010837B5002305461446AB
:1031200008460DF1070211498DF807300BF004F93C
:10313000C0B2012817D10E4B1B780F2B01D01E2BCC
:103140000FD19DF807300B4A0B49003B18BF0123F4
:1031500085F870301370204603B0BDE830400BF0A6
:10316000CDBA0649F7E70649F5E700BF995D0108C2
:10317000B90D00207F0D0020335D01083166010884
:10318000205D0108F8B51C300C4602F047F94FF4F9
:103190007A75244B6843984227DD2349234AC61792
:1031A000401866F10006A0FB0501002305FB06118F
:1031B00011F06EFC1E4B1F4AC3E900011E4B16782E
:1031C0001978B1FBF6F506FB15151C4AEDB2013175
:1031D000197022F8150000210B46CDB2AE4207D976
:1031E00032F8025B01312B44F7E700200146E1E7AA
:1031F000134AB3FBF6F31578124A1168C5F57A77CE
:103200006B4301FB07334FF47A71B3FBF1F31360A7
:103210000D4A136818440D4B106019682144196059
:10322000F8BD00BF9CFF630064009CFFF8FF07002F
:10323000B00D00209D010020B80D0020880D002059
:103240009C010020840D0020A40D0020A80D00206A
:1032500010B5054B044640F81C3BFEF797FC204692
:1032600000F044FA204610BD8066010810B50446FF
:10327000FFF7EEFF2046802104F066FB204610BDDC
:1032800010B5034B0360044600F030FA204610BD31
:10329000C866010810B50446FFF7F2FF2046382142
:1032A00004F052FB204610BD70B504468AB0406A57
:1032B0004A4D00F0CBF9218EA06AFFF763FF484B1F
:1032C00048481B8841F27072002B08BF1346464ADB
:1032D000118841F658325A434B4392FBF0F242F2C6
:1032E000D000B3FBF0F341481A444FF461664FF449
:1032F0007A7300885A43B2FBF0F27243B2FBF3F2E6
:103300003B4B1A60A1F5DA53193B0020C72B2870FC
:1033100037D894F8323084F833000133DBB23548C3
:1033200084F83230FA2B017827D1334B1B6823B352
:1033300009BBB2FBF6F30121017006FB13223C200E
:10334000B2FBF0F100FB1122CDE90012DBB22B4AF7
:10335000162104A803F054FC256A04A80BF030FAE7
:103360002B68024604A91B69284698472449E06A4D
:1033700004AAFFF7ABFA0AB070BD81F00101017039
:10338000F9E7013989B241F657339942F3D894F8F5
:1033900033300133DBB20F2B84F83330EBD11949D2
:1033A00004A80BF0ABF904A80BF00AFA266A3368FC
:1033B00002463046144E1B6904A99847337823B15E
:1033C0001249E06903AAFCF777FFC82004F072FBFA
:1033D00001232B7000233370CDE700BF7C0D00204C
:1033E0009E0D002030DFFFFFA00D0020840D002087
:1033F000AC0D0020810D0020A80D00209066010872
:10340000335D0108AC660108B90D0020487301085E
:1034100038B50446154600F05BF9084B2360049B61
:10342000E361059B2362069B6362079BA362089B83
:10343000E362002325866386204638BDC8660108FE
:1034400010B5034B0360044600F050F9204610BD50
:103450001067010810B50446FFF7F2FF2046282147
:1034600004F072FA204610BD30B590F820309DB0BF
:103470000446002B30D008A803F02EFC04A804F06A
:1034800065FA089A0B9942F210735A43B2FBF1F2B3
:103490000599642092B25943069BB1FBF3F189B2BE
:1034A000B2FBF0F3B1FBF0F500FB132200FB1511AA
:1034B00089B292B2CDE9015100923221074A0FA898
:1034C00003F09EFBE4690FA80BF07AF9236802462B
:1034D0001B690FA9204698471DB030BDD86601086A
:1034E00010B5044600F0F4F8044B2360029BE3613E
:1034F000002384F82030204610BD00BF106701086B
:1035000037B500230546144608460DF10702114958
:103510008DF807300AF010FFC0B2012817D10E4B0A
:103520001B780F2B01D01E2B0FD19DF807300B4AB3
:103530000B49003B18BF012385F82030137020464B
:1035400003B0BDE830400BF0D9B80649F7E70649AB
:10355000F5E700BF995D0108B90D0020800D00203E
:10356000335D010831660108205D010810B590F84F
:103570007430C0B004468BB1094B0A4A1B884FF423
:103580008071684603F03CFB246F68460BF018F925
:10359000236802461B6969462046984740B010BD23
:1035A000A00D00202067010838B50446049D00F0F6
:1035B0008FF8094B2360094BE3614C22291D04F16C
:1035C00020000AF0BFFC2B6DE366059B23670023F8
:1035D000A4F87430204638BD38670108F464010847
:1035E00037B500230546144608460DF10702114978
:1035F0008DF807300AF0A0FEC0B2012817D10E4B9B
:103600001B780F2B01D01E2B0FD19DF807300B4AD2
:103610000B49003B18BF012385F874301370204616
:1036200003B0BDE830400BF069B80649F7E706493A
:10363000F5E700BF995D0108B90D00207D0D002060
:10364000335D010831660108205D010810B590F86E
:103650007530132B03D8013380F8753010BD1C3042
:1036600001F0DCFE46F6A5239842084C02D2002366
:103670002380F3E74FF47A7141F2C5120023A0FBD7
:10368000010111F005FA2080E8E700BFA00D00203D
:1036900010B5054B044640F81C3BFEF777FA204670
:1036A00000F024F8204610BD3867010810B5044624
:1036B000FFF7EEFF2046782104F046F9204610BDC2
:1036C000027E22B103680022DB6802761847704749
:1036D00010B5C0E9022300220023C0E90423024CF4
:1036E00004600023037610BD506701087047002373
:1036F000C36000220023C0E9042381607047D0E941
:10370000043210B5D0E90241013342F10002A34274
:10371000C0E9043272EB010305DB00230022C0E99B
:1037200004230123037610BD38B504460025227A10
:10373000EBB29A4206D9626852F82300FFF7DFFF26
:103740000135F4E738BD10B4D0E9013201685410F6
:1037500001EB6200D20748BF0A595DF8044B48BF2D
:10376000D358184738B505460A4B45F8103B044670
:10377000284602F089FA084B2361284602F084FAB1
:1037800004F13800FDF752FE284602F003FB204604
:1037900038BD00BF74670108286B010810B50446E6
:1037A000FFF7E0FF2046502104F0CEF8204610BD80
:1037B000F0B5124B027200F1100685B0C0E900317D
:1037C00004463046DDE90A5702F0AAFA0C4B03938F
:1037D0000C4B0193002302934FF47A73A5FB03254E
:1037E00003FB075369463046009402F07AFA6846B4
:1037F000FDF71CFE204605B0F0BD00BF7467010850
:10380000606701082937000838B504460025227A88
:10381000EBB29A4207D9626852F8230003689B68AA
:1038200098470135F3E738BD1EF0040F0CBFEFF3E6
:103830000880EFF30980816911F8021C002932D158
:1038400001B590E80F10E047BDE800508CE8030098
:10385000244B93E80600914208BF70471A6041B9B3
:103860001EF0100F10D1204B186820F001001860D6
:103870000AE02CE9F00F1EF0100F08BF2CED108AA3
:1038800081F822E0C1F838C0906B92F8221061F004
:10389000FF0E1EF0100F08BFB0EC108AB0E8F00F5A
:1038A00080F309887047114A13689942FAD801B524
:1038B00052F821C00FC8E047BDE80050CCF8000026
:1038C000704701B500F012FFBDE80140EFF3098C2D
:1038D000BEE701B500F0CEFEBDE80140EFF3098C74
:1038E000B6E70000DC01002034EF00E04468010886
:1038F00008B5014630B96FF0030000F02AF86FF008
:10390000030008BD132001F091FA30B94FF0FF30E9
:1039100000F01FF84FF0FF30F3E70020F1E7000060
:1039200008B5EFF305832BB9EFF3108313B9EFF369
:10393000118333B16FF0050000F00BF86FF0050054
:1039400008BDDFF808C000DFFAE700BFF138000863
:1039500070477047EFF310832BB9EFF311800038F5
:1039600018BF0120704701207047000008B5094BBF
:103970001A7A022A08D0032A0AD04FF0FF3001F049
:1039800013FD4FF0FF3002E003221A72002008BD41
:103990000120FCE7C801002008B5094B1A7A022A69
:1039A0000CD0032A03D102221A72012008BD4FF065
:1039B000FF3001F0F9FC4FF0FF30F7E70020F5E7AA
:1039C000C801002070B5464C237A012B00F0858099
:1039D00033B14FF0FF3001F0E7FC4FF0FF3070BD26
:1039E000404DD5E90B61EB68E3652B8AA4F85430B0
:1039F0003046AB68236400F033F908B1C4F8806046
:103A0000D5E90561304600F02BF908B9D4F880609B
:103A10006667D5E90761304600F022F908B9D4F8A5
:103A20008060A667D5E90961304600F019F908B948
:103A3000D4F88060E6676E6B3EB1D6E90223316848
:103A4000304600F077F9C4F88460AE6B3EB1D6E939
:103A500002233168304600F06DF9C4F88860EE6BDF
:103A60003EB1D6E902233168304600F063F9C4F86C
:103A70008C602E6C3EB1D6E902233168304600F0EE
:103A800059F9C4F890606E6C3EB1D6E902233168F2
:103A9000304600F04FF9C4F89460AE6C3EB1D6E900
:103AA00002233168304600F045F9C4F89860EE6CA6
:103AB0003EB1D6E902233168304600F03BF9C4F844
:103AC0009C602D6D3DB1D5E902232968284600F0A0
:103AD00031F9C4F8A0500123237200207FE700BF12
:103AE000C8010020D467010870B5254D2B7A012B41
:103AF00007D06FF0060001F057FC4FF0FF3420466E
:103B000070BD01F0D7F910B94FF0FF30F3E71D4A4F
:103B10001D4E1E497068FF2382F8223092F8223031
:103B2000D26863F0FF03DB4314BFB3FA83F32023AF
:103B3000C3F12003C2F30222934298BF531CFE221A
:103B400002FA03F30F4ADBB2D37701F0B9FA044665
:103B50000028D9D101F0ECFA286101F0D1FA0C4823
:103B600000F086FF00F0EAFF3368DB074CBF02235A
:103B7000032383F31488BFF36F8F02232B72BEE7F6
:103B8000C801002000ED00E0D4670108D338000828
:103B9000E4010020704738B504460D46FFF7D8FE13
:103BA00029462046BDE8384001F0C0BB08B5FFF704
:103BB000F1FFEFF3058333B16FF0050001F0F4FB83
:103BC0006FF0050008BDFFF7C5FE0028F4D1DFF84F
:103BD00008C000DFF6E700BFC539000808B5EFF3FD
:103BE000058333B16FF0050001F0DEFB6FF00500D7
:103BF00008BDFFF7AFFE0028F4D1DFF808C000DFF2
:103C0000F6E700BFE93A000808B5EFF3058333B1E2
:103C10006FF0050001F0C8FB6FF0050008BDFFF76D
:103C200099FE0028F4D1DFF808C000DFF6E700BFF6
:103C30006D39000808B5EFF3058333B16FF0050067
:103C400001F0B2FB6FF0050008BDFFF783FE00280E
:103C5000F4D1DFF808C000DFF6E700BF99390008AB
:103C600010B598B140EA010313F007030ED11729EC
:103C70000AD90160083910220C18846042600B5088
:103C800081684A60C3600123184610BD0023FBE72A
:103C9000F0B5034670B369B332F003002AD10F3197
:103CA00021F0070103F10806344636686568301BC9
:103CB00025F00305401B814203D930680028F3D169
:103CC000F0BD5F681D680F445F602B44083B586877
:103CD000874288BF5F6063680A431BB9626004F172
:103CE0000800EDE723F00303E018E650426020608F
:103CF0000830E5E70020E3E710B580B1C1B1A1F1DC
:103D0000080400F108030022A34209D1596821F0F8
:103D100003044168091B41603AB95A60012010BD93
:103D200019681A4621B10B46EEE71B681360F5E7E8
:103D30000846F4E730B5C0B189B1C2B1CBB10024B7
:103D4000C0E9014202FB01F41D190160C360436137
:103D500005611846013904D1A21A9950012108467B
:103D600030BD851805602846F4E70146F7E711469F
:103D7000F5E71946F3E710B50346A8B100F11402C0
:103D800052E8000F10B9BFF32F8F04E0016842E83A
:103D9000001404B1F4E738B1043353E8002F511C88
:103DA00043E8001404B1F8E710BD30B5F0B1C368C2
:103DB0008B421BD803698B4218D900F114031A688F
:103DC0000A60BFF35F8F53E8002F0C689442F6D16E
:103DD00043E8001505B1F2E7043050E8003F5A1EF1
:103DE00040E8002101B1F8E7002030BD6FF003008A
:103DF000FBE7EFF310832BB9EFF31180003818BF06
:103E00000120704701207047D1E9013223B19A6047
:103E10008A681AB153607047C262F9E7036370475A
:103E20002DE9F84F8846074638B131B1B0FA80F332
:103E3000B1FA81F10B441F2B06DC6FF00301002067
:103E400001F0C4FA002470E008F1030626F003062E
:103E50000C3606FB00F9F2B194683CB1A30702D11D
:103E6000D368332B05D86FF00801E8E7D368002B3F
:103E7000F9D1D2E90453D2F800A03DB115F0030BFB
:103E800001D1994554D96FF00901D8E7002BFAD137
:103E90001CB19B460CE092461546274BD3F8A00078
:103EA000D8B1FFF768FF0446A0B14FF0010B35BB56
:103EB000214B0022D86F4946FFF7EAFE0546C0B9FC
:103EC000BBF1000F06D01C4BD3F8A000214658B11F
:103ED000FFF76BFF6FF00401B1E7D3F88000012218
:103EE0003421FFF7D5FEDEE7D3F88000FFF704FFAB
:103EF000F0E74A4600210AF03BF94BF0020BFA23A7
:103F000023700023C4E90983C4E90B33A36032465C
:103F10002B4684F802B0C4F804A0394604F10C0022
:103F2000FFF708FF044B054A1A672046BDE8F88FE3
:103F3000002CE4D1B1E700BFC8010020CD3F00084C
:103F400010B500F1280353E8002F12B9BFF32F8FEB
:103F500004E0511E43E8001404B1F4E70AB900205C
:103F600010BDC06A01220028F9D0811CD1E84F3F62
:103F7000C1E8442F04B1F9E7DBB2002BF0D0806830
:103F8000F1E7036B30B5E3B1CD780024DA78AA42CB
:103F90000FD31A46C1E901248AB19160A4B16160CE
:103FA000283050E8003F5A1C40E8002101B1F8E7F2
:103FB00030BD5A681C46002AECD01346E6E7C162C1
:103FC000ECE7C1E90133C1620163E9E7F8B587783D
:103FD00004468FB3C568014600272846FFF714FF43
:103FE000277005F10C042046FFF7DFFEAB68002BBD
:103FF00048D02046FFF7BFFE0446002842D028469E
:1040000000F036FD3A460646394600F0B9FE304625
:1040100000F08AFD6A6A8168064604F10C0009F026
:1040200091FFF9232370A770F368E37021462846B7
:10403000BDE8F840FFF7A5BF8568AB68002BF5D059
:104040005B78832BF2D1284600F012FD3A460646F3
:10405000394600F095FE304600F066FD06466A6A75
:10406000806804F10C0109F06DFFF3680BB1E27890
:104070001A7000232370214605F10C00BDE8F840BA
:10408000FFF793BEF8BD00002DE9F0410C4617463E
:104090009846054618B10378FA2B00D141B9284655
:1040A0006FF0030101F092F96FF00300BDE8F081B9
:1040B0008368C3B15B78832B15D100F0D9FC012252
:1040C0000646002100F05CFE304600F02DFD06465D
:1040D0006A6A8068214609F035FFF0680028E5D05B
:1040E00007700020E2E705F10C00FFF744FE0646EA
:1040F00070B121466A6A0C3009F024FF0024F923CC
:104100003370B470F77031462846FFF73AFFE8E79E
:10411000B8F1000F10D04146932000F087FE40B167
:10412000074B2846596900F091FCEFF30983C3E976
:1041300002476FF00100B9E76FF00200B6E700BF79
:10414000C80100202DE9F0410F4615469846044667
:1041500018B10378FA2B00D141B920466FF0030162
:1041600001F034F96FF00300BDE8F081FFF7E8FEDD
:10417000064600283AD001462046FFF745FE626A0F
:1041800006F10C01384609F0DDFE0DB1F3782B7015
:10419000002504F10C07357031463846FFF705FE5F
:1041A000A3680BB90020DFE73846FFF7E4FD0646B9
:1041B0000028F7D0204600F05BFC29460746012284
:1041C00000F0DEFD384600F0AFFC626A8168074609
:1041D00006F10C0009F0B6FEF9233370B570FB68E8
:1041E000F37031462046FFF7CCFEDBE7B8F1000F55
:1041F00010D04146832000F019FE40B1074B204605
:10420000596900F023FCEFF30983C3E902756FF0ED
:104210000100A9E76FF00200A6E700BFC801002077
:1042200008B5064B08219A6ED86EFFF7F9FD044BCE
:10423000D864B0FA80F04009404208BDD467010854
:10424000C80100202DE9F04106460F4690461C4665
:10425000EFF305834BB196B930466FF0030101F0DF
:10426000B5F86FF00300BDE8F081FFF7C2FD00284C
:10427000F1D1DFF84CC03046234600DFF3E7337856
:10428000FA2BE9D1002FE7D0002CE5D106F10C0084
:10429000FFF771FD054680B1726A39460C3009F0AE
:1042A00051FEF9232846C5E901762B70AC7085F8DC
:1042B000038000F063FA2046D5E76FF00200D2E7F2
:1042C00089400008F8B504460F4616461D46EFF330
:1042D000058343B18CB920466FF0030101F076F8F5
:1042E0006FF00300F8BDFFF784FD0028F2D1DFF87E
:1042F00048C020462B4600DFF4E72378FA2BEAD1AA
:10430000002FE8D0002DE6D12046FFF719FE054624
:1043100070B100F10C01626A384609F013FE0EB16B
:10432000EB7833702846EC6000F028FA0020D9E7DB
:104330006FF00200D6E700BF45410008EFF310839D
:104340002BB9EFF31180003818BF0120704701200E
:104350007047000070B5A8B38468D0E900566CB10E
:1043600014F0030302D1C2681B2A1AD86FF00801A7
:10437000002001F025F80024204670BDC368002B02
:10438000F4D1124BD3F8940030B9D3F88000012255
:104390001C21FFF77DFC01E0FFF7EDFC044660B156
:1043A0000123F522A3700023C4E90233C4E90433D6
:1043B0002270E67065602376DEE76FF0040100F09E
:1043C000FFFFD9E705460646DBE700BFC80100202E
:1043D000284B70B55D6904460E4635B96FF007018C
:1043E00000F0EEFF4FF0FF3070BD10B10378F52BF9
:1043F00007D020466FF0030100F0E2FF6FF00300EA
:10440000F2E7037E53B9C0E90353EB6A436103B19A
:104410001861EC62012323760020E5E7C278D1071A
:104420000DD5C168A9420AD1FF2B06D16FF00F014B
:1044300000F0C6FF6FF00200D6E70133EBE7002E75
:10444000F8D093070AD5E06895F9203090F920203C
:104450009A4203DA80F8203000F01CFB31465320EA
:1044600000F0E4FC18B12946204600F0EFFA6FF0A6
:104470000100B9E7C80100202E4B5A6970B5044607
:1044800032B96FF0070100F09BFF4FF0FF3070BDB5
:1044900010B10378F52B07D020466FF0030100F030
:1044A0008FFF6FF00300F2E7037E33B96FF00E0168
:1044B00000F086FF6FF00200E9E7C168914202D088
:1044C0006FF00D01F4E7013BDBB2037613BB4369E8
:1044D0000BB1016919612169F1B14B6192F9213088
:1044E000D56ADDB982F82030A36883B1204600F098
:1044F000BFFA06462A46294600F042FCF36A636189
:10450000C4E9036503B11C610123F4622376002032
:1045100000F01CFB0020BAE7D362DFE7E9788907E7
:1045200006D5A96821B191F920108B42B8BF0B467E
:104530006D69D6E7C80100202DE9F0410446002648
:1045400001270CB9BDE8F081E378D4F814801B078B
:1045500012D5A36826767BB1204600F089FA0022A6
:104560000546114600F00CFCEB6A6361C4E9035692
:1045700003B11C61EC6227764446E2E710B4C378CD
:104580009B071DD5C06890F92120C36ADC78A40779
:1045900009D59C688C4208BF8C6824B194F92040EE
:1045A000A242B8BF22465B69002BEFD190F92030C0
:1045B000934205D080F820205DF8044B00F06ABAE1
:1045C0005DF8044B7047000008B50246EFF3058321
:1045D00033B100206FF0050100F0F2FE002008BDAD
:1045E000FFF7ACFE0028F4D1DFF808C0104600DF6A
:1045F000F5E700BF5543000808B50246EFF3058311
:104600003BB110466FF0050100F0DAFE6FF00500D7
:1046100008BDFFF793FE0028F3D1DFF808C010466D
:1046200000DFF5E7D143000808B50246EFF3058344
:104630003BB110466FF0050100F0C2FE6FF00500BF
:1046400008BDFFF77BFE0028F3D1DFF808C0104655
:1046500000DFF5E77944000810B5D0E85F3F5A1C49
:10466000914200D80022C0E8542F04B1F5E798B277
:1046700010BD000038B51C4C00F056FDE368013356
:10468000E36000F021FA002000F060FA236D03B12E
:104690009847226C32B3A369E16B994203D0D96980
:1046A000E36301B9DA61DA69C2B9237A022B19D15D
:1046B000656ABDB1E36B95F9202093F920309A42E9
:1046C00010D1284600F0DDF9E06B00F0F5F928463E
:1046D00000F034FA236CE563EB6103E0013ADA6140
:1046E000002AE2D038BD00BFC801002070B5224CBE
:1046F00004F1560504F15A06B4F85410D5E85F3FAA
:1047000013B9BFF32F8F04E05A1EC5E8502F00B134
:10471000F4E79BB25BB33046FFF79EFFE36D53F8BF
:10472000200020B30378F13B082BE5D801A252F812
:1047300023F000BF59470008F94600085F4700080A
:10474000F9460008F9460008634700086747000873
:10475000F94600086B470008236E9847CCE7636E64
:10476000FBE7A36EF9E7E36EF7E7236FF5E7BDE834
:104770007040002000F0EAB9C801002070B5164C66
:104780000546B4F8541004F15602D2E85F3F99424E
:1047900002D8BFF32F8F04E0581CC2E8560F06B1B1
:1047A000F3E79BB2994205D829460220BDE8704044
:1047B000FFF7F1B904F15800FFF74EFFE36D43F83E
:1047C0002050637A23B9054B4FF080525A6070BD78
:1047D0000123A372FBE700BFC801002000ED00E049
:1047E000EFF310832BB9EFF31180003818BF0120CD
:1047F0007047012070470378F12B00D07047C068E4
:10480000F9E7000010B5C469621CD0E904310CD18D
:1048100003B1596142691AB113610023436101E098
:10482000074A13630023C36110BD1BB1DA695961E4
:104830002244DA614269002AEED1014AD362F1E7EB
:10484000C801002010B50A4A90F9201001234370D6
:10485000536A1C321BB193F920408C4205DCC0E93D
:104860000232906003B1D86010BD1A469B68F1E730
:10487000C8010020014B5869704700BFC8010020E3
:1048800028B10378F12B01D1406B704700207047AD
:10489000084B5A6A012022B9DA6A2AB91B6B33B96C
:1048A000704792680130F6E712690130F5E71B693D
:1048B0000130F4E7C801002010B50023038083789D
:1048C0009A07044608D513F0100F016B0E4B0FD05A
:1048D000D3F88400FFF769FAA378DB0712D50A4BF7
:1048E000D3F88800214638B1BDE81040FFF75DBA23
:1048F000586FFFF701FAEFE7BDE81040D3F88000EA
:10490000FFF7FAB910BD00BFC801002008B500F0DC
:1049100063FDDFF810C000DF4FF0FF31002000F032
:1049200049FDFEE7E94D00080246B8B10378F12BD6
:1049300014D10B4B1B6813F0040010D0136B094902
:10494000186888420AD1526B0420904200D3704705
:104950001958B1F1CC3F02D10430F6E7002070477E
:10496000D4670108A52E5AE210B570B109B3124AF6
:104970000346546943F8044B546A012034B9D46A9D
:104980005CB9126B0AB181420ED810BD8142F6D0DB
:1049900043F8044B0130A468F0E78142F1D943F8B1
:1049A000044B01302469EBE743F8042B0130126912
:1049B000E8E70846E9E700BFC8010020C278D2074F
:1049C000034601D4FFF778BF042205494270002254
:1049D000C2604A6B826002B1D0604B63704700BF17
:1049E000C8010020930710B502F0010422D400F1A1
:1049F000280384B153E8000F00EA01028A4203D081
:104A0000BFF32F8F002005E020EA010243E80024D5
:104A100004B1EFE710BD53E8000F084203D1BFF324
:104A20002F8F002005E020EA010243E8002404B1B2
:104A3000F1E7EFE7806A01EA00031CB18B4218BF7F
:104A40000020E7E7002B08BF0020E3E710B591F94D
:104A5000202083681BB193F92040944205DAC1E914
:104A60000230816003B1D96010BD18469B68F1E740
:104A700083689A68826002B1D0600022DA601846CA
:104A80007047C2682AB18368936003B1DA6000237B
:104A9000C360704710B5044664B12378F12B07D08A
:104AA000FFF7EFFF01462046BDE81040FFF7CEBFFD
:104AB000E468F1E710BD000001230146437001489E
:104AC000FFF7C4BFE401002038B5164DEC6A44B3CB
:104AD000E369013BE36123BB6378732B06D009D8FC
:104AE000532B0BD003F0DF03432B0DD12046FFF7F0
:104AF00082FE09E003F0EF03832BF6E72046FFF781
:104B00007AFE2146FFF73AFD2046FFF7BAFFFFF78E
:104B1000D3FF246924B1E369002BDDD00023636156
:104B2000EC6238BDC801002090F82230826B13F08F
:104B3000100F0CBF602020201044704702234370E8
:104B4000014B9861704700BFC801002070B5124D3D
:104B500004462E7A696990B9022E0FD16C6A6CB145
:104B600094F9202091F920309A4207DD2046FFF782
:104B700088FF0846FFF766FE6670AC6170BD022EC6
:104B800005D190F9202091F920309A42F1DC20469D
:104B9000BDE87040FFF790BFC80100202DE9F04F3D
:104BA00085B00391019028B96FF0030100F002FC79
:104BB0000024BEE0002A4AD0966846B1B00702D170
:104BC000D368432B06D86FF008010020EEE7D368C6
:104BD000002BF8D1D2E90449976944B1610703D1A8
:104BE000B9F1000F40F0B1806FF00A01EDE72FB18D
:104BF000791E372903D96FF00B01E6E71827B9F1C1
:104C0000000F40F0A680D2E900B3029366BB564D78
:104C1000D5F8880008B3FFF7AEF8064600283DD067
:104C20004FF00108DFF840A1002C42D1B9F1000F8C
:104C30001DD14E4BDAF88400D3F85490B8B1FFF789
:104C40009AF80546E0B148F01008344623E0934650
:104C50001446182791460292D9E7D5F88000012220
:104C60004421FFF715F8D8E74FF00008DAE7DAF843
:104C7000740022464946FFF70BF805460028E4D1A8
:104C8000B8F1000F13D0DAF8885031464DB12846FC
:104C9000FFF78BF8002548F0020864B96FF00401B3
:104CA00093E7DAF88000FFF727F82C46F3E745464C
:104CB000F1E72546344640F2F11222800022C4E991
:104CC0000222C4E90422C4E90622C4E90922C4E993
:104CD0000B25A9F14002029BE3702A44019BA263C9
:104CE0007FB2234AE363FD2184F80280C4F804B054
:104CF00084F8207084F821706184C4F834902A60AC
:104D00001A4A1268530718D4A36B3422184600219C
:104D100009F02EFA174A4263019A82634FF08072BB
:104D2000C263039A0262144BCAF860302046FFF750
:104D30000DFF204605B0BDE8F08F29F00302443A8C
:104D4000CC21281D09F014FADEE7002F7FF450AFC4
:104D5000182719F0070F7FF447AF0849A9F1480059
:104D600088427FF650AF3FE7C8010020D4670108B2
:104D7000A52E5AE20D490008A54D0008B7FFFF7F98
:104D800038B505461446FFF7CFFE01602846FFF709
:104D900039FD1CB1BDE83840FFF7D8BEBDE838404A
:104DA000FFF78ABE10B54378332B04460CD1416A15
:104DB00090F82320FFF716FE014628B12046002276
:104DC000BDE81040FFF7DCBF10BD10B50446806998
:104DD00018B100221146FFF7D3FF6378232B02BFDF
:104DE000A36800229A6110BD70B50F4C267A022E7E
:104DF00018D1636AB3B16569E86AFFF79DFB28467D
:104E0000FFF7E3FF04F11C00FFF732FE4670A061DC
:104E1000EFF30983AB63002363612846BDE870406C
:104E2000FFF7CCBD70BD00BFC801002038B51F4CD6
:104E3000237A022B35D1636A002B34D063694A1C74
:104E4000587016D1226B002172B94FF0FF30C3E9C0
:104E50000421D86159B10B611548FFF709FE0223FF
:104E60004370A061012038BD11461269ECE723634D
:104E7000F2E7E26A002012B1D569A9420BD2C3E978
:104E80000420D96158B10361002AE5D0D06953618B
:104E9000411AD161E0E71046491B1269EBE7E36272
:104EA000F2E70020DFE71846DDE700BFC801002079
:104EB000E401002038B50D4C0D48A26D0D4D0021C8
:104EC000FFF76CFE636EA8625BB1984758B9E26D5C
:104ED000E96C206EFFF762FEA864003818BF01205D
:104EE00038BD0120FCE70020FAE700BFD4670108C5
:104EF00025530008C801002010B50446EFF30583D0
:104F000033B100206FF0050100F054FA002010BD0D
:104F1000FFF766FC0028F4D1DFF808C0204600DF68
:104F2000F5E700BF9D4B000808B5EFF3058313B10B
:104F3000054B586908BDFFF753FC0028F8D1DFF88E
:104F40000CC000DFF6E700BFC8010020754800086C
:104F500008B50246EFF305830BB1002008BDFFF74B
:104F60003FFC0028F9D1DFF808C0104600DFF5E764
:104F70008148000808B50246EFF305830BB1002015
:104F800008BDFFF72DFC0028F9D1DFF808C0104656
:104F900000DFF5E72949000808B5EFF305830BB1F9
:104FA000002008BDFFF71CFC0028F9D1DFF804C081
:104FB00000DFF6E79148000808B50246EFF30583E5
:104FC0000BB1002008BDFFF70BFC0028F9D1DFF87A
:104FD00008C0104600DFF5E76949000830B50C4D00
:104FE0006B6C002213B11C698C420AD9C0E9022300
:104FF00001611BB11C699860611A19612AB1D06006
:1050000030BD1A46091BDB68ECE76864F8E700BFAF
:10501000C80100202DE9F041184D6C6C54B3236990
:105020006E69013B23610127236913BBE3680BB160
:10503000A2689A606B640023E86C1A4604F11801B8
:10504000FFF700F958B1D5E90583214603206B61CC
:10505000FEF7A1FD6B6913B9B04508BF0026E378E0
:10506000012B09D161692046FFF7B8FF6C6C002C59
:10507000DAD16E61BDE8F0816770F7E7C801002002
:1050800008B5FFF7CDF818B9034B044A1A6508BDF7
:105090004FF0FF30FBE700BFC801002015500008AB
:1050A00007B504464FF0FF33002269462046FFF75C
:1050B00009F90028F6D1DDE900309847F2E7000051
:1050C000A8B10C4B1B68B3FBF0F00138B0F1807F46
:1050D0000DD2094BFF2283F823204FF0E023062254
:1050E0001A61586100209861044B187070474FF0A6
:1050F000FF3070477C03002000ED00E0001F00201F
:10510000074B1A782AB100221A70064B4FF08062C2
:105110005A604FF0E022136943F0010313617047B6
:10512000001F002000ED00E04FF0E0231B697047F6
:105130004FF0FF307047000008B5094B094A1A606C
:10514000094B9B1A094A1360094B0A4A1A600A4B19
:105150009B1A0A4A136000F051F800F083F800BF70
:10516000681F0020007C012000800120641F0020B7
:105170000432002060340020007C01200032002036
:105180000E4838B50E4B03600B250E4B45601C24B2
:10519000C4608360FFF718FA0B4B18600B480C4B88
:1051A000C460C0E900350B4B8360FFF70DFA0A4B72
:1051B0001860BDE8384008F0E5BA00BF341F002091
:1051C000A8680108481F0020441F0020041F002079
:1051D000B5680108181F0020141F0020FCF778BCD8
:1051E000024B4FF0FF311868FFF706BA441F00204A
:1051F000014B1868FFF718BA441F002008B501F0EA
:105200007DF90C4B0C4998684FF00053C21802F11D
:105210006042126843F8042B8B42F7D1054B4FF0E4
:1052200000529A6003F03CFB04F012F9BDE808401C
:1052300000F015B800ED00E09401002070477047C1
:1052400008B500F043F8FFF7F9FFFFF799FFFFF704
:10525000F6FF02F039F8BDE80840FFF7BFBFFEF7E0
:10526000A5BC0000114C124B23614FF480536361C5
:105270004423E3600F4BA360182307B5A3610E48D6
:105280000E4B236022460021FFF736FE034628B965
:105290000B49009022460B4802F01EF8FEF79EFCD8
:1052A0000023094900931A46F5E700BF702F00203C
:1052B000701F0020942F002041520008CF68010881
:1052C000D46801081D010180F06801081FB5064B74
:1052D0000FCB6C4684E80F002046FFF775F9034BAF
:1052E000186004B010BD00BF08690108D82F002065
:1052F00073B506460C46154601F0E8FF58B906346A
:105300002ABF064B064953F8241000230093324667
:10531000284601F0E1FF02B070BD00BFCC6A010871
:10532000206A010808B500F071F8000007B50023F5
:10533000421E00930023042A19D8DFE802F0030874
:105340000C1014000C490D48012201F0C5FF0C4956
:105350000C480222F9E70C490C480322F5E70C49F6
:105360000C480422F1E70C490C480522EDE70246FF
:105370000B490C48E9E700BF1869010825010280C4
:1053800039690108260102805E690108270102804F
:105390009369010828010280CE6901082A01028070
:1053A0000E6A010800010280014A0146FFF7A0BF12
:1053B00031010180014AFFF79BBF00BF320101802C
:1053C000014AFFF795BF00BF33010180014AFFF793
:1053D0008FBF00BF3801018010B5FFF7A5FD034B5B
:1053E0001B6813B1BDE81040184710BDF82F00200E
:1053F00008B501F0E3FD01F089FF01F0C1FF01F004
:105400009BFFBDE8084001F0EFBD000008B5024C6D
:1054100023689847FCE700BF6C02002038B50546BA
:10542000044655F8043B9B689847284602F0FAFD6D
:1054300023680546DB6820469847284638BD0000AB
:1054400013B5084B0360044602650191FCF78AFB23
:105450000199201D02F014FC2046FCF78DFB20462C
:1054600002B010BDF4640108036801221B69002129
:105470001847036800221B69114618476FF0150092
:1054800070470000C36810B52BB9054905484FF4B3
:10549000FD7201F0D3FCBDE810401B68184700BF47
:1054A000665E0108715E010807B5019001F086FD96
:1054B0000198012102F076FE03B05DF804EB01F0E3
:1054C00093BD07B5019001F079FD0198002102F02C
:1054D00069FE03B05DF804EB01F086BD07B5CDE9C8
:1054E000001001F06BFDDDE9001002F057FE03B083
:1054F0005DF804EB01F078BD416830B4034671B14A
:10550000D0E9032000F0010402B944B1451001EBD9
:1055100060000CB149598A58996830BC104730BCBA
:105520007047036870B504460D461B68984704F140
:105530003000C4F8D850294602F050FF23682046B6
:105540005B68BDE8704018477FB506461D4656F8B3
:10555000303BCDE902211B68044698479DF8203076
:1055600083F00103DDE90221009330462B4603F06E
:1055700087F8236806465B6820469847A81B18BF33
:10558000012004B070BD7FB506461D4656F8303B7D
:10559000CDE902211B68044698479DF8203083F02E
:1055A0000103DDE90221009330462B4603F008F8A1
:1055B000236806465B6820469847A81B18BF012051
:1055C00004B070BD70B590B00D46144600211C2289
:1055D00002A808F0CDFD012600231A46294602A89C
:1055E000009600F0E4FC1C22002109A808F0C0FD90
:1055F00000231A460096214609A800F0D8FC0A9B11
:105600001A68099B1A4203D16FF0010010B070BDF7
:10561000039B1968029B194043D109A8FFF75EFF5D
:1056200009A8FFF741FF0A24002109A8FFF756FF48
:10563000099B0C9A1B041360052002F0CDF901218F
:1056400009A8FFF74BFF0B9B099A1A60052002F08F
:10565000C3F9013CE8D102A8FFF726FF029B059A97
:105660001B041360052002F0B7F90B9B099A1A601E
:10567000052002F0B1F9049B029A1A60052002F09D
:10568000ABF902A8FFF71DFF09A8FFF71AFF0A9B55
:105690001A68099B1A42B7D0039B1A68029B1A42E8
:1056A000B2D00020B2E710B500210446242240F811
:1056B000041B08F05DFD204610BD08B5DC30FCF78A
:1056C00029FABDE8084002F0BDB908B5DC30FCF7A6
:1056D00021FABDE8084002F0D3B90000F8B51A4B32
:1056E00003600D46194B4361002100F13007044669
:1056F000C0E90711C0E90911016181851646806181
:10570000A822384608F034FD114BC4F8D83004F113
:10571000DC00FFF7C8FF2046FFF7CFFF32462946DF
:10572000A4F80451A4F806612046FFF74BFFB4F932
:105730000621B4F90411384602F008FF2046FFF7AD
:10574000C4FF2046F8BD00BFEC6A0108F954000808
:10575000A086010007B5CDE9001001F02FFCDDE9BE
:10576000001003F0BFF903B05DF804EB01F03CBC9E
:1057700007B5CDE9001001F021FCDDE9001003F0D0
:105780009FFB03B05DF804EB01F02EBC07B5CDE93B
:10579000001001F013FCDDE9001003F031FA03B052
:1057A0005DF804EB01F020BC07B5CDE9001001F075
:1057B00005FCDDE9001003F088FB03B05DF804EBA5
:1057C00001F012BC837E10B504461BB901F09EFDAA
:1057D0000123A37610BD837E10B504461BB101F0F2
:1057E000ABFD0023A37610BD10B5044601F0E6FB27
:1057F000E37E4BB9B4F91810204603F09DFA204619
:10580000FFF7E0FF0123E376BDE8104001F0ECBBB9
:1058100010B500230022044601834383C261036262
:10582000FFF7E2FF204610BD10B5044601F0C6FBAD
:10583000E37E3BB1204603F04FF92046FFF7CBFF54
:105840000023E376BDE8104001F0CEBB10B504465E
:10585000FFF7EAFF204610BD7047416830B40346A9
:1058600071B1D0E9032000F0010402B944B1451040
:1058700001EB60000CB149598A58996830BC104757
:1058800030BC704770B500F14C06B0F9C020B0F9DB
:10589000BE100446304603F019FCD4E932530DB96A
:1058A000DA070ED55A1004EB6300DB0748BFA35894
:1058B00094F8D01048BF5D59B4F9D220B4F9D4306F
:1058C000A847D4F8B810304603F0DAFB2246304639
:1058D0000249BDE8704002F019BB00BFE15A000860
:1058E0002DE9F04198461E4B03601E4B4360002596
:1058F0001D4B856016464C220446C0E90555C0E99B
:1059000007550F46C360858445634564A0F8485039
:1059100029460061104408F02BFC40F20113A4F862
:10592000BC304FF6FF732046C4E92D58C4E9315509
:10593000C4E93655C4F8A450A4F8BE70A4F8C060F9
:10594000C4F8CC5084F8D050A4F8D230A4F8D430A5
:10595000C4F8E050FFF796FF2046BDE8F08100BF95
:10596000046B0108855800085B58000838B50546E7
:10597000044655F84C3B1B689847284603F030FB1B
:10598000236805465B6820469847284638BD38B5E9
:105990000546044655F84C3B1B689847284603F0DB
:1059A00037FB236805465B6820469847284638BD84
:1059B00003682DE9F34105461B6816460F469847D4
:1059C00095F8BC30340103B1B6B195F8BD300BB1D8
:1059D000012E11D098342819B84206D00190FBF757
:1059E00025FD01983946FCF719F82B685B682846B5
:1059F00002B0BDE8F0411847983401F0DFFA2C44BA
:105A0000FA68E36805F14C089AB10BB901F07EFC25
:105A1000A74206D02046FBF709FD39462046FBF792
:105A2000FDFF01223146404602F07CFA01F0DCFA2B
:105A3000DBE70BB101F080FC2046FBF7F7FC00220E
:105A4000E260EFE730B51B4B036085B000252A46C6
:105A5000694604460395FFF7ABFF6846FBF7E6FC93
:105A60000122694620460395FFF7A2FF6846FBF72F
:105A7000DDFC94F8BC3013B994F8BD301BB104F1CF
:105A80004C0003F045FA04F1A800FBF7CFFC04F149
:105A90009800FBF7CBFC04F13800FBF7C7FC04F1DE
:105AA0002800FBF7C3FC206A08B101F0CBF82046C0
:105AB00005B030BD046B010810B50446FFF7C2FF06
:105AC0002046E42101F040FF204610BD4C3002F09A
:105AD00079BA10B54C300C4602F090FA204610BD51
