:020000040800F2
:1000000000800120A14D0008ED4D000839260008B0
:10001000412600084926000851260008000000007B
:100020000000000000000000000000001D36000875
:10003000ED4D000800000000B5360008C536000888
:10004000ED4D0008ED4D0008ED4D0008ED4D0008A8
:10005000ED4D0008ED4D0008ED4D0008ED4D000898
:10006000ED4D0008ED4D0008ED4D0008ED4D000888
:10007000ED4D0008ED4D0008ED4D0008ED4D000878
:10008000ED4D0008ED4D0008ED4D000800000000AA
:10009000000000000000000000000000ED4D00081E
:1000A000ED4D0008ED4D0008ED4D0008ED4D000848
:1000B000ED4D0008ED4D0008ED4D0008ED4D000838
:1000C000ED4D0008ED4D0008ED4D0008ED4D000828
:1000D000ED4D0008ED4D0008ED4D0008000000005A
:1000E000ED4D0008ED4D0008ED4D0008000000004A
:1000F000000000000000000000000000ED4D0008BE
:1001000000000000ED4D0008ED4D0008ED4D000829
:1001100000000000000000000000000000000000DF
:10012000ED4D0008ED4D0008ED4D0008ED4D0008C7
:10013000ED4D00080000000000000000000000007D
:10014000000000000000000000000000ED4D00086D
:10015000ED4D0008ED4D0008ED4D0008ED4D000897
:10016000ED4D0008ED4D000800000000000000000B
:10017000000000000000000000000000000000007F
:1001800000000000ED4D000800000000000000002D
:10019000ED4D000810B5054C237833B9044B13B16D
:1001A0000448AFF300800123237010BD380D0020F8
:1001B000000000005C93010808B5034B1BB1034924
:1001C0000348AFF3008008BD000000003C0D002094
:1001D0005C930108A3F5803A704700BF174B002BD2
:1001E00008BF134B9D46FFF7F5FF00218B460F46D6
:1001F0001348144A121A0AF043FD0E4B002B00D08C
:1002000098470D4B002B00D0984700200021040098
:100210000D000D48002802D00C4802F039FE0AF00B
:1002200039F82000290003F0DDF802F0C5FF00BF17
:100230000000080000000000413300080080012099
:10024000380D002010300020912E00080000000022
:10025000034607C983E807007047704770B44468D5
:1002600085686610034605EB6400E40748BFAC5997
:100270001B6848BFE35870BC1847000010B5034B1B
:100280000360044601F03AFD204610BD5C7701088A
:1002900038B505460024AB68A34207D96B6853F80C
:1002A000240003689B6898470134F4E738BD0000D8
:1002B00070B5134C134D144E20464FF4964101F087
:1002C00033FC1249204601F0E6FB2946204601F0A6
:1002D000E2FB3146204601F0DEFB0D49204601F0ED
:1002E000DAFB3146204601F0D6FB2946204601F0D4
:1002F000D2FB0849204601F0CEFB002070BD00BFB4
:10030000EC0F002061730108757301085C7301082C
:10031000897301085E73010810B5FFF7C9FF044631
:1003200020B9064C2046FFF7B3FFFBE7024604491D
:10033000044801F0B0FB204610BD00BF5814002057
:100340009D730108EC0F0020C36810B504460BB183
:100350009B689847204610BD70B5044694B1E0688C
:10036000FFF7FAFF04F1100604F12800A568FFF773
:10037000EBFF304608F07EF82046382102F06AFF95
:100380002C46EBE770BD10B504468068FFF7E4FF2C
:10039000204610BD13B50DF1080C0CE90C00019BB3
:1003A0000260C0E90131024BC36002B010BD00BF62
:1003B000E473010838B50D461022002104460AF006
:1003C0005FFCEB681BB15B68294620469847EB68E9
:1003D000E360204638BD00F10803F7B5036004462A
:1003E00008460D4616460BF04BF90F2805EB0007A3
:1003F000019007D9002201A9204608F017F8019BB7
:100400002060A36020683A46294608F045F8204657
:10041000019B50F8182B63600021D1543146FFF73F
:10042000C9FF204603B0F0BD08B508F03FF8C00F83
:1004300008BD2DE9F0418D6804460F4690460E1D1B
:10044000012065B105F110014046FFF7EDFFD5E948
:10045000023200282E460CBF15461D46F1E7A0B11A
:10046000FB68B34204D1256066602046BDE8F08198
:10047000304607F0C1FE0546414605F11000FFF782
:10048000D3FF20B100232360EEE73546F4E7C4E94B
:100490000050EAE700F10803F7B50360D1E9006313
:1004A00004460D46F7181EB917B1104807F08EFF25
:1004B0000F2B019307D9002201A9204607F0B6FFB0
:1004C000019B2060A36020683A46314607F0DAFFBE
:1004D0002046019B50F8182B63600021D15405F190
:1004E0001801FFF767FF204603B0F0BDB4730108A1
:1004F0002DE9F041054638200E4602F081FE05F157
:10050000100104461030FFF7C5FF2B78E868237010
:100510000023C4E90233666018B12146FFF7E8FF03
:10052000E060AE6827464FF00008BEB1382002F008
:1005300067FE06F1100105461030FFF7ABFF337878
:100540002B70C5E90288BD606F60F06818B129465C
:10055000FFF7CEFFE860B6682F46E6E72046BDE825
:10056000F08100002DE9F04F9F4FB5B04FF41653C6
:1005700003220221384616AC01F018FA9B4A9C4926
:10058000384602F083FC1C22002120460AF078FB4A
:1005900018AE0521204601F027FD0FCE6D460FC590
:1005A00033682B6094E80C0041F288319148924DF9
:1005B00000F09AFB8D4A91498E4802F067FC0221B7
:1005C000204601F00BF83B4622464FF4FA618C4876
:1005D00000F066FC854A8B49894802F057FC0321EC
:1005E000204600F0FBFF3B46224647F2305186484A
:1005F00000F0D6FC7D4A8549834802F047FC182369
:10060000009719224FF47A71814800F0F9FB774A7C
:1006100080497F4802F03AFC7F4B804A13212846EC
:1006200000F014FB714A7E49284602F02FFC7D4BF6
:100630007D4A7E48152100F0B3FA6C4A7C497B481C
:1006400002F024FC794B00953A464FF47A717948D0
:10065000794D00F031F9654A7849764802F016FC88
:100660000026774B1796169394E80C00714912A850
:10067000FFF790FE734912AA2046FFF7ACFE724BBB
:100680006C49CDE90A360AAF97E80C000EA8FFF7CF
:1006900081FE6E490EAA20A8FFF79DFE6C4B6549AE
:1006A000CDE908360DF1200B9BE80C003846FFF72A
:1006B00071FE05F1040967493A462AA8FFF78BFE47
:1006C000C5E9039903232E71AE606E610693264639
:1006D0006B6943B1D5F810A031460AF11000FFF75D
:1006E000A3FE00287CD1324629465846FFF7A1FEDA
:1006F000DDE9083ABAF1000F1AD0002B6DD1CA45D6
:100700006BD00AF110013046FFF78EFE804638208C
:1007100002F076FD314607901030FFF7BBFE4B46E6
:1007200007995246404607F081FD6B6901336B61C2
:10073000069B013B06F128060693C9D134AE283E3C
:1007400006F11800FFF700FE304607F093FEA642C0
:10075000F5D13846FFF7F8FD0EA8FFF7F5FD12A812
:10076000FFF7F2FD3C49214A334802F08FFBA868AD
:10077000002317A9CDE919118DF85C3018931B934C
:1007800080B1FFF7B5FE03461A469B68002BFBD1EC
:10079000199203461A46DB68002BFBD16B691A924B
:1007A0001B931890224610492C4800F0C3FD18985E
:1007B000FFF7D2FD0D4A2A49284802F067FB294B72
:1007C00029492A48062200F081FC084A284927487E
:1007D00035B0BDE8F04F02F059BB4FF0010896E785
:1007E000BAF1000F8BD1A3E7EC0F00209801002095
:1007F0007D0200086C0D0020F0130020C10C0008E1
:10080000680F0020490E0008A8140020490F0008B6
:10081000980D0020B90D00080000A0400000A0C005
:10082000950C00080000B8410000B8C12414002055
:10083000E90B0008CC0F0020540D0020910800089F
:10084000D9080008DE7301082D090008E0730108CB
:1008500081090008E273010887030008A010002046
:10086000C511000817B7D1389C010020581400208A
:100870008510000810B50446FFF700FD2046B4219E
:1008800002F0E8FC204610BDFFF76CBE7047000088
:1008900010B5034B0360044600F0D8FB204610BDA2
:1008A0006474010810B50446FFF7F2FF20462021CA
:1008B00002F0D0FC204610BD70B504461D46164619
:1008C00000F0BAFB034B2360049BA361C4E90465F9
:1008D000204670BD6474010873B505461446084689
:1008E00001AA0E490AF082FC0128064614D1A86923
:1008F000019903685B68984730B90949204602B0FE
:10090000BDE870400AF05ABEA8692E7703680199C5
:100910001B6898470349F1E70349EFE7F0730108C3
:10092000F37301081D7401082374010837B50546E7
:100930001446084601AA0E490AF058FC012815D1B0
:100940006869019903685B68984730B9094920468E
:1009500003B0BDE830400AF031BE68690199022356
:100960002B7703681B6898470349F0E70349EEE7D4
:10097000F0730108327401081D7401082374010822
:1009800037B504461546084601AA10490AF02EFC60
:10099000012819D16069019903685B68984730B9EB
:1009A0000B49284603B0BDE830400AF007BE606935
:1009B00001990323237703681B689847A06903689C
:1009C0009B6898470349ECE70349EAE7F07301089D
:1009D000327401081D7401082374010807B500234F
:1009E00080F8911180F89221009390F8931100F211
:1009F00091120223C43000F075FE03B05DF804FBD1
:100A000038B500F1C4050446284600F03BFF2846EF
:100A1000094900F037FE502384F89331074BC4F89E
:100A2000AC314FF07653C4F8B031C4F8B43101237F
:100A3000C4F8B831204638BD801A06006F12833AD8
:100A400038B505460C460A463D21FFF7C7FF85F835
:100A5000AA4138BD37B5082380F8913101230446F7
:100A6000009300F1C40590F8931100F2911228460A
:100A700000F038FE94F893110023009304F5CA7235
:100A800006230131284600F04EFEB4F99411D4ED4E
:100A90006B6AB4F99621B4F99831218007EE901A67
:100AA000B8EEE77A07EE902A27EE267A628084ED88
:100AB000027AB8EEE77A07EE903AF8EEE77A27EE98
:100AC000267A67EEA67AA38084ED037AC4ED047AD1
:100AD00003B030BD37B51A2380F8913101230446A5
:100AE000009300F1C40590F8931100F2911228468A
:100AF00000F0F8FD94F893110023009304F5CA72F6
:100B000006230131284600F00EFEB4F99411D4ED0D
:100B10006D6AB4F99621B4F99831A4F8681007EE1B
:100B2000901AB8EEE77A07EE902A27EE267AA4F814
:100B3000642084ED1D7AB8EEE77A07EE903AF8EE7D
:100B4000E77A27EE267A67EEA67AA4F8663084ED77
:100B50001B7AC4ED1C7A03B030BD07EE901A90EDFD
:100B60000B7AB4EEE77AF1EE10FA09D890ED0C7A30
:100B7000B4EEE77AF1EE10FAACBF01200020704726
:100B80000020704790ED0A7AD0ED087A06EE901AB0
:100B9000E6EE877A043017EE901A00F0DBBE000014
:100BA000F8B505461E460D4B45F8043B044628465D
:100BB000174600F0A7FE0A4B23621421094B84F864
:100BC0002410A3622846E762266300F0ACFE2846A4
:100BD000216A00F0BFFE2046F8BD00BF7C7401080A
:100BE000AC1C9A3DFA2A793A10B5044B044640F8F9
:100BF000043B00F0C9FE204610BD00BF7C74010814
:100C000007EE901A90ED0B7AB4EEE77AF1EE10FA57
:100C100009D890ED0C7AB4EEE77AF1EE10FAACBF99
:100C200001200020704700207047016A043000F066
:100C300091BE90ED0A7AD0ED087A06EE901AE6EEB3
:100C4000877A043017EE901A00F084BEF8B5054696
:100C50001E460D4B45F8043B04462846174600F057
:100C600051FE0A4B23621421094B84F82410A3621D
:100C70002846E762266300F056FE2846216A00F007
:100C800069FE2046F8BD00BF8C740108AC1C9A3D7B
:100C9000FA2A793A10B5044B044640F8043B00F0B8
:100CA00073FE204610BD00BF8C74010843691A68AA
:100CB00003691A4216BFC26982691B041360704738
:100CC00010B5034B0360044600F0C0F9204610BD88
:100CD000A074010810B50446FFF7F2FF20462C214E
:100CE00002F0B8FA204610BD82B070B5064604ACDA
:100CF00084E80C00344600F09FF904AD084B44F83A
:100D0000103B0FCD0FC495E8070084E8070030467C
:100D1000B36932691A60BDE8704002B0704700BF25
:100D2000A074010810B58CB0044610300A90FFF78B
:100D3000D1FE0A98FFF78EFEE06F14F00BFE02461C
:100D40000B46206ACDE90A2314F004FECDE9080120
:100D5000E06914F0FFFDCDE90601A06914F0FAFD89
:100D6000CDE90401D4F8840014F0F4FDCDE90201CA
:100D7000D4F8800014F0EEFDDDE90A23CDE900018E
:100D80000349D4F8CC0100F086FE0CB010BD00BFC2
:100D9000B0740108074B10B504460360806A08B1BF
:100DA00001F040FC236913B19B68201D9847204641
:100DB00010BD00BF4477010810B5054B044640F84C
:100DC000D43BFFF7E7FF204600F040F9204610BD76
:100DD000E474010810B50446FFF7EEFF20464FF417
:100DE000E87102F037FA204610BD10B50446FFF74F
:100DF000D1FF2046CC2102F02DFA204610BD000084
:100E000073B5044625461646019300F015F9094BC3
:100E100045F8103B019A31462846FFF7F1FD069B45
:100E2000C4F8CC3128460C21FFF70AFE204602B058
:100E300070BD00BFE4740108704710B5502104462E
:100E400002F008FA204610BD10B5034B03600446BB
:100E500000F0FCF8204610BD6875010810B5044686
:100E6000FFF7F2FF2046642102F0F4F9204610BD9E
:100E700010B50446103000F09FFB07EE900AF8EE24
:100E8000677A17EE900A14F065FD02460B46206E55
:100E90000249BDE8104000F0FEBD00BFF474010837
:100EA00070B5044616461D4600F0C6F8064B236092
:100EB000064B23614C22311D04F1140009F0CAFDD8
:100EC0002566204670BD00BF687501085075010891
:100ED000F8B50546064655F8044B8CB90D4F3868F1
:100EE00018B14FF0FF3103F0CFF9346824B9284628
:100EF00002F0E2F92C463560386808B103F0DCF9FD
:100F0000AC4204D0044905488B2201F0C3FC2046C2
:100F1000F8BD00BF70270020007501082375010887
:100F200008B50348FFF7D4FFBDE8084002F0EAB96E
:100F30000C15002008B50348FFF7CAFFBDE80840BC
:100F400002F0C2B90C15002010B5034B0360044633
:100F500000F07CF8204610BD8C75010810B50446E1
:100F6000FFF7F2FF2046642102F074F9204610BD1D
:100F700010B50446103000F01FFB07EE900AF8EEA3
:100F8000677A17EE900A14F0E5FC02460B46206ED5
:100F90000249BDE8104000F07EBD00BF7875010831
:100FA00070B5044616461D4600F046F8064B236011
:100FB000064B23614C22311D04F1140009F04AFD57
:100FC0002566204670BD00BF8C750108507501086C
:100FD000F0B5002384681D4601269C420CD042686F
:100FE00052F82320916857680131B942916024BFBB
:100FF000167395600133F0E7F0BD034607C983E837
:1010000007007047704710B4426881685410034667
:1010100001EB6200D20748BF0A591B685DF8044B18
:1010200048BFD3581847027B22B103680022DB680F
:101030000273184770470000034AC0E900210022EC
:1010400082600273704700BFC07501087047C368B3
:1010500010B504460BB19B689847204610BD0000B0
:1010600038B50546064B45F8283B044600F0FDFE22
:101070002846FFF7ECFF204600F042FF204638BD2F
:101080008C77010838B50546054B45F8103B0446FA
:10109000284600F0EAFE2846FFF7E2FF204638BD6A
:1010A000B075010810B50446FFF7ECFF204650214B
:1010B00002F0D0F8204610BD10B50446FFF7D0FF6F
:1010C0002046402102F0C6F8204610BD30B52DED77
:1010D000028B08EE103A1B4B826000F1100589B0BC
:1010E000C0E900310446284600F05EFE1022164B8F
:1010F00000930DEB0200154B03930021CDE9011481
:1011000009F0BEFD694604A8FFF777FFDFED107A0E
:10111000039B079368EE277A17EE900A14F0EAFF14
:1011200002460B46284604A900F083FE04A8FFF7F8
:101130008EFF6846FFF78BFF204609B0BDEC028B9F
:1011400030BD00BFB0750108D10F00089C750108C3
:10115000002474497047034607C983E807007047B5
:10116000704710B4426881685410034601EB620076
:10117000D20748BF0A591B685DF8044B48BFD358D3
:10118000184710B54FF48871044602F063F8204602
:1011900010BD70B50446A4B1E068FFF7FAFF636BB9
:1011A000A56804F110061BB19B6804F1280098475C
:1011B000304607F05FF92046382102F04BF82C4604
:1011C000E9E770BD10B5064B03600446D0F8400354
:1011D000FFF7DFFF2046FFF739FF204610BD00BFB5
:1011E0002C77010810B50446FFF7ECFF20464FF4BA
:1011F000547102F02FF8204610BD38B5044672B67F
:10120000FF25206900F0A4FC78B3D4F81831D4F895
:101210001C110133B3FBF5F2C2EB02229B1A8B4285
:1012200023D0206900F0CCFBD4F81831D4F81C117D
:101230000133B3FBF5F2C2EB02229B1A8B42E0D0E2
:10124000D4F818312344C0B21876D4F818310133D9
:10125000B3FBF5F2C2EB02229B1AC4F81831D4F8A2
:1012600020310133C4F82031CBE762B638BD00002D
:10127000F7B50546382001F0C3FF00F118030361FC
:10128000D5E904630446F7181EB917B1174807F0EB
:101290009DF80F2B019308D9002201A904F1100039
:1012A00007F0C4F8019B2061A36120693A463146EA
:1012B00007F0E8F8019B226963610021D15404F131
:1012C00028031022184609F0DBFC6A6B1AB1526839
:1012D00005F1280190476B6B63632B7823702046E0
:1012E0000023C4E9023303B0F0BD00BFB4730108AA
:1012F000F8B505460E46FFF7BBFF46600446E868B2
:1013000018B12146FFF7F4FFE060AE68274676B1DA
:101310003046FFF7ADFFB86047600546F06818B18A
:101320002946FFF7E5FFE860B6682F46EFE720465D
:10133000F8BD00002DE9FF4104460D460021164688
:10134000DFF8CC80FFF778FE2E4B23602561FF226B
:1013500000250021FE27C4F8148004F1180009F0CC
:101360008FFCC4F81851FF22C4F81C712946C4F838
:101370002051C4F8248104F5947009F081FC04F52F
:101380000D73C4F828522946C4F82C724FF48072A9
:10139000C4F83052184609F073FC04F54F71C4E9E3
:1013A000D051C4F83403B06884F83C53C4E9D21572
:1013B000A0B1FFF79DFF03461A469B68002BFBD1A7
:1013C000C4F8442303461A46DB68002BFBD173693B
:1013D000C4F84823C4F84C33C4F840030A4B0093C4
:1013E00000220A4B206903936946CDE9012400F0ED
:1013F00049FC039B13B19B6868469847204604B09C
:10140000BDE8F0812C770108FB110008187601086F
:1014100010760108D0F8082110B50132D0F8044147
:10142000FF23B2FBF3F1C1EB0121521AA24215D006
:10143000D0F808210132B2FBF3F3C3EB0323D31A34
:10144000C0F80831D0F8083103441B79D0F80C21DA
:10145000013ADBB2C0F80C21184610BD0023FBE7AF
:101460002DE9F043D0F81C31D0F818110133FF22D8
:10147000B3FBF2F2C2EB02229B1A8B42ADF5097D5F
:1014800004460BD01430FFF7C5FF2328064609D1C8
:1014900084F8340204F23523C4F834330DF5097DA1
:1014A000BDE8F083D4F8343304F54D729342F5D09F
:1014B0000A286FD113F8032C3B2A6BD113F8022CA6
:1014C0003B2A67D113F8013C0D2B63D104F50D784D
:1014D000344908AB01AA404609F088FE022857D1DA
:1014E00002AA01A948A807F029F804F54F79D4F811
:1014F00040734D4667B107F1100048A906F0D6FFCA
:10150000D7E902320028AABF3D4617461F46F1E739
:10151000A94508D005F1100148A806F0C7FF35EA33
:10152000200528BF4D4648A806F0A4FF4D452FD002
:101530001D4B48AA03F1100C18685968174603C7D9
:10154000083363453A46F7D11B883B80EE220021E1
:101550000DF5997009F094FB6A4648A902A806F0B7
:10156000EDFF6B6B05F128002BB91049104840F2D4
:101570003B2201F08FF91B6848AA08A998470D493A
:10158000206948AB01AA00F086FA02A806F072FFB3
:10159000C4F83483D4F834331E70D4F834330133B0
:1015A0007AE700BFD075010824760108DA750108D2
:1015B000F9750108FE75010838B50546044655F869
:1015C000043B9B689847284605F098FC236805462D
:1015D000DB6820469847284638BD000037B50546E9
:1015E000084B45F8043B04460191FFF7A3FC019921
:1015F000284603F0FDFB2046FFF792FC204603B08F
:1016000030BD00BF5075010807B5019001F0ECF93D
:101610000198012105F032FD03B05DF804EB01F003
:10162000F9B907B5019001F0DFF90198002105F043
:1016300025FD03B05DF804EB01F0ECB907B5CDE989
:10164000001001F0D1F9DDE9001005F013FD03B041
:101650005DF804EB01F0DEB9416830B4034671B1C6
:10166000D0E9032000F0010402B944B1451001EBB8
:1016700060000CB149598A58996830BC104730BC99
:1016800070470000036870B504460D461B68984714
:1016900004F13000C4F8C450294605F0F5FD044BB0
:1016A0001C60236820465B68BDE87040184700BF97
:1016B0005C150020036870B5094D1B680446984707
:1016C0002B68A34206D0D4F8C41004F1300005F012
:1016D000DBFD2C60236820465B68BDE8704018473E
:1016E0005C1500207FB51D4603680446CDE9022144
:1016F0001B6898472046FFF7DDFF9DF8203083F0F8
:101700000103DDE90221009304F130002B4605F0CE
:10171000E7FE236806465B6820469847A81B18BF6B
:10172000012004B070BD7FB51D4603680446CDE9B5
:1017300002211B6898472046FFF7BCFF9DF8203028
:1017400083F00103DDE90221009304F130002B4610
:1017500005F06AFE236806465B6820469847A81B8A
:1017600018BF012004B070BD70B590B00D4614468E
:1017700000211C2202A809F083FA012600231A4640
:10178000294602A8009600F032FC1C22002109A87C
:1017900009F076FA00231A460096214609A800F0BF
:1017A00026FC0A9B1A68099B1A4203D16FF00100BC
:1017B00010B070BD039B1968029B194043D109A862
:1017C000FFF73CFF09A8FFF71FFF0A24002109A823
:1017D000FFF734FF099B0C9A1B041360052001F0EE
:1017E0003DFD012109A8FFF729FF0B9B099A1A600B
:1017F000052001F033FD013CE8D102A8FFF704FF0A
:10180000029B059A1B041360052001F027FD0B9B2A
:10181000099A1A60052001F021FD049B029A1A60C2
:10182000052001F01BFD02A8FFF7FBFE09A8FFF74A
:10183000F8FE0A9B1A68099B1A42B7D0039B1A68E4
:10184000029B1A42B2D00020B2E7C36810B504462A
:101850000BB19B689847204610BD000008B50348AF
:10186000FFF736FBBDE8084001F02EBD341500201F
:1018700008B50348FFF72CFBBDE8084001F042BD66
:1018800034150020F8B51B4B04460D46164640F8AB
:10189000043B1022002109F0F3F904F13007002184
:1018A000154BA185C4E90711C4E9091163619422AC
:1018B000A461384609F0E4F9104BC4F8C43020465E
:1018C000FFF7CCFF32462946A4F8C850A4F8CA60F6
:1018D0002046FFF749FFB4F9CA20B4F9C8103846CA
:1018E00005F092FD064B20461C60FFF7C1FF204625
:1018F000F8BD00BF4477010859160008A086010012
:101900005C15002007B5002303760191009001F0DB
:101910006BF8DDE9000106F001F901F07BF80098B1
:1019200003B05DF804FB07B5CDE9001001F05CF8E9
:10193000DDE9001006F0B6F903B05DF804EB01F044
:1019400069B8037E10B504461BB901F0B9F901234B
:10195000237610BD07B5CDE9000101F045F80098E8
:10196000FFF7EFFFDDE9000105F0B6FF03B05DF81A
:1019700004EB01F04FB8037E10B504461BB101F033
:10198000B5F90023237610BD07B5019001F02CF8BE
:10199000019805F09BFF0198FFF7EDFF01F03AF881
:1019A000019803B05DF804FB7047000010B50446D1
:1019B00000F0FEF8014B2360204610BD5C77010863
:1019C00038B5036804461B689847204600F0D1F8F4
:1019D000236805465B6820469847284638BD37B5DA
:1019E0000368019104461B6898470199204600F05E
:1019F000C3F8236805465B6820469847284603B02D
:101A000030BD036837B51B680D4604469847013D55
:101A100015F8011F19B12046FFF7E1FFF8E7236829
:101A2000019120465B6898470199084603B030BD94
:101A30002DE9F0410368A0B00E4617461B68044626
:101A400098473B463246012101A810F08DFE7728C9
:101A5000054610DC31463A4602A810F0BDFE02A948
:101A60002046FFF7CEFF236820465B68984728464C
:101A700020B0BDE8F081013001F0D6FB3A46804647
:101A8000314610F0A9FE41462046FFF7BAFF404616
:101A900001F0E2FBE7E70EB403B503AA52F8041B1A
:101AA0000192FFF7C5FF02B05DF804EB03B0704789
:101AB0006FF01500704703681B69184703689B693E
:101AC000184703689B6A184700290CBF6FF018007D
:101AD00000207047012070476FF0150070476FF0CD
:101AE0001500704770477047416830B4034671B1C4
:101AF000D0E9032000F0010402B944B1451001EB24
:101B000060000CB149598A58996830BC104730BC04
:101B1000704700EB0113D3F89C3023B109311B68E7
:101B200000EB01101847704770B50646044656F89A
:101B3000443B0D461B6898473046294606F018F985
:101B40002368C4F8B05020465B68BDE87040184771
:101B500038B50546044655F8443B1B689847284667
:101B600006F0BAF8236805465B6820469847284681
:101B700038BD443005F09EB910B544300C4605F030
:101B8000ABF9204610BD884238B504460D460ED04C
:101B9000FFF75DFA10220021204609F071F8EB688A
:101BA0001BB15B68294620469847EB68E36038BD67
:101BB0002DE9F04F87B0002501932F4B03601026CD
:101BC0002E4B43600446C0E90355C0E905558846DD
:101BD00091468583324629468060203009F050F8CE
:101BE00004F144073246294604F1300009F048F870
:101BF00004F1900A2946A4F840504C22384609F0D6
:101C00003FF804F1A00B32462946504609F038F857
:101C100032462946584609F033F8019BC4F8B030E3
:101C20003246294602A809F02BF802A95046FFF7D0
:101C3000AAFF02A8FFF70BFA3246294602A809F0CC
:101C40001FF802A95846FFF79EFF02A8FFF7FFF909
:101C50004A464146384606F0B1F8D4F8B010384646
:101C600006F086F838460649224605F0C7F82046B1
:101C700007B0BDE8F08F00BF74770108E91A0008CB
:101C8000131B00082DE9FF410646154656F8443B54
:101C90000F461B680446984700F0A6FE2B0123441C
:101CA000FA68D3F89C3005F10908AAB10BB901F024
:101CB00007F8394604EB0810FFF765FF01223046AC
:101CC000294605F0A7F800F0A5FE23685B682046CA
:101CD00004B0BDE8F04118470BB101F007F810223D
:101CE0000021684608F0CCFF694604EB0810FFF7B6
:101CF0004AFF6846FFF7ABF90022E0E71FB51A4B31
:101D00000360044610220021684608F0B9FF002253
:101D100069462046FFF7B6FF6846FFF798F910229C
:101D20000021684608F0ACFF012269462046FFF713
:101D3000A9FF6846FFF78BF904F1A000FFF787F9C8
:101D400004F19000FFF783F904F13000FFF77DFD07
:101D500004F12000FFF779FDA06908B100F062FCF2
:101D6000204604B010BD00BF7477010810B50446CA
:101D7000FFF7C4FF2046B42101F06CFA204610BDE5
:101D800070B5D0E90813D0E902250446521845EB96
:101D9000030300F0A5F8636B2BB104F128001B6866
:101DA000BDE87040184770BD10B5044600F080F8DB
:101DB000084B236000220023C4E9082300211022DD
:101DC00004F1280008F05CFF012384F83830204635
:101DD00010BD00BF8C77010870B5044615461E463D
:101DE00000F002FE204600F085F8C4E90856A0691C
:101DF00000F0A7FB421946EB0103204600F070F803
:101E0000BDE8704000F006BE884238B504460D4675
:101E10000ED0FFF71CF910220021204608F030FFF9
:101E2000EB681BB15B68294620469847EB68E36086
:101E300038BDF8B504461D460F46164600F0D4FDE1
:101E4000636B23B994F838300BB100F039FF394691
:101E500004F12800FFF7D8FF32462B462046FFF753
:101E6000BBFFBDE8F84000F0D5BD1FB5044600F04B
:101E7000BBFD204600F03EF8636B23B194F8383088
:101E80000BB100F033FF10220021684608F0F8FE85
:101E9000694604F12800FFF7B7FF6846FFF7D7F857
:101EA00004B0BDE8104000F0B5BD03689B6818475A
:101EB000094B10B5002203600023C0E90223002370
:101EC000C0E90433044600F051FB0449A06100F06E
:101ED000B1FA204610BD00BFA0770108AB1E000874
:101EE00007B5009000F10801806900F0E2FA03B044
:101EF0005DF804FB00F10801806900F007BB0000F9
:101F000010B5034B03600446FFF7F4FF204610BDF5
:101F1000A0770108036801221B69002118470368A4
:101F200000221B6911461847EFF3108372B6054A69
:101F3000117831B90449DB4303F001030B7001232D
:101F400013707047611500206015002008B5EFF38D
:101F50001083DB4313F0010304D006490648362200
:101F600000F098FC054A1370054B1B7803B162B66C
:101F700008BD00BFAC770108D777010861150020C4
:101F80006015002070B50E460446154605F052F85F
:101F9000013609D02046002105F070F82946204678
:101FA000BDE8704005F066B870BDF8B50F46044650
:101FB00015461E4605F03EF8013710D020685EB188
:101FC000A36818600121204605F058F829462046EC
:101FD000BDE8F84005F04EB8E3680004F1E7F8BD4D
:101FE00013460022FFF7E1BF0022FFF7F9BF2DE9FA
:101FF000F0411746069E04460D461A4667B9FFF79C
:10200000C1FF013503D022681EB1A3681A60BDE884
:10201000F081E3681204F9E73346BDE8F041FFF7C9
:10202000C4BF00001FB5431C10D105B05DF804FB10
:1020300083420AD18968039005F05CFB0398002174
:1020400005B05DF804EB05F0E3BB0C31B1F90030ED
:102050005A1CEDD10023024602490348009300F0C8
:1020600015FE00BFF177010830010180884207B5F5
:1020700002460AD0431C08D0013105D0002305498F
:102080000548009300F002FE0146084603B05DF8E3
:1020900004FB00BF0278010830010180B1F9003073
:1020A0005A1C01D118467047834201D148687047D5
:1020B0000C31F3E7421C13B504460AD0FFF7EEFFDC
:1020C000431C06D10023044904480093224600F033
:1020D000DDFD02B010BD00BF1378010830010180A2
:1020E000B1F900305A1C01D118467047834201D122
:1020F000886870470C31F3E7421C13B504460AD0D8
:10210000FFF7EEFF431C06D1002304490448009367
:10211000224600F0BBFD02B010BD00BF33780108BD
:10212000300101802DE9F843456895F83A6004468E
:10213000002E49D103685B68984763681B6A834235
:1021400042D02C6AAF682862041B3048EB68874293
:1021500004EA030431D095F83B20D5E90A98A4FBA2
:102160000001D2B3C2F1200620FA02F401FA06F609
:10217000A2F1200321FA03F334431C4321FA02F6AF
:1021800019EB0000A2F1200C48EB0101C2F1200381
:1021900006FA02F804FA0CFC24FA03F348EA0C08E5
:1021A00004FA02F248EA0308821A61EB0801BA4213
:1021B00071F100030AD2C5E90A21D5E90C231219ED
:1021C00046EB0306C5E90C26BDE8F883013446F169
:1021D0000006D21B61F10001EDE733463A4613F0E9
:1021E00059FF12EB090248EB0303BA42044673F1AC
:1021F00000000E4602D2C5E90A23DEE7013441F1B0
:102200000006D21B63F10003F5E700BF40420F0058
:10221000824206D98A420BD9884294BF002001200D
:102220007047884206D98A428CBF0020012070473F
:102230000120704700207047F7B5466896F83A309D
:102240000546002B67D196F83930002B63D1FFF794
:1022500069FF6F687A68002A5FD0D7E90C01D2E97C
:102260000032984271EB020405D32B685B6903B01E
:10227000BDE8F04018471B1A62EB0101D7E90602DE
:1022800098428A413C6906D3BA68294882420FD1F4
:102290009C4228BF1C463A6AFB6822441A40336AB3
:1022A000934229D12349244840F21B1200F0F2FA4C
:1022B00097F83B00C8B1A0F1200CC0F1200281408A
:1022C00003FA0CFC23FA02F203FA00F01B4B41EA7A
:1022D0000C011143C01841F10001154A002313F00D
:1022E000D9FE844228BF0446D5E7A2FB033002FB97
:1022F000010112481818EEE72B68019210461B697D
:1023000098472B685B689847019A0146306AFFF747
:102310007FFF0028A9D103B0F0BD3369306AF268AD
:1023200018442B681B69104003B0BDE8F040184703
:1023300040420F0051780108727801083F420F00B7
:102340002DE9F04F436893F8382085B00446002A01
:1023500062D193F83A30002B5ED103681B6898472E
:102360002368DB699847066836B92D492D480096E1
:102370003346324600F08AFC1F23012202FA03F1A1
:102380008E425FFA83FA02D0013BF7D19A46D0F829
:102390000480A8F104031C2B4FF0000705D9224943
:1023A000224800973B463A46E4E7701E204D4FF026
:1023B000070947F1FF3109FA03F932463B46C9FBE9
:1023C000050113F067FE656823680390C5E900778F
:1023D0005B688B4698470121039A286201FA08F846
:1023E000656808F1FF33C5E90339C5E9062B002309
:1023F00000222046C5E90A23C5E90C23AE6085F812
:102400003BA0298785F83A70FFF78CFE204605B07F
:10241000BDE8F04FFFF710BF05B0BDE8F08F00BF7B
:10242000967801080E010480AF7801080501048048
:1024300040420F0038B505460C46FFF781FF00F01B
:10244000D3FA6B681C60BDE8384000F0E3BA70B5A1
:10245000044600F0C9FA2368DB689847636893F87C
:102460003A201AB1BDE8704000F0D4BA012283F8D6
:10247000392063685B68A3B12046FFF753FE6368A9
:102480005A68D3E90C60D2E90051AE4270EB010109
:1024900007D3D16859601B68002BEAD09068984731
:1024A000E7E76368002283F839202046FFF7C4FE7F
:1024B000D8E7F7B5089F01900C4616461D4600F078
:1024C00093FA0198FFF72EFE0198A7604368C4E9CC
:1024D00000655968002229B9E16062B95C60FFF7C4
:1024E000ABFE0EE00F68BE424F6875EB0707F3D3F3
:1024F0000A46C968EFE7D460D3E90C23B242AB4186
:10250000EDD203B0BDE8F04000F084BA38B505461E
:102510000C4600F069FA6A685368A34209D1DB6887
:1025200053602846FFF788FEBDE8384000F072BAD5
:102530001346002BF8D0DA68A242F9D1E268DA60DB
:10254000F2E713B50446FFF7FBFE00F04DFA204614
:10255000FFF7E8FD6368D3E90C01CDE9000100F065
:1025600059FADDE9000102B010BD7047004870471C
:10257000EC780108024B1B680BB102481847704702
:10258000B4010020EC78010808B5BFF35F8F1D4B44
:10259000D3F89010080A10F0FC0FC1F3072104D102
:1025A00019491A483A2200F075F90022C3F894201C
:1025B00010468A421FD11022C3F89C20144AC3F847
:1025C000A0201322C3F89C20124AC3F8A020112295
:1025D000C3F89C20104AC3F8A020104AC3F89C20DE
:1025E0000F4AC3F8A0200722C3F89420BFF34F8FEF
:1025F000BFF36F8F08BDC3F89820C3F8A000013265
:10260000D7E700BF00ED00E0187901083A7901082A
:1026100039F00206390702133FF50B131200008050
:1026200039000213024B1B6803B11847704700BF03
:10263000A8150020002070474FF0100300F00CB8E0
:102640004FF0200300F008B84FF0300300F004B85A
:102650004FF0400300F000B8EFF308804FF00401A2
:1026600072460A4201D0EFF309809C46254B196857
:1026700002680A60043142680A60043182680A60B4
:102680000431C2680A600431F0C147460F6004316A
:102690004F460F60043157460F6004315F460F60AC
:1026A000043102690A60083142690A6004318269B2
:1026B0000A600431C2690A600431034620334FF4D2
:1026C0000076324200D0043375464FF01006354292
:1026D00000D148330C46103C2360EFF309820A60B6
:1026E0000431EFF308820A60043172460A60043153
:1026F000EFF314820A606046024B196800F07AF822
:10270000FEE70000047B0108F0B52C4E2C4F85B08D
:1027100000243546214656F8042B3846013400F093
:1027200049F90D2CF6D1AB6C02936B6C01932B6CB9
:10273000244C0093D5E90E23696B234800F03AF945
:102740002168224800F036F9E16AA26AA36AA06A09
:10275000266BE76B000CCDE901670090C3F30723FC
:102760001B48D2B200F026F9A36A1E0603D5616B9E
:10277000184800F01FF9A36A180403D5A16B164886
:1027800000F018F9EB6C190712D5144800F012F993
:102790002B6DDA070FD5124800F00CF9EB6C5B07D4
:1027A0004CBF1048104805B0BDE8F04000F002B939
:1027B0000E4800F0FFF80E48EEE700BFAC15002011
:1027C0004779010800ED00E055790108A479010876
:1027D000B2790108017A01080F7A01081D7A01080F
:1027E0002C7A01085C7A0108687A01084C7A0108A1
:1027F000397A010813B50446154800F0DBF8302C8F
:1028000017D0402C1AD0202C1DD11248124C00F0A9
:10281000D1F8124800F0CEF8FFF776FF104800F02C
:10282000C9F8104A104900230093D26B204600F0EB
:102830002DFA0E480E4C00F0BDF8EAE70D480E4C9C
:1028400000F0B8F8E5E70D480D4C00F0B3F8E0E70C
:10285000747A01089D7A01083E01FF80CA7A010856
:10286000D57A0108AC150020F47A0108AC7A010889
:102870003F01FF80B57A01084001FF80C07A01085E
:102880003D01FF8007F0B2BD08F04CBA07F04ABA2C
:1028900006F0A4BF07B50B4600920146002201488E
:1028A00000F0F4F94401FF8003460122D3E84F0F02
:1028B000C3E8412FC0B20029F8D17047D0E85F3F8C
:1028C0005B18C0E8523F002AF8D198B27047D0E8B0
:1028D0005F3F5B1AC0E8523F002AF8D198B27047B8
:1028E000D0E84F3FC0E8421FD8B2704700B589B06A
:1028F00000F07AF8052101A8FFF776FB114E124D82
:102900000424039B019A1A60304600F0A7FC019B47
:10291000049A1B041360304600F0A0FC013CF0D187
:102920000424039B019A1A60284600F097FC019B3F
:10293000049A1B041360284600F090FC013CF0D17F
:10294000DEE700BFF0490200801A060007B5014625
:1029500000220190022000F041FB00F045F80199AF
:10296000084608F08DFE01990246022000F036FB71
:1029700003B05DF804EB00F04DB8000000B5A3B063
:1029800002460B4601A884210FF0EEFE832806D9EB
:10299000074B1A681B79CDF883208DF88730002803
:1029A00002DD01A8FFF7D2FF23B05DF804FB00BFF2
:1029B000087B01080FB407B504A951F8040B019175
:1029C000FFF7DCFF03B05DF804EB04B07047EFF3F2
:1029D0001080C04300F001007047EFF3058000381D
:1029E00018BF01207047000008B5FFF79DFA064A9E
:1029F0001368591C04D1054905483F22FFF74AFFD7
:102A00000133136008BD00BF001600200D7B0108D4
:102A1000387B0108044A136823B1013B13600BB9EA
:102A2000FFF794BA704700BF0016002008B50B48A6
:102A3000FFF73AFF28B1FFF7D7FFBFF34F8F20BF53
:102A4000FDE7FFF7CAFF08B1FFF750FFFFF7BFFF31
:102A50000028F9D0012000F0AFFB00BF4416002091
:102A6000F0B5214F8FB016461C2237EA200728BF49
:102A700007460D460DEB0200002108F001F91B4B43
:102A800003955B690493DA6B05925A6B1B6B069294
:102A900001ACCDE90734CDE90176FFF7A5FF144A73
:102AA00013680133012B136009D126460FCE114D57
:102AB0000FC50FCE0FC50FCE0FC533682B600FCCDF
:102AC0000D4D0FC50FCC0FC50FCC0FC523682B6064
:102AD0000A4B1B6813B1A5F130009847FFF79AFF26
:102AE00000200FB0F0BD00BF0101FF80C002002038
:102AF000041600201016002048160020081600209A
:102B00002DE9BF43374C0F462168C1F34173032BB6
:102B10000CBF4D428DB2C1F3074381469046324807
:102B20002A46FFF747FF6FF498731D44132D0FD803
:102B3000DFE805F00A3E4144474D4A500E0E0E0EA6
:102B40000E0E0E0E0E0E0E53A1682848FFF732FF30
:102B50004846FFF7FBFE61682548FFF72BFF4FB1A2
:102B60002448FFF7F3FE3846FFF7F0FE22484146BF
:102B7000FFF720FFA1682148FFF71CFFE268E36927
:102B800051681F480293A369019363690093002968
:102B900008BF014623691B48FFF70CFF21681A484C
:102BA000FFF708FF194804B0BDE8B043FFF702BFC4
:102BB000A1681748CAE7A1681648C7E7A168164880
:102BC000C4E7A1681548C1E7A1681548BEE7A16838
:102BD0001448BBE7A1681448B8E71448FFF7EAFEB9
:102BE000B6E700BF48160020737B0108C47B0108CC
:102BF0006C7C01087D7C0108857C0108897C0108CA
:102C0000697B01089D7C0108F57C0108447D010871
:102C1000DA7B0108EA7B0108F97B01080C7C0108DA
:102C2000207C0108347C0108437C0108597C0108A0
:102C30000FB41FB50D48CDF804E00121FFF750FE99
:102C4000019A044680B901460948FFF709FF09487F
:102C500022462146FFF754FF069807A90391FFF784
:102C60008DFE0548FFF772FEFFF7E0FE0C16002010
:102C70000001FF805E7D0108F27A010800207047A4
:102C8000014B1878C0B270470C16002080B506467C
:102C90000C460A480121F04617461D46FFF720FE64
:102CA00048B9424639463046FFF7DAFE029A2946CD
:102CB0002046FFF725FFFFF7B9FE00BF0C160020E6
:102CC00013B5074C01212046FFF7F8FD034628B94C
:102CD0000090228803490448FFF7D8FF02B010BDD6
:102CE0007C160020737D01082301048013B5094C74
:102CF00001212046FFF7EBFD4FF6FF73984206D106
:102D000000232288044905480093FFF7BFFF02B063
:102D100010BD00BF7C160020957D010824010480B1
:102D2000034B188880B2B0FA80F04009704700BFAA
:102D30007C16002008B5FFF757FEFFF7F1FF28B11A
:102D400005F014F9BDE80840FFF764BE05F002F98C
:102D5000F8E76FF01C0070476FF015007047012016
:102D60007047002070477047034B186818B14FF048
:102D7000FF3101F089BA704770270020024B1868B4
:102D800008B101F099BA704770270020F8B5074ED6
:102D900015460C468F18BC4205D014F8011B30466E
:102DA00004F09AF8F7E72846F8BD00BF082F002086
:102DB00038B511F001048DB205D0084804F08CFF3D
:102DC000041E18BF0124EB0605D5044804F09AFF41
:102DD00008B144F01004204638BD00BF082F002081
:102DE00010B5044607F0FAFA204610BD10B50C469F
:102DF0002AB1044804F05EF82070012010BD10468E
:102E0000FCE700BF082F002038B51D46074B0360C4
:102E1000074B1B68044633B9064804F0CFFF05484A
:102E2000294604F0A5FF204638BD00BFFC7E0108FE
:102E3000542F0020082F00200020704700207047EA
:102E400007B500230249034800931A46FFF71EFF07
:102E5000B37D01082901018008B5012000F0ACF91B
:102E6000074A084913681844884289BF064B106016
:102E70000C224FF0FF308CBF1A601846704700BF1D
:102E8000B8020020007C012008300020012070479B
:102E90000120704708B500F0A7FA08BD08B500F09A
:102EA000ABFA08BD10B50446037803F00303012B09
:102EB00008D0FFF759FF237803F00302012A03D15A
:102EC000FFF75CFF00200AE02AB10549054840F2FF
:102ED000E652FFF7DFFC43F002032370012010BD30
:102EE000BD7D0108EA7D010808B5037803F00302FF
:102EF000022A05D00749084840F2EF52FFF7CAFC02
:102F000023F0030343F001030370BDE80840FFF71B
:102F100035BF00BFBD7D0108087E01083F2870B5A0
:102F200004462FDC184E56F820305A1C13D10228C4
:102F300011DCFFF783FF034658B92046FFF77CFFFB
:102F4000034630B9114D2B78BFF35B8FDB0704D5F7
:102F50000F4B46F82430184670BD2846FFF7A2FFF5
:102F60000028F5D04FF41653032202210848FFF73A
:102F70004BFF084A08490648FFF788FF2846FFF735
:102F8000B3FFE5E70023E6E7B80100208016002044
:102F90008416002098010020672D000838B50546EA
:102FA000FFF7BCFF0B4B002443F8254030B906F077
:102FB00051FC092303604FF0FF3038BD03685B69A3
:102FC0009847051E04DA06F045FC6D420560F2E7FD
:102FD0002046F2E7B8010020FFF7E0BF13B5CDE9C6
:102FE0000021FFF79BFFDDE9002140B906F032FC2C
:102FF000092303604FF0FF34204602B010BD036880
:10300000DB689847041EF7DA06F024FC644204608B
:10301000F0E7000073B505460E461446FFF7DDFCE9
:1030200030B100230E490F4800932A46FFF72EFEC9
:10303000FFF7CDFC0028F4D0201E07DA06F00AFCCA
:10304000162303604FF0FF3002B070BDFCD0024683
:1030500031462846FFF7C2FF40EAE070F4E700BFC0
:103060003F7E01082F01018013B5CDE90021FFF754
:1030700055FFDDE9002140B906F0ECFB09230360B0
:103080004FF0FF34204602B010BD03689B6898479C
:10309000041EF7DA06F0DEFB64420460F0E700008D
:1030A00073B504460E461546FFF797FC30B1002372
:1030B0000D490E4800932246FFF7E8FDFFF787FC15
:1030C0000028F4D0002D07DB2A463146204602B006
:1030D000BDE87040FFF7C8BF06F0BCFB16230360D5
:1030E0004FF0FF3002B070BD797E01082F010180E2
:1030F00010B5FFF713FF044628B906F0ABFB092310
:103100000360204610BD0368DB699847041EF8DAA7
:1031100006F0A0FB644204600024F2E7FFF7E8BF7A
:1031200013B5CDE90021FFF7F9FEDDE9002140B933
:1031300006F090FB092303604FF0FF34204602B0F5
:1031400010BD03681B699847041EF7DA06F082FB7E
:1031500064420460F0E7FFF7E3BF10B5FFF7DEFE5F
:1031600030B906F077FB092303604FF0FF3010BD44
:1031700003689B699847041E04DA06F06BFB6442FF
:103180000460F2E70020F2E70A4D08B52B68044618
:10319000986806F091FC2B68D86806F08DFC012039
:1031A000FFF7DBFF0220FFF7D8FF0CB1FFF79EFB14
:1031B000FEE700BF7003002008B5FFF7E5FF38B554
:1031C0000D46FFF7ABFE044630B906F043FB09237A
:1031D00003604FF0FF3038BD0368DB699847002873
:1031E00014BF4FF400534FF400436B602368204634
:1031F0009B6A984728610020EDE7FFF7E0BF0000D9
:103200001FB5039007F0E2F8039A034620B9009037
:1032100003490448FFF73AFD05B05DF804FB00BF21
:10322000B57E01081F0101801FB5039007F0CEF89D
:10323000039A034620B9009003490448FFF726FD8E
:1032400005B05DF804FB00BFD27E01081F010180BC
:1032500007F0C4B807F0C2B807F0C0B8034A516A13
:10326000536A5B1A8342FBD3704700BF000C0040D7
:103270001FB5002303620D4B002918BF0B460093B6
:10328000031D02931C230446039368460B230193FA
:1032900000F0E2FF206038B9FFF7F2FC20B90449E2
:1032A00004483822FFF7F6FA04B010BD507F010839
:1032B0006A7F01088B7F010810B500210446FFF7E3
:1032C000D7FF204610BD000037B504464FF0FF3150
:1032D000006800F0D9FF054628B9236A013323624C
:1032E000002003B030BDFFF7CBFC03460028F7D128
:1032F0000249034800932A46FFF7C8FCAF7F010844
:10330000150102801FB50446006800F0D5FF024693
:1033100028B9236A013B2362104604B010BD039014
:10332000FFF7AEFC039A03460028F5D10249034893
:103330000093FFF7ABFC00BFC17F010817010280BB
:1033400008B5094B094A1A60094B9B1A094A1360D0
:10335000094B0A4A1A600A4B9B1A0A4A136000F08A
:1033600051F800F07DF800BFF4160020007C012029
:1033700000800120F01600208C1600201030002064
:10338000007C0120881600200E4838B50E4B0360E3
:103390000B250E4B45601C24C460836000F05CFF6D
:1033A0000B4B18600B480C4BC460C0E900350B4B4D
:1033B000836000F051FF0A4B1860BDE8384006F00A
:1033C00069BF00BFC0160020D57F0108D4160020B9
:1033D000D016002090160020E27F0108A4160020DD
:1033E000A0160020FCF798BF024B4FF0FF31186881
:1033F00000F04ABFD0160020014B186800F05CBFF7
:10340000D016002008B5FFF7BFF80C4B0C499868A0
:103410004FF00053C21802F16042126843F8042BC7
:103420008B42F7D1054B4FF000529A6004F028F917
:1034300004F070FEBDE8084000F010B800ED00E0B8
:1034400094010020704708B5FFF79EFFFFF7FAFFD1
:10345000FFF714FCBDE80840FFF7C4BF00F03CBA1A
:1034600007B51748174B03600B2343601C23164C0A
:10347000C360164B8360164B23614FF48053636126
:103480004423E360134BA3601823A361124B236012
:1034900000F0E2FE114B224618600021104801F0B6
:1034A000E9FA034628B90F49009022460E48FFF773
:1034B000EDFB00F029FA00230C4900931A46F5E7CA
:1034C00060270020EC7F0108F826002074270020E8
:1034D000F81600201C270020FC7F01087027002020
:1034E00047340008018001081D0101801D8001088A
:1034F00073B506460C461546FFF7C2FB58B90634AD
:103500002ABF064B064953F8241000230093324685
:103510002846FFF7BBFB02B070BD00BFE881010881
:103520003A81010808B500F071F8000007B50023E2
:10353000421E00930023042A19D8DFE802F0030892
:103540000C1014000C490D480122FFF79FFB0C4999
:103550000C480222F9E70C490C480322F5E70C4914
:103560000C480422F1E70C490C480522EDE702461D
:103570000B490C48E9E700BF3280010825010280B1
:10358000538001082601028078800108270102800B
:10359000AD80010828010280E88001082A0102802C
:1035A0002881010800010280014A0146FFF7A0BFFF
:1035B00031010180014AFFF79BBF00BF320101804A
:1035C000014AFFF795BF00BF33010180014AFFF7B1
:1035D0008FBF00BF3801018010B501F063FA034BC3
:1035E0001B6813B1BDE81040184710BD902700209C
:1035F00008B5FFF7F9F9FFF763FBFFF79BFBFFF750
:1036000075FBBDE80840FFF705BA000008B5024C9D
:1036100023689847FCE700BFBC0200201EF0040F9F
:103620000CBFEFF30880EFF30980816911F8021CE9
:1036300091BB01B590E80F10E047BDE800508CE861
:103640000300244B93E80600914208BF704741B93C
:103650001EF0100F10D12049086820F0010008600A
:103660000AE02CE9F00F1EF0100F08BF2CED108AB5
:10367000C1F838C081F822E01A6092F82210906BED
:1036800061F0FF0E1EF0100F08BFB0EC108AB0E81A
:10369000F00F80F309887047104A13689942FAD8EE
:1036A00001B552F821C00FC8E047BDE80050CCF882
:1036B0000000704701B500F05DFEBDE80140EFF38A
:1036C000098CBEE701B500F01DFEBDE80140EFF337
:1036D000098CB6E7D402002034EF00E0C082010874
:1036E000EFF310832BB9EFF31180003818BF0120DE
:1036F000704701207047000070B5484C217A0129BD
:1037000000F08A8031B14FF0FF30FFF74DFF4FF0EE
:10371000FF3070BD424D9C2204F1080007F0B0FA62
:10372000D5E90B61EB68E3652B8AA4F85430304689
:10373000AB68236400F0FEF808B1C4F88060D5E9F6
:103740000561304600F0F6F808B9D4F88060666785
:10375000D5E90761304600F0EDF808B9D4F880608B
:10376000A667D5E90961304600F0E4F808B9D4F855
:103770008060E6676E6B3EB1D6E902233168304661
:1037800000F042F9C4F88460AE6B3EB1D6E9022382
:103790003168304600F038F9C4F88860EE6B3EB10D
:1037A000D6E902233168304600F02EF9C4F88C6067
:1037B0002E6C3EB1D6E902233168304600F024F980
:1037C000C4F890606E6C3EB1D6E902233168304691
:1037D00000F01AF9C4F89460AE6C3EB1D6E9022349
:1037E0003168304600F010F9C4F89860EE6C3EB1D4
:1037F000D6E902233168304600F006F9C4F89C602F
:103800002D6D3DB1D5E902232968284600F0FCF86A
:10381000C4F8A0500123237200207AE7C0020020E0
:103820005882010870B5264D2B7A012B07D06FF016
:103830000600FFF7B9FE4FF0FF34204670BD01F0DF
:10384000F9F810B94FF0FF30F3E71E4A1E4E1F493A
:103850007068FF2382F8223092F82230D26863F039
:10386000FF03DB4314BFB3FA83F32023C3F1200328
:10387000C2F30222934298BF531CFE2202FA03F3C2
:10388000104ADBB2D37701F085F904460028D9D17C
:1038900001F0B8F9286101F09DF90D4800F0AAFE89
:1038A00000F00AFF336813F0010F4FF0020303D05A
:1038B00083F314882B72C0E7032282F31488F9E79C
:1038C000C002002000ED00E058820108C536000863
:1038D000DC0200207047000008B5FFF7FBFFEFF3A4
:1038E000058333B16FF00500FFF75EFE6FF0050052
:1038F00008BDFFF7F5FE0028F4D1DFF808C000DFAF
:10390000F6E700BFF936000808B5EFF3058333B1D9
:103910006FF00500FFF748FE6FF0050008BDFFF7E8
:10392000DFFE0028F4D1DFF808C000DFF6E700BFB3
:103930002538000810B598B140EA010313F00703D9
:103940000ED117290AD90160083910220C18846099
:1039500042600B5081684A60C3600123184610BD65
:103960000023FBE7F0B5034670B369B332F0030000
:103970002AD10F3121F0070103F1080634463668D9
:103980006568301B25F00305401B814203D9306870
:103990000028F3D1F0BD5F681D680F445F602B44C1
:1039A000083B5868874288BF5F6063680A431BB959
:1039B000626004F10800EDE723F00303E018E6502D
:1039C000426020600830E5E70020E3E710B580B1F1
:1039D000C1B1A1F1080400F108030022A34209D1FA
:1039E000596821F003044168091B41603AB95A60E3
:1039F000012010BD19681A4621B10B46EEE71B687D
:103A00001360F5E70846F4E730B5C0B189B1C2B13B
:103A1000CBB10024C0E9014202FB01F41D19016091
:103A2000C360436105611846013904D1A21A995057
:103A30000121084630BD851805602846F4E7014697
:103A4000F7E71146F5E71946F3E710B50346A8B1C5
:103A500000F1140252E8000F10B9BFF32F8F04E0F9
:103A6000016842E8001404B1F4E738B1043353E8C4
:103A7000002F511C43E8001404B1F8E710BD30B525
:103A8000F0B1C3688B421BD803698B4218D900F18F
:103A900014031A680A60BFF35F8F53E8002F0C68A5
:103AA0009442F6D143E8001505B1F2E7043050E83E
:103AB000003F5A1E40E8002101B1F8E7002030BD68
:103AC0006FF00300FBE7EFF310832BB9EFF31180E6
:103AD000003818BF0120704701207047D1E901323A
:103AE00023B19A608A681AB153607047C262F9E7DD
:103AF000036370472DE9F84F8846074600B131B996
:103B00006FF003010020FFF761FD002477E0CE1C79
:103B100026F003060C36B0FA80F104D0B6FA86F32C
:103B20000B441F2BECDD06FB07FAF2B194683CB1A5
:103B3000A30702D1D368332B05D86FF00801E1E762
:103B4000D368002BF9D1D2E90453D2F800903DB1EB
:103B500015F0030B01D19A4554D96FF00901D1E753
:103B6000002BFAD11CB19B460CE091461546274B21
:103B7000D3F8A000D8B1FFF768FF0446A0B14FF01A
:103B8000010B35BB214B0022D86F5146FFF7EAFEEF
:103B90000546C0B9BBF1000F06D01C4BD3F8A000FE
:103BA000214658B1FFF76BFF6FF00401AAE7D3F885
:103BB000800001223421FFF7D5FEDEE7D3F8800034
:103BC000FFF704FFF0E75246002107F059F84BF0E9
:103BD000020BFA2323700023C4E90983C4E90B33E1
:103BE000A36032462B4684F802B0C4F804903946EC
:103BF00004F10C00FFF708FF044B054A1A67204642
:103C0000BDE8F88F002CE4D1B1E700BFC00200206E
:103C1000A13C000810B500F1280353E8002F12B9A9
:103C2000BFF32F8F04E0511E43E8001404B1F4E702
:103C30000AB9002010BDC06A01220028F9D0811CF9
:103C4000D1E84F3FC1E8442F04B1F9E7DBB2002BC4
:103C5000F0D08068F1E7036B30B5E3B1CD78002494
:103C6000DA78AA420FD31A46C1E901248AB19160D9
:103C7000A4B16160283050E8003F5A1C40E80021A0
:103C800001B1F8E730BD5A681C46002AECD0134653
:103C9000E6E7C162ECE7C1E90133C1620163E9E72C
:103CA000F8B5877804468FB3C568014600272846D3
:103CB000FFF714FF277005F10C042046FFF7DFFE25
:103CC000AB68002B48D02046FFF7BFFE0446002813
:103CD00042D0284600F08EFC3A460646394600F0AF
:103CE00021FD304600F0CAFC6A6A8168064604F18C
:103CF0000C0006F0AFFEF9232370A770F368E370A1
:103D000021462846BDE8F840FFF7A5BF8568AB68A7
:103D1000002BF5D05B78832BF2D1284600F06AFCAB
:103D20003A460646394600F0FDFC304600F0A6FC57
:103D300006466A6A806804F10C0106F08BFEF3689F
:103D40000BB1E2781A7000232370214605F10C00B4
:103D5000BDE8F840FFF793BEF8BD00002DE9F04143
:103D60000C4617469846054618B10378FA2B00D141
:103D700041B928466FF00301FFF728FC6FF00300FC
:103D8000BDE8F0818368C3B15B78832B15D100F067
:103D900031FC01220646002100F0C4FC304600F050
:103DA0006DFC06466A6A8068214606F053FEF0689C
:103DB0000028E5D007700020E2E705F10C00FFF7CE
:103DC00044FE064670B121466A6A0C3006F042FE97
:103DD0000024F9233370B470F77031462846FFF79A
:103DE0003AFFE8E7B8F1000F10D04146932000F009
:103DF000ADFD40B1074B2846596900F0E9FBEFF3F0
:103E00000983C3E902476FF00100B9E76FF00200D0
:103E1000B6E700BFC00200202DE9F0410F4615466D
:103E20009846044618B10378FA2B00D141B92046D0
:103E30006FF00301FFF7CAFB6FF00300BDE8F081EC
:103E4000FFF7E8FE064600283AD001462046FFF775
:103E500045FE626A06F10C01384606F0FBFD0DB125
:103E6000F3782B70002504F10C0735703146384685
:103E7000FFF705FEA3680BB90020DFE73846FFF720
:103E8000E4FD06460028F7D0204600F0B3FB2946A3
:103E90000746012200F046FC384600F0EFFB626A5C
:103EA0008168074606F10C0006F0D4FDF923337053
:103EB000B570FB68F37031462046FFF7CCFEDBE7B8
:103EC000B8F1000F10D04146832000F03FFD40B113
:103ED000074B2046596900F07BFBEFF30983C3E9E8
:103EE00002756FF00100A9E76FF00200A6E700BFBE
:103EF000C002002010B50446EFF3058333B1002063
:103F00006FF00501FFF762FB002010BDFFF7DBFD3E
:103F10000028F4D1DFF808C0204600DFF5E700BF35
:103F2000F53A00082DE9F04106460F4690461C463A
:103F3000EFF305834BB196B930466FF00301FFF7FD
:103F400045FB6FF00300BDE8F081FFF7BCFD0028E2
:103F5000F1D1DFF84CC03046234600DFF3E7337879
:103F6000FA2BE9D1002FE7D0002CE5D106F10C00A7
:103F7000FFF76BFD054680B1726A39460C3006F0DA
:103F800069FDF9232846C5E901762B70AC7085F8E8
:103F9000038000F037FA2046D5E76FF00200D2E741
:103FA0005D3D0008F8B504460F4616461D46EFF382
:103FB000058343B18CB920466FF00301FFF706FB80
:103FC0006FF00300F8BDFFF77EFD0028F2D1DFF8A7
:103FD00048C020462B4600DFF4E72378FA2BEAD1CD
:103FE000002FE8D0002DE6D12046FFF713FE05464E
:103FF00070B100F10C01626A384606F02BFD0EB17B
:10400000EB7833702846EC6000F0FCF90020D9E72B
:104010006FF00200D6E700BF193E0008EFF31083EF
:104020002BB9EFF31180003818BF01207047012031
:104030007047000070B5A8B38468D0E900566CB131
:1040400014F0030302D1C2681B2A1AD86FF00801CA
:104050000020FFF7B5FA0024204670BDC368002B8E
:10406000F4D1124BD3F8940030B9D3F88000012278
:104070001C21FFF777FC01E0FFF7E7FC044660B185
:104080000123F522A3700023C4E90233C4E90433F9
:104090002270E67065602376DEE76FF00401FFF7BB
:1040A0008FFAD9E705460646DBE700BFC0020020CD
:1040B000284B70B55D6904460E4635B96FF00701AF
:1040C000FFF77EFA4FF0FF3070BD10B10378F52B8B
:1040D00007D020466FF00301FFF772FA6FF003007C
:1040E000F2E7037E53B9EA6AC560C0E9043202B15F
:1040F0001061EC62012323760020E5E7C278D10746
:104100000DD5C168A9420AD1FF2B06D16FF00F016E
:10411000FFF756FA6FF00200D6E70133EBE7002E07
:10412000F8D093070AD5E06895F9203090F920205F
:104130009A4203DA80F8203000F06EFA31465320BC
:1041400000F004FC18B12946204600F041FA6FF057
:104150000100B9E7C002002038B52E4B5A69044669
:1041600032B96FF00701FFF72BFA4FF0FF3038BD7F
:1041700010B10378F52B07D020466FF00301FFF74D
:104180001FFA6FF00300F2E7037E33B96FF00E0100
:10419000FFF716FA6FF00200E9E7C168914202D01A
:1041A0006FF00D01F4E7013BDBB2037623BB4369FB
:1041B0000BB101691961216901B34B61E3789B0778
:1041C00005D592F92110D36AD3B982F82010A368DB
:1041D0007BB1204600F00EFA00220546114600F0A1
:1041E000A1FAEB6A6361002323610123E560EC62BD
:1041F0002376002000F06AFA0020B8E7D362DDE7FA
:10420000986820B190F920008142B8BF01465B69EF
:10421000DAE700BFC00200202DE9F0410446002685
:1042200001270CB9BDE8F081E378D4F814801B07AE
:1042300010D5A36826766BB1204600F0DBF900228A
:104240000546114600F06EFAEB6AE560C4E90463C6
:10425000EC6227764446E4E708B50246EFF30583AF
:1042600033B100206FF00501FFF7AAF9002008BD67
:10427000FFF7D4FE0028F4D1DFF808C0104600DFB5
:10428000F5E700BF3540000808B50246EFF30583A7
:104290003BB110466FF00501FFF792F96FF0050092
:1042A00008BDFFF7BBFE0028F3D1DFF808C01046B9
:1042B00000DFF5E7B140000808B50246EFF30583DB
:1042C0003BB110466FF00501FFF77AF96FF005007A
:1042D00008BDFFF7A3FE0028F3D1DFF808C01046A1
:1042E00000DFF5E75941000810B5D0E85F3F5A1CE0
:1042F000914200D80022C0E8542F04B1F5E798B2EB
:1043000010BD000038B51A4C00F078FCE3680133AA
:10431000E360236D03B1984700F098F9002000F0A6
:10432000D5F9236C1BB3A26BA1698A4202D0A163A9
:10433000E3631CE0E36BB3B9237A022B17D1656A00
:10434000ADB195F9201092F9203099420FD128464D
:1043500000F059F9A06B00F071F9284600F0ACF9B3
:10436000236CA563E4E7013BE363002BE4D038BD95
:10437000C002002070B5224C04F1560504F15A0623
:10438000B4F85410D5E85F3F13B9BFF32F8F04E0A2
:104390005A1EC5E8502F00B1F4E79BB25BB330461C
:1043A000FFF7A2FFE36D53F8200020B30378F13B41
:1043B000082BE5D801A252F823F000BFE143000822
:1043C00081430008E7430008814300088143000857
:1043D000EB430008EF43000881430008F343000863
:1043E000236E9847CCE7636EFBE7A36EF9E7E36EB5
:1043F000F7E7236FF5E7BDE87040002000F066B9ED
:10440000C002002070B5164C0546B4F8541004F1F3
:104410005602D2E85F3F994202D8BFF32F8F04E0E3
:10442000581CC2E8560F06B1F3E79BB2994205D873
:1044300029460220BDE87040FFF778B804F1580023
:10444000FFF752FFE36D43F82050637A23B9054B21
:104450004FF080525A6070BD0123A372FBE700BF8A
:10446000C002002000ED00E0EFF310832BB9EFF362
:104470001180003818BF01207047012070470000EC
:1044800010B50A4A90F9201001234370536A1C3278
:104490001BB193F920408C4205DCC0E902329060E8
:1044A00003B1D86010BD1A469B68F1E7C002002036
:1044B000014B5869704700BFC002002010B50023AF
:1044C000038083789A07044608D513F0100F016B18
:1044D0000E4B0FD0D3F88400FFF7D1FAA378DB0797
:1044E00012D50A4BD3F88800214638B1BDE81040F8
:1044F000FFF7C5BA586FFFF769FAEFE7BDE810405C
:10450000D3F88000FFF762BA10BD00BFC0020020E0
:1045100008B5FFF761F8DFF810C000DF4FF0FF319A
:104520000020FFF747F8FEE7D149000810B5C4693D
:10453000621CD0E904310AD103B1596142691AB150
:1045400013610023436101E0064A136310BD1BB1F0
:10455000DA6959612244DA614269002AF0D1014ADC
:10456000D362F3E7C0020020930710B502F0010404
:1045700022D400F1280384B153E8000F00EA0102BD
:104580008A4203D0BFF32F8F002005E020EA01020A
:1045900043E8002404B1EFE710BD53E8000F0842E0
:1045A00003D1BFF32F8F002005E020EA010243E88A
:1045B000002404B1F1E7EFE7806A01EA00031CB1CF
:1045C0008B4218BF0020E7E7002B08BF0020E3E77D
:1045D00010B591F9202083681BB193F920409442D3
:1045E00005DAC1E90230816003B1D96010BD184617
:1045F0009B68F1E783689A68826002B1D06000220C
:10460000DA6018467047C2682AB18368936003B1C4
:10461000DA600023C360704710B5044664B12378A4
:10462000F12B07D0FFF7EFFF01462046BDE8104011
:10463000FFF7CEBFE468F1E710BD0000012301469B
:1046400043700148FFF7C4BFDC02002038B50A4DB3
:10465000EC6A84B1E369013BE36163B92046FFF78B
:10466000D2FFFFF7EBFF246924B1E369002BF5D0FB
:1046700000236361EC6238BDC002002090F8223054
:10468000826B13F0100F0CBF602020201044704785
:10469000074B596951B10B6B8A6B934203D21A686D
:1046A000044B9A4202D00120FEF740BF704700BF82
:1046B000C0020020A52E5AE208B502234370024B27
:1046C0009861FFF7E5FF08BDC002002010B5144B4C
:1046D00004461A7A5969A0B9022A1FD15C6AECB162
:1046E00094F9202091F920309A4217DD2046FFF7F7
:1046F0008AFF0846FFF7C4FE2046BDE81040FFF7DA
:10470000DBBF022A05D190F9202091F920309A428E
:10471000EFDC2046BDE81040FFF790BF10BD00BFA2
:10472000C002002038B505461446FFF7A7FF016018
:104730002846FFF7FBFE1CB1BDE83840FFF7C6BFB7
:10474000BDE83840FFF77ABF10B54378332B0446F5
:104750000CD1416A90F82320FFF706FF014628B1EB
:1047600020460022BDE81040FFF7DCBF10BD00006E
:104770002DE9F04F85B00391019028B96FF0030146
:10478000FEF718FF0024BEE0002A4AD0966846B122
:10479000B00702D1D368432B06D86FF00801002080
:1047A000EEE7D368002BF8D1D2E90449976944B108
:1047B000610703D1B9F1000F40F0B1806FF00A0139
:1047C000EDE72FB1791E372903D96FF00B01E6E72A
:1047D0001827B9F1000F40F0A680D2E900B3029388
:1047E00066BB554DD5F8880008B3FFF72EF906468D
:1047F00000283DD04FF00108DFF83CA1002C42D149
:10480000B9F1000F1DD14D4BDAF88400D3F8549064
:10481000B8B1FFF71AF90546E0B148F01008344680
:1048200023E093461446182791460292D9E7D5F81B
:10483000800001224421FFF795F8D8E74FF00008E7
:10484000DAE7DAF8740022464946FFF78BF80546A6
:104850000028E4D1B8F1000F13D0DAF888503146BF
:104860004DB12846FFF70BF9002548F0020864B95E
:104870006FF0040193E7DAF88000FFF7A7F82C4601
:10488000F3E74546F1E72546344640F2F11222802F
:104890000022C4E90222C4E90422C4E90622C4E9D0
:1048A0000922C4E90B25A9F14002029BE3702A44C6
:1048B000019BA2637FB2224AE363FD2184F8028058
:1048C000C4F804B084F8207084F821706184C4F8BE
:1048D00034902A60194A1268530718D4A36B342203
:1048E0001846002106F0CCF9164A4263019A826309
:1048F0004FF08072C263039A0262134BCAF86030B1
:104900002046FFF7E3FE204605B0BDE8F08F29F012
:104910000302443ACC21281D06F0B2F9DEE7002F4D
:104920007FF450AF182719F0070F7FF447AFB9F1A4
:10493000470F3FF652AF41E7C002002058820108FE
:10494000A52E5AE2114500084947000838B51E4C0B
:10495000237A022B34D1636A002B33D063694A1C5B
:10496000587015D1226B00216AB94FF0FF30C3E9AE
:104970000421D86151B10B611448FFF73BFEFFF7EA
:104980009BFE012038BD11461269EDE72363F3E772
:10499000E26A002012B1D569A9420BD2C3E9042012
:1049A000D96158B10361002AE6D0D0695361411A38
:1049B000D161E1E71046491B1269EBE7E362F2E7D8
:1049C0000020DFE71846DDE7C0020020DC020020FF
:1049D00038B5164D2B7A022B27D16B6A2BB36C6935
:1049E000E06AFFF719FCA06918B100221146FFF731
:1049F00099FEEFF309830E48A363FFF7FBFDFFF772
:104A00005BFE00236B61E378DB0701D5A36923B16B
:104A10002046BDE83840FFF751BD04226270E360D4
:104A20006B6BA36003B1DC606C6338BDC002002017
:104A3000DC02002038B50B4C0B48A26D0B4D002159
:104A4000FFF796FE636EA8624BB1E26D0848002145
:104A5000FFF78EFEA864003818BF012038BD012082
:104A6000FCE700BF5882010825350008C00200207D
:104A7000594B000810B50446EFF3058333B100200D
:104A80006FF00501FEF796FD002010BDFFF7ECFC6E
:104A90000028F4D1DFF808C0204600DFF5E700BFAA
:104AA0007147000808B5EFF3058313B1054B58694A
:104AB00008BDFFF7D9FC0028F8D1DFF80CC000DFF3
:104AC000F6E700BFC0020020B144000830B50C4D2D
:104AD0006B6C002213B11C698C420AD9C0E9022315
:104AE00001611BB11C699860611A19612AB1D0601B
:104AF00030BD1A46091BDB68ECE76864F8E700BFC5
:104B0000C002002070B5134D6C6C04B32369013BE7
:104B1000236101262369D3B9E3680BB1A2689A60C7
:104B20006B640023E86C1A4604F11801FFF7FAF9E8
:104B300018B121460320FEF7F9FCE378012B07D1D9
:104B400061692046FFF7C2FF6C6C002CE2D170BD9A
:104B50006670F9E7C00200200B4B0C4C07B51A6ECB
:104B6000586E0821FFF7C6F9094BE0642365E06C35
:104B70004FF0FF3300226946FFF714FA0028F6D100
:104B8000DDE900309847F2E758820108C0020020B2
:104B9000054B0008A8B10C4B1B68B3FBF0F00138C3
:104BA000B0F1807F0DD2094BFF2283F823204FF014
:104BB000E02306221A61586100209861044B1870A6
:104BC00070474FF0FF3070476403002000ED00E0B5
:104BD000E02D0020074B1A782AB100221A70064BEC
:104BE0004FF080625A604FF0E022136943F00103F6
:104BF00013617047E02D002000ED00E04FF0E0234E
:104C00001B6970474FF0FF30704700000F49D1F823
:104C1000883043F47003C1F888300D4B1A680020C7
:104C200042F001021A6098601A6822F0847222F43D
:104C300080321A60074A5A601A6822F480221A6089
:104C4000D8604FF000638B60704700BF00ED00E05C
:104C5000003802401030002430B595B0234B0024BA
:104C600001941A6C42F080521A641B6C204A03F0C3
:104C700080530193019B0294136823F4404343F44F
:104C800000431360136803F440430293A042029B65
:104C90004FF0010308930CBF4FF480334FF4A0236F
:104CA000099302254FF48003CDE90E5308224FF4F7
:104CB000A873CDE910230421072308A8CDE9121316
:104CC00001F004FA80B90F23CDE903354FF4805386
:104CD000CDE906300590294603A801F0ADFBB0FAF6
:104CE00080F0400915B030BD2046FBE70038024097
:104CF0000070004030B595B00024204B01941A6C30
:104D000042F080521A641B6C1D4A03F080530193D9
:104D1000019B0294136823F4404343F4004313605F
:104D20001368099403F440430293029B03230893FE
:104D300001230B9310230C9310934FF4A8710423B9
:104D4000CDE911130225072308A8CDE90E541393CA
:104D500001F0BCF980B90F23CDE903354FF480533E
:104D6000CDE906300590294603A801F065FBB0FAAD
:104D700080F0400915B030BD2046FBE70038024006
:104D80000070004008B50120FFF766FF28B9FFF763
:104D9000B1FF10B90148FDF74BFF08BDA886010817
:104DA000DFF830D0002103E00B4B5B584350043157
:104DB0000A480B4B42189A42F6D30A4A02E00023F3
:104DC00042F8043B084B9A42F9D3FFF71FFFFBF769
:104DD00005FA7047008001203C96010898010020E8
:104DE000380D0020380D002010300020FEE70000B4
:104DF000A1F1F0039BB20F2B73B504460D4615D9F4
:104E000029492846FDF756F9274920602846FDF72D
:104E100073F9254906462846FDF704F92268511C16
:104E20000FD1224922483C22FDF734FD2149284672
:104E3000FDF740F91F4920602846FDF75DF9064659
:104E4000ECE7731C03D119491B483D22ECE7012113
:104E5000E1611A49A4F848500023C6F384368A4217
:104E6000C4E90133C4E90833C4E90A3384F84A6069
:104E700023642361A361E360236363610AD1019327
:104E80000F4B5A6C42F480725A645B6C03F480736B
:104E90000193019B204600F097F810B10948FDF7F7
:104EA000C7FE02B070BD00BF24830108BC860108A4
:104EB000FB860108D88301082587010800200140EE
:104EC000003802403E87010830B5044685B0102204
:104ED0000021684605F0D4FE94F84A200123CDE96C
:104EE0000133122A4DD8DFE802F00C0B0A27292BD8
:104EF0002D2F31333537393B3D3F414648000223A2
:104F00000093214D6B6823F4400369466B60204693
:104F100000F0B2F9204600F0FBF80A21204600F02C
:104F200057F960BB204600F0A3F980B26B6823F408
:104F300040036B6005B030BD0323E1E70423DFE7E6
:104F40000523DDE70623DBE70723D9E70823D7E7B7
:104F50000923D5E70A23D3E70B23D1E70C23CFE7B7
:104F60000D23CDE70E23CBE70F23C9E710230093D2
:104F700007230293C5E71123F9E71223F7E700207F
:104F8000D4E70020D6E700BF0023014070470000AF
:104F900008B50B4B1A6842F400721A601A6842F4A2
:104FA00080621A601A6842F480721A60032000F06E
:104FB000F5F90F2002F06AF8FFF7E8FF002008BDBE
:104FC000003C02407047000010B50446002800F085
:104FD0009980036C23B9436480F83C30FFF7F2FFFB
:104FE000236CDB0600F18C80236C23F4885323F0C0
:104FF000020343F002032364434B5A6822F4403215
:105000005A605A6861680A435A60236821695A687D
:1050100022F480725A605A6842EA01225A605A6841
:10502000A16822F040725A605A680A435A609A682E
:10503000E16822F400629A609A680A439A603349F0
:10504000A26A8A4250D0996821F07061996099688B
:105050000A439A609A68E16A22F040529A609A681C
:105060000A439A609A68A16922F002029A609A68DB
:1050700042EA41029A60226A002A3DD05A68616A77
:1050800042F400625A605A6822F460425A605A68D8
:10509000013942EA41325A60DA6AE16922F4700267
:1050A000DA62DA6A013942EA0152DA629A68216BFD
:1050B00022F400729A609A6842EA41229A609A68E1
:1050C000616922F480629A609A68002042EA812233
:1050D0009A606064236C23F0030343F001032364AC
:1050E000002384F83C3010BD9A6822F070629A6008
:1050F0009A6822F04052B4E75A6822F40062CAE784
:105100000120EDE70120EEE7002301400100000F40
:1051100082B00023019390F83C30012B4ED0012344
:1051200080F83C3003689A68D10705D59A68D207A1
:1051300014D4002002B070479A68214942F001025D
:105140009A60204A1268B2FBF1F202EB420201922D
:10515000019A002AEAD0019A013AF8E7026C22F497
:10516000E06222F0010242F4807202645A68510542
:1051700041BF026C22F4405242F480520264026C3D
:1051800012F480521CBF426C22F0060242640022DC
:1051900080F83C206FF022021A600B4A5268D20657
:1051A00008D1986810F04050C3D19A6842F080420C
:1051B0009A60BFE7054A9342BBD1F2E70220B9E704
:1051C00040420F0064030020002301400020014002
:1051D00003689A6870B5560504460D460BD59B6862
:1051E000D80508D5236C43F020032364002384F8FA
:1051F0003C30012070BD01F04FFF064623681A685D
:1052000092070CD56FF012021A60226C42F4007201
:1052100022649A6812F0405F13D00020EAE7691C0C
:10522000EDD045B9236C43F004032364002384F8D4
:105230003C300320DEE701F02FFF801BA842DDD9C0
:10524000F0E7A269002AE8D1DA6A12F4700F02D0FE
:105250009B685B05E1D4236C23F480732364206C8A
:1052600010F48050D9D1236C43F001032364C1E7CB
:105270000368D86C70470000F7B50023019390F8DD
:105280003C30012B66D0012380F83C300D68036868
:105290008E68092DACB231D904EB4402DF681E3AA6
:1052A0004FF0070C0CFA02FC27EA0C07DF60DF68FE
:1052B00006FA02F23A43DA604968062901EB8102F4
:1052C0002CD8596B053A1F26964021EA06015963EE
:1052D000596B04FA02F20A435A632C4A934207D1EB
:1052E000122D39D1D2F8043343F48003C2F80433C9
:1052F000002380F83C30184603B0F0BD1F6905EB71
:1053000045024FF0070C0CFA02FC27EA0C071F615C
:105310001F6906FA02F23A431A61CDE70C294FF0F1
:105320001F010BD81E6B233A914026EA0101196335
:10533000196B04FA02F20A431A63CEE7DE6A413AB5
:10534000914026EA0101D962D96A04FA02F20A43BD
:10535000DA62C2E70220CFE7A5F11003012BC7D81C
:105360000B4A5368102D43F400035360C0D1094B1E
:10537000094A1B68B3FBF2F30A2253430193019BD2
:10538000002BB5D0019B013BF8E700BF0020014096
:10539000002301406403002040420F000749CA680F
:1053A00022F4E0620302120403F4E063120C1343DC
:1053B00043F0BF6343F40033CB60704700ED00E07F
:1053C00000280DDB4309012200F01F0002FA00F063
:1053D0002033044A42F82300BFF34F8FBFF36F8F8F
:1053E000704700BF00E100E090F83530022B03D099
:1053F00080234365012070470268052380F835301B
:10540000136823F001031360002070477047000009
:1054100070B50446002862D090F83D3003F0FF02DA
:105420001BB980F83C20FFF7F1FF22682D4D2423A3
:1054300084F83D30136823F00103136001F094F801
:1054400063682168284AB0FBF2F2AB4288BF4FF490
:1054500096764A6082BF72434FF47A76B2FBF6F2D8
:10546000AB4202F101020A6221D840F6FC725B00F5
:10547000B0FBF3F3134208BF0423CB61D4E9073236
:1054800013430B60D4E9032313438B60D4E9053243
:105490001343CB600B6843F001030B600020202313
:1054A000206484F83D30206384F83E0070BDA2681B
:1054B0004AB903EB4303B0FBF3F3C3F30B0262B14E
:1054C00043F40043D9E719225343B0FBF3F3C3F38A
:1054D0000B0212B143F44043CFE70123CDE7012093
:1054E000E4E700BFA086010040420F0073B500242E
:1054F0000094019490F83D40069D202C02D002209B
:1055000002B070BD042D01D0012D18D1294C46F2F6
:10551000A8162468B4FBF6F4192674430194019C80
:10552000661E01963CB92023046380F83C4080F855
:105530003D300320E4E70468A469A407EFD490F8A1
:105540003C40012CDBD004682668F6075EBF266865
:1055500046F001062660266826F4006626602126AD
:1055600080F83D60102680F83E6000260664438582
:10557000C562438D41640385036B0093009B4262C7
:10558000122B01D0009B5BB9042D01D0012D04D159
:10559000236843F48073236002E0009B122BF7D052
:1055A000002380F83C30626842F4E0626260184692
:1055B000A6E700BF6403002073B50024019490F8AF
:1055C0003D40069D202C02D0022002B070BD042D6B
:1055D00001D0012D18D12D4C46F2A8162468B4FB39
:1055E000F6F4192674430194019C661E01963CB999
:1055F0002023046380F83C4080F83D300320E4E73A
:105600000468A469A407EFD490F83C40012CDBD0D7
:10561000012480F83C4004682668F6075EBF2668CF
:1056200046F001062660266826F4006626602226DB
:1056300080F83D60102680F83E60002606644385B1
:10564000C562438D41640385036B4262112B01D017
:10565000036B93B9042D04D0012D02D015F5803FC2
:1056600008D1236843F480632360236843F4807384
:10567000236002E0036B112BF3D0002380F83C3051
:10568000626842F4E062626018469EE764030020AC
:1056900090F83D30202B14D1282380F83D3003684A
:1056A0001A68D2075EBF1A6842F001021A601A68CF
:1056B00042F480621A605A6842F440725A600020D4
:1056C00070470220704770477047000010B590F88F
:1056D0003D200368293A012A044639D80022026392
:1056E000282280F83D201A6822F400621A605A6865
:1056F00012F4006254D05A68606B22F400625A605F
:1057000090F83530012B394B31D00365FFF76CFE33
:1057100050B12268606B136823F0010313602023EB
:1057200084F83D30036D984794F83D30282B0ED116
:10573000236C5B070BD52E4BE362202200232363EF
:10574000204684F83D2084F83E3001F089FF10BDEA
:1057500090F83D20602A05D05A6812055CBF2022CF
:1057600080F83D200022226384F83E20BBE7A06B36
:105770000365FFF739FE0028D6D023685A69500622
:1057800004D51A69636A591C61621A702268A06B99
:10579000136823F001031360202384F83D30C1E730
:1057A00094F83D10602914D1202184F83D10226422
:1057B0005A69510604D51A69636A591C61621A70E4
:1057C0002268136823F001031360204601F04AFFAA
:1057D000AAE75A69520604D51A69636A591C6162BC
:1057E0001A70204601F00DFF9EE700BFE95F000838
:1057F0000000FFFFF8B50368494A5E695D6816421C
:10580000044608D0E80506D5226C42F00102226465
:105810006FF480725A6116F4813F08D0E90506D50D
:10582000226C42F0020222646FF400725A6116F494
:10583000823F36D0EA0534D594F83E70618D94F8F5
:105840003D20206B202F89B2D2B258D1002956D1E9
:1058500002F0F701212903D0282A50D121284ED166
:1058600094F83D20E16A0429D2B201D008292CD154
:10587000282A2AD12B4AE2625A6822F4E0625A604E
:105880006FF480625A611A6822F480621A60002301
:1058900020222363204684F83D2084F83E3001F026
:1058A000DFFE16F4843F09D0EB0507D5236C43F0E7
:1058B0000803236423686FF400625A61236C73B396
:1058C0002046BDE8F840FFF701BF212A23D1154942
:1058D000E1622263202284F83D20002284F83E20E9
:1058E0005A6822F4E0625A606FF480625A611A6862
:1058F00022F480621A60204601F0AAFED1E7226CF1
:1059000042F00402226494F83E20102A02BF1A6872
:1059100042F400721A606FF480625A61C1E7F8BD08
:10592000000101000000FFFFF0B503689D6959699F
:105930005A6890F83E40102C8DB0E6B202D0402E4E
:1059400040F04A8211F0011F66D0970564D590F8A7
:105950003E40402C43D1046D002C3BD1446C04F0FC
:10596000FE041C61904E914C2E400C40002E00F025
:105970009A818F4D0D40002D00F06181550540F159
:105980005E81002C40F05D8190F83D20058D90F8FF
:105990003E10C46AD2B2C9B2002D40F00F81212A54
:1059A00040F00E81042C00F06781082C00F0648127
:1059B00014F5803F00F060815A6822F4E0625A607A
:1059C0001123036380F83E50202380F83D3001F01E
:1059D000E3FD10E1446C44F00104E4B2C1E7046962
:1059E000B4F5804F05D190F83D40212C446CF2D1A4
:1059F000B5E7046D34B9446CE41104F0060444F0D6
:105A0000F004AEE7046D012CACD1446CE41104F059
:105A1000060444F0F104A4E7664C0C401CB1960562
:105A200001D5446CD9E7644C0C40002C9AD0940505
:105A300098D590F83E40C66AD0F830C090F83D70D6
:105A4000222FE4B240F0A880076D47B9402C06D160
:105A500001975C6901949C690194019C82E7046D43
:105A60008CB90769B7F5404F0DD102945C69029477
:105A70009C690294029C1C6844F480741C60046D50
:105A8000013404656EE7448DA4B254B903945C6993
:105A900003949C690394039C1C6844F400741C6088
:105AA00019E0448DA4B2012C42D116F5803F1BD1E0
:105AB0001C6824F480641C605C6814F400640CD0DE
:105AC0001C6824F480641C60002404945C690494C1
:105AD0009C690494049C0024D3E705945C690594B4
