:020000040800F2
:1000000000800120B93B0008ED3B0008ED3B0008F3
:10001000ED3B0008ED3B0008ED3B00080000000050
:10002000000000000000000000000000DD52000899
:10003000ED3B00080000000083530008E353000874
:10004000ED3B0008ED3B0008ED3B0008ED3B0008F0
:10005000ED3B0008ED3B0008ED3B0008ED3B0008E0
:10006000ED3B0008ED3B0008ED3B0008ED3B0008D0
:10007000ED3B0008ED3B0008ED3B0008ED3B0008C0
:10008000ED3B0008ED3B0008ED3B000800000000E0
:10009000000000000000000000000000ED3B000830
:1000A000ED3B0008ED3B0008ED3B0008ED3B000890
:1000B000ED3B0008ED3B0008ED3B0008ED3B000880
:1000C000ED3B0008ED3B0008ED3B0008ED3B000870
:1000D000ED3B0008ED3B0008ED3B00080000000090
:1000E000ED3B0008ED3B0008ED3B00080000000080
:1000F000000000000000000000000000ED3B0008D0
:1001000000000000ED3B0008ED3B0008ED3B00085F
:1001100000000000000000000000000000000000DF
:10012000ED3B0008ED3B0008ED3B0008ED3B00080F
:10013000ED3B00080000000000000000000000008F
:10014000000000000000000000000000ED3B00087F
:10015000ED3B0008ED3B0008ED3B0008ED3B0008DF
:10016000ED3B0008ED3B000800000000000000002F
:10017000000000000000000000000000000000007F
:1001800000000000ED3B000800000000000000003F
:10019000ED3B000810B5054C237833B9044B13B17F
:1001A0000448AFF300800123237010BDB00C002081
:1001B00000000000B49E040808B5034B1BB10349BE
:1001C0000348AFF3008008BD00000000B40C00201D
:1001D000B49E0408154B002B08BF134B9D46A3F596
:1001E000803A00218B460F461348144A121A31F008
:1001F000A9FD0F4B002B00D098470E4B002B00D0D1
:1002000098470020002104000D000D48002802D06E
:100210000C4803F004FA30F079FF2000290003F0C5
:10022000BEF903F0F9F900BF0000080000800120CA
:100230000000000091350008B00C00206C3A00204E
:100240001F3600080000000038B504460D4606F0D1
:1002500035FF2946204602F0F1FF06F059FF06F06F
:100260002DFF2046142103F0B1F806F051FF06F0EF
:1002700025FF2046034902F0D5FE06F049FF20463F
:1002800038BD00BFAC1C9A3D704700000000000064
:1002900038B50D46044606F011FF284641F016FF1A
:1002A00009A3D3E9002341F069FF09A3D3E900239F
:1002B00041F0AEFD42F05AFA0146204602F0B2FE8D
:1002C000BDE8384006F024BF40BD19355F254F3FDB
:1002D000DD2406819543B33F704710B50C210446D9
:1002E00006F0E2FF204610BDB0F90030013310B532
:1002F000044604D148220649064806F0C5FEA36814
:100300001A6863681A4214BF0120002010BD00BFA4
:10031000DC4004081741040838B5B0F90030013357
:1003200004460D4604D13A220549064806F0ACFEC3
:10033000636815B1E268136038BD22691B04FAE7EF
:10034000DC4004081741040838B504460D4606F0A1
:10035000B5FE2946204602F065FEBDE8384006F0AD
:10036000D7BE704738B52DED028B08EE101AB5EEEA
:10037000C08AF1EE10FA044600F13C0500F12800B5
:1003800011D50021FFF7C8FF01212846FFF7C4FF60
:10039000F0EEC87A17EE901A04F11000FFF7D4FFC0
:1003A000BDEC028B38BD0121FFF7B6FF0021ECE761
:1003B000FFF7D8BFA0F10400FFF7FABF38B500F18E
:1003C00028052DED028B0446284608EE101AFFF78B
:1003D0008BFFB0FA80F14909284604F13C05FFF78C
:1003E0009BFF2846FFF780FFB0FA80F149092846B5
:1003F000FFF792FFF0EEC87A17EE901A04F11000A2
:10040000FFF7A2FFBDEC028B38BD000010B5002144
:1004100004462830FFF780FF04F13C000021FFF77D
:100420007BFF034904F11000FFF78EFF10BD00BFF2
:100430000000C842034610B553F8042B044612B915
:100440000360206810BD9A42FBD05922024903483C
:1004500006F01AFEF5E700BF84400408AB4004082C
:1004600008B50248FFF7E6FF08BD00BF5818002096
:1004700008B50248FFF7DEFF08BD00BF581800208E
:100480002DE9F8439146244A984602F108031832B0
:1004900004460360426000F110050E46142706F082
:1004A0000DFE3146284604F1280602F0C7FE06F08C
:1004B0002FFE3A460021304631F044FC4946304692
:1004C00004F13C0606F0FBFC3A460021304631F0D0
:1004D00039FC41463046114E06F0F1FC104B2365C5
:1004E0003046FFF7A7FFBDF9201004F1540002F0D9
:1004F00005FB3046FFF79EFF06F0E0FD2846C821C9
:1005000002F004FE06F004FE064BA3600023E36045
:100510002046BDE8F88300BFC040040858180020FA
:10052000744004080AD7233C38B5134C2DED028BD8
:1005300005462046FFF77EFF05F1540002F042FB1E
:1005400008EE100A2046FFF775FFF1EE047A68EE18
:10055000277A17EE900A41F0B9FD05A3D3E90023ED
:1005600041F036FF42F002F9BDEC028B38BD00BF0E
:10057000EC51B81E85EBC13F58180020F0B50023A0
:1005800084681D4601269C420CD0426852F8232004
:10059000916857680131B942916024BF1673956024
:1005A0000133F0E7F0BD034603C983E80300704759
:1005B0007047D0E900301847027B22B1036800225F
:1005C0000273DB6818477047034AC0E90021002224
:1005D00082600273704700BF544104087047C368CB
:1005E00010B504460BB19B689847204610BD00002B
:1005F00038B50546064B45F8183B044606F0C6FBE1
:100600002846FFF7ECFF204606F020FC204638BDC8
:100610000850040810B50446FFF7EAFF20462821D9
:1006200006F042FE204610BD38B50446054B44F89E
:100630000C3B0546204606F0A9FB2046FFF7D8FFF5
:10064000284638BD4441040810B50446FFF7ECFFC6
:100650002046342106F028FE204610BD38B5CB6870
:1006600004460D460BB15B689847EB68E360204693
:1006700038BD000070B52DED028B08EE103A1B4B13
:10068000826000F10C0588B00446C0E900312846BC
:1006900006F0BCFB164BE36000232363154B694651
:1006A000CDE9003404F12406134B039304A8FFF7AB
:1006B000D5FF3046FFF793FF04A93046FFF7CEFF82
:1006C000DFED0E7A28EE278A2846FCEEC87A17EE70
:1006D000901A06F047FB04A8FFF781FF6846FFF772
:1006E0007EFF204608B0BDEC028B70BD444104087B
:1006F000085004087D0500083041040800247449AE
:10070000704710B54FF48871044606F0CDFD2046C1
:1007100010BD00F1080373B50360044608460D469A
:1007200033F04EFA0F2805EB0006019007D900229E
:1007300001A9204614F004FA019B2060A360324610
:100740002946206814F050FA019B2268636000215A
:100750002046D15402B070BD70B5044672B6FF2673
:100760003546206906F004FA80B3D4F81831D4F87D
:100770001C110133B3FBF6F2C2EB02229B1A8B422F
:1007800024D02069BC3006F093F9D4F81831D4F89D
:100790001C110133B3FBF6F2C2EB02229B1A8B420F
:1007A000DFD0D4F818312344C0B21876D4F8183109
:1007B0000133B3FBF5F2C2EB02229B1AC4F81831E5
:1007C000D4F820310133C4F82031CAE762B670BDD5
:1007D000FFF7C2BF10B5D0F80811D0F804410131BD
:1007E0000346FF22B1FBF2F0C0EB0020091AA14240
:1007F00014D0D3F808110131B1FBF2F2C2EB02229E
:100800008A1AC3F80821D3F808211A441079D3F8BA
:100810000C21013AC0B2C3F80C2110BD0020FCE746
:10082000F8B5044672B6FF2600F59275206906F009
:10083000B0F9B0B1D4F82C32D4F828120133B3FB9C
:10084000F6F2C2EB02229B1A8B420AD0206900F119
:10085000BC072846FFF7BEFF0146384606F014F9EC
:10086000E4E762B6F8BDFFF7DBBF00002DE9F04317
:10087000D0F81C31D0F818110133FF22B3FBF2F28B
:10088000C2EB02229B1A8B42ADF5097D04460BD0C8
:100890001430FFF79FFF2328074609D184F834025C
:1008A00004F23523C4F834330DF5097DBDE8F08337
:1008B000D4F8343304F54D729342F5D00A286ED142
:1008C00013F8032C3B2A6AD113F8022C3B2A66D179
:1008D00013F8013C0D2B62D104F50D7808AB6A4684
:1008E0003249404631F0C2FE022856D1694648A836
:1008F000FFF70FFF04F54F79D4F840634D4656B12A
:1009000006F1100048A914F089FC0028AABF35465A
:10091000F668B668F3E7A94508D005F1100148A8C4
:1009200014F07CFC35EA200528BF4D4648A814F099
:100930002BF94D4531D01E4B48AA03F1100C186815
:100940005968164603C6083363453246F7D11B88FB
:100950003380EE2200210DF5997031F0F3F948A9AA
:1009600002A8FFF7D6FE6B6B05F128062BB940F203
:100970001D621049104806F087FB6B6B48AA1B6884
:1009800008A93046984720690C4948AB6A46BC30F4
:1009900006F0A0F802A814F0F7F8C4F83483D4F8ED
:1009A00034331F70D4F8343301337BE774420408C6
:1009B000744104087E4204089F420408A4420408CB
:1009C000F8B507460C46A4B1E1683846FFF7F8FFD2
:1009D000636BA56804F110061BB19B6804F1280045
:1009E0009847304614F0D0F8204602F079FE2C46A5
:1009F000E9E7F8BD10B5074BD0F840130360044693
:100A000000F54E70FFF7DCFF2046FFF7E7FD2046BC
:100A100010BD00BFB842040810B50446FFF7EAFF56
:100A200020464FF4547106F03FFC204610BD38B507
:100A3000CB6804460D460BB15B689847EB68E360F2
:100A4000204638BD2DE9F047804638200D46164631
:100A5000994602F02DFE05F110010446103014F005
:100A600025FC05F1280104F12800FFF7E0FF2B78B1
:100A7000E96823700023C4E90233666029B14B465C
:100A800022464046FFF7DEFFE060AE6827464FF0A3
:100A9000000AFEB1382002F00BFE06F110010546F7
:100AA000103014F003FC06F1280105F12800FFF7CF
:100AB000BEFF33782B70C5E902AABD606F60F16894
:100AC00029B14B462A464046FFF7BCFFE860B668AE
:100AD0002F46DEE72046BDE8F08700007FB50446DC
:100AE0000D4600211646FFF76FFD384B2360384B4B
:100AF0002561636104F1180104F21710002201F866
:100B0000012B8842FBD1FE21C4F81821C4F82431FE
:100B1000C4F81C1104F59473C4F82021002504F2D4
:100B2000272203F8015B9342FBD1FE23C4F828522D
:100B3000C4F82C3204F50D734FF480720021C4F810
:100B40003052184631F0FEF8B168C4F8340304F5A9
:100B50004F7204F54E7084F83C53C4E9D052C4E996
:100B6000D22591B16B460090FFF76CFF03469A685F
:100B70003ABBC4F844330346DA6822BBC4F84833AE
:100B80007369C4F84C33C4F84003124B124D20690A
:100B9000039569460022CDE9003406F07FF86846E7
:100BA000FFF71DFD0D4B2069039501226946CDE934
:100BB000003406F073F86846FFF711FD204604B0D4
:100BC00070BD1346D3E71346D6E700BFB84204080A
:100BD0006C410408D1070008304104086708000888
:100BE00073B5044615461E46FFF72EFBBDF91C30B3
:100BF00000933246BDF91830294604F11C00FFF776
:100C00003FFC204602B070BD10B504461C30FFF713
:100C1000A8FB2046FFF738FB204610BD07EE901AD0
:100C2000B3EE077AF4EEC77AF1EE10FA08D8BBEE0D
:100C3000077AF4EEC77AF1EE10FA01DBFFF728BB72
:100C400070471C30FFF7E2BB07EE101ADFED047AA5
:100C5000C7EE277A1C3017EE901AFFF7AFBB00BF24
:100C60000000C84207EE101ADFED047AC7EE277ABB
:100C70001C3017EE901AFFF79BBB00BF0000C84264
:100C800002234376704703681B681847034607C969
:100C900083E807007047704710B4446881686210A9
:100CA0000346E40701EB02001B6848BF8A585DF861
:100CB000044B48BFD3581847037E37B5044613B3D7
:100CC00000F11C05284600F059FBA8B329466846E8
:100CD00000F0D2FE284600F064FBA37E0028F7EE69
:100CE000007ABFEE007A18BFB0EE677ACBB1DDEDC7
:100CF000007A67EE877AC4ED037ADDED017AF1EED2
:100D0000677AC4ED047A637E022B1FD0D4F8DC002E
:100D100058B32269E16800F0D3FE30B30223637652
:100D200014E060683949BC3005F0D4FE4FF400731C
:100D300023830023E360E6E760683549BC3005F0B3
:100D4000C9FE0023E3604FF4007323832169A06888
:100D5000FFF764FFA068FFF774FFD4F8D80048B12C
:100D600003B0BDE8304000F021BF637E012B03D00B
:100D7000022BEBD003B030BD2169A068FFF74EFF16
:100D8000A37E002B3ED0D4F8D850002D3AD094ED5D
:100D9000037ADFED207A67EE277A17EE900A41F0AA
:100DA00095F902460B46284600F0FAFED4F8D80022
:100DB00000F038FF431C0ED160681749BC3005F0C5
:100DC00089FEA068FFF73DFFD4F8D80000F0EEFEE2
:100DD00002236376CEE7023002D160680F49EDE767
:100DE000D4F8D800A56800F0DEFE00220C4B41F0DC
:100DF000C5F941F0BBFC0146284603B0BDE83040D0
:100E0000FFF730BFE168A068F7E700BF624304085E
:100E1000714304080000164380430408B1430408EA
:100E20000000594037B504461546084601AB6A46EE
:100E3000124931F01BFC02281ED1DDED007AA37EA1
:100E4000B0EEE77A63B9DFED0E6AB4EEE67AF1EE62
:100E500010FA08DD0B49284631F0E6FB03B030BD3F
:100E6000DFED096AF1E7019B23614FF48073C4ED64
:100E7000037A23830549EEE70549ECE75C43040860
:100E800000009642194304080000C8422F4304089A
:100E900035430408FFF7C6BF37B504461546084674
:100EA00001AA0D4931F0E2FB012813D10023E360D0
:100EB000D4F8D800019B23614FF40073238318B149
:100EC0000022002300F06CFE0449284631F0ACFB00
:100ED00003B030BD0249F8E75F4304082F4304081C
:100EE00035430408FFF7D8BF37B50023044615463D
:100EF000084601AA0E49019331F0B8FB012815D12B
:100F0000D4F8D8302BB90B49284631F08DFB03B00B
:100F100030BD0023E360019B0749002BD4BF0023B1
:100F20000123A3764FF400732383EDE70349EBE736
:100F3000B8450408D44204082F4304083543040884
:100F4000FFF7D2BF30B593B00123119310AB0793D5
:100F50000FAB06930EAB05930DAB04930CAB039351
:100F60000BAB02930AAB019309AB00930446154601
:100F7000084608AB11AA194931F078FB0A282AD192
:100F8000DDED107AF5EEC07AF1EE10FA23DD11995D
:100F9000012920D8636907930E9B04930F9B059347
:100FA0000C9B02930D9B03930A9B00930B9B019355
:100FB00001F00101099BCDED067A089A04F11C00AD
:100FC00000F01EFB40F2011305492383284631F04F
:100FD0002BFB13B030BD0349F8E700BF44430408BE
:100FE0002F43040835430408FFF7ACBFD0ED057A62
:100FF0009FED057A67EE877AE030FDEEE77A17EE2F
:10100000901A04F025B800BF00007A442DE9F041A1
:101010008AB004461546084601AB6A461D4931F0C0
:1010200025FB022833D1637E002B30D00023E36000
:10103000019B23610099A068FFF706FE164B0293FF
:1010400002A9164B0593002604F1C80706A8CDE9AE
:101050000364FFF703FB3846FFF7C1FA04F1B00859
:1010600006A93846FFF7FAFA49F64041404605F02E
:1010700079FE06A8FFF7B3FA02A8FFF7B0FA08490D
:101080002683284631F0D0FA0AB0BDE8F081054940
:10109000F7E700BF5C430408810C0008C84204085D
:1010A0002F43040835430408FFF7B0BF30B50023D1
:1010B00085B0C360044615466846FFF7CFFA2A4656
:1010C0006946204603F0D2FF6846FFF788FA2046BB
:1010D00005B030BD30B504461648A3600025002396
:1010E00085B0C4E90002E360236161612576A576DD
:1010F00004F11C0000F0A0F904F1B00005F086FE38
:101100000D4BC4F8B030089BC4F8D450C4E9363550
:101110000A4B0122CDE900346946094B039304F1DF
:10112000E000FFF7C3FF6846FFF759FA204605B015
:1011300030BD00BFD443040820500408870C0008C9
:101140003041040810B5054C204606F055FB2046FA
:10115000034A0449BDE8104002F05CBACC0C002000
:10116000980100201D78000838B5B0F9103001331F
:10117000044604D148220C490C4805F085FFA369B8
:101180001D6863691D40B4F91030013304D13A225F
:101190000549064805F078FF636915B9E2691360EF
:1011A00038BD226A1B04FAE7DC4004081741040832
:1011B00010B5034B03600446FFF710FA204610BD3C
:1011C000E043040810B50446FFF7F2FF204624214F
:1011D00006F06AF8204610BD82B070B5064604AC31
:1011E00084E80C003446FFF7EFF904AD0B4B44F8EC
:1011F000103B0FCD0FC42B682360B6F910300133BC
:1012000004D13A220649074805F03EFFF3697269A6
:101210001A603046BDE8704002B07047E0430408F1
:10122000DC4004081741040810B5034B0360044672
:10123000FFF7D4F9204610BD0844040810B5044651
:10124000FFF7F2FF2046182106F02EF8204610BDC9
:10125000437B10B504467BB1006903685B6898471F
:1012600040F034FF646902460B4604F1BC000349B8
:10127000BDE8104005F02EBC10BD00BFF0430408CF
:1012800070B504461D461646FFF79EF9034B2360D2
:1012900000236373C4E90465204670BD0844040854
:1012A00037B5002305461446084601AA09490193AB
:1012B00031F0DCF901280BD1019B0749002BD4BF89
:1012C000002301236B73204631F0AEF903B030BD2B
:1012D0000249F8E7B84504082F43040835430408D9
:1012E000FFF7DEBF10B5054C204606F085FA204614
:1012F000034A0449BDE8104002F08CB9CD0C00202F
:10130000980100201D78000810B5054C204606F015
:1013100073FA2046034A0449BDE8104002F07AB946
:10132000CE0C0020980100201D78000870477047FF
:1013300070477047704710B57821044605F0B4FF38
:10134000204610BD10B51421044605F0ADFF20461F
:1013500010BD10B51C21044605F0A6FF204610BDA7
:1013600010B52421044605F09FFF204610BD10B59E
:101370009421044605F098FF204610BDD0ED237A55
:10138000F5EEC07AF1EE10FA09DBB7EE007AF4EE72
:10139000C77AF1EE10FA94BF0120002070470020B8
:1013A000704700797047000010B50A4B04462022B0
:1013B00040F8043B002130F0C5FC074B1A685B681D
:1013C0006260A360E26023616261A361E261236203
:1013D000204610BD204404085844040810B5094BA9
:1013E0000446182240F8043B002130F0ABFC064BC9
:1013F0001A685B686260A360E26023616261A36156
:10140000204610BD304404085844040810B5084B69
:101410000446102240F8043B002130F093FC054BB9
:101420001A685B686260A360E2602361204610BDB9
:1014300040440408584404080D4B10B503600D4B9C
:1014400083600446202200210C3030F07BFC04F144
:101450002C00FFF7A9FF04F15000FFF7BFFF04F1D4
:101460006C00FFF7D3FF002384F89030204610BDB6
:1014700068440408504404082DE9F0472DED068B1C
:101480000D4684B00446FFF78FFF95ED028AD5ED37
:10149000049AD5ED018A95ED039A354B79EEC87A19
:1014A000002617EE902A79EE687A02A817EE901AB5
:1014B000009641F0C3F919EE902A19EE101A02A80D
:1014C00000964FF08043DDF808A0DDF80C9041F065
:1014D000B5F99DED037ADDED027A95ED05AAD5ED1E
:1014E00006AA009638EE477A78EEE77A37EE2A7A3F
:1014F00077EE8A7A17EE102A17EE901A02A81C4B84
:1015000041F09CF979EEEA7A02A817EE902A79EE7A
:101510004A7A009617EE901A154BDDF80880039F63
:1015200041F08CF9D5ED077A9DED027AD5ED086A88
:10153000C4ED018A37EE277ADDED037A84ED028A65
:1015400077EEA67A37EE687A77EEC87A2046C4F846
:101550000CA0C4F81090C4F81480A76184ED077A39
:10156000C4ED087A04B0BDEC068BBDE8F08700BF7F
:10157000000040402DE9FF4107460C46FFF72EFFD3
:101580003E4600254FF00008013507EE905AF8EE70
:10159000E77ACDF800802269E16817EE903A02A858
:1015A00041F04CF9039B029A7260032D46F8083F04
:1015B00004F10804E8D1384604B0BDE8F0817FB5F5
:1015C0000D4600260446FFF721FF2A69E9680096C8
:1015D00002A84FF07E5341F031F9029B6360039BF8
:1015E000A36002A800964FF08043AA69696941F0A0
:1015F00025F9029BE360039B2361204604B070BD84
:1016000070B58AB003610E9B43610F9B8361109B91
:10161000C361119B017103621499129BC0F8801081
:1016200043621599139BC0F884100446C26083621C
:1016300000F1080102AE01A8FFF71EFF0FCE04F172
:1016400030050FC596E80F0002AE85E80F0004F1E3
:101650002C0101A8FFF78EFF0FCE04F154050FC532
:1016600096E8030085E8030004F1500101A8FFF7A4
:10167000A6FFD4ED206A94ED217AC6EE877A02ABFC
:101680000FCB04F1700585E80F00FDEEE77A17EE49
:10169000900A40F009FD02460B460020074940F041
:1016A00097FE41F063F80023C4F88C300123C4F89E
:1016B000880084F890300AB070BD00BF0000F03F91
:1016C0002DE9F04FD1E9006785B091ED027B002450
:1016D000002503922B46224682468B4630463946E9
:1016E0008DED007B40F0B2FF22462B4660B1DDE974
:1016F000000140F0ABFFE8B1CAE90045CAE9024584
:10170000504605B0BDE8F08FDDE9000140F09EFFD6
:1017100080B122462B463046394640F0BFFF48B1E3
:10172000039B3046D3E9002339462BF087FDCAE9F5
:101730000001E3E7DDE9008327F0004523F00049DD
:1017400042464B463046294640F08AFF08B9B0462B
:10175000A946002200234046494640F077FF68BB77
:1017600042464B463046394640F032FE4246044639
:101770000D464B46DDE9000140F02AFE22460646B2
:101780000F462B462046294640F0F8FC32460446D8
:101790000D463B463046394640F0F0FC02460B46CB
:1017A0002046294640F034FB2BF006FE02460B464D
:1017B0004046494640F0E2FC80468946404649465C
:1017C0002BF002FDDBE9002304460D46DBE90201B4
:1017D0002BF0B6FC039B0646D3E900230F462046B8
:1017E000294640F0CBFC2BF0AFFC039B0446D3E929
:1017F00000230D463046394640F0C0FC80468946FD
:101800002BF00AFC02460B462046294640F0B6FC67
:1018100006460F46404649462BF048FCCAE9006799
:1018200002460B462046294640F0A8FCCAE90201C0
:1018300066E70000000000002DE9F04F2DED0A8B57
:1018400091F890309FED8A9A93B0054689460492AC
:101850004BB980ED009A85ED019A284613B0BDEC96
:101860000A8BBDE8F08F9FED7CBB0E468B46F0EEF9
:10187000499AB0EE498A4FF0000A0DF130080498F9
:1018800040F024FCCDE90201CDE90E0150468DED7A
:1018900010BB40F009FC0EAF4246CDE90C013946C1
:1018A00008A8FFF70DFFDDE90A0140F05FFF059092
:1018B000DDE9080140F05AFFDBF85830009306AC30
:1018C000DBF85430059A0146204640F0B7FFDDEDC5
:1018D000068A9DED07AA79EEA88A38EE0AAA0AF1CF
:1018E000010ABAF1030FF0EE689AB0EE4A8A0BF1E2
:1018F000080BC4D1F1EE4ACA18EE903A1AEE102A3B
:1019000018EE901A2046CDED00CA40F097FF0698D9
:101910009FED578A2BF07EFDD9ED207A0AEE900AD2
:101920008AEEA7CA4FF00009F0EE489A9DED027BBF
:1019300048468DED0E7B8DED10BB40F0B5FB424669
:10194000CDE90C01394608A8FFF7BAFEDDE90A0126
:1019500040F00CFF8246DDE9080140F007FF736F9D
:101960000093336F01465246204640F067FFDDED9D
:10197000067A38EE278ADDED077A083679EEA79ADF
:10198000B9F1000F07D0F5EE40AAF1EE10FA05D13B
:1019900085ED00CA5FE74FF00109C7E7F1EE697A0C
:1019A000CDED007A1AEE102A204618EE103A18EE05
:1019B000901A40F043FF204618EE903A19EE902A14
:1019C00018EE101ACDED00CA9DED069A9DED07AAFE
:1019D00040F034FFDDED077A7AEE677A4FF040434E
:1019E00017EE902ADDED067A009379EE677A0023F0
:1019F00017EE901A204641F0B1F81AEE900A40F026
:101A000065FB00221B4B069C2BF018FC06460F467C
:101A1000204640F05BFB32463B4640F0D9FC40F0AC
:101A2000A5FE40F053FB0EA3D3E9002340F0A6FB34
:101A30002BF05EF985ED00CA40F098FE40F046FBC1
:101A400009A3D3E9002340F099FB40F08FFE6860C2
:101A500003E700BFAFF300800000000000000000BB
:101A6000F6285C8FC2F5D03FF8C1631ADCA54C4064
:101A7000000000000000084038B5D1F88C200C466A
:101A80000546FFF7D9FED4ED237A94ED227A77EE5E
:101A9000877A2846C4ED237A38BD000010B5054C7E
:101AA000204605F0A9FE2046034A0449BDE810403F
:101AB00001F0B0BDCF0C0020980100201D78000877
:101AC00038B505782DED028B044607EE901A25B93E
:101AD0000025BDEC028B284638BDF5EEC07AF1EE4C
:101AE00010FA61608260F3DDF7EE006A86EEA77A95
:101AF000C068B2EE048A28EE478AB1EE047AA7EEF7
:101B0000878A00F075FA07EE900AF4EEC87AF1EED3
:101B100010FADED9206900F06BFA07EE900AF4EEB5
:101B2000C87AF1EE10FAD4D9606900F061FA07EED4
:101B3000900AF4EEC87AF1EE10FACAD9A06900F062
:101B400057FA07EE900AF4EEC87AF1EE10FAC0D90F
:101B5000E06900F04DFA07EE900AF4EEC87AF1EE73
:101B600010FA94BF01250025B3E7000003624FF48B
:101B70002063838410B54FF07C5383624FF03F4362
:101B8000C362044B0363044B4363044B8363C0E9A8
:101B9000001210BD000020410000F04100009643FB
:101BA000C0E902237047D0E9040170474068036828
:101BB0005B6818472DE9F843056A044616461F4638
:101BC00065B11046194640F0D1FD2B6801461B68EF
:101BD0002846984740F07AFA06460F46E06A40F0F9
:101BE00075FA32463B468046894640F057FD40B183
:101BF00094F82430013384F8243040464946BDE847
:101C0000F883A06A40F062FA32463B468046894635
:101C100040F026FD0028EBD1002384F82430B046A4
:101C2000B946EAE72DE9F043044600682DED028B42
:101C3000036883B05B68984708EE100A2068036861
:101C40009B689847D4ED0E7AF0EEC88AF4EEE87AF5
:101C5000F1EE10FA05460CD500220023C4E9022358
:101C6000C4E904234FF0FF3003B0BDEC028BBDE8A4
:101C7000F083D4E90289206B29F0004740F026FA6E
:101C800042463B46464640F009FD70B1D4ED0D7A20
:101C9000F4EEE87AF1EE10FA07DD00220023C4E941
:101CA0000423C4E906230120DEE7002D3BD03046A3
:101CB000394640F05BFD07EE900A666877EEC87A19
:101CC000336817EE900A1F6840F000FA8046894694
:101CD000CDE9008969463046B84740F047FD40F0FD
:101CE000F5F902460B462046FFF764FF40F03EFD43
:101CF00094F8242094F825309A4217D9B5EE408AFA
:101D0000F1EE10FA12D1606803685B68984700230F
:101D10000022C4E90223C4E90423002384F8243008
:101D20006FF00100A0E740464946C2E740F0CEF917
:101D300006460F46C4E90467C4E906890022002369
:101D4000D4E9020140F08CFC0028ACD0002DAAD0D0
:101D500007F1004326616361A5E7704710B50446AB
:101D6000006810B10368DB689847204610BD00008A
:101D7000044B1B681BB1044B586A00B270474FF00C
:101D8000FF307047D00C002000080040034B1B6858
:101D900013B1034B00225A62704700BFD00C0020E1
:101DA0000008004010B50421044605F07DFA2046E5
:101DB00010BD0000184A136B43F002031363174B66
:101DC000196841F420411960596841F0C001596017
:101DD000996841F470419960D96841F42041D96013
:101DE000196A41F008511962596A5962136C43F03B
:101DF000040313640A4B01221A6003229A604FF213
:101E0000F1129A6111210022DA6119624FF6FF7115
:101E10009A62D9625A627047003802400004024058
:101E20000008004010B5084C236853B9042001F0A5
:101E30003FFC064A02602060FFF7BCFF044B2268AB
:101E40001A60206810BD00BFD00C00207844040840
:101E5000D40C0020024A0349034801F0DBBB00BF59
:101E6000980100205D1D0008D40C00200020704760
:101E700010B50446406803681B6898472081606875
:101E80000368BDE810405B6818470368DB681847C3
:101E9000B0F908007047B0F9083007EE103A038A2D
:101EA00007EE903AB8EEC77AF8EEE77AC7EE276AFF
:101EB000D0ED037AC6EEA77A17EE900A704713B5F5
:101EC0000446406803681B6898472081606803687F
:101ED0005B689847B4F90830A06D07EE903A036844
:101EE000F8EEE77A01A9CDED017A1B68984707EE75
:101EF000900AFDEEE77A17EE903A18B240F0D4F867
:101F0000C4E9140102B010BD08B5D0E9140140F0D5
:101F1000E5FB00B208BDA0F14800FFF7F5BFD0B562
:101F20000446008A40F0C0F802460B46D4E914018A
:101F300040F04EFA0646E0680F4640F0C7F8024609
:101F40000B463046394640F043FA40F00FFCD0BD16
:101F5000A0F14800FFF7E3BFD0ED037A9FED057ACB
:101F600067EE877A1430FDEEE77A17EE901A03F0E9
:101F70006FB800BF00007A4430B5044689B02382B0
:101F8000104B1148E160CDE90034104B0393C4E9D4
:101F90000002002204F1140522621BB1694604A864
:101FA000FEF701FB039B0793012204A9284603F0D7
:101FB0005DF804A8FEF713FB6846FEF710FB204609
:101FC00009B030BD8B1E000890440408304104085D
:101FD00010B50446FFF7D0FF044B03F10802283385
:101FE000A364029B2260A365204610BDA0440408A0
:101FF000006A7047034603C983E8030070477047CF
:10200000D0E9003018470000D0ED056ADFED107A06
:10201000C0ED066A91ED007A90ED026A80ED057AD6
:10202000F0EE675AE7EE065A90ED036AB0EE657A75
:10203000A6EE267AD0ED046A90ED016AE6EE267AE5
:1020400077EE677AC0ED047A17EE900A704700BF0A
:102050000000000010B5054B8364054B044640F8B2
:10206000143B02F0F8FF204610BD00BFC84404082E
:102070009044040807EE901A90ED017AF4EEC77AC6
:10208000F1EE10FAF8B500F1040200F10C0309D9E1
:1020900000F114033ABB90ED027AF4EEC77AF1EE48
:1020A00010FA25D817EE900A1F685E6840F00EF807
:1020B0000022114B2BF0C2F804460D46384640F082
:1020C00005F822462B4640F059F8044630460D46A6
:1020D0003FF0FCFF02460B46204629463FF098FEA3
:1020E00040F044FBF8BDF4EEC77AF1EE10FAD2DC12
:1020F00000F11C03D6E700BF0000F03F38B50546ED
:102100000024AB68A34207D96B6853F82400036826
:102110009B6898470134F4E738BD000070B5134C54
:10212000134D144E1449204604F0D4FC2946204691
:1021300004F0D0FC3146204604F0CCFC0F49204688
:1021400004F0C8FC3146204604F0C4FC2946204671
:1021500004F0C0FC0A49204604F0BCFC0948FFF723
:10216000FBFE0948FEF742FF002070BD341000203E
:102170003F450408534504083A45040867450408E8
:102180003C450408180F0020040E002010B5FFF78E
:10219000C5FF044620B9064C2046FFF7AFFFFBE71A
:1021A00002460449044804F095FC204610BD00BFD7
:1021B000A0130020A545040834100020C36810B502
:1021C00004460BB19B689847204610BD38B50546BC
:1021D0000A4B45F8983B04462DB1A830FEF7FFF9AD
:1021E0002846FEF7FCF904F13800FFF7E7FF04F199
:1021F0002800FFF7E3FF204638BD00BFF04F04087A
:1022000010B50446FFF7E2FF2046BC2105F04CF86C
:10221000204610BD10B5094B036003F120025C336A
:102220000446C0F8BC20C0F8C030BC3004F01AFC32
:102230002046FFF7CBFF204610BD00BFE84E040844
:10224000A0F1BC00E6E7A0F1C000E3E7C36810B569
:1022500004460BB19B689847204610BDF0B50D4F62
:10226000002400250026C0E90245C0E90445C0E974
:102270000045C0E90845C0E90645C0E90A67C0E96C
:102280000C45C0E90E45C0E91045C0E91245C0E95A
:102290001445F0BD0000F03F30B500240025C0E932
:1022A0000045C0E90245C0E90445D1E90045C0E95F
:1022B0000045D1E90245C0E90245D1E90445C0E93C
:1022C000044530BD00F10803F7B504461646036027
:1022D0000D4609B3084631F073FC0F2805EB0007E3
:1022E000019007D9002201A9204612F029FC019B88
:1022F0002060A3603A462946206812F075FC019BD5
:1023000063602046002150F8182BD1543146FEF767
:102310008EFB204603B0F0BD014815F0C3FC00BFA2
:102320007B45040838B50546382001F0C1F9294637
:102330000446103012F0BAFF05F1180104F128002C
:10234000FEF775FB204638BD10B581680446FEF7E0
:1023500037FB204610BD08B512F060FFC00F08BD66
:102360002DE9F0418D6804460F4690460E1D012070
:102370005DB105F110014046FFF7EDFF18B1AB6804
:102380002E461D46F4E7EB68FAE7A0B1FB68B342BE
:1023900004D1256066602046BDE8F081304604F037
:1023A000A5FF0546414605F11000FFF7D4FF20B117
:1023B00000232360EEE73546F4E7C4E90050EAE77E
:1023C0002DE9F74305460C46914600F104084C45BB
:1023D0002BD06B6933B12E69214606F11000FFF74F
:1023E000BAFFF0B9224629466846FFF7B9FFDDE992
:1023F0000036A6B1BBB9B04515D006F11001204694
:10240000FFF7A9FF07462046FFF78CFF434601462A
:102410003246384604F06CFF6B6901336B61283437
:10242000D5E70023E5E70127EDE703B0BDE8F0833A
:102430002DE9F04FBA48BB4DDFF85CB3DFF85CA381
:10244000DFF85C93E7B005F0D7F9B74AB749B4486D
:1024500001F0E0F84FF4E12303220221B44804F034
:102460008BFAB14AB349B24801F0D4F84FF00008F2
:102470001523CDE9003813220A232721AE482AACC0
:10248000FEF7AEFBA84AAD49AB4801F0C3F81422F1
:10249000414620462FF056FC0521204604F00FFD52
:1024A0002CAB93E807008DE8070041F2883194E8EF
:1024B0000C00A348FEF790FE9B4AA249A04801F0F9
:1024C000A9F8A14B2B60A14B6B60A14BAB60EB60FB
:1024D00000232B616B61AB61DBF80060FFF7A2FCAE
:1024E0004FF400630246314600959A489A4DFFF733
:1024F0006FFD8D4A9949974801F08CF88C4B954AAD
:1025000064215046FEF7BCFE874A9549504601F0CB
:1025100081F80FCD24AE0FC695E8030024AF86E8FE
:1025200003000FCF25460FC596E803008D4BC9F871
:1025300000308D4BC9F8043027468C4BC9F8083061
:1025400085E803000FCF09F10C060FC695E80300DC
:1025500086E80300DBF80000854D3FF0B7FD064636
:102560002846844B40F8083B0F46FFF777FEC5E945
:1025700018675BA3D3E90023304639463FF0FEFDE0
:1025800059A3D3E900233FF0F9FD59A3D3E9002370
:10259000CDE90401304639463FF0F0FD56A3D3E9BA
:1025A0000023CDE90601CDE9182302460B46DDE9FB
:1025B00004013FF02DFC52A3D3E900233FF026FC99
:1025C00051A3D3E900233FF021FC45A3D3E9002325
:1025D0003FF0FEFE3246CDE91A013B463046394611
:1025E0003FF0CCFD40A3D3E900233FF0C7FD48A353
:1025F000D3E900233FF00CFCDDE904233FF006FCA7
:10260000DDE906233FF002FC35A3D3E900233FF0C8
:10261000DFFE594B0022CDE91E23CDE91C013246D5
:102620003B463DA1D1E900013FF0F0FB2CA3D3E9EB
:10263000002301F100413FF0CBFE3246CDE92001FD
:102640003B4627A1D1E900013FF0E0FB24A3D3E9F9
:1026500000233FF0BDFECDE9220118A92046FFF777
:102660001BFEDDE92A23C5E90223DDE92C23C5E9A8
:102670000423DDE92E231EA9C5E906232046FFF722
:102680000BFEDDE92C23C5E90823DDE92E23C5E98E
:102690000A23DDE92A23394E2E49C5E90C232A46AF
:1026A000374D4B463046FFF761FA234B0096204AE0
:1026B000DBF80010334E2846FEF70CFD1A4A32496B
:1026C000284600F0A7FF314B314921961EAA20462B
:1026D000CDE91E35FFF7F6FD2E4B63E0AFF300802A
:1026E0007B14AE47E17AA43FEC51B81E85EBE93F7D
:1026F000713D0AD7A370BD3F946588635DDCBE3F22
:102700004850FC1873D7823F0188BB7A15193D3FAA
:10271000882CD2C43BC0733F7B14AE47E17AB43FF0
:10272000F00C0020D00D0020980100201D7800083A
:10273000780F002015220008180D0020090C000851
:10274000F40C0020B1110008D8440408721C47BFE3
:10275000398EE33D180F0020044504085520000879
:1027600029120008E4440408D7FA62BED7FA623E90
:10277000D8130020F04404080000F03F900D002022
:10278000040E0020F8440408152A0008950E0008DD
:102790001C450408E50E00089C010020EC0D0020FB
:1027A000401400204B491B9618AA34A8CDE91835CF
:1027B000FFF788FD484B4949179614AA3EA8CDE972
:1027C0001435FFF77FFD464B4649139610AA48A8DB
:1027D000CDE91035FFF776FD434B44490F960CAA1F
:1027E00052A8CDE90C35FFF76DFD414D414B4249F3
:1027F0000B9608AA5CA8CDE9083AFFF763FD2B1DEC
:1028000085F80480C5F80880C5E90333C5F814804D
:1028100066AA21462846FFF7D3FD66AE283E06F19C
:102820001800FFF713FD304612F0AEF9A642F5D1BD
:1028300008A8FFF70BFD0CA8FFF708FD10A8FFF78D
:1028400005FD14A8FFF702FD18A8FFF7FFFC1EA85E
:10285000FFF7FCFC294A2A49254800F0DBFEA9685D
:1028600000232BAA8DF8AC302C93CDE92D222F9389
:1028700079B11EAB20461E94FEF7E4F803469A6831
:102880001ABB2D930346DA680ABB2E936B692F930C
:102890002C9022461B491C48FEF720F92C99204613
:1028A000FEF78EF8154A1949174800F0B3FE184B89
:1028B000184919480322FDF7DDFE104A174916484A
:1028C00000F0A8FE67B0BDE8F08F1346D7E71346C7
:1028D000D9E700BF21450408A910000826450408CF
:1028E000410F00082B450408E90F00083045040893
:1028F000D80C0020E112000835450408980100209A
:1029000049230008780F002050100020F509000826
:1029100017B7D138A0010020A01300202906000815
:1029200010B50446FFF776FC2046D82104F0BCFC25
:10293000204610BDA0F1BC00F2E7A0F1C000EFE717
:10294000D0E90E232DE9F047C0E91023D0E90C238C
:10295000C0E90E23D1E90023C0E90C2382460646D4
:1029600000F11807002400253146D1E90023D1E900
:102970000C013FF003FC02460B46204629463FF07F
:1029800047FA0836B74204460D46EDD1DAE9082386
:10299000DAE914013FF0F2FBDAE91267DAE906231B
:1029A00080468946304639463FF0E8FB0022002346
:1029B0003FF02EFA02460B46404649463FF028FAC1
:1029C00002460B46204629463FF020FADAE90A2360
:1029D0003FF0FEFCCAE91467CAE91201BDE8F087BE
:1029E00008B50830FFF7ACFF08BD00220023C0E99E
:1029F0000C23C0E90E23C0E91023C0E91223C0E96B
:102A00001423704708B50830FFF7EFFF08BDFFF744
:102A10000FBD0000094B10B5044640F8E03B02F042
:102A20001AFB2046064B40F8B03FFDF7E1FD04F1EC
:102A30001C00FEF77BFC204610BD00BFD4430408F9
:102A4000205004081FB504461022684600212FF0CC
:102A500079F9284B22681A60A27901230193029325
:102A6000122A43D8DFE802F02C2B0A0C0E101214A5
:102A700016181A1C1E20222426282A0002231EE0D3
:102A800003231CE004231AE0052318E0062316E0C4
:102A9000072314E0082312E0092310E00A230EE0C4
:102AA0000B230CE00C230AE00D2308E00E2306E0C4
:102AB0000F2304E0102302E0112300E0122300930F
:102AC0000D4A0C48536823F440036946536001F0F3
:102AD00015FA084801F05EF906480A2101F0BAF932
:102AE00020B9044801F006FA80B200E0002004B0EA
:102AF00010BD00BF082F00200023014073B505461C
:102B00000C460846264904F019FA2860013004D121
:102B100024482549362204F0B7FA2046204904F01B
:102B200029FA431C064604D120481F493A2204F0E2
:102B3000ABFAC6F3C426EF2CAE7103DC204618496D
:102B400004F0C0F929681A4BAC8099420FD119489A
:102B5000036813BB0193184B5A6C42F480725A6499
:102B60005B6C03F480730193019B012303601348A2
:102B7000002301220160436083600361836103627B
:102B80004362C3628362C360C2610363436101F055
:102B900057F810B10A4804F0D9FA02B070BD00BF6E
:102BA000B4470408A4480408BC48040817490408AA
:102BB000002001406414002000380240082F00204B
:102BC0003049040808B5FFF73DFF07EE900AB8EE5C
:102BD000677ADFED037A67EE277A17EE900A08BD71
:102BE0000108803910B50C4CA268A468B4F1006FDC
:102BF00013460CD1131F094A53F8044F42F8044FEF
:102C0000074CA242F8D1044A4FF0005393601030B1
:102C100043F8201010BD00BF00ED00E0FCFFFF1FD7
:102C200090010020431C10B5044604D10648074912
:102C3000262204F029FA2046002100F0A1F904F030
:102C40000F040120A04010BD1C410408474904089E
:102C500070B504464B1C0E4621800ED0C1F3031004
:102C600000F01EF905463046FFF7DCFF05F11003C2
:102C700018356060A360E560256170BDB0F90000A3
:102C800000F0ACB938B5B0F90030013305460C4658
:102C900004D107480749492204F0F6F9012CB5F997
:102CA00000000CBF21460021BDE8384000F068B9A3
:102CB000174104084749040838B5144B1A681169CC
:102CC00011F0020F1C4607D0D368980704D56FF0A7
:102CD0000203136104F062F923681A69510714D5DD
:102CE000DA68520711D56FF00402094D1A615C6A67
:102CF0002B68E31AB3F57A7F07D300F091FF034BFB
:102D00001B6804F57A729A632C6038BDA02F0020EE
:102D10006814002030B589B003A801A901F0E2FCD5
:102D200001F0B0FC00230293234B01901A6C234C5A
:102D300042F008021A641A6C02F008020292029A27
:102D40001A6A42F008021A621A6A22F008021A622B
:102D5000069AA3F50B3323604FF0FF33E360184B63
:102D600002B14000B0FBF3F0013800256060134869
:102D70002561A560656101F097FD32201149FFF7DB
:102D800031FF114B0D484FF480225A60294601F063
:102D90005BFE0421094801F057FE23680B4A596A7B
:102DA0001160126802F57A729A63DA68284642F076
:102DB0000402DA6009B030BD00380240A02F0020C4
:102DC00040420F00B92C000800E100E06814002028
:102DD0007FB504F073F901A8052104F070F8BDF97E
:102DE0000430013304D10E480E493A2204F04CF964
:102DF000049B029A1A60962004F0BEF9BDF90430D3
:102E0000013304D1064807493A2204F03DF9029BF8
:102E1000059A1B041360962004F0AEF9DFE700BFAB
:102E2000174104088F49040830B50546A1B00C4687
:102E300004F044F929466846224637F07DFA051E1B
:102E400003DC04F065F921B030BD094B1B6823B9E0
:102E500008480221032200F071FD00241DF804102F
:102E60000448013400F096FEAC42F7D1E9E700BF18
:102E7000B8170020502F00200FB407B504A951F84F
:102E8000040B0191FFF7D0FF03B05DF804EB04B031
:102E9000704708B501F06EFFBDE8084000F0A8BE1D
:102EA0007FB50023072853D8DFE800F004111E2B5C
:102EB0003852524500932A4B2A481A6B42F00102BD
:102EC0001A631B6B03F001030093009B44E0019322
:102ED000234B25481A6B42F002021A631B6B03F066
:102EE00002030193019B37E002931D4B1F481A6BAD
:102EF00042F004021A631B6B03F004030293029B6B
:102F00002AE00393164B1A481A6B42F008021A6320
:102F10001B6B03F008030393039B1DE00493104B0A
:102F200014481A6B42F010021A631B6B03F0100373
:102F30000493049B10E00593094B0F481A6B42F071
:102F400080021A631B6B03F080030593059B03E06B
:102F50000A4804F0FBF8002007B05DF804FB00BF4E
:102F60000038024000000240000402400008024015
:102F7000000C024000100240001C0240F24904080C
:102F800030B5431C87B005460C4604D110481149A2
:102F9000812204F079F8C5F30310FFF781FF05F0F3
:102FA0000F050123AB4004F00F0201930A4B53F8C5
:102FB00022300293C4F302130393C4F3C314032314
:102FC00001A90493059401F02BF807B030BD00BFB0
:102FD0001C410408134A0408684A0408431C70B5DD
:102FE00006460C4604D10D480D49A62204F04CF8C3
:102FF000C6F30310FFF754FF06F00F05C1686B001E
:1030000003229A4021EA0202032CC260C26828BF50
:1030100000249C401443C46070BD00BF1C410408E0
:10302000134A040830B507EE101A284B02681A60DC
:10303000B5EEC07AF1EE10FA89B0054609D4F7EE84
:10304000007AB4EE677AF1EE10FAC8BFB0EE677A94
:1030500001E09FED1F7AD5ED037AF8EE677A6022E2
:1030600067EE877A0192FCEEE77AAA68C5ED047AEA
:1030700017EE903AB3FBF2F3029300230393049309
:103080000593069307932B7D013B032B1CD8DFE8A8
:1030900003F008020406042404E0082402E00C24DF
:1030A00000E00024094801A9224601F05DFC10B1AE
:1030B000084804F04BF86B7D0448214613B101F039
:1030C000FBFC01E001F0D6FC09B030BD6C1400201F
:1030D000000000009C4A0408C368ABB190ED047A7C
:1030E00007EE903AB8EE477AF8EE677AC7EE277A9D
:1030F000B7EE007AF4EEC77AF1EE10FAD4BF17EE0D
:10310000900A17EE100A7047002070472DE9F04131
:10311000D0F80080414C86B005460E46C4F80080C9
:10312000FFF7DAFFD8F8202041F2111313400746C9
:103130005BB9D8F8202040F2444313402BB9D8F8AB
:10314000003023F00103C8F8003001A8694601F0FF
:10315000C9FA2B68324A93421BD00BD8A2F5006201
:10316000934216D002F58062934212D0B3F1804FA1
:1031700051D10EE02B4A934210D002D8A2F58042E2
:1031800004E0294A934209D002F58062934205D0B7
:1031900041E001F077FA0090049803E001F08AFA28
:1031A00000900598009A2149B6F5803FACBF4FF4D6
:1031B000FA730123AB60AB6800B15200B2FBF1F2CD
:1031C00012FB03F39BB2013B63606368B3F5803F7E
:1031D00002D3174803F0BAFFAA68731EB3FBF2F3D9
:1031E000B3F5803FE36002D3124803F0AFFF002342
:1031F0000A482361A36001F071FB10B10E4803F08F
:10320000A5FFEE6028463946FFF70CFF22681368D9
:1032100043F00103136006B0BDE8F0816C14002098
:10322000000C0040004001400044014040420F00BB
:10323000B34A0408CF4A04089C4A040870B50446FF
:1032400088B008460E46554903F078FE20600130EC
:1032500004D1534853492D2203F016FF30464F49FD
:1032600003F088FE431C054604D14F484D493122E6
:1032700003F00AFFC5F3C4234C4A23752368C5F342
:103280000045934265754FF000020BD10092484A09
:10329000516C41F001015164526C02F00102009244
:1032A000009A3BE0B3F1804F0BD10192404A116C80
:1032B00041F001011164126C02F001020192019AC5
:1032C0002CE03C498B420BD10292394A116C41F0FF
:1032D00002011164126C02F002020292029A2DE0C5
:1032E00035498B420BD10392314A116C41F00401F4
:1032F0001164126C02F004020392039A2EE02F492B
:103300008B420BD12A4B04921A6C42F008021A64C9
:103310001B6C03F008030493049B2EE0284A93429D
:103320000CD100230593224B5A6C42F480325A642C
:103330005B6C03F480330593059B1EE0214A9342A6
:103340000CD1002306931A4B5A6C42F400325A6493
:103350005B6C03F400330693069B0EE01A4A93421B
:103360000BD100230793124B5A6C42F480225A640B
:103370005B6C03F480230793079B0849304603F0F6
:10338000A1FD0023E36023610123A680A360204602
:1033900044F62061FFF7BAFE08B070BD0446040889
:1033A000E84A0408004B04081749040800000140DB
:1033B000003802400004004000080040000C0040BB
:1033C0000040014000440140004801404FF47A733E
:1033D0005943FFF79BBE70477047036870B50446BA
:1033E0005B6A9847236820461B69002101229847A1
:1033F000431C0646236804D120469B6A9847304602
:1034000070BD1B69204600210222984723680546AB
:10341000314600221B6920469847236820469B6A54
:103420009847284670BD000008B5084B1B685BB97B
:1034300007480221032200F081FA05484FF4165193
:10344000BDE8084000F024BB08BD00BFB81700204D
:10345000502F002002284FF0000309DDC21E07494B
:1034600051F8220041F8223020B103685B68184708
:10347000184670474FF0FF30704700BFB41400206B
:10348000022870B50C4615460FDC0E4B1B680BB9B5
:10349000FFF7CAFF6619B44205D00B4814F8011BA8
:1034A00000F078FBF7E7284670BD0338074B53F868
:1034B000200020B10368BDE870401B6818474FF03A
:1034C000FF3070BDB8170020502F0020B41400202A
:1034D000022810B50C460ADC0B4B1B680BB9FFF732
:1034E000A3FF0A4800F03AFB2070012010BD03380A
:1034F000074B53F8200020B10368BDE810409B68DB
:1035000018474FF0FF3010BDB8170020502F002093
:10351000B4140020022807DD0338064B53F82000BE
:1035200020B10368DB681847012070474FF0FF3077
:10353000704700BFB4140020022807DD0338064B93
:1035400053F8200020B103681B691847002070471A
:103550004FF0FF30704700BFB4140020022808B5B8
:1035600004D84FF400534B60002008BD2CF0CAFB78
:10357000092303604FF0FF3008BD0000014803F04D
:10358000E5BD00BF684B040808B5012000F044F811
:1035900008B5FFF77EFC01F049FE08BD704708B58D
:1035A000FFF7FCFFBDE80840FEF7F0BD0C4A1368CA
:1035B00010B51844EFF30881884205D3094B0C225B
:1035C0001A604FF0FF3010BD0749096821B1074C60
:1035D000246821448842F1D21060184610BD00BF13
:1035E000AC010020683A0020B0140020B41500207F
:1035F000074C08B52368054698682CF0CDFC236875
:10360000D8682CF0C9FC0DB1FFF7E2FBFEE700BF64
:10361000640200200120704708B5FFF7E9FF012090
:10362000704700212EF0E6BE2CF0C8BC08B501F0B2
:103630000BFE08BD08B501F00FFE08BD08B501F08E
:1036400011FE08BD08B501F015FE08BD10B50378E0
:1036500003F00303012B04460CD02BB106480749A5
:1036600040F2213203F010FD237843F0020323706F
:10367000012010BD002010BD724B0408984B0408B7
:1036800010B5037803F00303022B044605D0064867
:10369000064940F2293203F0F7FC237823F00303B4
:1036A00043F00103237010BDD84B0408984B040865
:1036B00010B52DF0A1FE044610B9024803F046FDF6
:1036C000204610BD174C040810B52DF095FE044699
:1036D00010B9024803F03AFD204610BD344C0408EE
:1036E00008B12DF091BE704708B12DF08DBE704726
:1036F0000B4B10B5036004460A48FCF79BFE002301
:10370000094A52F82310A14204BF002142F82310B5
:103710000133402BF4D10348FCF78CFE204610BD4A
:10372000B84C0408A8140020B41400202DE9F3417B
:103730008846364905462FF017F8044610B9FFF7BA
:1037400073FE5EE0284632492FF00EF818B9FFF7F5
:103750006BFE012455E028462E492FF005F818B9D4
:10376000FFF762FE02244CE02B48FCF763FE0024C6
:103770002A4E56F82430374633B10134402CF7D165
:103780002548FCF757FE3AE04FF0FF33224846F851
:103790002430FCF74FFE2B783A2B06D128462049DF
:1037A0006A462EF063FF009824E06846294603F03D
:1037B0007FF8684603F0BEF810B946F824001EE012
:1037C000684603F0A5F818B1684603F0AAF811E0BE
:1037D000684603F096F8054610B946F824000EE056
:1037E000036868469E6803F081F828F48032014639
:1037F0002846B04747F8240008B1033401E04FF0F1
:10380000FF34204602B0BDE8F08100BF594B0408E8
:10381000A44C0408604B0408A8140020B414002031
:10382000A04C04084309203300F01F000449012282
:10383000824041F82320BFF34F8FBFF36F8F704753
:1038400000E100E0426818490346920110B588186B
:103850001C688C509A6842600246D96842F8081F7A
:10386000196951605969916000F110011A6A8A6002
:103870000022C261C2848284C2858285B3F91A2083
:10388000013201D1082305E0B3F9183001330CBF30
:1038900004230C234B6001F03EFA20B10348BDE83D
:1038A000104003F053BC10BDB8150020E44C0408D0
:1038B0001A4BF7B5074653F820001E4600282BD0B8
:1038C000174CBD0163591A6852060AD5DB685906C0
:1038D00007D5144B01211B68984763596FF04002CC
:1038E0001A6063591A6892060DD5DB6898060AD5E6
:1038F0000C4B56F827001B6800219847084B5B5972
:103900006FF020021A6063591A68110704D55A69CA
:10391000D20744BF5B68019303B0F0BDBC17002021
:10392000B8150020DC1700200020FFF7C1BF0120E0
:10393000FFF7BEBF0520FFF7BBBF0000F0B5044690
:1039400085B008460E464949154603F0F7FA48493E
:103950000746284603F0F2FA0146384603F0D0FA4B
:103960002060013004D143484349662203F08CFBB8
:103970002368424A93421DD002F5806293422FD0C1
:10398000A2F55042934241D13D4B1A6A42F40032B3
:103990001A621A6A22F400321A62002202921A6C27
:1039A00042F400321A641B6C03F400330293029B4E
:1039B00001232AE0324B5A6A42F010025A625A6AD4
:1039C000002122F010025A6201915A6C42F010025A
:1039D0005A645B6C616003F010030193019B15E076
:1039E000274B5A6A42F020025A625A6A22F0200299
:1039F0005A62002203925A6C42F020025A645B6CB5
:103A000003F020030393039B0523636030461749AB
:103A100003F058FA2846164903F054FA721C03D0F2
:103A200030460121FFF7DAFA6B1C03D0284601214A
:103A3000FFF7D4FA4FF41653A3600023E360236129
:103A400063612362268365832046FFF7FBFE2268BD
:103A50000C4B9A4207D10C4B0C4801221A602146AC
:103A60004C222EF06DF805B0F0BD00BF6C47040885
:103A7000BC450408FC4C0408184D04080010014023
:103A80000038024000440040B8170020502F0020AA
:103A90008160FFF7D7BE0000034B19604168034BFC
:103AA00043F82120704700BFDC170020BC1700201E
:103AB00038B54368012B0D4605D0052B06D043B918
:103AC0001C49252407E01C49262404E01B494724FF
:103AD00001E000210C461A489B01AAB1C258D368E4
:103AE00015B943F0200301E043F0400365B2D36011
:103AF0002846FFF777F86D0904F007040123114AFF
:103B0000A34042F8253038BDC358DA6835B922F0F1
:103B10002002DA60DB681A0606D538BD22F04002C2
:103B2000DA60DB689B0604D42046BDE83840FFF726
:103B300079BE38BD293900082F3900083539000809
:103B4000B815002000E100E04368034A9B01D35808
:103B50001868C0F340107047B815002038B54468A5
:103B600005462846FFF7F0FF0028FAD0A401034BD2
:103B70001B595868C0F3080038BD00BFB8150020B5
:103B80004368034A9B01D3581868C0F3C0107047BC
:103B9000B815002070B5456806460C463046FFF75C
:103BA000EFFF0028FAD0AD01024B5B59C4F30804C3
:103BB0005C6070BDB8150020DFF820D0002103E064
:103BC000074B5B58435004310648074B42189A4252
:103BD000F6D301F0A9F9FCF7FDFA70470080012047
:103BE000FCD2040898010020B00C0020FEE7000081
:103BF00008B50A4B1A6842F400721A601A6842F457
:103C000080621A601A6842F480721A600F20FFF70F
:103C100081F800F003FA002008BD00BF003C02401C
:103C2000024A136801331360704700BF9C2F0020C5
:103C3000014B1868704700BF9C2F002070470000A0
:103C400010B50446002800F09E80036C23B943643D
:103C500080F83C30FFF7F2FF236CDB0600F18E802A
:103C6000236C23F4885323F0020343F002032364FC
:103C7000464B5A6822F440325A60596862680A43D7
:103C80005A60236821695A6822F480725A605A681F
:103C900042EA01225A605A6822F040725A6059681A
:103CA000A2680A435A609A6822F400629A6099688E
:103CB000E2680A439A603649A26A8A420ED099683D
:103CC00021F07061996099680A439A609A6822F0BD
:103CD00040529A609968E26A0A4306E09A6822F0C4
:103CE00070629A609A6822F040529A609A68A1695C
:103CF00022F002029A609A6842EA41029A60226ABD
:103D00009AB15A6842F400625A605A6822F46042DA
:103D10005A604FF4604191FAA1F1626A5868B1FAB1
:103D200081F1013A8A40024302E05A6822F40062BB
:103D30005A60DA6A22F47002DA62E269D96A013AF8
:103D400041EA0252DA629A68216B22F400729A60A8
:103D50009A6842EA41229A609A68616922F4806214
:103D60009A609A68002042EA81229A606064236C1B
:103D700023F0030343F00103236400E00120002348
:103D800084F83C3010BD012010BD00BF002301406D
:103D90000100000F82B00023019390F83C30012B0A
:103DA0004DD0012380F83C3003689A68D10703D5D1
:103DB0009A68D20712D437E09A68224942F0010289
:103DC0009A60214A1268B2FBF1F202EB42020192C0
:103DD000019A002AECD0019A013AF8E7026C22F429
:103DE000E06222F0010242F4807202645A685105D6
:103DF00041BF026C22F4405242F480520264026CD1
:103E000012F480521CBF426C22F00602426400226F
:103E100080F83C206FF022021A600C4A5268D206E9
:103E200004D00B4A934201D0002009E0986810F0BA
:103E30004050F9D19A6842F080429A6000E0022036
:103E400002B0704740420F00B00100200023014043
:103E50000020014003689A6870B5560504460D4677
:103E60000BD59B68D80508D5236C43F02003236449
:103E7000002384F83C30012070BDFFF7D9FE0646D0
:103E800023681A68920711D4691CFAD045B9236CCB
:103E900043F004032364002384F83C30032070BD06
:103EA000FFF7C6FE801BA842EAD9F0E76FF01202C6
:103EB0001A60226C42F4007222649A6812F0405F29
:103EC00001D0002070BDA269002AFAD1DA6A12F48A
:103ED000700F02D09B685B05F3D4236C23F48073CE
:103EE0002364206C10F48050EBD1236C43F0010369
:103EF000236470BD0368D86C70470000F7B50023D9
:103F0000019390F83C30012B63D00D688A6801233F
:103F1000092D80F83C30ACB203680FD904EB44069D
:103F2000DF681E3E4FF0070E0EFA06FE27EA0E0768
:103F3000DF60DF68B2403A43DA600DE01F6905EBED
:103F4000450E072606FA0EF627EA06061E611E69CA
:103F500002FA0EF232431A614A68062A4FEA8201D7
:103F60000CD80A445E6B053A1F21914026EA0101F4
:103F70005963596B94400C435C631AE00C2A0CD8CB
:103F80000A441E6B233A1F21914026EA010119635E
:103F9000196B94400C431C630BE00A44DE6A413AFF
:103FA0001F21914026EA0101D962D96A94400C434D
:103FB000DC62164A934204D0002380F83C30184655
:103FC00022E0122D07D1124A536843F48003536054
:103FD00001E0022018E0A5F11003012BECD80C4AF7
:103FE0005368102D43F400035360E5D1094B0A4A8E
:103FF0001B68B3FBF2F20A2353430193019B002B8E
:10400000DAD0019B013BF8E703B0F0BD002001408E
:1040100000230140B001002040420F007047000023
:104020002DE9F3410F6800220123934003EA0705BD
:104030009D4240F0B9804C6824F0100CBCF1020F96
:1040400014D14FEAD20E00EB8E0E02F00706DEF816
:104050002030B6004FF00F0808FA06F823EA0808E7
:104060000B69B34048EA0303CEF820304FEA420E12
:104070000323066803FA0EF3DB4303EA060804F0A1
:10408000030606FA0EF60CF1FF3C48EA0606BCF100
:10409000010F066011D8866803EA060CCE6806FA9E
:1040A0000EF64CEA06068660466826EA050CC4F35E
:1040B000001696404CEA06064660C66803EA060CFF
:1040C0008B6803FA0EF64CEA0603C360E3006BD577
:1040D000394E00230193D6F844E04EF4804EC6F8E2
:1040E00044E0766C06F480460196019E22F00306B9
:1040F00006F1804606F59C3602F0030CD6F80880DF
:104100004FEA8C0C4FF00F0E0EFA0CFE28EA0E0E42
:10411000DFF8AC80404519D003F1804303F501334B
:1041200098420ED003F5806398420CD003F580636B
:1041300098420AD003F5806398420CBF04230523FC
:1041400004E0012302E0022300E0032303FA0CF35E
:1041500043EA0E03DFF864E0B360DEF80030EE43BC
:1041600014F4803F14BF2B433340CEF80030DEF808
:104170000430DFF848E014F4003F14BF2B43334011
:10418000CEF80430DEF8083014F4801F14BF2B433F
:104190003340CEF80830DEF80C30A40254BF06EAF3
:1041A00003051D43054BDD600132102A7FF43CAF4F
:1041B00002B0BDE8F08100BF00380240003C014081
:1041C000000002400368F7B5D907044603D423680A
:1041D0009A073BD488E0A74B9A6802F00C02042AA5
:1041E00007D09A6802F00C02082A0BD15B685B02C8
:1041F00008D5A04B1B689F03E9D56368002BE6D167
:10420000012034E19C4B22791A7063687BB1FFF77F
:104210000FFD0546974B1B689E03D8D4FFF708FD9A
:1042200041F28833401B9842F4D903201FE1FFF785
:10423000FFFC05468F4B1B689803C8D5FFF7F8FCB9
:1042400041F28833401B9842F4D9EEE7894B9A68D3
:1042500012F00C0F07D09A6802F00C02082A16D14F
:104260005B68590213D4834B1A68920702D5E2683F
:10427000012AC5D11968F82090FAA0F02269B0FA95
:1042800080F021F0F80182400A431A602CE0E268D5
:104290007A4BDAB101221A60FFF7CAFC054675486D
:1042A00003689F0705D4FFF7C3FC401B0228F6D91B
:1042B000BBE70268F82191FAA1F12369B1FA81F113
:1042C00022F0F8028B40134303600DE01A60FFF701
:1042D000AFFC0546674B1B689E0705D5FFF7A8FC9A
:1042E000401B0228F6D9A0E72368180703D42368E7
:1042F000590744D51FE06269614B72B101221A600F
:10430000FFF796FC05465B4B5B6F9A07EFD4FFF710
:104310008FFC401B0228F6D987E71A60FFF788FC5C
:104320000546544B5B6F9B07E1D5FFF781FC401BB3
:104330000228F6D979E7002301934E4B1A6C42F01C
:1043400080521A641B6C4F4A03F080530193019B07
:10435000136843F480731360FFF76AFC0546494B0A
:104360001B68DF050ED5484B227A1A70A368BBB1D3
:10437000FFF75EFC05463F4B1B6F9E0708D5A26901
:10438000EAB959E0FFF754FC401B0228E7D94CE793
:10439000FFF74EFC41F28833401B9842EBD944E7CB
:1043A000FFF746FC0546334B1B6F9807E7D5FFF731
:1043B0003FFC41F28833401B9842F4D935E72D4B3E
:1043C0009B6803F00C03082B3FF41AAF2F4D00231A
:1043D000022A2B603ED1FFF72BFC064625480368D6
:1043E00099012BD447F6C07797FAA7F74FF44036D8
:1043F000B7FA87F796FAA6F64FF07061B6FA86F626
:1044000091FAA1F1E369226AB1FA81F11A43636A70
:10441000BB401A43A36A5B08013BB3401343E26A03
:104420008A401343436001232B60FFF701FC0446DD
:10443000104B1B689A0107D5002018E0FFF7F8FB26
:10444000801B0228CAD9F0E6FFF7F2FB001B022806
:10445000EED9EAE6FFF7ECFB0446064B1B689B012E
:10446000EAD5FFF7E5FB001B0228F6D9DDE603B02D
:10447000F0BD00BF00380240023802400000474251
:10448000800E474200700040703802406000474292
:1044900010B51C4CA36803F00C03042B2ED0082B82
:1044A0002ED1626802F03F03626847F6C07112F4D1
:1044B000800F626891FAA1F147F6C07000EA02002D
:1044C00008BF114AB1FA81F120FA01F00EBFB2FB28
:1044D000F3F20E49B1FBF3F202FB00F3094A506814
:1044E0004FF4403292FAA2F200F44030B2FA82F273
:1044F000D04001304000B3FBF0F010BD034810BDC8
:10450000014810BD003802400024F40000127A0077
:10451000584B1A6802F00F02914270B504460D46DE
:104520000AD82168880710D55348836823F0F00221
:10453000A3681343836008E0CAB21A701B6803F0D3
:104540000F038B42EDD0012070BDC90706D4494B43
:104550001A6802F00F0295425AD360E06368464A37
:10456000012B03D1126812F4003F08E0991E0129C3
:10457000126802D812F0007F01E012F0020FE2D0C0
:104580003D498A6822F0030213438B60FFF750FB1A
:104590006368012B06460ED1374B9B6803F00C0372
:1045A000042BD4D0FFF744FB41F28833801B9842A0
:1045B000F2D9032070BD022B0DD12F4B9B6803F065
:1045C0000C03082BC3D0FFF733FB41F28833801B69
:1045D0009842F2D9EDE7032B14D1274B9B6803F0E7
:1045E0000C030C2BB3D0FFF723FB41F28833801B65
:1045F0009842F2D9DDE7FFF71BFB41F28833801BBD
:104600009842D6D81C4B9B6813F00C0FF3D19EE751
:10461000EAB21A701B6803F00F03AB4293D1216812
:104620004A0706D51448836823F4E052E36813432D
:1046300083600B0741BF104A2169936823F46043EC
:1046400044BF43EAC1039360FFF722FF0A4BF02205
:104650009B6892FAA2F203F0F003B2FA82F2D3401E
:10466000064AD35CD840064B18600F20FEF752FB79
:10467000002070BD003C024000380240E14D0408BB
:10468000B0010020084B4FF4E0529B6892FAA2F26E
:1046900003F4E053B2FA82F2D340044AD35C044AF2
:1046A0001068D840704700BF00380240E14D040850
:1046B000B0010020084B4FF460429B6892FAA2F2CE
:1046C00003F46043B2FA82F2D340044AD35C044A52
:1046D0001068D840704700BF00380240E14D040820
:1046E000B00100200F2303600B4B9A6802F0030215
:1046F00042609A6802F0F00282609A6802F4E05226
:10470000C2609B6803F46043DB080361034B1B68D2
:1047100003F00F030B60704700380240003C02407A
:10472000036A23F001030362036A426870B5846977
:104730000D6824F07304254323F002048B6823439F
:104740000A4CA0420BD1CC688E6923F008032343A6
:104750004C6922F44072344323F004032243426044
:104760004A6885614263036270BD00BF000001407A
:10477000036A23F480730362036A426830B5C46934
:104780000D6824F073042C438D6823F4007343EA0E
:1047900005230C4DA8420ED1CD6823F4006343EAF3
:1047A00005234D6922F4405242EA05128D6923F433
:1047B000806342EA051242604A68C461C2630362D0
:1047C00030BD00BF00000140036A23F48053036240
:1047D000036A30B54468C2690D6822F4E64242EAD1
:1047E00005228D6823F4005343EA0533064DA842A1
:1047F00002BF4D6924F4804444EA85144460C261D8
:104800004A680264036230BD00000140704770478F
:10481000224A036890420ED0B0F1804F0BD0A2F52F
:104820007C42904207D002F58062904203D002F5AC
:104830008062904214D14A6823F070031343174AF0
:10484000904225D0B0F1804F22D0154A90421FD01F
:1048500002F5806290421BD002F58062904217D030
:10486000104A904214D002F58062904210D002F5B6
:10487000806290420CD003608B68C3620B688362D5
:10488000064B984204BF0B690363012343617047E1
:10489000CA6823F440731343EDE700BF00000140F2
:1048A000000400400040014010B50446A0B190F85B
:1048B000393003F0FF021BB980F83820FFF7A6FF5C
:1048C000022384F839302068211DFFF7A1FF01235E
:1048D00084F83930002010BD012010BD10B5044609
:1048E000A0B190F8393003F0FF021BB980F83820EE
:1048F000FFF78DFF022384F839302068211DFFF770
:1049000087FF012384F83930002010BD012010BD3D
:10491000036A23F010030362036A426830B58469B6
:104920000D6824F4E64444EA05248D6823F020034E
:1049300043EA05130B4DA8420ED1CD6823F0800346
:1049400043EA05134D6922F4406242EA85028D690B
:1049500023F0400342EA850242604A688461826330
:10496000036230BD0000014038B590F83830012BAB
:1049700004460D464FF0020058D0012384F8383029
:1049800084F839000C2A4BD8DFE802F0074A4A4A7B
:10499000174A4A4A294A4A4A39002068FFF7C0FEA6
:1049A00023689A6942F008029A619A6922F0040227
:1049B0009A6199692A690A430FE02068FFF7A8FF06
:1049C000236829699A6942F400629A619A6922F41B
:1049D00080629A619A6942EA01229A6120E0206825
:1049E000FFF7C6FE2368DA6942F00802DA61DA6985
:1049F00022F00402DA61D9692A690A430FE02068CB
:104A0000FFF7E2FE23682969DA6942F40062DA619D
:104A1000DA6922F48062DA61DA6942EA0122DA6153
:104A20000123002084F8393084F8380038BD10B5EF
:104A30000123046A8B4024EA03030362036A8A4069
:104A40001343036210BD000010B504460122006844
:104A5000FFF7EDFF2368064A934202BF5A6C42F407
:104A600000425A641A6842F001021A60002010BD28
:104A70000000014010B5044601220068FFF7D7FF8F
:104A80002368064A934202BF5A6C42F400425A64B9
:104A90001A6842F001021A60002010BD00000140B7
:104AA00010B50423046A8B4024EA03030362036AFB
:104AB0008A401343036210BD10B504460422006807
:104AC000FFF7EEFF23685A6C42F400425A641A68FA
:104AD00042F001021A60002010BD00002DE9F047ED
:104AE00006683369044623F44052C3682169C069EB
:104AF0001343A2683361F3681143626923F41643D8
:104B00000A43024323F00C031343F360736923F455
:104B10004072A369B0F5004F43EA020373617B4B17
:104B20007CD19E4203D003F580639E4231D1FFF7D2
:104B3000C1FD636819254FEA43086843B0FBF8F8E4
:104B4000FFF7B8FD676868437F00B0FBF7F7FFF732
:104B5000B1FD63684FF064095B006843B0FBF3F09C
:104B6000B0FBF9F009FB1077FFF7A4FDB8FBF9F8EB
:104B70006268FF003237B7FBF9F707F0F8076843C0
:104B800052004FEA08187F00B0FBF2FAFFF792FDDF
:104B900030E0FFF777FD636819254FEA4308684363
:104BA000B0FBF8F8FFF76EFD676868437F00B0FB65
:104BB000F7F7FFF767FD63684FF064095B00684330
:104BC000B0FBF3F0B0FBF9F009FB1077FFF75AFDEB
:104BD000B8FBF9F8FF0062683237B7FBF9F707F066
:104BE000F807684352004FEA08187F00B0FBF2FA5A
:104BF000FFF748FD454360684000B5FBF0F0B0FBAF
:104C0000F9F009FB10A2D2003232B2FBF9F303F043
:104C1000070343441F44B760BDE8F0879E4202D0BB
:104C20003B4B9E422ED1FFF745FD6768192568432F
:104C3000BF00B0FBF7F7FFF73DFD636868439B00DB
:104C4000B0FBF3F8FFF736FD63684FF06409684383
:104C50009B00B0FBF3F0B0FBF9F009FB10831B01E4
:104C60003233B3FBF9F303F0F008FFF723FDB7FB92
:104C7000F9F76268684392003F01B0FBF2FAFFF770
:104C800019FD2DE0FFF7FEFC676819256843BF009A
:104C9000B0FBF7F7FFF7F6FC636868439B00B0FBD7
:104CA000F3F8FFF7EFFC63684FF064099B0068437B
:104CB000B0FBF3F0B0FBF9F009FB10831B013233BA
:104CC000B3FBF9F303F0F008FFF7DCFCB7FBF9F7EF
:104CD0006268684392003F01B0FBF2FAFFF7D2FC32
:104CE000454360688000B5FBF0F0B0FBF9F009FBCC
:104CF00010A212013232B2FBF9F202F00F0208EBFD
:104D000002033B44B360BDE8F08700BF00100140E0
:104D100000140140704710B5044640B390F8393094
:104D200003F0FF021BB980F83820FFF7F3FF226879
:104D3000242384F83930D36823F40053D360204609
:104D4000FFF7CCFE23681A6922F490421A615A696F
:104D500022F02A025A61DA6842F40052DA60002036
:104D60002023E06384F8393084F83A3010BD012004
:104D700010BD0000174A1849936803F00C03042B78
:104D800003D0082B03D0154B18E0154B16E05068E4
:104D9000536810F4800F03F03F03506814BF104AAB
:104DA0000E4AB2FBF3F30B4A5268C2F30142C0F35E
:104DB0008810013243435200B3FBF2F30B60054B02
:104DC000084A9B68C3F30313D25C0B68D3400B60A3
:104DD000704700BF00380240B00100200024F400FA
:104DE00000127A00F14D040810B594B0214B002157
:104DF00001911A6C42F080521A641B6C1E4A03F037
:104E000080530193019B0291136823F4404343F4C0
:104E100000431360136803F440430293029B012391
:104E2000089300B1052309934FF480030F930823DF
:104E300010934FF4A873119304230224129308A82B
:104E400007230E941393FFF7BDF978B90F2303934B
:104E500005904FF480530790214603A804940693CD
:104E6000FFF756FBB0FA80F0400900E0002014B0D4
:104E700010BD00BF003802400070004030B595B052
:104E80000024204B01941A6C42F080521A641B6C6F
:104E90001D4A03F080530193019B0294136823F48D
:104EA000404343F4004313601368099403F4404300
:104EB0000293029B0F940323089301230B93102367
:104EC0000C9310934FF4A8731193042302251293AB
:104ED00008A807230E951393FFF774F978B90F23E9
:104EE000039305904FF480530790294603A8049537
:104EF0000693FFF70DFBB0FA80F0400900E0204672
:104F000015B030BD003802400070004008B50120E7
:104F1000FFF76AFF30B9FFF767FF18B9FFF7AEFF79
:104F200000B9FEE708BD0000174AD2F8883010B576
:104F300043F47003154CC2F888302368002143F015
:104F400001032360A160236823F0847323F480337A
:104F500023600F4B6360236823F4802323604FF0AA
:104F60000063E16093600B4B0B4A1A60FEF740FE52
:104F7000FFF7CCFF236A43F008032362236A23F080
:104F80000803236210BD00BF00ED00E000380240BE
:104F900010300024B00100200024F400054B1868F4
:104FA00030B901221A60044B044A1A60FDF7B2BE00
:104FB000704700BFE0170020A02F0020000C004029
:104FC00008B5044B1B680BB9FFF7E8FF024B586AA2
:104FD00008BD00BFE0170020000C0040044B054A4C
:104FE00013605863DA6842F00202DA60704700BF6B
:104FF000000C0040A02F0020034B044A1360DA6825
:1050000022F00202DA607047000C0040A02F00205E
:10501000034A044B13606FF002021A61704700BF2D
:10502000A02F0020000C0040C36810B504462BB927
:1050300040F2E7120449054802F026F8E3682046EA
:105040001B68BDE810401847014E04089F42040841
:10505000006900F0B3BB10B50446006900F0BEFB68
:105060002046FBF7BCFA204610BD0000F8B5114BF6
:10507000436100F11C0604460D4617460021182224
:1050800030462CF05FFEAC42A6610BD02046FBF709
:10509000A6FA3CB1EB681BB15B68294620469847ED
:1050A000EB68E3602246394604F1140000F060FB2F
:1050B0002061F8BD29500008024B1B6803B1184756
:1050C000704700BFE41700207047000008B5024C8D
:1050D00023689847FCE700BFB4010020836A9B085F
:1050E00004BF244B1B88F0B5046B08BF9B0804EB7E
:1050F0008306750748BF043E4FF0807206E906003C
:10510000A6F14005A6F14402A6F10C074FF0000EEF
:1051100042F804EFBA42FBD1C26946F8202CC278AB
:10512000C562022A416323D0134A2260114A1268E1
:10513000D2001DD5112B1BD9A3F1100251086FF01D
:1051400007024A43A2F13803334429464FF0CC30DA
:10515000994204D041F8040C41F8080DF8E70832F0
:10516000AB181A1F94423CBF4FF0CC3243F8042CCA
:10517000F0BD00BF284E0408A52E5AE290F8252065
:10518000C36A0AB1603300E020331960704710B57C
:1051900090F82540C36A0CB1603300E0203383E807
:1051A000060010BD08B50B4800F06EFB0A4B1860F6
:1051B0000A4800F069FB0A4B18600A4800F064FBDB
:1051C000094B18602BF0A2FF00210846BDE80840FB
:1051D000FEF7E5B9B44E0408A4390020C84E04080F
:1051E00020180020304E04081C180020FFF76EBF66
:1051F00010B5044600F02AFA21460246BDE81040E8
:10520000014801F0A3BF00BF4C4E0408FFF754BF94
:105210000449054AC1F1005303F5BE33D36011615F
:10522000704700BF6C3A0020B801002000F004FC79
:10523000FFF7EEFF0348002100F0B0FB00F08AF911
:10524000FEE70000B8010020024B4FF0FF31186864
:1052500000F03ABB20180020014B186800F05CBB3E
:1052600020180020024B4FF0FF31186800F02CBBD3
:105270001C180020014B186800F04EBB1C180020C1
:1052800080F309887047EFF309807047684680F320
:1052900009885A480078C00714BF0220032080F311
:1052A00014887047DFF858C1EFF305831B0618BF59
:1052B0006047EFF31483DB0708BF604700DF7047E8
:1052C000DFF840C1EFF305831B0618BF6047EFF31B
:1052D0001483DB0708BF604700DF7047EFF30980E6
:1052E000816911F8021CE1BB90E80F1010B5E0478E
:1052F000BDE81040EFF3098C8CE80700424B93E8BF
:105300000600914208BF704741B91EF0100F16D138
:105310003E49086820F00100086010E01EF0100F00
:1053200006BF2CED108A0120002081F825002CE911
:10533000F00FC1F82CC00CB401F04AF80CBC1A6094
:10534000D2F82CC0BCE8F00F92F8250000280EBF60
:105350006FF0020E6FF0120EBCEC108A8CF309880D
:10536000704710B52A4A1268914209D8294C54F85E
:10537000214090E80F10A047EFF3098C8CE80F0054
:1053800010BD10B500F0AEFFBDE810401E4B93E815
:105390000600914208BF7047EFF3098C1EF0100F12
:1053A00006BF2CED108A0120002081F825002CE991
:1053B000F00FC1F82CC00CB401F00AF80CBC1A6054
:1053C000D2F82CC0BCE8F00F92F8250000280EBFE0
:1053D0006FF0020E6FF0120EBCEC108A8CF309888D
:1053E000704710B500F0D6FFFFF7CEBF10B500F044
:1053F000CFFF00F0CFFFFFF7C7BF0000344E040817
:1054000093600008AD600008F839002034EF00E038
:1054100000000000FCFFFFFF0B4A136830B50024BA
:1054200033B19D68A94203D31C46491B1B68F7E7AB
:105430000360816013B19D68691A99600CB12060A6
:1054400030BD106030BD00BFB03900200C4A136879
:10545000002123B1834205D019461B68F9E74FF0BC
:10546000FF307047036809B10B6000E01360036808
:105470001BB1996882680A449A600020704700BF97
:10548000B0390020C0B1431C11D00C4B984211D848
:105490000B4B1B684FF47A715A1E01FB0020B0FBC6
:1054A000F3F34FF6FE70834206D898B270474FF67A
:1054B000FF7070474FF6FE70704700BF00093D0057
:1054C000244E040838B1830704D10378002B18BF99
:1054D000002070470020704738B50E4D2878B0B9CD
:1054E0000D4C236893F8241000F0E8FF2368DA7865
:1054F000FF2A03D1DA6A203282F309886168064AFA
:1055000009B982E80A0001F08DF901232B7000200F
:1055100038BD00BFB4390020F8390020014B18789D
:10552000704700BFB439002010B5EFF3108434B9D0
:10553000EFF305841CB9EFF31484E40702D4034BA2
:10554000187810BDDFF808C000DF10BDB4390020A6
:105550001D55000810B588B0EFF31083002B33D130
:10556000EFF30583002B2FD1FFF7DEFF28B9194C8D
:10557000246814B1646804B1A047EFF3148404F004
:105580000304022C0CD0032C16D0012C1ED008AC26
:1055900084F30988104C2478E40705D5022404E03C
:1055A0000D4C2478E4070BD4032484F31488BFF350
:1055B0004F8FBFF36F8F03E0074C2478E40705D4C7
:1055C000DFF818C000DF02E0822000E0FF2008B012
:1055D00010BD00BFE8390020344E0408D95400083B
:1055E00070B50B461646024608B9002070BD00682B
:1055F0000028FAD0B2F90440E51CADB2062DF4D86B
:10560000D5680DB1126900E02A46211D41EA052145
:1056100000F092FF0028E8D0094B0A4A013853F8FD
:105620002040E36A5A63084B1B6833B19B6823B17F
:105630003146E0789847E06300E0E663204670BDBD
:1056400004330020E9580008E839002008B500F0CC
:105650002DFF18B10138024B53F8200008BD00BFE0
:105660000433002010B5FFF72DFF044670B1084B3E
:105670001B681BB1DB680BB1C06B9847E07800F08A
:10568000B1FFFF280CBF8120002010BD802010BD7D
:10569000E839002010B5A8B1036883B1446864B14B
:1056A00001290ED8084B1B684BB123794BB92360F5
:1056B00001232371617122616061204610BD18468B
:1056C00010BD002010BD00BFD4350020F8B5830701
:1056D000044624D118B321B3144B1A68002312F1E5
:1056E000FF3643F1FF374FF47A70E0FB0167304635
:1056F00039463DF08BF82379012B054606D0022B65
:1057000011D12046FFF7A2FE68B902E002232371FF
:10571000E06020462946FFF77FFE0020F8BD80208C
:10572000F8BD8620F8BD8120F8BD00BF244E0408D6
:10573000830710B504460AD148B10379012B03D081
:10574000022B06D1FFF782FE0020207110BD8020C1
:1057500010BD812010BD830704D128B143690169C0
:105760001B6803E0002300E0034619461846704713
:10577000F0B507460E461546EFF31084B4B9EFF3C3
:10578000058EBEF1000F13D1EFF31484E40706D4A5
:10579000084C24781CB9BDE8F040FFF77BBF3846C1
:1057A00031462A46DFF810C000DFF0BD0020F0BD12
:1057B0002046F0BDB43900209556000810B5EFF32F
:1057C000108434B9EFF305841CB9DFF80CC000DF96
:1057D00010BD822010BD0000CD56000810B5EFF3BB
:1057E000108434B9EFF305841CB9DFF80CC000DF76
:1057F00010BD822010BD00003157000810B50446CE
:105800000846DFF80CC000DF84E80300204610BD26
:105810005757000810B548B1046824B1237823B95C
:10582000204600F058FC204610BD002010BD70B589
:1058300010F0030405460E4611D180B10378032B06
:105840000DD10846FFF71EFE0146284600F0BCFCBD
:10585000012806D1002E14BFC120812070BD8020F8
:1058600070BD204670BD820708B50AD148B10378E3
:10587000032B06D100F038FCFF280CBF812000204C
:1058800008BD802008BD000070B50546EFF3108408
:1058900094B9EFF305868EB9EFF31484E40706D4C8
:1058A000074C24781CB9BDE87040FFF7B3BF284609
:1058B000DFF810C000DF70BD002070BD204670BD55
:1058C000B43900201558000810B5EFF3108434B92E
:1058D000EFF305841CB9DFF80CC000DF10BD822097
:1058E00010BD00002F580008084808B54FF0FF31E0
:1058F0000068FFF7E9FFDFF818C000DF0446FFF794
:1059000085FC2046DFF80CC000DFFEE7AC39002044
:105910004D5600086556000810B5EFF3108434B9F1
:10592000EFF305841CB9DFF80CC000DF10BD822046
:1059300010BD0000675800082DE9F04180460F4671
:105940001646EFF31084F4B9EFF30583E3B9EFF3F0
:105950001483DB0706D40E4B1B781BB9BDE8F0415E
:10596000FFF73EBE0B4D4FF0FF312868FFF7ACFF4D
:10597000404639463246DFF820C000DF044628683A
:10598000FFF7CAFF00E000242046BDE8F08100BF19
:10599000B4390020AC390020E15500080022FFF79F
:1059A000CBBF10B5044660B1016859B1406860B121
:1059B00003784BB90431890089B200F039FA606884
:1059C00010BD10BD084610BD002010BD38B5114CEB
:1059D00023780BB900F0ACFE0F4B25781B68FF2233
:1059E0009A708DB929460D48FFF7DBFF0C4B2A460C
:1059F000186029460B48FFF7F3FD0B4B18600B4866
:105A0000FFF742FF0A4B186001232370094B002067
:105A1000187038BDA8390020F8390020B84E0408A5
:105A200000330020384E0408D4350020CC4E040842
:105A3000AC390020B439002010B5EFF3108474B9EC
:105A4000EFF305845CB9EFF31484E40703D4BDE8F5
:105A50001040FFF7BBBFDFF80CC000DF10BD822095
:105A600010BD0000CD5900082DE9F04F0C4685B05F
:105A70008046E8B10378012B1FD10846FFF702FDED
:105A800002A90246404600F0E1F9012806D10020B3
:105A9000002C0246034618BF402003E000200246C7
:105AA00003461020029904460D4616461F4608E09C
:105AB000802405460646074603E0002580242E463E
:105AC0002F462046294632463B4605B0BDE8F08FBA
:105AD00070B50E461446054660B15AB90378012BDD
