:020000040800F2
:1000000000800120056400085164000819360008CA
:1000100021360008293600083136000800000000AB
:10002000000000000000000000000000B9480008C7
:1000300051640008000000005149000861490008AF
:1000400051640008516400085164000851640008BC
:1000500051640008516400085164000851640008AC
:10006000516400085164000851640008516400089C
:10007000516400085164000851640008516400088C
:100080005164000851640008516400080000000039
:1000900000000000000000000000000051640008A3
:1000A000516400085164000851640008516400085C
:1000B000516400085164000851640008516400084C
:1000C000516400085164000851640008516400083C
:1000D00051640008516400085164000800000000E9
:1000E00051640008516400085164000800000000D9
:1000F0000000000000000000000000005164000843
:1001000000000000516400085164000851640008B8
:1001100000000000000000000000000000000000DF
:1001200051640008516400085164000851640008DB
:100130005164000800000000000000000000000002
:1001400000000000000000000000000051640008F2
:1001500051640008516400085164000851640008AB
:100160005164000851640008000000000000000015
:10017000000000000000000000000000000000007F
:1001800000000000516400080000000000000000B2
:100190005164000810B5054C237833B9044B13B1F2
:1001A0000448AFF300800123237010BD300D002000
:1001B000000000005CA1010808B5034B1BB1034916
:1001C0000348AFF3008008BD00000000340D00209C
:1001D0005CA10108A3F5803A704700BF174B002BC4
:1001E00008BF134B9D46FFF7F5FF00218B460F46D6
:1001F0001348144A121A0BF0C3F80E4B002B00D010
:1002000098470D4B002B00D0984700200021040098
:100210000D000D48002802D00C4803F029FE0AF01A
:1002200085FB2000290004F025FA03F0CFFF00BF72
:100230000000080000000000D145000800800120F7
:10024000300D002030300020713E0008000000001A
:10025000F0B5002384681D4601269C420CD04268FC
:1002600052F82320916857680131B942916024BF48
:10027000167395600133F0E7F0BD034607C983E8C4
:1002800007007047704710B44268816854100346F5
:1002900001EB6200D20748BF0A591B685DF8044BA6
:1002A00048BFD3581847027B22B103680022DB689D
:1002B0000273184770470000034AC0E9002100227A
:1002C00082600273704700BFBC7E01087047C3683C
:1002D00010B504460BB19B689847204610BD00003E
:1002E00038B50546064B45F8283B044602F00FFAA0
:1002F0002846FFF7ECFF204602F054FA204638BDAE
:100300008084010838B50546054B45F8103B044686
:10031000284602F0FCF92846FFF7E2FF204638BDE8
:10032000AC7E010810B50446FFF7ECFF20465021D3
:1003300003F086FF204610BD10B50446FFF7D0FF3E
:100340002046402103F07CFF204610BD30B52DED46
:10035000028B08EE103A1B4B826000F1100589B049
:10036000C0E900310446284602F070F91022164B0D
:1003700000930DEB0200154B03930021CDE901140E
:100380000AF0FEFF694604A8FFF777FFDFED107A59
:10039000039B079368EE277A17EE900A16F048FC45
:1003A00002460B46284604A902F095F904A8FFF777
:1003B0008EFF6846FFF78BFF204609B0BDEC028B2D
:1003C00030BD00BFAC7E010851020008987E0108D4
:1003D000002474497047034607C983E80700704743
:1003E000704710B4426881685410034601EB620004
:1003F000D20748BF0A591B685DF8044B48BFD35861
:10040000184710B54FF48871044603F019FF2046D1
:1004100010BD70B50446A4B1E068FFF7FAFF636B46
:10042000A56804F110061BB19B6804F128009847E9
:10043000304608F06DF82046382103F001FF2C46C5
:10044000E9E770BD10B5064B03600446D0F84003E1
:10045000FFF7DFFF2046FFF739FF204610BD00BF42
:100460005480010810B50446FFF7ECFF20464FF416
:10047000547103F0E5FE204610BD38B5044672B64F
:10048000FF25206901F0A5FF80B3D4F81831D4F816
:100490001C110133B3FBF5F2C2EB02229B1A8B4213
:1004A00024D02069B43003F085F8D4F81831D4F89A
:1004B0001C110133B3FBF5F2C2EB02229B1A8B42F3
:1004C000DFD0D4F818312344C0B21876D4F81831EC
:1004D0000133B3FBF5F2C2EB02229B1AC4F81831C8
:1004E000D4F820310133C4F82031CAE762B638BDF0
:1004F000F7B50546382003F08DFE00F118030361BF
:10050000D5E904630446F7181EB917B1174807F078
:10051000ABFF0F2B019308D9002201A904F11000B1
:1005200007F0D2FF019B2061A36120693A46314662
:1005300007F0F6FF019B226963610021D15404F1A9
:100540002803102218460AF01BFF6A6B1AB1526882
:1005500005F1280190476B6B63632B78237020466D
:100560000023C4E9023303B0F0BD00BFCC7E010814
:10057000F8B505460E46FFF7BBFF46600446E8683F
:1005800018B12146FFF7F4FFE060AE68274676B168
:100590003046FFF7ADFFB86047600546F06818B118
:1005A0002946FFF7E5FFE860B6682F46EFE72046EB
:1005B000F8BD00002DE9FF4104460D460021164616
:1005C000DFF8E880FFF778FE344B23602561FF22D7
:1005D00000250021FE27C4F8148004F118000AF059
:1005E000CFFEC4F81851FF22C4F81C712946C4F884
:1005F0002051C4F8248104F594700AF0C1FE04F57A
:100600000D73C4F828522946C4F82C724FF4807236
:10061000C4F8305218460AF0B3FE04F54F71C4E92D
:10062000D051C4F83403B06884F83C53C4E9D215FF
:10063000A0B1FFF79DFF03461A469B68002BFBD134
:10064000C4F8442303461A46DB68002BFBD17369C8
:10065000C4F84823C4F84C33C4F840030025104BB9
:10066000104E206900932A466946CDE9015403964D
:1006700001F05AFF6846FFF72AFE0B4B2069012262
:100680006946CDE90035CDE9024601F04DFF6846E7
:10069000FFF71DFE204604B0BDE8F081548001083C
:1006A0007B040008407F0108FD060008387F010830
:1006B000D0F8082110B50132D0F80441FF23B2FB75
:1006C000F3F1C1EB0121521AA24215D0D0F8082152
:1006D0000132B2FBF3F3C3EB0323D31AC0F80831A2
:1006E000D0F8083103441B79D0F80C21013ADBB271
:1006F000C0F80C21184610BD0023FBE7F8B50446EE
:1007000072B6FF2600F59275206901F073FEB0B154
:10071000D4F82C32D4F828120133B3FBF6F2C2EB32
:1007200002229B1A8B420AD0206900F1B4072846A6
:10073000FFF7BEFF0146384602F026FFE4E762B647
:10074000F8BD00002DE9F043D0F81C31D0F81811A5
:100750000133FF22B3FBF2F2C2EB02229B1A8B425F
:10076000ADF50B7D04460BD01430FFF7A1FF232815
:10077000064609D184F8340204F23523C4F8343330
:100780000DF50B7DBDE8F083D4F8343304F54D72DC
:100790009342F5D00A2870D113F8032C3B2A6CD170
:1007A00013F8022C3B2A68D113F8013C0D2B64D1BD
:1007B00004F50D7834490AAB02AA40460BF074FAEE
:1007C000022858D104AA02A94AA807F005FF04F597
:1007D0004F79D4F840734D4667B107F110004AA92C
:1007E00007F0B2FED7E902320028AABF3D461746FD
:1007F0001F46F1E7A94508D005F110014AA807F006
:10080000A3FE35EA200528BF4D464AA807F080FE22
:100810004D4530D01D4B4AAA03F1100C1868596899
:10082000174603C7083363453A46F7D11B883B8018
:10083000EE2200210DF59D700AF0A2FD01AA4AA941
:1008400004A807F0C9FE6B6B05F128002BB910490D
:10085000104840F23B2203F00DF81B684AAA0AA98F
:10086000984720690C494AAB02AAB43002F0B4FEA2
:1008700004A807F04DFEC4F83483D4F834331E7056
:10088000D4F83433013379E7F67E01084C7F010850
:10089000007F01081F7F0108247F010843691A684F
:1008A00003691A4216BFC26982691B04136070474C
:1008B00010B5034B03600446FFF708FD204610BD4A
:1008C0006C80010810B50446FFF7F2FF20462C218A
:1008D00003F0B6FC204610BD82B070B5064604ACED
:1008E00084E80C003446FFF7E7FC04AD084B44F8FD
:1008F000103B0FCD0FC495E8070084E80700304691
:10090000B36932691A60BDE8704002B0704700BF39
:100910006C80010810B5034B03600446FFF7D6FC5A
:10092000204610BDA880010810B50446FFF7F2FF6D
:100930002046182103F084FC204610BD437B10B5EF
:10094000044673B1006903685B68984715F0A0FD21
:10095000024660690B46BDE810400249B43002F01F
:100960003BBE10BD7C80010870B504461D4616468E
:10097000FFF7A2FC034B23600023C4E90465637303
:10098000204670BDA880010837B5002305461446EF
:10099000084601AA0A4901930BF086F901280CD1F7
:1009A000019B0849002BD4BF002301236B73204611
:1009B00003B0BDE830400BF061BB0349F7E700BF6F
:1009C0002E8B01088B8001089180010807EE901A98
:1009D00090ED087AB4EEE77AF1EE10FA09D890EDCE
:1009E000097AB4EEE77AF1EE10FAACBF01200020EC
:1009F000704700207047000010B50446084615F007
:100A000047FD09A3D3E9002315F09AFD08A3D3E914
:100A1000002315F0DFFB16F08BF80146201DBDE822
:100A2000104001F021BC00BF40BD19355F254F3F8C
:100A3000DD2406819543B33FF8B505461E460A4BB3
:100A400045F8043B04461746284601F0D7FB2846E4
:100A500027626662142101F0E2FB2846034901F097
:100A600003FC2046F8BD00BFC0800108AC1C9A3DC5
:100A700010B5034B034A0446FFF7DEFF204610BDC6
:100A80000000B8410000B8C110B5044B044640F85E
:100A9000043B01F003FC204610BD00BFC0800108EC
:100AA00007EE901A90ED2A7AB4EEE77AF1EE10FA9A
:100AB00009D890ED2B7AB4EEE77AF1EE10FAACBFDC
:100AC0000120002070470020704707EE901AF5EED5
:100AD000C07AF1EE10FA036A0CD5C26A1B041360E7
:100AE000436CC26B1A60F0EEE77A17EE901A04308E
:100AF00001F0BABB826A1360C36B826C1B04136083
:100B0000F1E70000036AC26A04491B041360C36B67
:100B1000826C1B041360043001F0A6BB0000C842C5
:100B200038B51C2204460D4600210AF029FC204657
:100B3000294602F096F8204638BD0000F8B5054673
:100B40001E46124B45F8043B04461746284601F062
:100B500055FB394604F12000FFF7E2FF314604F16E
:100B60003C00FFF7DDFFBDF9181004F1580001F05B
:100B700027FB079BC4F8A830089BC4F8AC30284674
:100B8000C82101F05AFB2046F8BD00BFD080010803
:100B900010B5044B044640F8043B01F07FFB2046AF
:100BA00010BD00BFD0800108704710B50446006832
:100BB00010B10368DB689847204610BD014B586AA6
:100BC00000B2704700080040014B00225A62704793
:100BD0000008004010B50421044603F031FB204614
:100BE00010BD0000184A136B43F002031363174B48
:100BF000196841F420411960596841F0C0015960F9
:100C0000996841F470419960D96841F42041D960F4
:100C1000196A41F008511962596A5962136C43F01C
:100C2000040313640A4B01221A6003229A604FF2F4
:100C3000F1129A6111210022DA6119624FF6FF71F7
:100C40009A62D9625A62704700380240000402403A
:100C50000008004010B5084C236853B9042003F085
:100C6000D9FA064A02602060FFF7BCFF044B2268F5
:100C70001A60206810BD00BF4C0D0020E480010800
:100C8000500D0020024A0349034803F0EFB800BFAB
:100C900098010020AB0B0008500D00200020704789
:100CA00010B50446406803681B6898472081606857
:100CB0000368BDE810405B681847B0F9080070474A
:100CC000B0F9083007EE103A038A07EE903AB8EE12
:100CD000C77AF8EEE77AC7EE276AD0ED037AC6EE58
:100CE000A77A17EE900A704713B50446FFF7D8FFAE
:100CF000B4F90830D4F8800007EE903A0368F8EEB3
:100D0000E77A01A9CDED017A1B68984707EE900AB2
:100D1000FDEEE77A17EE903A18B215F0A7FBC4E99A
:100D20001E0102B010BD08B5D0E91E0115F0B8FED5
:100D300000B208BDA0F17000FFF7F5BFD0B50446C2
:100D4000008A15F093FB02460B46D4E91E0115F00C
:100D500021FD0646E0680F4615F09AFB02460B4659
:100D60003046394615F016FD15F0E2FED0BDA0F173
:100D70007000FFF7E3BF034607C983E80700704729
:100D8000704710B4426881685410034601EB62005A
:100D9000D20748BF0A591B685DF8044B48BFD358B7
:100DA000184700001FB504460C48E160238201216A
:100DB0000C23C4E90002CDE900310022084B039363
:100DC00004F11400029401F003FD039B13B19B682E
:100DD00068469847204604B010BD00BF088101084E
:100DE000F4800108D0ED037A9FED057A67EE877AEB
:100DF0001430FDEEE77A17EE901A01F003BD00BF44
:100E000000007A4410B50446FFF7CCFF054B03F110
:100E1000080228332367029B2260C4F880302046F2
:100E200010BD00BF1881010803624FF42063838462
:100E30004FF07C5383624FF03F4310B5C362064BC3
:100E40000363064B4363064B8363029BC363039BAD
:100E50000364C0E9001210BD000020410000F04111
:100E600000009643C0E902237047D0E904017047AF
:100E7000406803685B6818472DE9F843056A044633
:100E800016461F4665B11046194615F051FE2B68EF
:100E900001461B682846984715F0FAFA06460F46A1
:100EA000E06A15F0F5FA32463B468046894615F071
:100EB000D7FD40B194F82430013384F82430404603
:100EC0004946BDE8F883A06A15F0E2FA32463B468F
:100ED0008046894615F0A6FD0028EBD1002384F852
:100EE0002430B046B946EAE72DE9F04304460068ED
:100EF0002DED028B036883B05B68984708EE100AFB
:100F0000206803689B689847D4ED0E7AF0EEC88A93
:100F1000F4EEE87AF1EE10FA05460CD50022002333
:100F2000C4E90223C4E904234FF0FF3003B0BDEC51
:100F3000028BBDE8F083D4E90289206B29F00047D9
:100F400015F0A6FA42463B46464615F089FD70B1BB
:100F5000D4ED0D7AF4EEE87AF1EE10FA07DD002216
:100F60000023C4E90423C4E906230120DEE7002DA1
:100F70003BD03046394615F0DBFD07EE900A666837
:100F800077EEC87A336817EE900A1F6815F080FA7A
:100F900080468946CDE9008969463046B84715F054
:100FA000C7FD15F075FA02460B462046FFF764FFB1
:100FB00015F0BEFD94F8242094F825309A4217D9F4
:100FC000B5EE408AF1EE10FA12D1606803685B68F2
:100FD000984700230022C4E90223C4E90423002324
:100FE00084F824306FF00100A0E740464946C2E78C
:100FF00015F04EFA06460F46C4E90467C4E90689AF
:10100000D4E902010022002315F00CFD0028ACD029
:10101000002DAAD007F1004326616361A5E770B5F2
:1010200014461D460646C06B15F032FA22462B4682
:1010300015F002FD48B1306C15F02AFA22462B4615
:1010400015F004FD003818BF012070BD034607C924
:1010500083E807007047704710B4426881685410F5
:10106000034601EB6200D20748BF0A591B685DF8CE
:10107000044B48BFD358184770B5037F012B044673
:1010800002D0022B46D070BDC068616903681B683E
:101090009847637F002B38D0256A002D35D094ED1A
:1010A000047ADFED247A67EE277A17EE900A15F0BE
:1010B000EFF902460B462846FFF7D4FE206AFFF7F9
:1010C00013FF431C0ED160681B49B43002F084FA50
:1010D000A06803685B689847206AFFF7C9FE02238F
:1010E0002377D0E7023002D160681449EDE7A568A4
:1010F000206A2B681E68FFF7B8FE15F019FD33460D
:1011000001462846BDE870401847A0682169036879
:101110001B68F7E7C068616903681B689847A068A7
:1011200003685B689847206A0028ACD0BDE870402F
:10113000FFF79EBE0000164348810108798101082F
:101140001FB504460F48A360069BE3600023C4E973
:101150000002236100226361079BA16123620121D8
:10116000094B627704F124000393CDE90114009246
:1011700001F02EFB039B13B19B68684698472046FD
:1011800004B010BD588201084482010837B50446F6
:101190001546084601AA18490AF086FD012829D1FA
:1011A000637F8BB19DED017ADFED147A67EE277ACC
:1011B00017EE900A15F06CF902460B46206AFFF70D
:1011C0002EFF88B90E4906E0A068019903689B6864
:1011D000984730B90B49284603B0BDE830400AF0C3
:1011E0004DBF637F002BDDD1019B236101230649A5
:1011F0002377F0E70549EEE79181010800001643E7
:10120000B4810108948101088B8001089180010854
:1012100073B505461446084601AA0D490AF044FD77
:101220000128064611D1E868019903685B68984770
:1012300030B90849204602B0BDE870400AF01EBF30
:10124000019B05496B612E77F4E70449F2E700BF83
:1012500091810108D68101088B80010891800108E5
:1012600037B504461546084601AA11490AF01CFD87
:1012700001281AD1E068019903685B68984730B982
:101280000C49284603B0BDE830400AF0F7BE002301
:101290002361206A019B63610223237718B1002236
:1012A0000023FFF7DFFD0449EBE70449E9E700BF4E
:1012B00091810108D68101088B8001089180010885
:1012C00037B5002304461546084601AA0E49019386
:1012D0000AF0EAFC012814D1236A33B90B492846E5
:1012E00003B0BDE830400AF0C9BE00232361019B72
:1012F0000749002BD4BF0023012363770223237700
:10130000EDE70449EBE700BF2E8B0108FF810108E0
:101310008B80010891800108D0ED067A9FED057A57
:1013200067EE877A2430FDEEE77A17EE901A01F027
:1013300069BA00BF00007A44034607C983E8070082
:1013400070477047034607C983E807007047704736
:10135000034607C983E807007047704770B44468C4
:1013600085686610034605EB6400E40748BFAC5986
:101370001B6848BFE35870BC184770B44468856860
:101380006610034605EB6400E40748BFAC591B68D0
:1013900048BFE35870BC184770B44468856866104D
:1013A000034605EB6400E40748BFAC591B6848BF1F
:1013B000E35870BC18470000D0ED056ADFED0F7AE6
:1013C000C0ED066A91ED006AD0ED025A80ED056A23
:1013D000B0EE677AA6EE257A90ED036AA6EE267A3D
:1013E000D0ED046A90ED016AE6EE267A77EE677A30
:1013F000C0ED047A17EE900A704700BF00000000AD
:1014000010B5044B044640F8243B01F0FDF920469A
:1014100010BD00BF5882010810B5054B0367054B8E
:10142000044640F8143B01F0EFF9204610BD00BF20
:1014300040810108088101080B4B10B503F120021F
:1014400003608C330446C0F8B420C0F8B830CC3008
:1014500003F0B6F804F1B40002F07CF8204601F085
:101460009FF8204610BD00BFCC830108A0F1B40056
:10147000E2E7A0F1B800DFE7D0B5D0ED017A2DEDBD
:10148000028B08EE101AF4EEC87AF1EE10FA00F1B1
:101490000C040BDA00F1140406D5D0ED027AB4EE98
:1014A000E78AF1EE10FA01D900F11C04206814F06B
:1014B000EFFF064618EE100A0F4614F0E9FF024649
:1014C0000B463046394615F03BF8064660680F4635
:1014D00014F0DEFF02460B463046394614F07AFE21
:1014E00015F026FBBDEC028BD0BD38B505460024B7
:1014F000AB68A34207D96B6853F8240003689B6864
:1015000098470134F4E738BD70B5164C164D174EA8
:1015100020464FF47A31B43400F047FF1449204696
:1015200002F05AF82946204602F056F83146204685
:1015300002F052F80F49204602F04EF8314620469C
:1015400002F04AF82946204602F046F80A492046A9
:1015500002F042F80948FFF745FC0948FFF7DCFEB6
:10156000002070BDD00F0020618201087582010843
:101570005C820108898201085E820108C80E002091
:10158000500F002010B5FFF7BFFF044620B9064CEE
:101590002046FFF7AAFFFBE702460449044802F091
:1015A0001BF8204610BD00BF381400209D820108A2
:1015B00084100020C36810B504460BB19B6898479F
:1015C000204610BD70B5044694B1E068FFF7FAFFFD
:1015D00004F1100604F12800A568FFF7EBFF304680
:1015E00006F096FF2046382102F02AFE2C46EBE753
:1015F00070BD10B504468068FFF7E4FF204610BDBB
:1016000030B500240025C0E90045C0E90245C0E925
:101610000445D1E90045C0E90045D1E90245C0E9EA
:101620000245D1E90445C0E9044530BDD1E90223B2
:10163000C0E90623D1E90423C0E90823D1E9002346
:10164000C0E90A23704700002DE9F04F2DED0E8B05
:101650009FB00BAB01930AAB0093834692460846BA
:1016600009AB7A4908AA0AF01FFB042840F0E4807D
:10167000089814F00DFF064609980F4614F008FF6D
:1016800041EC180B0A9814F003FF41EC190B0B986E
:1016900014F0FEFE04460D4602460B46304639461F
:1016A00014F04EFF53EC192B14F094FDDBE918896C
:1016B00041EC1A0B42464B462046294614F040FFA7
:1016C00053EC182B14F03CFF424641EC1B0B4B46ED
:1016D0003046394614F034FF224641EC1C0B2B46B1
:1016E0002046294614F076FD224641EC1D0B2B4680
:1016F00051EC1A0B15F04EF853EC1C2BCDE90C01F4
:1017000051EC1B0B14F066FD53EC1D2B41EC1E0B32
:101710003046394614F014FF02460B4651EC1E0BBE
:1017200014F056FD53EC192B06460F4619EE100A1D
:10173000194614F04FFD02460B463046394614F068
:1017400047FD22462B4615F025F84246CDE90E010D
:101750004B464046494614F0F3FE53EC182B14F068
:10176000EFFE53EC1A2B14F035FD53EC1B2B14F049
:101770002FFD53EC1C2B14F02BFD22462B4615F0AD
:1017800009F8334B0022CDE91223CDE9100142467E
:101790004B4651EC1D0B14F01BFD22462B4601F16C
:1017A000004114F0F7FF4246CDE914014B462046B4
:1017B000294614F00DFD22462B4614F0EBFF0BF1E9
:1017C000080BCDE916010CA918A8FFF719FF18ACF2
:1017D0005A461EAD234603CBAB42106051601C46F7
:1017E00002F10802F6D112A918A8FFF709FF18A9FB
:1017F0005846FFF71BFF089814F04AFE02460B46B6
:101800000B98CDE9062314F043FECDE904010A98B4
:1018100014F03EFECDE90201099814F039FEDDE92D
:101820000623CDE900010B4950460AF01DFA1FB00E
:10183000BDEC0E8BBDE8F08F074950461FB0BDECE4
:101840000E8BBDE8F04F0AF019BC00BFB48201084E
:101850000000F03FC18201089180010813B50DF12D
:10186000080C0CE90C00019B0260C0E90131024B3D
:10187000C36002B010BD00BF4083010838B50D46FB
:1018800010220021044609F07BFDEB681BB15B6868
:10189000294620469847EB68E360204638BD00F1B2
:1018A0000803F7B50360044608460D4616460AF0DD
:1018B00047FC0F2805EB0007019007D9002201A97A
:1018C000204606F001FE019B2060A36020683A4696
:1018D000294606F02FFE2046019B50F8182B636026
:1018E0000021D1543146FFF7C9FF204603B0F0BDB7
:1018F00008B506F029FEC00F08BD2DE9F0418D683E
:1019000004460F4690460E1D012065B105F11001F9
:101910004046FFF7EDFFD5E9023200282E460CBF06
:1019200015461D46F1E7A0B1FB68B34204D125601E
:1019300066602046BDE8F081304606F0ABFC054607
:10194000414605F11000FFF7D3FF20B100232360CB
:10195000EEE73546F4E7C4E90050EAE700F1080392
:10196000F7B50360D1E9006304460D46F7181EB9C8
:1019700017B1104806F078FD0F2B019307D900220C
:1019800001A9204606F0A0FD019B2060A36020680D
:101990003A46314606F0C4FD2046019B50F8182B0C
:1019A00063600021D15405F11801FFF767FF20465D
:1019B00003B0F0BDCC7E01082DE9F041054638208A
:1019C0000E4602F027FC05F1100104461030FFF727
:1019D000C5FF2B78E86823700023C4E902336660F2
:1019E00018B12146FFF7E8FFE060AE6827464FF0E8
:1019F0000008BEB1382002F00DFC06F110010546CA
:101A00001030FFF7ABFF33782B70C5E90288BD605B
:101A10006F60F06818B12946FFF7CEFFE860B6683E
:101A20002F46E6E72046BDE8F081000000000000F8
:101A30002DE9F04F2DED068BE9B04FF416530093CE
:101A4000032200230221C048C04F00F06FFCC04AAF
:101A5000C049BD4802F00AFA4FF07C534FF000082D
:101A600002934FF03F430193CDF8008015230A22E3
:101A70001321B948FFF762F8B54AB849B64802F0F1
:101A8000F5F9272138460DF1B009FEF7F1FFB04A0C
:101A9000B349384602F0EAF91C224146484609F0AB
:101AA0006FFC2EAD0521484601F0DBF80FCD6C46EA
:101AB0000FC42B68236099E80C0041F28831A948D3
:101AC000A94CAA4DFEF708FFA14AA949A54802F072
:101AD000CDF9A84B2360A84B6360A84BA360E360DB
:101AE000002323616361A361A54B19680691FFF789
:101AF000B1F84FF40063024606990094A148FFF73D
:101B000081F9934AA0499F4802F0B0F98E4B9D4A53
:101B10009E486421FEF728FF8D4A9D499B4802F0AC
:101B2000A5F90FCD26AC0FC495E8030026AE84E8D6
:101B300003000FCE4D460FC594E80300954E964B1B
:101B4000336085E80300954B7360CC46944BB360DB
:101B5000BCE80F0006F10C040FC495E80300884BA5
:101B600084E8030018688F4C14F092FC82462046EB
:101B70008D4B40F8083B9FED628B8B461822414607
:101B800009F0FEFB00220023C4E90823C4E90A236C
:101B9000C4E90E23C4E91023C4E91223C4E91423C1
:101BA000C4E9162384ED0C8B57A3D3E900235046D8
:101BB000594614F0C5FC56A3D3E9002314F0C0FC29
:101BC00055A3D3E9002341EC190B5046594614F0B4
:101BD000B7FC53A3D3E9002341EC1A0BCDE91A2338
:101BE00002460B4651EC190B14F0F4FA4EA3D3E95C
:101BF000002314F0EDFA4EA3D3E9002314F0E8FA21
:101C000041A3D3E9002314F0C5FD5246CDE91C01E0
:101C10005B465046594614F093FC3DA3D3E900239C
:101C200014F08EFC44A3D3E9002314F0D3FA53EC50
:101C3000192B14F0CDFA53EC1A2B14F0C9FA32A375
:101C4000D3E9002314F0A6FD5246CDE91E015B4600
:101C50003BA1D1E900018DED208B14F0B9FA2AA344
:101C6000D3E9002301F1004114F094FD5246CDE97F
:101C700022015B4624A1D1E9000114F0A9FA22A3B4
:101C8000D3E9002314F086FD1AAACDE924011146F8
:101C90004846FFF7B5FCCE46BEE80F0004F1080C3D
:101CA000ACE80F0095E8030020AA8CE80300114679
:101CB0004846FFF7A5FC04F108004946FFF7B6FCCB
:101CC0003A4D3B4B01933B4B2E49009328463346FC
:101CD0002246FFF7A9F8CDE9007529491E4B1A4A9B
:101CE00009683548FFF72CFA194A3449324802F09E
:101CF000BDF8334B3049CDE92C3863E0AFF30080B9
:101D0000000000000000F03F7B14AE47E17AA43FE2
:101D1000EC51B81E85EBE93F713D0AD7A370BD3F7A
:101D2000946588635DDCBE3F4850FC1873D7823FE2
:101D30000188BB7A15193D3F882CD2C43BC0733F44
:101D40007B14AE47E17AB43FD00F0020101400207E
:101D50009801002039140008140E0020910B00088F
:101D6000890A00086C0D0020E00D00204C8301085A
:101D7000B108000808830108721C47BF398EE33D93
:101D80009C010020C80E002019140008FC0D002042
:101D900015090008F014002014830108D7FA62BE68
:101DA000D7FA623E8814002020830108980D002095
:101DB00000006143000061C3500F002001140008BF
:101DC0008D11000820A899E80C00FFF747FD79491C
:101DD00020AA4846FFF763FD774B784916AEC6E95F
:101DE00000381AA896E80C00FFF738FD74491AAAC3
:101DF00036A8FFF754FD734B704912AFC7E900389E
:101E0000304697E80C00FFF729FD6F49324640A89D
:101E1000FFF745FD6D4B69490EADC5E90038384601
:101E200095E80C00FFF71AFD69493A464AA8FFF702
:101E300036FD684B6849C5E90038684BAB60684BB4
:101E4000EB602A4654A8FFF72AFD664B0C94664CBB
:101E50006649CDE90A380AAA654B0D935EA8FFF7DB
:101E60001EFD231DC4E90333062384F80480C4F84F
:101E70000880C4F814800693C84663694BB1D4F84F
:101E800010A041460AF11000FFF732FD002840F093
:101E90008C804246214608A8FFF72FFDDDE9083A6D
:101EA000BAF1000F1BD0002B7CD1524B9A4579D050
:101EB0000AF110014046FFF71BFD8346382002F06F
:101EC000A9F9414607901030FFF748FD494B0799A3
:101ED0005246584606F0F8F9636901336361069B80
:101EE000013B08F128080693C7D10DF5D078A8F179
:101EF000280808F11800FFF75DFB404606F008FBD4
:101F0000C845F4D10AA8FFF755FB2846FFF752FB56
:101F10003846FFF74FFB3046FFF74CFB1AA8FFF798
:101F200049FB20A8FFF746FB3349344A2E4801F00D
:101F30009DFFA06800232DA9CDE92F118DF8B430A5
:101F40002E93319388B1FFF737FD03461A469B68FD
:101F5000002BFBD12F9203461A46DB68002BFBD1E6
:101F6000214B30925B6931932E904A462449254893
:101F7000FEF720FB2E98FFF725FB204A2249214837
:101F800001F074FF214B224922480322FEF7DEF9BB
:101F90001A4A21491F4869B0BDEC068BBDE8F04FD5
:101FA00001F064BF4FF0010B88E7BAF1000F7FF436
:101FB0007CAF94E7DF82010811120008500F002067
:101FC000E482010861120008E9820108C1120008D8
:101FD000EE82010889090008F3820108FC0D002047
:101FE0003483010849160008540D0020F8820108C6
:101FF00028830108580D0020F315000898010020DF
:10200000D00F0020C01000204504000817B7D138B9
:10201000A0010020381400200503000810B5044674
:10202000FFF70AFA2046F02102F00AF9204610BD17
:10203000A0F1B400F2E7A0F1B800EFE7D0E90E2379
:102040002DE9F047C0E91023D0E90C23C0E90E23A5
:10205000D1E90023C0E90C238246064600F11807A7
:10206000002400253146D1E90023D1E90C0114F008
:1020700067FA02460B462046294614F0ABF80836AC
:10208000B74204460D46EDD1DAE90823DAE9140136
:1020900014F056FADAE91289DAE9062306460F4601
:1020A0004046494614F04CFA0022002314F092F8FE
:1020B00002460B463046394614F08CF802460B4671
:1020C0002046294614F084F8DAE90A2314F062FB6A
:1020D00002460B46CAE91489CAE91223BDE8F08713
:1020E00008B50830FFF7AAFF08BDF0B5002487B097
:1020F0000025CDE90045CDE90245CDE9044503467B
:102100006F4600F130060DF1180C3A4603CA6245DD
:1021100030607160174606F10806F6D1C3E9124532
:10212000C3E9144507B0F0BD08B50830FFF7DDFF7F
:1021300008BDFFF77DBC704710B55021044602F082
:102140007FF8204610BD0000F8B50546064655F854
:10215000044B8CB90D4F386818B14FF0FF3103F0C4
:10216000ADFB346824B9284602F0E6F92C46356008
:10217000386808B103F0BAFBAC4204D00449054802
:102180008B2201F077FB2046F8BD00BFA827002076
:10219000648301088783010808B50348FFF7D4FF6B
:1021A000BDE8084002F0D0B91415002008B5034876
:1021B000FFF7CAFFBDE8084002F0E4B9141500209B
:1021C00037B50546084B45F8043B04460191FFF737
:1021D000E3FF0199284604F03DF92046FFF7E6FFAA
:1021E000204603B030BD00BFB4830108C36810B5FA
:1021F00004460BB19B689847204610BD07B50023E5
:1022000003760191009001F0DFFBDDE9000105F0AC
:10221000D3FC01F0EFFB009803B05DF804FB07B5B9
:10222000CDE9001001F0D0FBDDE9001005F088FDDC
:1022300003B05DF804EB01F0DDBB07B5CDE900109C
:1022400001F0C2FBDDE9001005F01AFC03B05DF8F7
:1022500004EB01F0CFBB037E10B504461BB901F0BF
:102260001FFD0123237610BD07B5CDE9000101F064
:10227000ABFB0098FFF7EFFFDDE9000105F07AFB0B
:1022800003B05DF804EB01F0B5BB037E10B5044666
:102290001BB101F01BFD0023237610BD07B5019093
:1022A00001F092FB019805F05FFB0198FFF7EDFF4D
:1022B00001F0A0FB019803B05DF804FB6FF015007E
:1022C000704703681B69184703689B6918470368D0
:1022D0009B6A184700290CBF6FF018000020704758
:1022E000012070476FF0150070476FF015007047C0
:1022F00011207047704700F08EB8A0F1B400FFF7CE
:10230000FABF00F08BB8A0F1B400FFF7FABFCC30F1
:1023100002F01AB9A0F1B400FFF7F9BFCC3002F017
:1023200031B9A0F1B400FFF7F9BF000038B5044699
:102330001D46049B00F08EF8294604F1B40001F01C
:10234000DFF8084B03F10802226003F128029433FE
:10235000C4F8B420C4F8B83004F1CC0002F0ECF8B2
:10236000204638BDC48301087047416830B4034635
:1023700071B1D0E9032000F0010402B944B1451065
:1023800001EB60000CB149598A58996830BC10477C
:1023900030BC704700EB0113D3F89C3023B10931F6
:1023A0001B6800EB01101847704770B506460446DD
:1023B00056F8443B0D461B6898473046294605F0C1
:1023C00025FD2368C4F8B05020465B68BDE8704026
:1023D000184738B50546044655F8443B1B689847EE
:1023E000284605F0C7FC236805465B6820469847E9
:1023F000284638BD38B50546044655F8443B1B68A9
:102400009847284605F0CCFC236805465B682046C3
:102410009847284638BD443005F07CB810B54430A4
:102420000C4605F089F8204610BD884238B50446B0
:102430000D460ED0FDF74BFF10220021204608F07C
:102440009FFFEB681BB15B68294620469847EB6805
:10245000E36038BD2DE9F04F87B0002501932F4B85
:10246000036010262E4B43600446C0E90355C0E9C3
:10247000055588469146858332462946806020303E
:1024800008F07EFF04F144073246294604F130008B
:1024900008F076FF04F1900A2946A4F840504C2237
:1024A000384608F06DFF04F1A00B3246294650462D
:1024B00008F066FF32462946584608F061FF019B46
:1024C000C4F8B0303246294602A808F059FF02A9E4
:1024D0005046FFF7AAFF02A8FDF7F9FE324629464B
:1024E00002A808F04DFF02A95846FFF79EFF02A878
:1024F000FDF7EDFE4A464146384605F0ADFCD4F8FE
:10250000B010384605F082FC38460649224604F0F1
:10251000A5FF204607B0BDE8F08F00BF6884010822
:102520006B230008952300082DE9FF410646154658
:1025300056F8443B0F461B680446984701F044FA9E
:102540002B012344FA68D3F89C3005F10908AAB19D
:102550000BB901F0A5FB394604EB0810FFF765FF46
:1025600001223046294604F085FF01F043FA236832
:102570005B68204604B0BDE8F04118470BB101F09C
:10258000A5FB10220021684608F0FAFE694604EB1C
:102590000810FFF74AFF6846FDF799FE0022E0E7C2
:1025A0001FB51A4B0360044610220021684608F04C
:1025B000E7FE002269462046FFF7B6FF6846FDF7B2
:1025C00086FE10220021684608F0DAFE01226946E4
:1025D0002046FFF7A9FF6846FDF779FE04F1A00049
:1025E000FDF775FE04F19000FDF771FE04F1300077
:1025F000FFF7FCFD04F12000FFF7F8FDA06908B12A
:1026000000F032FE204604B010BD00BF688401080F
:1026100010B50446FFF7C4FF2046B42101F010FEB8
:10262000204610BD70B5D0E90813D0E90225044654
:10263000521845EB030300F0A5F8636B2BB104F1CE
:1026400028001B68BDE87040184770BD10B50446EF
:1026500000F080F8084B236000220023C4E908231F
:102660000021102204F1280008F08AFE012384F8DA
:102670003830204610BD00BF8084010870B5044684
:1026800015461E4601F0A0F9204600F085F8C4E981
:102690000856A06900F077FD421946EB0103204679
:1026A00000F070F8BDE8704001F0A4B9884238B578
:1026B00004460D460ED0FDF70AFE102200212046EA
:1026C00008F05EFEEB681BB15B6829462046984720
:1026D000EB68E36038BDF8B504461D460F46164664
:1026E00001F072F9636B23B994F838300BB101F043
:1026F000D7FA394604F12800FFF7D8FF32462B46B7
:102700002046FFF7BBFFBDE8F84001F073B91FB5E5
:10271000044601F059F9204600F03EF8636B23B1FE
:1027200094F838300BB101F0D1FA1022002168463C
:1027300008F026FE694604F12800FFF7B7FF684657
:10274000FDF7C5FD04B0BDE8104001F053B90368C2
:102750009B681847094B10B5002203600023C0E9AD
:1027600002230023C0E90433044600F021FD04499C
:10277000A06100F081FC204610BD00BF94840108D8
:102780004F27000807B5009000F10801806900F0AC
:10279000B2FC03B05DF804FB00F10801806900F0B1
:1027A000D7BC000010B5034B03600446FFF7F4FFED
:1027B000204610BD94840108036801221B69002192
:1027C0001847036800221B69114618477047704775
:1027D00070B50D4604461646002110224C3008F014
:1027E000CFFD2DB92A462946204600F017F804E00F
:1027F0002EB92946204600F049F8204670BD3246E1
:102800002946F1E700F003B910B5044600F051F88D
:1028100004F14C00FFF7EAFC204610BD032938B54F
:10282000044607D9D31C23F003039A1A891A21F00E
:1028300003011A460023C4E90433E2600D4605BBD8
:10284000C4E906512262256000F09BF900F09AF974
:10285000C4E90A556060258184F8245004F13000F1
:1028600000F09CF900280BDB04F1440000F08EF925
:10287000002805DB04F1480000F088F900EAE07068
:1028800038BD2369013323616D08D8E737B50546A4
:102890000846019108F016F9044638B1024601993C
:1028A0002846FFF7BBFF6C6103B030BD4FF0FF302F
:1028B000FAE770B505680446B5B9A36A1BB1E06ACA
:1028C0004FF0FF31984704F1480000F061F904F13E
:1028D000440000F05DF904F1300000F067F9606930
:1028E000BDE8704008F0F6B8EE6836B9EB6913B190
:1028F00005F124009847AD68DEE7F36913B106F1EE
:1029000024009847F668F0E751F8083C73B505468F
:102910000C460BB108469847EB6853B3A4F1240664
:10292000B34226D82B6AB34223D305F14800019065
:1029300000F02FF9AB69019805F11802A3B11D68E9
:1029400054F8241C8D420BD30ED144F8183C9B68DC
:1029500044F81C3C166002B0BDE8704000F01BB9A2
:1029600003F108029B68E9E7002344F8183C136868
:10297000EEE702B070BDF8B54B699B1A1646002B06
:10298000A8BFD2184A61437A4B7100F1440705464B
:1029900038460C4600F0FDF8284603687BB35969B9
:1029A0006269A1EB020CBCF1000F25DB914226D13C
:1029B0009B68A36013B104F108021A612246036800
:1029C00042F80C3F002199601A61AB6A04602061F3
:1029D0006BB195F8242052B12A68A24207D1E2686F
:1029E0002AB96169E86A891B21EAE171984738468A
:1029F000BDE8F84000F0CFB803F10800CDE7A360D0
:102A000013B104F108021A610023E360DDE72DE948
:102A1000F74F04460F4600F0B5F84FF000080546A2
:102A200007EB000984F8248004F14406304600F0E6
:102A3000B0F8637A0133637263685B1B002B236811
:102A4000D8BF6560019301A91BB15A69521B002AC6
:102A500033DD236003B11C613046C1F8008000F013
:102A60009AF8019B01A863BB019D4FF0010A002D5C
:102A700034D100F087F8002F824655DBA9EB000522
:102A8000002D53DCA36A9BB1304600F082F8A36AA4
:102A900043B1226832B15169E06AA1EB0A0121EA2F
:102AA000E1719847012384F82430304600F073F830
:102AB0000023237203B0BDE8F08F03F108019B6887
:102AC000C2E79D681A46002191601146D268002A2B
:102AD000FAD1016003F108002B46C4E72B6AD5F850
:102AE00008B013B105F124009847AA69002A0BDB4E
:102AF0006B6913446B6100F045F829460246204695
:102B0000FFF739FF5D46B2E72B7922690133DBB26B
:102B100013FA02F214BF2B7185F804A005F1240109
:102B20002046FFF7F1FEEDE74FF0FF35304600F0AD
:102B300030F823683BB15969A1EB0A0121EAE17140
:102B40008D4228BF0D46304600F025F8294604F195
:102B5000300000F02DF8237A7BB1304600F019F8F0
:102B6000237A3BB100233046237203B0BDE8F04F17
:102B700000F011B8304600F00EF800F003F80546FA
:102B800054E7704708B501F097FC08BD0020704776
:102B9000704700F019BF00F02DBF000008B50249D2
:102BA00001F068FC002008BDA084010801F068BCA9
:102BB00008B5012341EAE172194601F073FC431E96
:102BC0005842584108BD0000EFF3108372B6054A21
:102BD000117831B90449DB4303F001030B70012381
:102BE000137070473D1500203C15002008B5EFF329
:102BF0001083DB4313F0010304D006490648362254
:102C000000F038FE054A1370054B1B7803B162B61D
:102C100008BD00BFA7840108D28401083D1500202B
:102C20003C150020F8B50F46044615461E4604F034
:102C300029FD013710D020685EB1A368186001211A
:102C4000204604F043FD29462046BDE8F84004F044
:102C500039BDE3680004F1E7F8BD13460022FFF731
:102C6000E1BF0022FFF7F9BF1FB5431C10D105B02B
:102C70005DF804FB83420AD18968039004F088FD63
:102C80000398002105B05DF804EB04F00FBE0C3191
:102C9000B1F900305A1CEDD1002302460249034825
:102CA000009300F0E3FF00BFEC84010830010180D5
:102CB000884207B502460AD0431C08D0013105D02E
:102CC000002305490548009300F0D0FF014608465F
:102CD00003B05DF804FB00BFFD84010830010180F2
:102CE000B1F900305A1C01D118467047834201D116
:102CF000486870470C31F3E7421C13B504460AD00C
:102D0000FFF7EEFF431C06D100230449044800935B
:102D1000224600F0ABFF02B010BD00BF0E850108D7
:102D200030010180B1F900305A1C01D118467047BA
:102D3000834201D1886870470C31F3E7421C13B518
:102D400004460AD0FFF7EEFF431C06D100230449D6
:102D500004480093224600F089FF02B010BD00BF76
:102D60002E850108300101802DE9F843456895F86A
:102D70003A600446002E49D103685B68984763684F
:102D80001B6A834242D02C6AAF682862041B304819
:102D9000EB68874204EA030431D095F83B20D5E97B
:102DA0000A98A4FB0001D2B3C2F1200620FA02F473
:102DB00001FA06F6A2F1200321FA03F334431C437F
:102DC00021FA02F619EB0000A2F1200C48EB0101F8
:102DD000C2F1200306FA02F804FA0CFC24FA03F309
:102DE00048EA0C0804FA02F248EA0308821A61EB86
:102DF0000801BA4271F100030AD2C5E90A21D5E9F6
:102E00000C23121946EB0306C5E90C26BDE8F8832E
:102E1000013446F10006D21B61F10001EDE73346B3
:102E20003A4613F0D5FE12EB090248EB0303BA420F
:102E3000044673F100000E4602D2C5E90A23DEE71C
:102E4000013441F10006D21B63F10003F5E700BF36
:102E500040420F00824206D98A420BD9884294BF71
:102E6000002001207047884206D98A428CBF00208A
:102E7000012070470120704700207047F7B5466871
:102E800096F83A300546002B67D196F83930002B7A
:102E900063D1FFF769FF6F687A68002A5FD0D7E9CE
:102EA0000C01D2E90032984271EB020405D32B6881
:102EB0005B6903B0BDE8F04018471B1A62EB0101E3
:102EC000D7E9060298428A413C6906D3BA68294884
:102ED00082420FD19C4228BF1C463A6AFB682244BA
:102EE0001A40336A934229D12349244840F21B12E5
:102EF00000F0C0FC97F83B00C8B1A0F1200CC0F175
:102F00002002814003FA0CFC23FA02F203FA00F0DB
:102F10001B4B41EA0C011143C01841F10001154A55
:102F2000002313F055FE844228BF0446D5E7A2FBD8
:102F3000033002FB010112481818EEE72B680192DA
:102F400010461B6998472B685B689847019A0146B1
:102F5000306AFFF77FFF0028A9D103B0F0BD3369C5
:102F6000306AF26818442B681B69104003B0BDE852
:102F7000F040184740420F004C8501086D8501085C
:102F80003F420F002DE9F04F436893F8382085B099
:102F90000446002A62D193F83A30002B5ED10368D0
:102FA0001B6898472368DB699847066836B92D493E
:102FB0002D4800963346324600F058FE1F2301226A
:102FC00002FA03F18E425FFA83FA02D0013BF7D195
:102FD0009A46D0F80480A8F104031C2B4FF0000798
:102FE00005D92249224800973B463A46E4E7701E3D
:102FF000204D4FF0070947F1FF3109FA03F9324636
:103000003B46C9FB050113F0E3FD656823680390A7
:10301000C5E900775B688B4698470121039A2862CF
:1030200001FA08F8656808F1FF33C5E90339C5E915
:10303000062B002300222046C5E90A23C5E90C23FC
:10304000AE6085F83BA0298785F83A70FFF78CFEC3
:10305000204605B0BDE8F04FFFF710BF05B0BDE852
:10306000F08F00BF918501080E010480AA85010838
:103070000501048040420F0038B505460C46FFF7B5
:1030800081FF00F0A1FC6B681C60BDE8384000F0D7
:10309000B1BC70B5044600F097FC2368DB68984724
:1030A000636893F83A201AB1BDE8704000F0A2BC02
:1030B000012283F8392063685B68A3B12046FFF7DB
:1030C00053FE63685A68D3E90C60D2E90051AE42FE
:1030D00070EB010107D3D16859601B68002BEAD05F
:1030E00090689847E7E76368002283F83920204614
:1030F000FFF7C4FED8E7F7B5089F01900C461646C7
:103100001D4600F061FC0198FFF72EFE0198A760B4
:103110004368C4E900655968002229B9E16062B9D1
:103120005C60FFF7ABFE0EE00F68BE424F6875EBC8
:103130000707F3D30A46C968EFE7D460D3E90C2345
:10314000B242AB41EDD203B0BDE8F04000F052BC5A
:1031500038B505460C4600F037FC6A685368A34250
:1031600009D1DB6853602846FFF788FEBDE8384088
:1031700000F040BC1346002BF8D0DA68A242F9D127
:10318000E268DA60F2E713B50446FFF7FBFE00F0F1
:103190001BFC2046FFF7E8FD6368D3E90C01CDE98D
:1031A000000100F027FCDDE9000102B010BD70470E
:1031B00000487047E8850108024B1B680BB10248C4
:1031C00018477047AC010020E885010808B5BFF337
:1031D0005F8F1D4BD3F89010080A10F0FC0FC1F35D
:1031E000072104D119491A483A2200F043FB002272
:1031F000C3F8942010468A421FD11022C3F89C20A5
:10320000144AC3F8A0201322C3F89C20124AC3F822
:10321000A0201122C3F89C20104AC3F8A020104A15
:10322000C3F89C200F4AC3F8A0200722C3F89420BB
:10323000BFF34F8FBFF36F8F08BDC3F89820C3F85B
:10324000A0000132D7E700BF00ED00E014860108BE
:103250003686010839F00206390702133FF50B13D1
:103260001200008039000213024B1B6803B118479B
:10327000704700BF80150020007B704738B50D4BAC
:1032800003600023C0E90131027304460A480D4679
:10329000FEF75AFF01F058F955B1084B1A68626001
:1032A0001C600548FEF750FF01F06CF9204638BD60
:1032B0006560F6E754860108881500208415002013
:1032C000144B10B5036004461348FEF73DFF01F0B0
:1032D0003BF9A3682BB1114962680B68A34212D174
:1032E0000A600F4B0C481A68A24204BF00221A6001
:1032F000FEF72AFF01F046F9237B13B9201F00F0E7
:10330000A1FF204610BD19465B68A342FBD14A606D
:10331000E7E700BF548601088815002084150020C7
:10332000B015002010B50446FFF7CAFF2046102153
:1033300000F086FF204610BDF8B5064617480D463A
:10334000FEF702FF01F000F9154B1C68A4B1A76855
:1033500087B1384608F0F4FEA8420BD12A46314620
:10336000384607F0C5FE28B90C48FEF7EDFE01F01F
:1033700009F911E06468E9E7072DF5D109482A4603
:10338000314607F0B5FE0028EED10448FEF7DCFE1A
:1033900001F0F8F8044B1C682046F8BD88150020A1
:1033A0008415002043860108B015002000207047D6
:1033B00000207047036870B51B6901220021044694
:1033C0009847051E0DDB236802221B690021204659
:1033D00098472368064629461B69002220469847DD
:1033E0003546284670BD000070B50E460025C0E980
:1033F00000550F490446304608F082FF30442060F3
:10340000294623681A782F2A07D10133236051B93E
:10341000084909482A2200F02DFA002AF7D0013382
:1034200001312360EDE7FFF787FF6060204670BD44
:10343000B8860108BA860108E2860108006870476C
:10344000406808B520B1FFF717FF431E58425841A6
:1034500008BD10B50446FFF7F3FF10B1606800B176
:10346000043810BD406808B520B1FFF705FFB0FA79
:1034700080F0400908BD10B50446FFF7F3FF10B116
:10348000606800B1043810BD4068003818BF0120E2
:10349000704700207047F8B50368DB6D0D460446A1
:1034A0008F1898472E46BE42236806D05B6D16F8EB
:1034B000011B204698470130F5D1236820461B6E3A
:1034C0009847701BF8BDF8B50368DB6D0D460446E0
:1034D0008F1898472E46BE42236807D09B6D204622
:1034E0009847431C02D006F8010BF4E723682046F6
:1034F0001B6E9847701BF8BD002070477047000096
:103500000F4B13B50022044640F8043BFFF7B6FE0C
:103510000C4B23606C336360002363610A492046CF
:1035200000F0E4FE0346606128B9009002460749B6
:10353000074800F09BFB00F09DFC204602B010BD48
:103540006486010878870108EB860108EE86010889
:10355000190101800A4B03F10802743310B50446C7
:1035600002604360406906F02FFA064B2360204654
:103570005C3340F8043FFFF7A3FE204610BD00BFB8
:10358000708701080C87010838B503680446DB6DB5
:103590000D46984701226069002106F055FE6169D9
:1035A000284606F0C7FC236805461B6E2046984750
:1035B000284638BD38B503680446DB6D9847606916
:1035C00006F0D0FA606906F007FB236805461B6E1B
:1035D00020469847284638BD0EB477B5036807AD36
:1035E000044655F8046BDB6D98476069019501222C
:1035F000002106F029FE019A606931460FF0DEFDD8
:10360000236805461B6E20469847284603B0BDE850
:10361000704003B0704700004FF0100300F00CB88A
:103620004FF0200300F008B84FF0300300F004B86A
:103630004FF0400300F000B8EFF308804FF00401B2
:1036400072460A4201D0EFF309809C46254B196867
:1036500002680A60043142680A60043182680A60C4
:103660000431C2680A600431F0C147460F6004317A
:103670004F460F60043157460F6004315F460F60BC
:10368000043102690A60083142690A6004318269C2
:103690000A600431C2690A600431034620334FF4E2
:1036A0000076324200D0043375464FF010063542A2
:1036B00000D148330C46103C2360EFF309820A60C6
:1036C0000431EFF308820A60043172460A60043163
:1036D000EFF314820A606046024B196800F07AF832
:1036E000FEE70000AC890108F0B52C4E2C4F85B0E8
:1036F00000243546214656F8042B3846013400F0A4
:1037000049F90D2CF6D1AB6C02936B6C01932B6CC9
:10371000244C0093D5E90E23696B234800F03AF955
:103720002168224800F036F9E16AA26AA36AA06A19
:10373000266BE76B000CCDE901670090C3F307230C
:103740001B48D2B200F026F9A36A1E0603D5616BAE
:10375000184800F01FF9A36A180403D5A16B164896
:1037600000F018F9EB6C190712D5144800F012F9A3
:103770002B6DDA070FD5124800F00CF9EB6C5B07E4
:103780004CBF1048104805B0BDE8F04000F002B949
:103790000E4800F0FFF80E48EEE700BFB415002019
:1037A000EC87010800ED00E0FA870108498801086C
:1037B00057880108A6880108B4880108C288010852
:1037C000D1880108018901080D890108F1880108E3
:1037D000DE88010813B50446154800F0DBF8302CEC
:1037E00017D0402C1AD0202C1DD11248124C00F0BA
:1037F000D1F8124800F0CEF8FFF776FF104800F03D
:10380000C9F8104A104900230093D26B204600F0FB
:103810002DFA0E480E4C00F0BDF8EAE70D480E4CAC
:1038200000F0B8F8E5E70D480D4C00F0B3F8E0E71C
:1038300019890108428901083E01FF806F8901084A
:103840007A890108B4150020998901085189010875
:103850003F01FF805A8901084001FF806589010806
:103860003D01FF8007F03EB907F02CBE06F0E4BB37
:1038700006F002B807B50B46009201460022014847
:1038800000F0F4F94401FF8003460122D3E84F0F12
:10389000C3E8412FC0B20029F8D17047D0E85F3F9C
:1038A0005B18C0E8523F002AF8D198B27047D0E8C0
:1038B0005F3F5B1AC0E8523F002AF8D198B27047C8
:1038C000D0E84F3FC0E8421FD8B2704700B589B07A
:1038D00000F07AF8052101A8FFF7C3F9114E124D47
:1038E0000424039B019A1A60304600F09FFD019B5F
:1038F000049A1B041360304600F098FD013CF0D19F
:103900000424039B019A1A60284600F08FFD019B56
:10391000049A1B041360284600F088FD013CF0D196
:10392000DEE700BFF0490200801A060007B5014635
:1039300000220190022000F045FB00F045F80199BB
:10394000084608F0FDFB01990246022000F03AFB10
:1039500003B05DF804EB00F04DB8000000B5A3B073
:1039600002460B4601A884210FF076FC832806D975
:10397000074B1A681B79CDF883208DF88730002813
:1039800002DD01A8FFF7D2FF23B05DF804FB00BF02
:10399000B08901080FB407B504A951F8040B0191CF
:1039A000FFF7DCFF03B05DF804EB04B07047EFF302
:1039B0001080C04300F001007047EFF3058000382D
:1039C00018BF01207047000008B5FFF7FDF8064A50
:1039D0001368591C04D1054905483F22FFF74AFFE7
:1039E0000133136008BD00BF08160020B589010827
:1039F000E0890108044A136823B1013B13600BB945
:103A0000FFF7F4B8704700BF0816002008B50B4850
:103A1000FFF73AFF28B1FFF7D7FFBFF34F8F20BF63
:103A2000FDE7FFF7CAFF08B1FFF750FFFFF7BFFF41
:103A30000028F9D0012000F0C9FB00BF4C1600207F
:103A4000F0B5214F8FB016461C2237EA200728BF59
:103A500007460D460DEB0200002107F091FC1B4BC1
:103A600003955B690493DA6B05925A6B1B6B0692A4
:103A700001ACCDE90734CDE90176FFF7A5FF144A83
:103A800013680133012B136009D126460FCE114D67
:103A90000FC50FCE0FC50FCE0FC533682B600FCCEF
:103AA0000D4D0FC50FCC0FC50FCC0FC523682B6074
:103AB0000A4B1B6813B1A5F130009847FFF79AFF36
:103AC00000200FB0F0BD00BF0101FF80B802002050
:103AD0000C1600201816002050160020101600208A
:103AE0002DE9BF43374C0F462168C1F34173032BC7
:103AF0000CBF4D428DB2C1F3074381469046324818
:103B00002A46FFF747FF6FF498731D44132D0FD813
:103B1000DFE805F00A3E4144474D4A500E0E0E0EB6
:103B20000E0E0E0E0E0E0E53A1682848FFF732FF40
:103B30004846FFF7FBFE61682548FFF72BFF4FB1B2
:103B40002448FFF7F3FE3846FFF7F0FE22484146CF
:103B5000FFF720FFA1682148FFF71CFFE268E36937
:103B600051681F480293A369019363690093002978
:103B700008BF014623691B48FFF70CFF21681A485C
:103B8000FFF708FF194804B0BDE8B043FFF702BFD4
:103B9000A1681748CAE7A1681648C7E7A168164890
:103BA000C4E7A1681548C1E7A1681548BEE7A16848
:103BB0001448BBE7A1681448B8E71448FFF7EAFEC9
:103BC000B6E700BF501600201B8A01086C8A010866
:103BD000148B0108258B01082D8B0108318B0108FE
:103BE000118A0108458B01089D8B0108EC8B0108A7
:103BF000828A0108928A0108A18A0108B48A010810
:103C0000C88A0108DC8A0108EB8A0108018B0108D7
:103C10000FB41FB50D48CDF804E00121FFF750FEA9
:103C2000019A044680B901460948FFF709FF09488F
:103C300022462146FFF754FF069807A90391FFF794
:103C40008DFE0548FFF772FEFFF7E0FE1416002018
:103C50000001FF80068C0108978901080020704749
:103C6000014B1878C0B270471416002080B5064684
:103C70000C460A480121F04617461D46FFF720FE74
:103C800048B9424639463046FFF7DAFE029A2946DD
:103C90002046FFF725FFFFF7B9FE00BF14160020EE
:103CA00013B5074C01212046FFF7F8FD034628B95C
:103CB0000090228803490448FFF7D8FF02B010BDE6
:103CC000841600201B8C01082301048013B5094CC5
:103CD00001212046FFF7EBFD4FF6FF73984206D116
:103CE00000232288044905480093FFF7BFFF02B074
:103CF00010BD00BF841600203D8C01082401048003
:103D0000034B188880B2B0FA80F04009704700BFBA
:103D10008416002008B5FFF757FEFFF7F1FF28B122
:103D200004F072F9BDE80840FFF764BE04F060F9E2
:103D3000F8E76FF01C0070476FF015007047012026
:103D40007047002070477047034B186818B14FF058
:103D5000FF3101F0B3BD7047A8270020024B18685F
:103D600008B101F0C3BD7047A8270020F8B5074E81
:103D700015460C468F18BC4205D014F8011B30467E
:103D800003F0DAFBF7E72846F8BD00BF2C2F002030
:103D900038B511F001048DB205D0084803F0EAFFF0
:103DA000041E18BF0124EB0605D5044803F0F8FFF4
:103DB00008B144F01004204638BD00BF2C2F00206D
:103DC00010B5044606F086FE204610BD10B50C4620
:103DD0002AB1044803F09EFB2070012010BD10465C
:103DE000FCE700BF2C2F002038B51D46074B0360B1
:103DF000074B1B68044633B9064804F02DF8054804
:103E0000294604F003F8204638BD00BF848D010820
:103E1000782F00202C2F00200020704700207047B2
:103E200007B500230249034800931A46FFF71EFF17
:103E30005B8C01082901018008B5012000F0C6F95A
:103E4000074A084913681844884289BF064B106026
:103E50000C224FF0FF308CBF1A601846704700BF2D
:103E6000B0020020007C01202C300020012070478F
:103E700001207047002107F0D1BD08B500F0FCFB20
:103E800008BD08B500F000FC08BD000010B50446F0
:103E9000037803F00303012B08D0FFF755FF2378C5
:103EA00003F00302012A03D1FFF758FF00200AE0C4
:103EB0002AB10549054840F2E652FFF7DBFC43F022
:103EC00002032370012010BD658C0108928C01084B
:103ED00008B5037803F00302022A05D00749084811
:103EE00040F2EF52FFF7C6FC23F0030343F0010357
:103EF0000370BDE80840FFF731BF00BF658C0108C3
:103F0000B08C01083F2870B504462FDC184E56F8D7
:103F100020305A1C13D1022811DCFFF77FFF034623
:103F200058B92046FFF778FF034630B9114D2B787A
:103F3000BFF35B8FDB0704D50F4B46F824301846E0
:103F400070BD2846FFF7A2FF0028F5D04FF41653A6
:103F5000032202210848FFF747FF084A084906489C
:103F6000FFF784FF2846FFF7B3FFE5E70023E6E706
:103F7000B001002088160020B4160020980100200F
:103F8000473D000838B50546FFF7BCFF0B4B002442
:103F900043F8254030B905F0ABFC092303604FF02E
:103FA000FF3038BD03685B699847051E04DA05F0E9
:103FB0009FFC6D420560F2E72046F2E7B001002069
:103FC000FFF7E0BF13B5CDE90021FFF79BFFDDE967
:103FD000002140B905F08CFC092303604FF0FF3449
:103FE000204602B010BD0368DB689847041EF7DA6C
:103FF00005F07EFC64420460F0E7000073B50546FE
:104000000E461446FFF7D9FC30B100230E490F4885
:1040100000932A46FFF72AFEFFF7C9FC0028F4D0D8
:10402000201E07DA05F064FC162303604FF0FF3012
:1040300002B070BDFCD0024631462846FFF7C2FFF1
:1040400040EAE070F4E700BFE78C01082F0101802F
:1040500013B5CDE90021FFF755FFDDE9002140B997
:1040600005F046FC092303604FF0FF34204602B000
:1040700010BD03689B689847041EF7DA05F038FC0A
:1040800064420460F0E7000073B504460E4615462E
:10409000FFF793FC30B100230D490E4800932246F0
:1040A000FFF7E4FDFFF783FC0028F4D0002D07DBC9
:1040B0002A463146204602B0BDE87040FFF7C8BF2F
:1040C00005F016FC162303604FF0FF3002B070BD00
:1040D000218D01082F01018010B5FFF713FF044661
:1040E00028B905F005FC09230360204610BD0368CC
:1040F000DB699847041EF8DA05F0FAFB64420460B5
:104100000024F2E737B54023CDF8010005466846A4
:104110008DF8003005F002FF044630B12846FFF765
:10412000DBFF10B12046FFF7A5FE204603B030BDEF
:10413000FFF7D2BF13B5CDE90021FFF7E3FEDDE9BC
:10414000002140B905F0D4FB092303604FF0FF3490
:10415000204602B010BD03681B699847041EF7DAB9
:1041600005F0C6FB64420460F0E7FFF7E3BF10B55B
:10417000FFF7C8FE30B905F0BBFB092303604FF021
:10418000FF3010BD03689B699847041E04DA05F0F0
:10419000AFFB64420460F2E70020F2E70A4D08B585
:1041A0002B680446986805F0DDFC2B68D86805F09C
:1041B000D9FC0120FFF7DBFF0220FFF7D8FF0CB18D
:1041C000FFF784FBFEE700BF6803002008B5FFF798
:1041D000E5FF38B50D46FFF795FE044630B905F00A
:1041E00087FB092303604FF0FF3038BD0368DB69AC
:1041F0009847002814BF4FF400534FF400436B60FE
:10420000236820469B6A984728610020EDE7FFF766
:10421000E0BF00001FB5039006F054FC039A03466C
:1042200020B9009003490448FFF720FD05B05DF870
:1042300004FB00BF5D8D01081F01018006F04ABC30
:1042400006F048BC10B504460B48FDF77DFF00F0B2
:104250007BF90A4A4023002152F8040BA04208BF10
:1042600042F8041C013BF7D10348FDF76DFFBDE8A0
:10427000104000F087B900BF8C160020B00100206C
:1042800010B51248FDF760FF00F05EF9104B0324F3
:1042900053F824207AB10134402CF9D105F028FBE1
:1042A000182303600948FDF74FFF00F06BF94FF04A
:1042B000FF34204610BD4FF0FF3243F8242003485E
:1042C000FDF742FF00F05EF9F3E700BF8C16002017
:1042D000B001002010B50446FFF7D2FF0028A4BFAC
:1042E000014B43F8204010BDB001002073B50646D5
:1042F0000191FFF7EFFF051E13DB0199FFF702FFA6
:10430000044630B9084B53F82520964204D143F8AF
:104310002500204602B070BD05F0EAFA09230360CB
:10432000F7E70024F5E700BFB00100200EB42DE947
:10433000F04187B00190FFF7A3FF041E13DB0023B9
:104340000199039304A8FFF74FF804A8FFF79CF81E
:104350001B4E054668B905F0CBFA1323036046F8F7
:1043600024504FF0FF34204607B0BDE8F04103B0C1
:10437000704704A8FFF776F8074604A837B1FFF79F
:104380007AF80390039B46F82430ECE7FFF761F8D6
:1043900005460028DFD0036804A8D3F80880FFF79B
:1043A0004DF80D9B024603A92846C0470546002844
:1043B000E8D005F09DFA6D42056046F82470D0E71C
:1043C000B001002070B50E461549054607F0ECFC1B
:1043D000044618B9FFF796FD204670BD11492846DE
:1043E00007F0E2FC20B90120FFF78CFD0124F3E780
:1043F0000D49284607F0D8FC20B90220FFF782FDBE
:104400000224E9E72B78402B02D1D5F80140E3E7FD
:1044100026F400412846BDE87040FFF787BF00BF83
:10442000E08D0108E78D0108D88D0108034A516A23
:10443000536A5B1A8342FBD3704700BF000C0040F5
:104440001FB50023CDE90013031D044602936846FF
:104450001023039300F08EFB206020B90349044829
:104460003122FFF707FA04B010BD00BFEF8D01083D
:10447000158E010810B50446FFF7E2FF204610BD77
:1044800010B50446006800F0BBFB204610BD10B418
:104490009DF804400CB942F0020200685DF8044B3C
:1044A00000F080BB07B5009313460022FFF7EFFF33
:1044B00003B05DF804FB000013B5FFF785FA00F0C8
:1044C000E7FC09490B6808608342084B82BF1A6801
:1044D00001321A60196801910446FFF78BFA0199BD
:1044E000204602B010BD00BFC4160020C016002038
:1044F0001FB5002303620D4B002918BF0B46009324
:10450000031D02931C230446039368460B23019367
:1045100001F0BCF9206038B9FFF7A2FB20B90449CB
:1045200004483822FFF7A6F904B010BD198E01081F
:10453000338E0108548E010810B500210446FFF7A0
:10454000D7FF204610BD000037B504464FF0FF31BD
:10455000006801F0B3F9054628B9236A01332362E4
:10456000002003B030BDFFF77BFB03460028F7D1E6
:104570000249034800932A46FFF778FB788E01082A
:10458000150102801FB50446006801F0AFF902462C
:1045900028B9236A013B2362104604B010BD039082
:1045A000FFF75EFB039A03460028F5D10249034852
:1045B0000093FFF75BFB00BF8A8E010817010280A2
:1045C00010B50446006801F0A9F9204610BD0000AE
:1045D00008B5094B094A1A60094B9B1A094A13602E
:1045E000094B0A4A1A600A4B9B1A0A4A136000F0E8
:1045F00051F800F07DF800BF2C170020007C01204E
:104600000080012028170020BC1600203030002038
:10461000007C0120B81600200E4838B50E4B036010
:104620000B250E4B45601C24C460836001F02EF9FD
:104630000B4B18600B480C4BC460C0E900350B4BAA
:10464000836001F023F90A4B1860BDE8384006F09A
:104650006DB900BFF81600209E8E01080C170020CF
:1046600008170020C8160020AB8E0108DC160020B9
:10467000D8160020FCF786BF024B4FF0FF311868B8
:1046800001F01CB908170020014B186801F02EB981
:104690000817002008B5FEF799FD0C4B0C499868E7
:1046A0004FF00053C21802F16042126843F8042B25
:1046B0008B42F7D1054B4FF000529A6003F02EF871
:1046C00003F076FDBDE8084000F010B800ED00E012
:1046D00094010020704708B5FFF79EFFFFF7FAFF2F
:1046E000FFF7BCFABDE80840FFF7C4BF00F0A2BB6B
:1046F00007B51748174B03600B2343601C23164C68
:10470000C360164B8360164B23614FF48053636183
:104710004423E360134BA3601823A361124B23606F
:1047200001F0B4F8114B224618600021104801F046
:10473000D3FC034628B90F49009022460E48FFF7E4
:1047400095FA00F08FFB00230C4900931A46F5E719
:1047500098270020B58E010830270020AC270020C4
:104760003017002054270020C58E0108A8270020FC
:10477000D7460008CA8E01081D010180E68E010897
:1047800073B506460C461546FFF76AFA58B9063463
:104790002ABF064B064953F82410002300933246E3
:1047A0002846FFF763FA02B070BD00BFB090010861
:1047B0000390010808B500F077F8000007B5002362
:1047C000421E00930023042A19D8DFE802F00308F0
:1047D0000C1014000C490D480122FFF747FA0C4950
:1047E0000C480222F9E70C490C480322F5E70C4972
:1047F0000C480422F1E70C490C480522EDE702467B
:104800000B490C48E9E700BFFB8E01082501028037
:104810001C8F010826010280418F010827010280B8
:10482000768F010828010280B18F01082A010280D9
:10483000F18F010800010280014A0146FFF7A0BF85
:1048400031010180014AFFF79BBF00BF32010180A7
:10485000014AFFF795BF00BF37010180014AFFF70A
:104860008FBF00BF33010180014AFFF789BF00BF3E
:104870003801018010B501F047FC034B1B6813B1F0
:10488000BDE81040184710BDC827002008B5FFF745
:104890009BF8FFF705FAFFF73DFAFFF717FABDE8B7
:1048A0000840FFF7A7B8000008B5024C23689847F6
:1048B000FCE700BFB40200201EF0040F0CBFEFF3B2
:1048C0000880EFF30980816911F8021C91BB01B5E2
:1048D00090E80F10E047BDE800508CE80300244B3F
:1048E00093E80600914208BF704741B91EF0100FCF
:1048F00010D12049086820F0010008600AE02CE986
:10490000F00F1EF0100F08BF2CED108AC1F838C050
:1049100081F822E01A6092F82210906B61F0FF0E8D
:104920001EF0100F08BFB0EC108AB0E8F00F80F353
:1049300009887047104A13689942FAD801B552F8AD
:1049400021C00FC8E047BDE80050CCF80000704718
:1049500001B501F041F8BDE80140EFF3098CBEE775
:1049600001B501F001F8BDE80140EFF3098CB6E7AD
:10497000CC02002034EF00E088910108EFF31083AF
:104980002BB9EFF31180003818BF012070470120C8
:104990007047000038B50546A0B1846802686CB164
:1049A00014F0030302D1C1680F2926D86FF0080163
:1049B0000020FFF74DFF0024204638BDC368002BC0
:1049C000F4D11546104BD3F8900078B100F0FFFAFF
:1049D0000446A0B10123A3700023C4E90233F322EB
:1049E000094B2270094A65605A66E5E7D3F88000F2
:1049F0000122102100F078FAEAE71546EBE76FF0A4
:104A00000401FFF725FFD7E7B8020020E94A0008B4
:104A100070B5054610B10378F32B07D028466FF028
:104A20000301FFF715FF6FF0030070BD836863B1EA
:104A3000284601F011F900226FF0020101F0A4F9FB
:104A4000A8680028F4D101F073F9AB78002613F0C0
:104A500001032E700FD0094BD3F89040294624B1A2
:104A6000204600F0CEFA3046DFE7D3F8800000F0B1
:104A70006FFA2046D9E71846D7E700BFB8020020F2
:104A8000930710B502F0010422D400F10C0384B1A5
:104A900053E8000F00EA01028A4203D0BFF32F8FD0
:104AA000002005E020EA010243E8002404B1EFE71A
:104AB00010BD53E8000F084203D1BFF32F8F002031
:104AC00005E020EA010243E8002404B1F1E7EFE742
:104AD000C06801EA00031CB18B4218BF0020E7E761
:104AE000002B08BF0020E3E7F8B58468054604B949
:104AF000F8BD94F82320616AA7682846FFF7C0FF35
:104B0000064638B1204601F0B0F800223146204672
:104B100001F03AF93C46EAE7F8B50D4617461E465D
:104B2000044620B10378F32B01D1002907DA20468F
:104B30006FF00301FFF78CFE6FF00300F8BDFFF785
:104B40009FFF0028FAD186B13146432001F030FAA8
:104B500040B1074B5E692046314601F06BF8756243
:104B600086F823706FF00100E8E76FF00200E5E7D8
:104B7000B802002008B50246EFF3058333B10020E8
:104B80006FF00501FFF764FE002008BDFFF7F6FE99
:104B90000028F4D1DFF808C0104600DFF5E700BFB9
:104BA00095490008F8B504460E4617461D46EFF332
:104BB000058343B18CB920466FF00301FFF748FE2F
:104BC0006FF00300F8BDFFF7D9FE0028F2D1DFF83F
:104BD0002CC020462B4600DFF4E72378F32BEAD1E4
:104BE000002DE8D1002EE6DB3A4631462046FFF79D
:104BF00047FF002808BF6FF00200E3E7194B0008E9
:104C000008B50246EFF305833BB110466FF005018E
:104C1000FFF71EFE6FF0050008BDFFF7AFFE00288E
:104C2000F3D1DFF808C0104600DFF5E7114A0008AD
:104C3000EFF310832BB9EFF31180003818BF012078
:104C40007047012070470000014BD868704700BFD3
:104C5000B802002070B5484C217A012900F08A8002
:104C600031B14FF0FF30FFF7E7FD4FF0FF3070BD7F
:104C7000424D9C2204F1080006F082FBD5E90B614D
:104C8000EB68E3652B8AA4F854303046AB682364A4
:104C900000F012F908B1C4F88060D5E9056130462A
:104CA00000F00AF908B9D4F880606667D5E90761B1
:104CB000304600F001F908B9D4F88060A667D5E95C
:104CC0000961304600F0F8F808B9D4F88060E6676A
:104CD0006E6B3EB1D6E902233168304600F056F9DA
:104CE000C4F88460AE6B3EB1D6E902233168304629
:104CF00000F04CF9C4F88860EE6B3EB1D6E90223AF
:104D00003168304600F042F9C4F88C602E6C3EB138
:104D1000D6E902233168304600F038F9C4F89060D3
:104D20006E6C3EB1D6E902233168304600F02EF9B0
:104D3000C4F89460AE6C3EB1D6E9022331683046C7
:104D400000F024F9C4F89860EE6C3EB1D6E9022375
:104D50003168304600F01AF9C4F89C602D6D3DB101
:104D6000D5E902232968284600F010F9C4F8A050BC
:104D70000123237200207AE7B80200202091010865
:104D800070B5264D2B7A012B07D06FF00600FFF788
:104D900053FD4FF0FF34204670BD01F07DF910B98E
:104DA0004FF0FF30F3E71E4A1E4E1F497068FF2385
:104DB00082F8223092F82230D26863F0FF03DB439E
:104DC00014BFB3FA83F32023C3F12003C2F30222FA
:104DD000934298BF531CFE2202FA03F3104ADBB23F
:104DE000D37701F009FA04460028D9D101F03CFA42
:104DF000286101F021FA0D4800F02EFF00F08EFF2F
:104E0000336813F0010F4FF0020303D083F31488CB
:104E10002B72C0E7032282F31488F9E7B80200205E
:104E200000ED00E02091010861490008D402002053
:104E30007047000008B5FFF7FBFFEFF3058333B1C0
:104E40006FF00500FFF7F8FC6FF0050008BDFFF7F5
:104E5000EFFE0028F4D1DFF808C000DFF6E700BF5E
:104E6000554C000808B5EFF3058333B16FF005002A
:104E7000FFF7E2FC6FF0050008BDFFF7D9FE002840
:104E8000F4D1DFF808C000DFF6E700BF814D00086D
:104E900008B5EFF3058313B1054BD86808BDFFF7DC
:104EA000C7FE0028F8D1DFF80CC000DFF6E700BF2E
:104EB000B8020020494C000810B598B140EA01033F
:104EC00013F007030ED117290AD9016008391022FF
:104ED0000C18846042600B5081684A60C3600123F3
:104EE000184610BD0023FBE7F0B5034670B369B365
:104EF00032F003002AD10F3121F0070103F1080637
:104F0000344636686568301B25F00305401B814236
:104F100003D930680028F3D1F0BD5F681D680F44E5
:104F20005F602B44083B5868874288BF5F606368B6
:104F30000A431BB9626004F10800EDE723F00303A4
:104F4000E018E650426020600830E5E70020E3E723
:104F500010B580B1C1B1A1F1080400F1080300222D
:104F6000A34209D1596821F003044168091B41603B
:104F70003AB95A60012010BD19681A4621B10B4692
:104F8000EEE71B681360F5E70846F4E730B5C0B1FB
:104F900089B1C2B1CBB10024C0E9014202FB01F4E6
:104FA0001D190160C360436105611846013904D1D0
:104FB000A21A99500121084630BD8518056028467F
:104FC000F4E70146F7E71146F5E71946F3E710B5B0
:104FD0000346A8B100F1140252E8000F10B9BFF364
:104FE0002F8F04E0016842E8001404B1F4E738B1FF
:104FF000043353E8002F511C43E8001404B1F8E7D0
:1050000010BD30B5F0B1C3688B421BD803698B4229
:1050100018D900F114031A680A60BFF35F8F53E8D0
:10502000002F0C689442F6D143E8001505B1F2E771
:10503000043050E8003F5A1E40E8002101B1F8E773
:10504000002030BD6FF00300FBE7EFF310832BB9B6
:10505000EFF31180003818BF01207047012070471E
:10506000D1E9013223B19A608A681AB1536070475E
:10507000C262F9E7036370472DE9F84F8846074697
:1050800000B131B96FF003010020FFF7EDFB002400
:1050900077E0CE1C26F003060C36B0FA80F104D07F
:1050A000B6FA86F30B441F2BECDD06FB07FAF2B1D0
:1050B00094683CB1A30702D1D368332B05D86FF0B5
:1050C0000801E1E7D368002BF9D1D2E90453D2F803
:1050D00000903DB115F0030B01D19A4554D96FF002
:1050E0000901D1E7002BFAD11CB19B460CE0914697
:1050F0001546274BD3F8A000D8B1FFF768FF044648
:10510000A0B14FF0010B35BB214B0022D86F5146A7
:10511000FFF7EAFE0546C0B9BBF1000F06D01C4BF5
:10512000D3F8A000214658B1FFF76BFF6FF00401E0
:10513000AAE7D3F8800001223421FFF7D5FEDEE78D
:10514000D3F88000FFF704FFF0E75246002106F095
:1051500017F94BF0020BFA2323700023C4E90983EB
:10516000C4E90B33A36032462B4684F802B0C4F87E
:105170000490394604F10C00FFF708FF044B054A80
:105180001A672046BDE8F88F002CE4D1B1E700BFD4
:10519000B80200202552000810B500F1280353E89A
:1051A000002F12B9BFF32F8F04E0511E43E8001403
:1051B00004B1F4E70AB9002010BDC06A012200283A
:1051C000F9D0811CD1E84F3FC1E8442F04B1F9E781
:1051D000DBB2002BF0D08068F1E7036B30B5E3B1B0
:1051E000CD780024DA78AA420FD31A46C1E9012407
:1051F0008AB19160A4B16160283050E8003F5A1C28
:1052000040E8002101B1F8E730BD5A681C46002A89
:10521000ECD01346E6E7C162ECE7C1E90133C162B5
:105220000163E9E7F8B5877804468FB3C56801469E
:1052300000272846FFF714FF277005F10C042046CD
:10524000FFF7DFFEAB68002B48D02046FFF7BFFE1C
:105250000446002842D0284600F0FEFC3A460646A6
:10526000394600F091FD304600F03AFD6A6A8168E7
:10527000064604F10C0005F06DFFF9232370A770BA
:10528000F368E37021462846BDE8F840FFF7A5BF64
:105290008568AB68002BF5D05B78832BF2D128466C
:1052A00000F0DAFC3A460646394600F06DFD30461D
:1052B00000F016FD06466A6A806804F10C0105F0EC
:1052C00049FFF3680BB1E2781A700023237021467E
:1052D00005F10C00BDE8F840FFF793BEF8BD0000F3
:1052E0002DE9F0410C4617469846054618B103785B
:1052F000FA2B00D141B928466FF00301FFF7B4FA49
:105300006FF00300BDE8F0818368C3B15B78832B45
:1053100015D100F0A1FC01220646002100F034FD69
:10532000304600F0DDFC06466A6A8068214605F0DA
:1053300011FFF0680028E5D007700020E2E705F1D2
:105340000C00FFF744FE064670B121466A6A0C3035
:1053500005F000FF0024F9233370B470F770314674
:105360002846FFF73AFFE8E7B8F1000F10D04146B2
:10537000932000F01DFE40B1074B2846596900F00C
:1053800059FCEFF30983C3E902476FF00100B9E765
:105390006FF00200B6E700BFB80200202DE9F0412F
:1053A0000F4615469846044618B10378FA2B00D1EB
:1053B00041B920466FF00301FFF756FA6FF0030082
:1053C000BDE8F081FFF7E8FE064600283AD0014626
:1053D0002046FFF745FE626A06F10C01384605F0EB
:1053E000B9FE0DB1F3782B70002504F10C07357070
:1053F00031463846FFF705FEA3680BB90020DFE70A
:105400003846FFF7E4FD06460028F7D0204600F0B6
:1054100023FC29460746012200F0B6FC384600F07E
:105420005FFC626A8168074606F10C0005F092FE97
:10543000F9233370B570FB68F37031462046FFF7EF
:10544000CCFEDBE7B8F1000F10D04146832000F01E
:10545000AFFD40B1074B2046596900F0EBFBEFF37D
:105460000983C3E902756FF00100A9E76FF002003C
:10547000A6E700BFB802002010B50446EFF305838D
:1054800033B100206FF00501FFF7EEF9002010BDE9
:10549000FFF7DBFD0028F4D1DFF808C0204600DF6D
:1054A000F5E700BF795000082DE9F04106460F46A8
:1054B00090461C46EFF305834BB196B930466FF02A
:1054C0000301FFF7D1F96FF00300BDE8F081FFF7AA
:1054D000BCFD0028F1D1DFF84CC03046234600DF88
:1054E000F3E73378FA2BE9D1002FE7D0002CE5D190
:1054F00006F10C00FFF76BFD054680B1726A394674
:105500000C3005F027FEF9232846C5E901762B70FB
:10551000AC7085F8038000F0A7FA2046D5E76FF05D
:105520000200D2E7E1520008F8B504460F461646DD
:105530001D46EFF3058343B18CB920466FF003019C
:10554000FFF792F96FF00300F8BDFFF77EFD00282A
:10555000F2D1DFF848C020462B4600DFF4E723787D
:10556000FA2BEAD1002FE8D0002DE6D12046FFF734
:1055700013FE054670B100F10C01626A384605F071
:10558000E9FD0EB1EB7833702846EC6000F06CFA60
:105590000020D9E76FF00200D6E700BF9D53000856
:1055A000EFF310832BB9EFF31180003818BF0120FF
:1055B000704701207047000070B5A8B38468D0E937
:1055C00000566CB114F0030302D1C2681B2A1AD82A
:1055D0006FF008010020FFF741F90024204670BD5C
:1055E000C368002BF4D1124BD3F8940030B9D3F830
:1055F000800001221C21FFF777FC01E0FFF7E7FCA8
:10560000044660B10123F522A3700023C4E90233EC
:10561000C4E904332270E67065602376DEE76FF03C
:105620000401FFF71BF9D9E705460646DBE700BF93
:10563000B8020020284B70B55D6904460E4635B9A6
:105640006FF00701FFF70AF94FF0FF3070BD10B19E
:105650000378F52B07D020466FF00301FFF7FEF823
:105660006FF00300F2E7037E53B9EA6AC560C0E950
:10567000043202B11061EC62012323760020E5E7D9
:10568000C278D1070DD5C168A9420AD1FF2B06D136
:105690006FF00F01FFF7E2F86FF00200D6E7013379
:1056A000EBE7002EF8D093070AD5E06895F9203093
:1056B00090F920209A4203DA80F8203000F0DEFAD8
:1056C0003146532000F074FC18B12946204600F002
:1056D000B1FA6FF00100B9E7B802002038B52E4BDF
:1056E0005A69044632B96FF00701FFF7B7F84FF077
:1056F000FF3038BD10B10378F52B07D020466FF08E
:105700000301FFF7ABF86FF00300F2E7037E33B954
:105710006FF00E01FFF7A2F86FF00200E9E7C16831
:10572000914202D06FF00D01F4E7013BDBB203764A
:1057300023BB43690BB101691961216901B34B6155
:10574000E3789B0705D592F92110D36AD3B982F883
:105750002010A3687BB1204600F07EFA00220546A7
:10576000114600F011FBEB6A636100232361012302
:10577000E560EC622376002000F0DAFA0020B8E75A
:10578000D362DDE7986820B190F920008142B8BF6C
:1057900001465B69DAE700BFB802002070B5044635
:1057A00010B10378F52B07D020466FF00301FFF707
:1057B00055F86FF0030070BD037ED3B16369C06814
:1057C0000BB122691A6122691AB35361E3789B070E
:1057D0000BD590F92130C26AEAB990F920209A429B
:1057E00003D080F8203000F049FAA068E0B900F05A
:1057F0009FFAA078002610F001002670DBD0124B33
:10580000D3F894502146C5B12846FFF7FAFB30463D
:10581000D1E7C362DAE7916821B191F920108B4298
:10582000B8BF0B465269D7E7204600F015FA0022B0
:105830006FF0020100F0A8FAD7E7D3F88000FFF775
:1058400087FB2846B7E700BFB80200202DE9F041EA
:105850000446002601270CB9BDE8F081E378D4F8AE
:1058600014801B0710D5A36826766BB1204600F084
:10587000F3F900220546114600F086FAEB6AE5606E
:10588000C4E90463EC6227764446E4E708B50246BF
:10589000EFF3058333B100206FF00501FEF7DEFF63
:1058A000002008BDFFF77CFE0028F4D1DFF808C017
:1058B000104600DFF5E700BFB955000808B50246FD
:1058C000EFF305833BB110466FF00501FEF7C6FF0D
:1058D0006FF0050008BDFFF763FE0028F3D1DFF885
:1058E00008C0104600DFF5E73556000808B5024647
:1058F000EFF305833BB110466FF00501FEF7AEFFF5
:105900006FF0050008BDFFF74BFE0028F3D1DFF86C
:1059100008C0104600DFF5E7DD56000808B502466E
:10592000EFF305833BB110466FF00501FEF796FFDC
:105930006FF0050008BDFFF733FE0028F3D1DFF854
:1059400008C0104600DFF5E79D57000810B5D0E805
:105950005F3F5A1C914200D80022C0E8542F04B186
:10596000F5E798B210BD000038B51A4C00F078FC8D
:10597000E3680133E360236D03B1984700F098F9C1
:10598000002000F0D5F9236C1BB3A26BA1698A42F9
:1059900002D0A163E3631CE0E36BB3B9237A022B6B
:1059A00017D1656AADB195F9201092F9203099426E
:1059B0000FD1284600F059F9A06B00F071F9284684
:1059C00000F0ACF9236CA563E4E7013BE363002B33
:1059D000E4D038BDB802002070B5224C04F1560561
:1059E00004F15A06B4F85410D5E85F3F13B9BFF379
:1059F0002F8F04E05A1EC5E8502F00B1F4E79BB288
:105A00005BB33046FFF7A2FFE36D53F8200020B3ED
:105A10000378F13B082BE5D801A252F823F000BF30
:105A2000455A0008E55900084B5A0008E559000896
:105A3000E55900084F5A0008535A0008E559000874
:105A4000575A0008236E9847CCE7636EFBE7A36EB6
:105A5000F9E7E36EF7E7236FF5E7BDE87040002054
:105A600000F066B9B802002070B5164C0546B4F8CF
:105A7000541004F15602D2E85F3F994202D8BFF3B6
:105A80002F8F04E0581CC2E8560F06B1F3E79BB213
:105A9000994205D829460220BDE87040FEF78EBE27
:105AA00004F15800FFF752FFE36D43F82050637A8A
:105AB00023B9054B4FF080525A6070BD0123A37289
:105AC000FBE700BFB802002000ED00E0EFF3108319
:105AD0002BB9EFF31180003818BF01207047012067
