:020000040800F2
:1000000000800120313100086531000865310008A9
:100010006531000865310008653100080000000006
:100020000000000000000000000000003948000847
:100030006531000800000000DF4800083F49000863
:100040006531000865310008653100086531000838
:100050006531000865310008653100086531000828
:100060006531000865310008653100086531000818
:100070006531000865310008653100086531000808
:100080006531000865310008653100080000000096
:1000900000000000000000000000000065310008C2
:1000A00065310008653100086531000865310008D8
:1000B00065310008653100086531000865310008C8
:1000C00065310008653100086531000865310008B8
:1000D0006531000865310008653100080000000046
:1000E0006531000865310008653100080000000036
:1000F0000000000000000000000000006531000862
:100100000000000065310008653100086531000815
:1001100000000000000000000000000000000000DF
:100120006531000865310008653100086531000857
:100130006531000800000000000000000000000021
:100140000000000000000000000000006531000811
:100150006531000865310008653100086531000827
:100160006531000865310008000000000000000053
:10017000000000000000000000000000000000007F
:1001800000000000653100080000000000000000D1
:100190006531000810B5054C237833B9044B13B111
:1001A0000448AFF300800123237010BDA00B002092
:1001B000000000008473010808B5034B1BB103491C
:1001C0000348AFF3008008BD00000000A40B00202E
:1001D00084730108154B002B08BF134B9D46A3F5F4
:1001E000803A00218B460F461348144A121A0AF02F
:1001F00001FA0F4B002B00D098470E4B002B00D07C
:1002000098470020002104000D000D48002802D06E
:100210000C4802F00AFD09F0F9FC2000290002F068
:10022000C4FC02F0FFFC00BF0000080000800120B9
:10023000000000009D2B0008A00B00209822002049
:100240002B2C000800000000F0B5002384681D4638
:1002500001269C420CD0426852F8232091685768CE
:100260000131B942916024BF167395600133F0E704
:10027000F0BD034607C983E807007047704710B414
:100280004468816862100346E40701EB02001B68C2
:1002900048BF8A585DF8044B48BFD3581847027BC3
:1002A00022B1036800220273DB6818477047000020
:1002B000034AC0E90021002282600273704700BF38
:1002C000F05A01087047C36810B504460BB19B682B
:1002D0009847204610BD000038B50546064B45F846
:1002E000183B044606F018F82846FFF7ECFF2046B6
:1002F00006F072F8204638BD006B010810B50446C0
:10030000FFF7EAFF2046282106F094FA204610BDA8
:1003100038B50446054B44F80C3B0546204605F02D
:10032000FBFF2046FFF7D8FF284638BDE05A0108FA
:1003300010B50446FFF7ECFF2046342106F07AFAA8
:10034000204610BD38B5CB6804460D460BB15B683E
:100350009847EB68E360204638BD000070B52DED8E
:10036000028B08EE103A1C4B826000F10C0588B03D
:100370000446C0E90031284606F00EF8174A184B2B
:10038000E3600023CDE900236946236304F12406DA
:10039000144B039304A80294FFF7D4FF3046FFF7F1
:1003A00092FF04A93046FFF7CDFFDFED0F7A28EE6C
:1003B000278A2846FCEEC87A17EE901A05F098FFB7
:1003C00004A8FFF780FF6846FFF77DFF204608B0CE
:1003D000BDEC028B70BD00BFE05A01084902000865
:1003E000006B0108CC5A0108002474497047034689
:1003F00007C983E807007047704710B444688168F4
:1004000062100346E40701EB02001B6848BF8A58EC
:100410005DF8044B48BFD358184710B54FF48871A6
:10042000044606F007FA204610BD00F1080373B534
:100430000360044608460D460AF022FF0F2805EB2C
:100440000006019007D9002201A9204606F0C4FA4F
:10045000019B2060A36032462946206806F0E8FA36
:10046000019B2268636000212046D15402B070BD18
:1004700070B5044672B6FF263546206905F03EFE8B
:1004800080B3D4F81831D4F81C110133B3FBF6F261
:10049000C2EB02229B1A8B4224D02069BC3005F0AB
:1004A000B1FDD4F81831D4F81C110133B3FBF6F2C6
:1004B000C2EB02229B1A8B42DFD0D4F818312344BE
:1004C000C0B21876D4F818310133B3FBF5F2C2EBA1
:1004D00002229B1AC4F81831D4F820310133C4F831
:1004E0002031CAE762B670BD10B5D0F80811D0F857
:1004F000044101310346FF22B1FBF2F0C0EB0020C2
:10050000091AA14214D0D3F808110131B1FBF2F25B
:10051000C2EB02228A1AC3F80821D3F808211A4430
:100520001079D3F80C21013AC0B2C3F80C2110BDE8
:100530000020FCE7F8B5044672B6FF2600F5927578
:10054000206905F0ECFDB0B1D4F82C32D4F82812B3
:100550000133B3FBF6F2C2EB02229B1A8B420AD0A4
:10056000206900F1BC072846FFF7BEFF0146384668
:1005700005F034FDE4E762B6F8BD00002DE9F04374
:10058000D0F81C31D0F818110133FF22B3FBF2F27E
:10059000C2EB02229B1A8B42ADF5097D04460BD0BB
:1005A0001430FFF7A1FF2328074609D184F834024D
:1005B00004F23523C4F834330DF5097DBDE8F0832A
:1005C000D4F8343304F54D729342F5D00A286ED135
:1005D00013F8032C3B2A6AD113F8022C3B2A66D16C
:1005E00013F8013C0D2B62D104F50D7808AB6A4677
:1005F000324940460AF052FC022856D1694648A8C2
:10060000FFF713FF04F54F79D4F840634D4656B118
:1006100006F1100048A906F019FA0028AABF3546CD
:10062000F668B668F3E7A94508D005F1100148A8B7
:1006300006F00CFA35EA200528BF4D4648A806F01A
:10064000EFF94D4531D01E4B48AA03F1100C186844
:100650005968164603C6083363453246F7D11B88EE
:100660003380EE2200210DF5997009F0C3FF48A9EF
:1006700002A8FFF7DAFE6B6B05F128062BB940F2F2
:100680001D621049104805F0C5FF6B6B48AA1B6836
:1006900008A93046984720690C4948AB6A46BC30E7
:1006A00005F0C2FC02A806F0BBF9C4F83483D4F804
:1006B00034331F70D4F8343301337BE71C5C0108FA
:1006C0001C5B0108265C01087A5C01087F5C01085C
:1006D000F8B507460C46A4B1E1683846FFF7F8FFC5
:1006E000636BA56804F110061BB19B6804F1280038
:1006F0009847304606F094F9204602F0B1FA2C46AD
:10070000E9E7F8BD10B5074BD0F840130360044685
:1007100000F54E70FFF7DCFF2046FFF7D3FD2046C3
:1007200010BD00BF905C010810B50446FFF7EAFF5A
:1007300020464FF4547106F07DF8204610BD38B5C0
:10074000CB6804460D460BB15B689847EB68E360E5
:10075000204638BD2DE9F047804638200D46164624
:10076000994602F071FA05F110010446103006F0C6
:10077000B5F905F1280104F12800FFF7E0FF2B7817
:10078000E96823700023C4E90233666029B14B464F
:1007900022464046FFF7DEFFE060AE6827464FF096
:1007A000000AFEB1382002F04FFA06F110010546AA
:1007B000103006F093F906F1280105F12800FFF743
:1007C000BEFF33782B70C5E902AABD606F60F16887
:1007D00029B14B462A464046FFF7BCFFE860B668A1
:1007E0002F46DEE72046BDE8F08700007FB50446CF
:1007F0000D4600211646FFF75BFD394B2360394B50
:100800002561636104F1180104F21710002201F858
:10081000012B8142FBD1FE21C4F81821C4F82431F8
:10082000C4F81C1104F59473C4F82021002504F2C7
:10083000272203F8015B9A42FBD1FE23C4F8285219
:10084000C4F82C3204F50D734FF480720021C4F803
:100850003052184609F0CEFEB168C4F8340304F5EE
:100860004F7204F54E7084F83C53C4E9D052C4E989
:10087000D22591B16B460090FFF76CFF03469A6852
:1008800052BBC4F844330346DA683ABBC4F8483371
:100890007369C4F84C33C4F840030025124B134E5F
:1008A000206900932A466946CDE90154039605F074
:1008B000BBFC6846FFF707FD0D4B20690122694626
:1008C000CDE90035CDE9024605F0AEFC6846FFF7FC
:1008D000FAFC204604B070BD1346D0E71346D3E7B8
:1008E000905C0108085B010871040008105B0108B6
:1008F0003505000838B5B0F910300133044604D18D
:1009000048220C490C4805F085FEA3691D686369FF
:100910001D40B4F91030013304D13A22054906488C
:1009200005F078FE636915B9E269136038BD226A83
:100930001B04FAE7A05C01080E5D010810B5034B2B
:1009400003600446FFF7BEFC204610BD305D010881
:1009500010B50446FFF7F2FF2046242105F06AFF98
:10096000204610BD82B070B5064604AC84E80C0089
:100970003446FFF79DFC04AD0B4B44F8103B0FCD04
:100980000FC42B682360B6F91030013304D13A222A
:100990000649074805F03EFEF36972691A60304661
:1009A000BDE8704002B07047305D0108A05C0108EE
:1009B0000E5D010810B5034B03600446FFF782FC8F
:1009C000204610BD6C5D010810B50446FFF7F2FF2C
:1009D0002046182105F02EFF204610BD437B10B5A0
:1009E00004467BB1006903685B68984713F07AFBA3
:1009F000646902460B4604F1BC000349BDE810409F
:100A000005F012BB10BD00BF555D010870B504466E
:100A10001D461646FFF74CFC034B2360002363730F
:100A2000C4E90465204670BD6C5D010837B500233C
:100A300005461446084601AA094901930AF02EFA10
:100A400001280BD1019B0749002BD4BF00230123B0
:100A50006B7320460AF000FA03B030BD0249F8E794
:100A6000B2600108405D0108465D010807EE901A7A
:100A700090ED077AB4EEE77AF1EE10FA09D890ED2E
:100A8000087AB4EEE77AF1EE10FAACBF012000204C
:100A9000704700207047000038B50D46044605F049
:100AA000D3FD284613F01EFB09A3D3E9002313F05E
:100AB00071FB09A3D3E9002313F0B6F913F062FE2A
:100AC0000146201D01F0B4FDBDE8384005F0E6BD4B
:100AD00040BD19355F254F3FDD2406819543B33F67
:100AE0002DE9F04104461E46114B44F8043B0546EF
:100AF0008846174605F0A8FD4146204601F0A4FEB1
:100B000005F0CCFDEF612E6205F09EFD204614211C
:100B100001F062FF05F0C2FD05F096FD2046054993
:100B200001F086FD05F0BAFD2846BDE8F08100BF62
:100B3000845D0108AC1C9A3D10B5034B034A044682
:100B4000FFF7CEFF204610BD0000B8410000B8C13D
:100B50007047704707EE901A90ED157AB4EEE77A79
:100B6000F1EE10FA09D890ED167AB4EEE77AF1EECC
:100B700010FAACBF01200020704700207047A0F1A0
:100B80000400FFF7E7BF10B50C21044605F052FE44
:100B9000204610BD38B5B0F90030013304460D468B
:100BA00004D13A220549064805F034FD636815B1C1
:100BB000E268136038BD22691B04FAE7A05C0108F3
:100BC0000E5D0108B0F90030013310B5044604D1C0
:100BD00048220649064805F01DFDA3681A686368A7
:100BE0001A4214BF0120002010BD00BFA05C010804
:100BF0000E5D010838B52DED028B08EE101AB5EE2A
:100C0000C08AF1EE10FA044600F1340500F120002C
:100C100016D50021FFF7BEFF01212846FFF7BAFFD6
:100C200005F012FDF0EEC87A04F1080017EE901AF4
:100C300001F0FEFCBDEC028BBDE8384005F02EBD96
:100C40000121FFF7A7FF0021E7E7A0F10400FFF76C
:100C5000D1BF000010B5002104462030FFF79AFFF5
:100C600004F134000021FFF795FF05F0EDFC04F1DD
:100C70000800034901F0DCFCBDE8104005F00EBDA2
:100C80000000C842A0F10400FFF7E4BF38B500F14E
:100C900020052DED028B0446284608EE101AFFF7BA
:100CA00091FFB0FA80F14909284604F13405FFF7B5
:100CB00071FF2846FFF786FFB0FA80F14909284600
:100CC000FFF768FF05F0C0FCF0EEC87A04F10800F9
:100CD00017EE901A01F0ACFCBDEC028BBDE8384079
:100CE00005F0DCBCA0F10400FFF7D0BF38B514223A
:100CF00004460D46002109F07DFC2046294605F0FA
:100D0000A4FB204638BD7047034610B553F8042BAA
:100D1000044612B90360206810BD9A42FBD05922E4
:100D20000249034805F076FCF5E700BFA45D010821
:100D3000FC5D010808B50248FFF7E6FF08BD00BFEB
:100D4000B816002008B50248FFF7DEFF08BD00BF57
:100D5000B8160020F8B50446084B094E44F8043B89
:100D600005460F463046FFF7CFFF3946204601F0D3
:100D7000CBF93046FFF7C8FF2846F8BD945D01085F
:100D8000B81600202DE9F04104461A481E4600F12D
:100D90000803243023608846606004F10805174684
:100DA00005F052FC4146284601F04EFD05F076FC68
:100DB000394604F12000FFF799FF314604F1340071
:100DC000FFF794FFBDF9181004F14800FFF7C2FFC8
:100DD0004FF03F4363654FF07C53A36505F034FC4F
:100DE0002846C82101F098FC05F058FC2046BDE8D3
:100DF000F08100BF105E010838B5134C2DED028B59
:100E000005462046FFF780FF05F14C0001F0E0F9B0
:100E100008EE100A2046FFF777FFF1EE047A68EE3D
:100E2000277A17EE900A13F05DF905A3D3E90023A2
:100E300013F0DAFA13F0A6FCBDEC028B38BD00BF4C
:100E4000EC51B81E85EBC13FB8160020704710B5B5
:100E50000446006810B10368DB689847204610BD5F
:100E6000014B586A00B2704700080040014B002255
:100E70005A6270470008004010B50421044605F08E
:100E8000D9FC204610BD0000184A136B43F0020342
:100E90001363174B196841F420411960596841F0F8
:100EA000C0015960996841F470419960D96841F472
:100EB0002041D960196A41F008511962596A596292
:100EC000136C43F0040313640A4B01221A600322DB
:100ED0009A604FF2F1129A6111210022DA611962CF
:100EE0004FF6FF719A62D9625A6270470038024029
:100EF000000402400008004010B5084C236853B9B4
:100F0000042001F0A1FE064A02602060FFF7BCFF4A
:100F1000044B22681A60206810BD00BFBC0B002083
:100F20004C5E0108C00B0020024A0349034801F04F
:100F300077BE00BF980100204F0E0008C00B0020B4
:100F40000020704710B50446406803681B68984746
:100F5000208160680368BDE810405B681847B0F9FD
:100F600008007047B0F9083007EE103A038A07EE20
:100F7000903AB8EEC77AF8EEE77AC7EE276AD0ED76
:100F8000037AC6EEA77A17EE900A704713B50446A7
:100F9000FFF7D8FFB4F90830A06D07EE903A036868
:100FA000F8EEE77A01A9CDED017A1B68984707EEC4
:100FB000900AFDEEE77A17EE903A18B213F080F837
:100FC000C4E9140102B010BD08B5D0E9140113F052
:100FD00091FB00B208BDA0F14800FFF7F5BFD0B506
:100FE0000446008A13F06CF802460B46D4E914015B
:100FF00013F0FAF90646E0680F4613F073F802465C
:101000000B463046394613F0EFF913F0BBFBD0BD69
:10101000A0F14800FFF7E3BF034607C983E80700D4
:101020007047704710B44468816862100346E40753
:1010300001EB02001B6848BF8A585DF8044B48BFAB
:10104000D3581847D0ED037A9FED057A67EE877A7B
:101050001430FDEEE77A17EE901A03F0B5BA00BF30
:1010600000007A4430B504461248238289B0012337
:10107000C4E900020C22CDE900230F4BE1600022FD
:1010800004F114050294039322621BB1694604A87B
:10109000FFF7C2FF039B0793012204A9284603F030
:1010A000A1FA04A8FFF70FF96846FFF70CF92046EC
:1010B00009B030BD705E01085C5E010810B50446E1
:1010C000FFF7D0FF044B03F108022833A364029B0F
:1010D0002260A365204610BD805E010803624FF4C4
:1010E000206383844FF07C5383624FF03F4310B5FD
:1010F000C362064B0363064B4363064B8363029B49
:10110000C363039B0364C0E9001210BD00002041CB
:101110000000F04100009643C0E902237047D0E987
:1011200004017047406803685B6818472DE9F8437D
:10113000056A044616461F4665B11046194613F067
:1011400021FB2B6801461B682846984712F0CAFF0E
:1011500006460F46E06A12F0C5FF32463B4680461F
:10116000894613F0A7FA40B194F82430013384F88B
:10117000243040464946BDE8F883A06A12F0B2FF29
:1011800032463B468046894613F076FA0028EBD17A
:10119000002384F82430B046B946EAE72DE9F0434D
:1011A000044600682DED028B036883B05B689847A6
:1011B00008EE100A206803689B689847D4ED0E7A01
:1011C000F0EEC88AF4EEE87AF1EE10FA05460CD596
:1011D00000220023C4E90223C4E904234FF0FF30B6
:1011E00003B0BDEC028BBDE8F083D4E90289206B2B
:1011F00029F0004712F076FF42463B46464613F080
:1012000059FA70B1D4ED0D7AF4EEE87AF1EE10FAF5
:1012100007DD00220023C4E90423C4E906230120DA
:10122000DEE7002D3BD03046394613F0ABFA07EE2F
:10123000900A666877EEC87A336817EE900A1F68DE
:1012400012F050FF80468946CDE900896946304654
:10125000B84713F097FA12F045FF02460B462046B6
:10126000FFF764FF13F08EFA94F8242094F82530E9
:101270009A4217D9B5EE408AF1EE10FA12D16068A1
:1012800003685B68984700230022C4E90223C4E98D
:101290000423002384F824306FF00100A0E74046C7
:1012A0004946C2E712F01EFF06460F46C4E904672E
:1012B000C4E9068900220023D4E9020113F0DCF915
:1012C0000028ACD0002DAAD007F10043266163614D
:1012D000A5E770B514461D460646C06B12F002FF26
:1012E00022462B4613F0D2F948B1306C12F0FAFEC8
:1012F00022462B4613F0D4F9003018BF012070BDF0
:10130000034607C983E807007047704710B4446874
:10131000816862100346E40701EB02001B6848BFC6
:101320008A585DF8044B48BFD358184770B5037FFF
:10133000012B044602D0022B4BD070BDC0686169FE
:1013400003681B689847637FD4ED047A002B36D07E
:10135000A56C002D33D09FED277A67EE877A17EEC4
:10136000900A12F0BFFE02460B462846FFF7D4FE55
:10137000A06CFFF713FF431C0ED160681E49BC3000
:1013800004F052FEA06803685B689847A06CFFF702
:10139000C9FE02232377D0E7023002D160681749E3
:1013A000EDE7A568A06C2B681E68FFF7B8FE13F088
:1013B000E9F9334601462846BDE8704018479FEDDD
:1013C000107AA068C7EE877A03681B6817EE901A38
:1013D000F2E7C068616903681B689847A068036802
:1013E0005B689847A06C0028A7D0BDE87040FFF765
:1013F00099BE00BF00001643725F0108A35F010899
:101400000000C84237B504461546084601AB6A4697
:101410001C4909F043FD022832D1637F8BB19DED59
:10142000007ADFED197A67EE277A17EE900A12F04C
:1014300059FE02460B46A06CFFF74BFF80B91349DB
:1014400006E0A06800990368DB68984728B910494E
:10145000284609F001FD03B030BD637F002BDED1CB
:10146000E068019903685B68984708B90949EFE7A4
:10147000009B2361019B6361012323770649E7E712
:101480000649E5E7015F010800001643275F0108F0
:10149000075F0108495F0108405D0108465D0108DA
:1014A00037B504461546084601AA104909F0F6FC6E
:1014B000012819D1E068019903685B68984728B949
:1014C0000B49284609F0C8FC03B030BD0023236156
:1014D000A06C019B63610223237718B100220023D3
:1014E000FFF71AFE0349ECE70349EAE7045F010846
:1014F000495F0108405D0108465D010837B50023DA
:1015000004461546084601AA0D49019309F0C6FC98
:10151000012813D1A36C2BB90A49284609F09CFC79
:1015200003B030BD00232361019B0749002BD4BFCA
:1015300000230123637702232377EEE70349ECE7D7
:10154000B2600108BC5E0108405D0108465D01080B
:10155000D0ED067A9FED057A67EE877A4C30FDEE86
:10156000E77A17EE901A03F02FB800BF00007A4414
:1015700070B5044688B0A36016480C9BE360002554
:101580000023C4E9000223616361A161657704F16E
:10159000200004F001FF104B23620D9BA364012681
:1015A0000E4B65646946A56504A803930095CDE9D3
:1015B0000164FEF7C7FE324604A904F14C0003F0B3
:1015C00011F804A8FEF77FFE6846FEF77CFE204671
:1015D00008B070BDC45F0108186B0108B05E010857
:1015E000034607C983E8070070477047034607C9E9
:1015F00083E807007047704770B4466885687410C8
:101600000346F60705EB04001B6844BF2C59E3585A
:1016100070BC184770B44668856874100346F607B6
:1016200005EB04001B6844BF2C59E35870BC1847F5
:10163000D0ED056ADFED107AC0ED066A91ED007A13
:1016400090ED026A80ED057AF0EE675AE7EE065AF1
:1016500090ED036AB0EE657AA6EE267AD0ED046AC4
:1016600090ED016AE6EE267A77EE677AC0ED047AAD
:1016700017EE900A704700BF0000000010B5054B40
:101680008364054B044640F8143B02F0A0FF20465B
:1016900010BD00BFA85E0108705E010807EE901A39
:1016A00090ED017AF4EEC77AF1EE10FAF8B500F198
:1016B000040200F10C0309D900F114033ABB90EDC8
:1016C000027AF4EEC77AF1EE10FA25D817EE900AF6
:1016D0001F685E6812F006FD0022114B06F0E0FA6A
:1016E00004460D46384612F0FDFC22462B4612F009
:1016F00051FD044630460D4612F0F4FC02460B46FE
:101700002046294612F090FB13F03CF8F8BDF4EEA9
:10171000C77AF1EE10FAD2DC00F11C03D6E700BF65
:101720000000F03F38B505460024AB68A34207D956
:101730006B6853F8240003689B6898470134F4E70A
:1017400038BD000070B5164C164D174E20464FF4AC
:101750007A31BC3404F0BEFC1449204604F064FC29
:101760002946204604F060FC3146204604F05CFC2B
:101770000F49204604F058FC3146204604F054FC42
:101780002946204604F050FC0A49204604F04CFC4F
:101790000948FFF757FC0948FFF7DAFE002070BD43
:1017A000B80D0020396001084D600108346001085F
:1017B0006160010836600108D80C0020380D002057
:1017C00010B5FFF7BFFF044620B9064C2046FFF7CF
:1017D000A9FFFBE702460449044804F025FC204623
:1017E00010BD00BF041200209F600108740E00208D
:1017F000C36810B504460BB19B689847204610BDDE
:1018000010B5074B044640F84C3B02F0E0FE204682
:10181000044B40F8203FFEF75FFD204610BD00BF9F
:10182000C45F0108186B010838B505460A4B45F836
:10183000983B04462DB1A830FEF745FD2846FEF73B
:1018400042FD04F13800FFF7D3FF04F12800FFF751
:10185000CFFF204638BD00BFE86A010810B5044636
:10186000FFF7E2FF2046BC2104F0E4FF204610BD54
:1018700010B5094B036003F120025C330446C0F845
:10188000BC20C0F8C030BC3004F096FB2046FFF707
:10189000CBFF204610BD00BFD0690108A0F1BC00FD
:1018A000E6E7A0F1C000E3E7C36810B504460BB15A
:1018B0009B689847204610BDF0B50D4F00240025C9
:1018C0000026C0E90245C0E90445C0E90045C0E979
:1018D0000845C0E90645C0E90A67C0E90C45C0E90A
:1018E0000E45C0E91045C0E91245C0E91445F0BDF8
:1018F0000000F03F30B500240025C0E90045C0E9F4
:101900000245C0E90445D1E90045C0E90045D1E9F7
:101910000245C0E90245D1E90445C0E9044530BDAE
:1019200000F10803F7B50446164603600D4609B3F7
:10193000084609F0A5FC0F2805EB0007019007D920
:10194000002201A9204605F047F8019B2060A36012
:101950003A462946206805F06BF8019B63602046F3
:10196000002150F8182BD1543146FEF7E8FE2046EE
:1019700003B0F0BD014805F0C1F800BF7560010873
:1019800038B50546382001F05FF929460446103085
:1019900005F0A4F805F1180104F12800FEF7CFFEC8
:1019A000204638BD10B581680446FEF791FE2046FA
:1019B00010BD08B505F04AF8C00F08BD2DE9F0418B
:1019C0008D6804460F4690460E1D01205DB105F15D
:1019D00010014046FFF7EDFF18B1AB682E461D46DB
:1019E000F4E7EB68FAE7A0B1FB68B34204D12560E5
:1019F00066602046BDE8F081304604F03DFF0546B4
:101A0000414605F11000FFF7D4FF20B10023236009
:101A1000EEE73546F4E7C4E90050EAE72DE9F7437D
:101A200005460C46914600F104084C452BD06B69E5
:101A300033B12E69214606F11000FFF7BAFFF0B965
:101A4000224629466846FFF7B9FFDDE90036A6B110
:101A5000BBB9B04515D006F110012046FFF7A9FF2C
:101A600007462046FFF78CFF43460146324638467C
:101A700004F004FF6B6901336B612834D5E7002360
:101A8000E5E70127EDE703B0BDE8F08300000000C3
:101A90002DE9F04FCBB04FF41653009303220023EF
:101AA0000221B948B94EDFF86093DFF86083002562
:101AB00004F00AFAB64AB749B34801F0B1F8152361
:101AC00000950A221321B448FFF75CF9B04AB349E4
:101AD000B14801F0A5F82721B14822ACFFF72CF856
:101AE000AB4AB049AE4801F09BF814222946204683
:101AF00008F080FD0521204604F0A7FC24AB93E804
:101B000007008DE8070041F2883194E80C00A648F0
:101B1000FEF728FF9E4AA549A34801F081F8A44B8F
:101B20003360A44B7360A44BB360F3600023336154
:101B30007361B361D9F80070FFF7DEF94FF4006309
:101B40000246394600969D489D4FFFF7B7FA904AE6
:101B50009C499A4801F064F88B4B984A64214046AE
:101B6000FEF754FF8A4A9849404601F059F80FCFD2
:101B70001CAE0FC697E803001CAF86E803000FCF2A
:101B8000A446ACE80F00914F914B3B6096E80300F0
:101B9000904B7B60A646904BBB608CE80300BEE890
:101BA0000F0007F10C060FC69CE8030086E803004F
:101BB000D9F80000894E12F095FA82463046884BDB
:101BC00040F8083B8B46FFF777FE5FA3D3E900237D
:101BD0005946504612F0DEFA5DA3D3E9002312F015
:101BE000D9FA5DA3D3E90023CDE904015946504653
:101BF00012F0D0FA5AA3D3E90023CDE90601CDE9CA
:101C0000102302460B46DDE9040112F00DF956A33C
:101C1000D3E9002312F006F955A3D3E9002312F00B
:101C200001F949A3D3E9002312F0DEFB5B46CDE9BD
:101C3000120152465946504612F0ACFA44A3D3E979
:101C4000002312F0A7FA4CA3D3E9002312F0ECF81A
:101C5000DDE9042312F0E6F8DDE9062312F0E2F8EC
:101C600039A3D3E9002312F0BFFB5E4B0022CDE97C
:101C70001623CDE914015B46524641A1D1E900018A
:101C800012F0D0F830A3D3E9002301F1004112F0A3
:101C9000ABFB5B46CDE9180152462BA1D1E900010F
:101CA00012F0C0F828A3D3E9002312F09DFBCDE980
:101CB0001A0110A92046FFF71DFEDDE92223C6E91F
:101CC0000223DDE92423C6E90423DDE9262316A93E
:101CD000C6E906232046FFF70DFEDDE92423C6E909
:101CE0000823DDE92623C6E90A23DDE92223DFF8FC
:101CF00020B13249C6E90C233B4B01933B4B009387
:101D000032463B463A4E3B4F5846FFF7E7F9244BE5
:101D100000931D4A384BD9F80010CDF804B0304676
:101D2000FFF726FC1A4A3549304600F079FF344B5C
:101D30003449189616AA2046CDE916351997FFF7AB
:101D4000EFFD67E0AFF300807B14AE47E17AA43F7C
:101D5000EC51B81E85EBE93F713D0AD7A370BD3F3A
:101D6000946588635DDCBE3F4850FC1873D7823FA2
:101D70000188BB7A15193D3F882CD2C43BC0733F04
:101D80007B14AE47E17AB43FB80D0020480C002028
:101D900098010020711800087C0C0020070D000835
:101DA000E0110020510B0008DC0B00203D09000869
:101DB000D05F0108721C47BF398EE33DD80C00206C
:101DC000086001087D160008B5090008A01200206F
:101DD000DC5F0108D7FA62BED7FA623E38120020F3
:101DE000E85F01080000F03F00006143000061C3AC
:101DF000380D0020FC5F0108800C0020011800084D
:101E000005140008206001089C010020640C0020DB
:101E1000000C0020404B414910AA2CA8CDE91035F8
:101E2000CDE91267FFF77CFD3D4B3E490CAA36A871
:101E3000CDE90C35CDE90E67FFF772FD3A4B3B4E0D
:101E40003B49CDF82880CDE9083508AA394B0B93DA
:101E500040A8FFF765FD331D3571B5607561C6E9B2
:101E600003334AAA21463046FFF7D8FD4AAD283D44
:101E700005F11800FFF718FD284604F0D1FDA54232
:101E8000F5D108A8FFF710FD0CA8FFF70DFD10A86D
:101E9000FFF70AFD16A8FFF707FD274A2749234841
:101EA00000F0BEFEB168002323AA8DF88C30249385
:101EB000CDE92522279379B116AB20461694FEF77B
:101EC00049FC03469A681ABB25930346DA680ABBA5
:101ED0002693736927932490224619491948FEF7DF
:101EE00085FC24992046FEF7F3FB134A1649154852
:101EF00000F096FE154B164916480322FEF72EFAFF
:101F00000D4A1549134800F08BFE4BB0BDE8F08F29
:101F10001346D7E71346D9E7A11400082560010846
:101F2000FD1400082A6001082D0A0008C40B0020D7
:101F30002F600108F05F010898010020A519000832
:101F4000B80D0020900E00200507000817B7D13803
:101F5000A0010020041200201103000810B504465F
:101F6000FFF786FC2046D82104F064FC204610BD13
:101F7000A0F1BC00F2E7A0F1C000EFE7D0E90E232A
:101F80002DE9F047C0E91023D0E90C23C0E90E2366
:101F9000D1E90023C0E90C238246064600F1180768
:101FA000002400253146D1E90023D1E90C0112F0CB
:101FB000F1F802460B462046294611F035FF083657
:101FC000B74204460D46EDD1DAE90823DAE91401F7
:101FD00012F0E0F8DAE91267DAE90623804689466A
:101FE0003046394612F0D6F80022002311F01CFFCB
:101FF00002460B464046494611F016FF02460B4684
:102000002046294611F00EFFDAE90A2312F0ECF916
:10201000CAE91467CAE91201BDE8F08708B50830BB
:10202000FFF7ACFF08BD00220023C0E90C23C0E984
:102030000E23C0E91023C0E91223C0E9142370471E
:1020400008B50830FFF7EFFF08BDFFF721BD00001E
:102050001FB5044610226846002108F0CBFA284B31
:1020600022681A60A279012301930293122A43D8AD
:10207000DFE802F02C2B0A0C0E10121416181A1C92
:102080001E20222426282A0002231EE003231CE00F
:1020900004231AE0052318E0062316E0072314E0C2
:1020A000082312E0092310E00A230EE00B230CE0C2
:1020B0000C230AE00D2308E00E2306E00F2304E0C2
:1020C000102302E0112300E0122300930D4A0C4874
:1020D000536823F440036946536001F0CBF9084884
:1020E00001F014F906480A2101F070F920B90448FA
:1020F00001F0BCF980B200E0002004B010BD00BFC8
:102100003C1700200023014073B505460C460846E5
:10211000264904F0D9F92860013004D12448254922
:10212000362204F077FA2046204904F0E9F9431CEE
:10213000064604D120481F493A2204F06BFAC6F340
:10214000C426EF2CAE7103DC2046184904F080F958
:1021500029681A4BAC8099420FD11948036813BB08
:102160000193184B5A6C42F480725A645B6C03F40E
:1021700080730193019B0123036013480023012214
:102180000160436083600361836103624362C362F1
:102190008362C360C2610363436101F00DF810B153
:1021A0000A4804F099FA02B070BD00BFB06201089D
:1021B000A0630108B863010813640108002001400E
:1021C000C4120020003802403C1700202C64010893
:1021D00008B5FFF73DFF07EE900AB8EE677ADFED2E
:1021E000037A67EE277A17EE900A08BD0108803956
:1021F00010B50C4CA268A468B4F1006F13460CD162
:10220000131F094A53F8044F42F8044F074CA242E7
:10221000F8D1044A4FF000539360103043F8201077
:1022200010BD00BF00ED00E0FCFFFF1F900100208B
:10223000431C10B5044604D106480749262204F081
:10224000E9F92046002100F0A1F904F00F04012073
:10225000A04010BD135D01084364010870B5044639
:102260004B1C0E4621800ED0C1F3031000F01EF966
:1022700005463046FFF7DCFF05F1100318356060B6
:10228000A360E560256170BDB0F9000000F0ACB955
:1022900038B5B0F90030013305460C4604D1074883
:1022A0000749492204F0B6F9012CB5F900000CBF2A
:1022B00021460021BDE8384000F068B90E5D0108F4
:1022C0004364010838B5144B1A68116911F0020F04
:1022D0001C4607D0D368980704D56FF0020313613A
:1022E00004F022F923681A69510714D5DA685207F5
:1022F00011D56FF00402094D1A615C6A2B68E31A6C
:10230000B3F57A7F07D300F047FF034B1B6804F552
:102310007A729A632C6038BDD4170020C81200204E
:1023200030B589B003A801A901F098FC01F066FC62
:1023300000230293234B01901A6C234C42F00802B5
:102340001A641A6C02F008020292029A1A6A42F0A7
:1023500008021A621A6A22F008021A62069AA3F5A3
:102360000B3323604FF0FF33E360184B02B14000A2
:10237000B0FBF3F001380025606013482561A560CB
:10238000656101F04DFD32201149FFF731FF114B1E
:102390000D484FF480225A60294601F011FE0421B5
:1023A000094801F00DFE23680B4A596A1160126852
:1023B00002F57A729A63DA68284642F00402DA601B
:1023C00009B030BD00380240D417002040420F0051
:1023D000C522000800E100E0C81200207FB504F02B
:1023E00033F901A8052104F030F8BDF904300133B8
:1023F00004D10E480E493A2204F00CF9049B029ACB
:102400001A60962004F07EF9BDF90430013304D13E
:10241000064807493A2204F0FDF8029B059A1B047E
:102420001360962004F06EF9DFE700BF0E5D01082F
:102430008B64010830B50546A1B00C4604F004F9E0
:102440002946684622460DF06FFE051E03DC04F0A7
:1024500025F921B030BD094B1B6823B9084802217A
:10246000032200F027FD00241DF804100448013465
:1024700000F04CFEAC42F7D1E9E700BF181600208F
:10248000841700200FB407B504A951F8040B01917B
:10249000FFF7D0FF03B05DF804EB04B0704708B558
:1024A00001F024FFBDE8084000F05EBE7FB50023C8
:1024B000072853D8DFE800F004111E2B385252458C
:1024C00000932A4B2A481A6B42F001021A631B6BD5
:1024D00003F001030093009B44E00193234B254844
:1024E0001A6B42F002021A631B6B03F002030193A2
:1024F000019B37E002931D4B1F481A6B42F0040208
:102500001A631B6B03F004030293029B2AE00393FC
:10251000164B1A481A6B42F008021A631B6B03F041
:1025200008030393039B1DE00493104B14481A6B9C
:1025300042F010021A631B6B03F010030493049B18
:1025400010E00593094B0F481A6B42F080021A63A2
:102550001B6B03F080030593059B03E00A4804F01E
:10256000BBF8002007B05DF804FB00BF0038024054
:10257000000002400004024000080240000C02403B
:1025800000100240001C0240EE64010830B5431CFC
:1025900087B005460C4604D110481149812204F049
:1025A00039F8C5F30310FFF781FF05F00F0501238C
:1025B000AB4004F00F0201930A4B53F82230029310
:1025C000C4F302130393C4F3C314032301A90493B4
:1025D000059400F0E1FF07B030BD00BF135D0108B6
:1025E0000F65010864650108431C70B506460C467A
:1025F00004D10D480D49A62204F00CF8C6F30310CF
:10260000FFF754FF06F00F05C1686B0003229A40E4
:1026100021EA0202032CC260C26828BF00249C4049
:102620001443C46070BD00BF135D01080F6501084D
:1026300030B507EE101A284B02681A60B5EEC07A62
:10264000F1EE10FA89B0054609D4F7EE007AB4EE3F
:10265000677AF1EE10FAC8BFB0EE677A01E09FED3D
:102660001F7AD5ED037AF8EE677A602267EE877AF3
:102670000192FCEEE77AAA68C5ED047A17EE903A6B
:10268000B3FBF2F3029300230393049305930693A1
:1026900007932B7D013B032B1CD8DFE803F00802D6
:1026A0000406042404E0082402E00C2400E00024D2
:1026B000094801A9224601F013FC10B1084804F0B2
:1026C0000BF86B7D0448214613B101F0B1FC01E029
:1026D00001F08CFC09B030BDCC12002000000000DD
:1026E00098650108C368ABB190ED047A07EE903AA3
:1026F000B8EE477AF8EE677AC7EE277AB7EE007A37
:10270000F4EEC77AF1EE10FAD4BF17EE900A17EE86
:10271000100A7047002070472DE9F041D0F8008082
:10272000414C86B005460E46C4F80080FFF7DAFF3C
:10273000D8F8202041F21113134007465BB9D8F8AE
:10274000202040F2444313402BB9D8F8003023F046
:102750000103C8F8003001A8694601F07FFA2B6830
:10276000324A93421BD00BD8A2F50062934216D096
:1027700002F58062934212D0B3F1804F51D10EE046
:102780002B4A934210D002D8A2F5804204E0294A95
:10279000934209D002F58062934205D041E001F0F6
:1027A0002DFA0090049803E001F040FA009005989B
:1027B000009A2149B6F5803FACBF4FF4FA7301236C
:1027C000AB60AB6800B15200B2FBF1F212FB03F355
:1027D0009BB2013B63606368B3F5803F02D3174847
:1027E00003F07AFFAA68731EB3FBF2F3B3F5803FE0
:1027F000E36002D3124803F06FFF00230A4823610D
:10280000A36001F027FB10B10E4803F065FFEE60F6
:1028100028463946FFF70CFF2268136843F001038E
:10282000136006B0BDE8F081CC120020000C00401F
:10283000004001400044014040420F00AF650108E4
:10284000CB6501089865010870B5044688B0084654
:102850000E46554903F038FE2060013004D153483C
:1028600053492D2203F0D6FE30464F4903F048FE6F
:10287000431C054604D14F484D49312203F0CAFE9E
:10288000C5F3C4234C4A23752368C5F3004593421E
:1028900065754FF000020BD10092484A516C41F02F
:1028A00001015164526C02F001020092009A3BE077
:1028B000B3F1804F0BD10192404A116C41F00101FC
:1028C0001164126C02F001020192019A2CE03C4961
:1028D0008B420BD10292394A116C41F00201116412
:1028E000126C02F002020292029A2DE035498B42EC
:1028F0000BD10392314A116C41F004011164126C46
:1029000002F004020392039A2EE02F498B420BD16E
:102910002A4B04921A6C42F008021A641B6C03F0F2
:1029200008030493049B2EE0284A93420CD1002311
:102930000593224B5A6C42F480325A645B6C03F468
:1029400080330593059B1EE0214A93420CD100235E
:1029500006931A4B5A6C42F400325A645B6C03F4CF
:1029600000330693069B0EE01A4A93420BD10023D4
:102970000793124B5A6C42F480225A645B6C03F446
:1029800080230793079B0849304603F061FD00232D
:10299000E36023610123A680A360204644F6206102
:1029A000FFF7BAFE08B070BD00610108E4650108D8
:1029B000FC65010813640108000001400038024072
:1029C0000004004000080040000C004000400140AE
:1029D00000440140004801404FF47A735943FFF727
:1029E0009BBE70477047036870B504465B6A9847A2
:1029F000236820461B69002101229847431C064694
:102A0000236804D120469B6A9847304670BD1B69F5
:102A100020460021022298472368054631460022BD
:102A20001B6920469847236820469B6A984728469A
:102A300070BD000008B5084B1B685BB90748022150
:102A4000032200F037FA05484FF41651BDE808405C
:102A500000F0DABA08BD00BF181600208417002065
:102A600002284FF0000309DDC21E074951F8220079
:102A700041F8223020B103685B6818471846704758
:102A80004FF0FF30704700BF14130020022870B5CC
:102A90000C4615460FDC0E4B1B680BB9FFF7CAFF3F
:102AA0006619B44205D00B4814F8011B00F02EFB48
:102AB000F7E7284670BD0338074B53F8200020B1D4
:102AC0000368BDE870401B6818474FF0FF3070BDC9
:102AD000181600208417002014130020022810B5B7
:102AE0000C460ADC0B4B1B680BB9FFF7A3FF0A4827
:102AF00000F0F0FA2070012010BD0338074B53F8A6
:102B0000200020B10368BDE810409B6818474FF0D3
:102B1000FF3010BD18160020841700201413002069
:102B2000022807DD0338064B53F8200020B1036864
:102B3000DB681847012070474FF0FF30704700BF37
:102B400014130020022807DD0338064B53F8200039
:102B500020B103681B691847002070474FF0FF3011
:102B6000704700BF14130020022808B504D84FF4A2
:102B700000534B60002008BD06F094F80923036061
:102B80004FF0FF3008BD0000014803F0A5BD00BFB5
:102B90006466010808B5012000F044F808B5FFF7A5
:102BA0007EFC01F0FFFD08BD704708B5FFF7FCFF94
:102BB000BDE80840FEF704BE0C4A136810B518447F
:102BC000EFF30881884205D3094B0C221A604FF0BD
:102BD000FF3010BD0749096821B1074C2468214422
:102BE0008842F1D21060184610BD00BFAC01002031
:102BF000942200201013002014140020074C08B564
:102C000023680546986806F097F92368D86806F0A7
:102C100093F90DB1FFF7E2FBFEE700BFD8010020FA
:102C20000120704708B5FFF7E9FF01207047002138
:102C300007F0F8BF06F092B908B501F0C1FD08BD74
:102C400008B501F0C5FD08BD10B507F083F80446CE
:102C500010B9024803F040FD204610BD136701087B
:102C600008B107F07FB870470B4B10B503600446FE
:102C70000A48FEF749F80023094A52F82310A142F6
:102C800004BF002142F823100133402BF4D1034844
:102C9000FEF73AF8204610BDB0670108081300207F
:102CA000141300202DE9F34188463649054608F003
:102CB0007BF9044610B9FFF7BDFE5EE028463249B5
:102CC00008F072F918B9FFF7B5FE012455E028465F
:102CD0002E4908F069F918B9FFF7ACFE02244CE060
:102CE0002B48FEF711F800242A4E56F824303746B8
:102CF00033B10134402CF7D12548FEF705F83AE00E
:102D00004FF0FF33224846F82430FDF7FDFF2B78C3
:102D10003A2B06D1284620496A4608F0BFF80098A9
:102D200024E06846294603F071F8684603F0B0F8DD
:102D300010B946F824001EE0684603F097F818B171
:102D4000684603F09CF811E0684603F088F80546F1
:102D500010B946F824000EE0036868469E6803F048
:102D600073F828F4803201462846B04747F824001B
:102D700008B1033401E04FF0FF34204602B0BDE853
:102D8000F08100BF55660108A06701085C66010874
:102D900008130020141300209C6701084309203306
:102DA00000F01F0004490122824041F82320BFF3B4
:102DB0004F8FBFF36F8F704700E100E04268184902
:102DC0000346920110B588181C688C509A684260BE
:102DD0000246D96842F8081F196951605969916023
:102DE00000F110011A6A8A600022C261C2848284E2
:102DF000C2858285B3F91A20013201D1082305E08A
:102E0000B3F9183001330CBF04230C234B6001F0DD
:102E10003EFA20B10348BDE8104003F05DBC10BD90
:102E200018140020DC6701081A4BF7B5074653F861
:102E300020001E4600282BD0174CBD0163591A688C
:102E400052060AD5DB68590607D5144B01211B68C9
:102E5000984763596FF040021A6063591A689206E6
:102E60000DD5DB6898060AD50C4B56F827001B6871
:102E700000219847084B5B596FF020021A60635994
:102E80001A68110704D55A69D20744BF5B680193D9
:102E900003B0F0BD1C160020181400203C160020C2
:102EA0000020FFF7C1BF0120FFF7BEBF0520FFF7DD
:102EB000BBBF0000F0B5044685B008460E46494940
:102EC000154603F001FB48490746284603F0FCFA83
:102ED0000146384603F0DAFA2060013004D1434855
:102EE0004349662203F096FB2368424A93421DD071
:102EF00002F5806293422FD0A2F55042934241D115
:102F00003D4B1A6A42F400321A621A6A22F4003205
:102F10001A62002202921A6C42F400321A641B6C8C
:102F200003F400330293029B01232AE0324B5A6AD6
:102F300042F010025A625A6A002122F010025A62CC
:102F400001915A6C42F010025A645B6C616003F0AC
:102F500010030193019B15E0274B5A6A42F02002AF
:102F60005A625A6A22F020025A62002203925A6C74
:102F700042F020025A645B6C03F020030393039B2E
:102F8000052363603046174903F062FA2846164964
:102F900003F05EFA721C03D030460121FFF724FBD8
:102FA0006B1C03D028460121FFF71EFB4FF416537C
:102FB000A3600023E360236163612362268365834A
:102FC0002046FFF7FBFE22680C4B9A4207D10C4BC0
:102FD0000C4801221A6021464C2207F009FA05B07C
:102FE000F0BD00BF68620108B8600108F46701081D
:102FF0001068010800100140003802400044004001
:1030000018160020841700208160FFF7D7BE00004B
:10301000034B19604168034B43F82120704700BF00
:103020003C1600201C16002038B54368012B0D46C5
:1030300005D0052B06D043B91C49252407E01C49BF
:10304000262404E01B49472401E000210C461A48CD
:103050009B01AAB1C258D36815B943F0200301E01F
:1030600043F0400365B2D3602846FFF7C1F86D090D
:1030700004F007040123114AA34042F8253038BD6B
:10308000C358DA6835B922F02002DA60DB681A0624
:1030900006D538BD22F04002DA60DB689B0604D416
:1030A0002046BDE83840FFF779BE38BDA12E0008A4
:1030B000A72E0008AD2E00081814002000E100E043
:1030C0004368034A9B01D3581868C0F34010704707
:1030D0001814002038B5446805462846FFF7F0FF6D
:1030E0000028FAD0A401034B1B595868C0F308000C
:1030F00038BD00BF181400204368034A9B01D35811
:103100001868C0F3C01070471814002070B54568E7
:1031100006460C463046FFF7EFFF0028FAD0AD0117
:10312000024B5B59C4F308045C6070BD18140020A6
:10313000DFF820D0002103E0074B5B5843500431F7
:103140000648074B42189A42F6D301F0A9F9FDF759
:1031500041F870470080012088760108980100201E
:103160009C0B0020FEE7000008B50A4B1A6842F4E9
:1031700000721A601A6842F480621A601A6842F497
:1031800080721A600F20FFF7CBF800F003FA0020DE
:1031900008BD00BF003C0240024A136801331360BF
:1031A000704700BFD0170020014B1868704700BF60
:1031B000D01700207047000010B50446002800F02A
:1031C0009E80036C23B9436480F83C30FFF7F2FF24
:1031D000236CDB0600F18E80236C23F4885323F0EC
:1031E000020343F002032364464B5A6822F4403240
:1031F0005A60596862680A435A60236821695A68AC
:1032000022F480725A605A6842EA01225A605A686F
:1032100022F040725A605968A2680A435A609A685C
:1032200022F400629A609968E2680A439A6036491B
:10323000A26A8A420ED0996821F0706199609968FB
:103240000A439A609A6822F040529A609968E26A4A
:103250000A4306E09A6822F070629A609A6822F047
:1032600040529A609A68A16922F002029A609A68B4
:1032700042EA41029A60226A9AB15A6842F40062B4
:103280005A605A6822F460425A604FF4604191FAE1
:10329000A1F1626A5868B1FA81F1013A8A400243A9
:1032A00002E05A6822F400625A60DA6A22F470027C
:1032B000DA62E269D96A013A41EA0252DA629A684C
:1032C000216B22F400729A609A6842EA41229A6065
:1032D0009A68616922F480629A609A68002042EAE2
:1032E00081229A606064236C23F0030343F001039E
:1032F000236400E00120002384F83C3010BD01204D
:1033000010BD00BF002301400100000F82B0002368
:10331000019390F83C30012B4DD0012380F83C30D4
:1033200003689A68D10703D59A68D20712D437E0A8
:103330009A68224942F001029A60214A1268B2FB5F
:10334000F1F202EB42020192019A002AECD0019ABA
:10335000013AF8E7026C22F4E06222F0010242F442
:10336000807202645A68510541BF026C22F44052D7
:1033700042F480520264026C12F480521CBF426C10
:1033800022F006024264002280F83C206FF0220204
:103390001A600C4A5268D20604D00B4A934201D0FC
:1033A000002009E0986810F04050F9D19A6842F086
:1033B00080429A6000E0022002B0704740420F0055
:1033C000B0010020002301400020014003689A68FA
:1033D00070B5560504460D460BD59B68D80508D533
:1033E000236C43F020032364002384F83C30012045
:1033F00070BDFFF7D9FE064623681A68920711D4FC
:10340000691CFAD045B9236C43F0040323640023FC
:1034100084F83C30032070BDFFF7C6FE801BA84235
:10342000EAD9F0E76FF012021A60226C42F40072DF
:1034300022649A6812F0405F01D0002070BDA2693A
:10344000002AFAD1DA6A12F4700F02D09B685B0589
:10345000F3D4236C23F480732364206C10F4805025
:10346000EBD1236C43F00103236470BD0368D86C77
:1034700070470000F7B50023019390F83C30012B12
:1034800063D00D688A680123092D80F83C30ACB206
:1034900003680FD904EB4406DF681E3E4FF0070EA9
:1034A0000EFA06FE27EA0E07DF60DF68B2403A43F5
:1034B000DA600DE01F6905EB450E072606FA0EF6E9
:1034C00027EA06061E611E6902FA0EF232431A61ED
:1034D0004A68062A4FEA82010CD80A445E6B053A14
:1034E0001F21914026EA01015963596B94400C4316
:1034F0005C631AE00C2A0CD80A441E6B233A1F2185
:10350000914026EA01011963196B94400C431C6336
:103510000BE00A44DE6A413A1F21914026EA01018C
:10352000D962D96A94400C43DC62164A934204D0B3
:10353000002380F83C30184622E0122D07D1124AB1
:10354000536843F48003536001E0022018E0A5F1C2
:103550001003012BECD80C4A5368102D43F40003E0
:103560005360E5D1094B0A4A1B68B3FBF2F20A2308
:1035700053430193019B002BDAD0019B013BF8E7F9
:1035800003B0F0BD0020014000230140B001002045
:1035900040420F00704700002DE9F3410F68002200
:1035A0000123934003EA07059D4240F0B9804C682F
:1035B00024F0100CBCF1020F14D14FEAD20E00EB34
:1035C0008E0E02F00706DEF82030B6004FF00F082E
:1035D00008FA06F823EA08080B69B34048EA03032F
:1035E000CEF820304FEA420E0323066803FA0EF3AA
:1035F000DB4303EA060804F0030606FA0EF60CF1B4
:10360000FF3C48EA0606BCF1010F066011D8866847
:1036100003EA060CCE6806FA0EF64CEA0606866049
:10362000466826EA050CC4F3001696404CEA0606E6
:103630004660C66803EA060C8B6803FA0EF64CEA8D
:103640000603C360E3006BD5394E00230193D6F81F
:1036500044E04EF4804EC6F844E0766C06F48046B2
:103660000196019E22F0030606F1804606F59C367F
:1036700002F0030CD6F808804FEA8C0C4FF00F0EC6
:103680000EFA0CFE28EA0E0EDFF8AC80404519D089
:1036900003F1804303F5013398420ED003F58063B4
:1036A00098420CD003F5806398420AD003F58063FA
:1036B00098420CBF0423052304E0012302E0022307
:1036C00000E0032303FA0CF343EA0E03DFF864E09F
:1036D000B360DEF80030EE4314F4803F14BF2B4398
:1036E0003340CEF80030DEF80430DFF848E014F460
:1036F000003F14BF2B433340CEF80430DEF80830CF
:1037000014F4801F14BF2B433340CEF80830DEF88A
:103710000C30A40254BF06EA03051D43054BDD60CF
:103720000132102A7FF43CAF02B0BDE8F08100BF47
:1037300000380240003C0140000002400368F7B539
:10374000D907044603D423689A073BD488E0A74BE3
:103750009A6802F00C02042A07D09A6802F00C0260
:10376000082A0BD15B685B0208D5A04B1B689F033E
:10377000E9D56368002BE6D1012034E19C4B227926
:103780001A7063687BB1FFF70FFD0546974B1B6806
:103790009E03D8D4FFF708FD41F28833401B9842BE
:1037A000F4D903201FE1FFF7FFFC05468F4B1B6890
:1037B0009803C8D5FFF7F8FC41F28833401B9842C4
:1037C000F4D9EEE7894B9A6812F00C0F07D09A688B
:1037D00002F00C02082A16D15B68590213D4834BFD
:1037E0001A68920702D5E268012AC5D11968F82043
:1037F00090FAA0F02269B0FA80F021F0F80182403E
:103800000A431A602CE0E2687A4BDAB101221A60AE
:10381000FFF7CAFC0546754803689F0705D4FFF704
:10382000C3FC401B0228F6D9BBE70268F82191FAD5
:10383000A1F12369B1FA81F122F0F8028B40134320
:1038400003600DE01A60FFF7AFFC0546674B1B688D
:103850009E0705D5FFF7A8FC401B0228F6D9A0E774
:103860002368180703D42368590744D51FE0626909
:10387000614B72B101221A60FFF796FC05465B4B63
:103880005B6F9A07EFD4FFF78FFC401B0228F6D935
:1038900087E71A60FFF788FC0546544B5B6F9B0770
:1038A000E1D5FFF781FC401B0228F6D979E7002318
:1038B00001934E4B1A6C42F080521A641B6C4F4AB3
:1038C00003F080530193019B136843F480731360EA
:1038D000FFF76AFC0546494B1B68DF050ED5484BD0
:1038E000227A1A70A368BBB1FFF75EFC05463F4B16
:1038F0001B6F9E0708D5A269EAB959E0FFF754FC8F
:10390000401B0228E7D94CE7FFF74EFC41F2883311
:10391000401B9842EBD944E7FFF746FC0546334B82
:103920001B6F9807E7D5FFF73FFC41F28833401B38
:103930009842F4D935E72D4B9B6803F00C03082B14
:103940003FF41AAF2F4D0023022A2B603ED1FFF720
:103950002BFC06462548036899012BD447F6C0770F
:1039600097FAA7F74FF44036B7FA87F796FAA6F614
:103970004FF07061B6FA86F691FAA1F1E369226A16
:10398000B1FA81F11A43636ABB401A43A36A5B0828
:10399000013BB3401343E26A8A401343436001236F
:1039A0002B60FFF701FC0446104B1B689A0107D5FA
:1039B000002018E0FFF7F8FB801B0228CAD9F0E6C8
:1039C000FFF7F2FB001B0228EED9EAE6FFF7ECFB5B
:1039D0000446064B1B689B01EAD5FFF7E5FB001B7D
:1039E0000228F6D9DDE603B0F0BD00BF0038024082
:1039F0000238024000004742800E474200700040FB
:103A0000703802406000474210B51C4CA36803F0B8
:103A10000C03042B2ED0082B2ED1626802F03F033A
:103A2000626847F6C07112F4800F626891FAA1F1E2
:103A300047F6C07000EA020008BF114AB1FA81F1EE
:103A400020FA01F00EBFB2FBF3F20E49B1FBF3F224
:103A500002FB00F3094A50684FF4403292FAA2F296
:103A600000F44030B2FA82F2D04001304000B3FBA3
:103A7000F0F010BD034810BD014810BD00380240F1
:103A80000024F40000127A00584B1A6802F00F026A
:103A9000914270B504460D460AD82168880710D5B2
:103AA0005348836823F0F002A3681343836008E05F
:103AB000CAB21A701B6803F00F038B42EDD00120CD
:103AC00070BDC90706D4494B1A6802F00F0295422F
:103AD0005AD360E06368464A012B03D1126812F49E
:103AE000003F08E0991E0129126802D812F0007FF9
:103AF00001E012F0020FE2D03D498A6822F0030291
:103B000013438B60FFF750FB6368012B06460ED111
:103B1000374B9B6803F00C03042BD4D0FFF744FB16
:103B200041F28833801B9842F2D9032070BD022BEA
:103B30000DD12F4B9B6803F00C03082BC3D0FFF76C
:103B400033FB41F28833801B9842F2D9EDE7032B17
:103B500014D1274B9B6803F00C030C2BB3D0FFF759
:103B600023FB41F28833801B9842F2D9DDE7FFF74F
:103B70001BFB41F28833801B9842D6D81C4B9B68B4
:103B800013F00C0FF3D19EE7EAB21A701B6803F032
:103B90000F03AB4293D121684A0706D514488368C6
:103BA00023F4E052E368134383600B0741BF104ADC
:103BB0002169936823F4604344BF43EAC1039360DF
:103BC000FFF722FF0A4BF0229B6892FAA2F203F061
:103BD000F003B2FA82F2D340064AD35CD840064BD7
:103BE00018600F20FEF79CFB002070BD003C0240D7
:103BF00000380240D9680108B0010020084B4FF49A
:103C0000E0529B6892FAA2F203F4E053B2FA82F215
:103C1000D340044AD35C044A1068D840704700BFC0
:103C200000380240D9680108B0010020084B4FF469
:103C300060429B6892FAA2F203F46043B2FA82F205
:103C4000D340044AD35C044A1068D840704700BF90
:103C500000380240D9680108B00100200F2303603A
:103C60000B4B9A6802F0030242609A6802F0F0027D
:103C700082609A6802F4E052C2609B6803F4604379
:103C8000DB080361034B1B6803F00F030B607047F5
:103C900000380240003C0240036A23F00103036243
:103CA000036A426870B584690D6824F07304254383
:103CB00023F002048B6823430A4CA0420BD1CC684A
:103CC0008E6923F0080323434C6922F44072344385
:103CD00023F00403224342604A6885614263036221
:103CE00070BD00BF00000140036A23F480730362CB
:103CF000036A426830B5C4690D6824F073042C432C
:103D00008D6823F4007343EA05230C4DA8420ED1BD
:103D1000CD6823F4006343EA05234D6922F4405241
:103D200042EA05128D6923F4806342EA051242607B
:103D30004A68C461C263036230BD00BF0000014035
:103D4000036A23F480530362036A30B54468C2698E
:103D50000D6822F4E64242EA05228D6823F40053FE
:103D600043EA0533064DA84202BF4D6924F480445E
:103D700044EA85144460C2614A680264036230BD4B
:103D80000000014070477047224A036890420ED0FD
:103D9000B0F1804F0BD0A2F57C42904207D002F5E3
:103DA0008062904203D002F58062904214D14A684A
:103DB00023F070031343174A904225D0B0F1804F8F
:103DC00022D0154A90421FD002F5806290421BD04B
:103DD00002F58062904217D0104A904214D002F54A
:103DE0008062904210D002F5806290420CD0036055
:103DF0008B68C3620B688362064B984204BF0B69F1
:103E00000363012343617047CA6823F4407313437B
:103E1000EDE700BF00000140000400400040014009
:103E200010B50446A0B190F8393003F0FF021BB979
:103E300080F83820FFF7A6FF022384F83930206885
:103E4000211DFFF7A1FF012384F83930002010BDA8
:103E5000012010BD10B50446A0B190F8393003F030
:103E6000FF021BB980F83820FFF78DFF022384F88A
:103E700039302068211DFFF787FF012384F839308E
:103E8000002010BD012010BD036A23F0100303625F
:103E9000036A426830B584690D6824F4E64444EA54
:103EA00005248D6823F0200343EA05130B4DA84237
:103EB0000ED1CD6823F0800343EA05134D6922F447
:103EC000406242EA85028D6923F0400342EA85029E
:103ED00042604A6884618263036230BD0000014031
:103EE00038B590F83830012B04460D464FF00200EB
:103EF00058D0012384F8383084F839000C2A4BD884
:103F0000DFE802F0074A4A4A174A4A4A294A4A4A17
:103F100039002068FFF7C0FE23689A6942F0080262
:103F20009A619A6922F004029A6199692A690A439E
:103F30000FE02068FFF7A8FF236829699A6942F417
:103F400000629A619A6922F480629A619A6942EAEF
:103F500001229A6120E02068FFF7C6FE2368DA6933
:103F600042F00802DA61DA6922F00402DA61D96902
:103F70002A690A430FE02068FFF7E2FE23682969F7
:103F8000DA6942F40062DA61DA6922F48062DA61A5
:103F9000DA6942EA0122DA610123002084F839302B
:103FA00084F8380038BD10B50123046A8B4024EA38
:103FB00003030362036A8A401343036210BD0000D7
:103FC00010B5044601220068FFF7EDFF2368064A9A
:103FD000934202BF5A6C42F400425A641A6842F09B
:103FE00001021A60002010BD0000014010B5044617
:103FF00001220068FFF7D7FF2368064A934202BFF9
:104000005A6C42F400425A641A6842F001021A6083
:10401000002010BD0000014010B50423046A8B404D
:1040200024EA03030362036A8A401343036210BD58
:1040300010B5044604220068FFF7EEFF23685A6CAF
:1040400042F400425A641A6842F001021A600020E9
:1040500010BD00002DE9F04706683369044623F4DB
:104060004052C3682169C0691343A2683361F36891
:104070001143626923F416430A43024323F00C03FD
:104080001343F360736923F44072A369B0F5004FE2
:1040900043EA020373617B4B7CD19E4203D003F55C
:1040A00080639E4231D1FFF7C1FD636819254FEA55
:1040B00043086843B0FBF8F8FFF7B8FD676868434A
:1040C0007F00B0FBF7F7FFF7B1FD63684FF06409BD
:1040D0005B006843B0FBF3F0B0FBF9F009FB10772D
:1040E000FFF7A4FDB8FBF9F86268FF003237B7FBB1
:1040F000F9F707F0F807684352004FEA08187F0005
:10410000B0FBF2FAFFF792FD30E0FFF777FD63684E
:1041100019254FEA43086843B0FBF8F8FFF76EFD36
:10412000676868437F00B0FBF7F7FFF767FD6368D8
:104130004FF064095B006843B0FBF3F0B0FBF9F0AB
:1041400009FB1077FFF75AFDB8FBF9F8FF0062682A
:104150003237B7FBF9F707F0F807684352004FEA28
:1041600008187F00B0FBF2FAFFF748FD454360688E
:104170004000B5FBF0F0B0FBF9F009FB10A2D20053
:104180003232B2FBF9F303F0070343441F44B76034
:10419000BDE8F0879E4202D03B4B9E422ED1FFF7F6
:1041A00045FD676819256843BF00B0FBF7F7FFF7C7
:1041B0003DFD636868439B00B0FBF3F8FFF736FDF5
:1041C00063684FF0640968439B00B0FBF3F0B0FBF9
:1041D000F9F009FB10831B013233B3FBF9F303F051
:1041E000F008FFF723FDB7FBF9F762686843920018
:1041F0003F01B0FBF2FAFFF719FD2DE0FFF7FEFCDF
:10420000676819256843BF00B0FBF7F7FFF7F6FCB6
:10421000636868439B00B0FBF3F8FFF7EFFC63684B
:104220004FF064099B006843B0FBF3F0B0FBF9F07A
:1042300009FB10831B013233B3FBF9F303F0F008E1
:10424000FFF7DCFCB7FBF9F76268684392003F01B7
:10425000B0FBF2FAFFF7D2FC454360688000B5FB83
:10426000F0F0B0FBF9F009FB10A212013232B2FB00
:10427000F9F202F00F0208EB02033B44B360BDE821
:10428000F08700BF0010014000140140704710B5D6
:10429000044640B390F8393003F0FF021BB980F8B0
:1042A0003820FFF7F3FF2268242384F83930D368DD
:1042B00023F40053D3602046FFF7CCFE23681A692D
:1042C00022F490421A615A6922F02A025A61DA688D
:1042D00042F40052DA6000202023E06384F8393091
:1042E00084F83A3010BD012010BD0000174A18496B
:1042F000936803F00C03042B03D0082B03D0154B59
:1043000018E0154B16E05068536810F4800F03F066
:104310003F03506814BF104A0E4AB2FBF3F30B4A36
:104320005268C2F30142C0F3881001324343520085
:10433000B3FBF2F30B60054B084A9B68C3F303130E
:10434000D25C0B68D3400B60704700BF003802405E
:10435000B00100200024F40000127A00E96801088E
:1043600010B594B0214B002101911A6C42F080529B
:104370001A641B6C1E4A03F080530193019B029147
:10438000136823F4404343F400431360136803F4B9
:1043900040430293029B0123089300B10523099334
:1043A0004FF480030F93082310934FF4A8731193D5
:1043B00004230224129308A807230E941393FFF7F3
:1043C000BDF978B90F23039305904FF480530790FC
:1043D000214603A804940693FFF756FBB0FA80F039
:1043E000400900E0002014B010BD00BF00380240BA
:1043F0000070004030B595B00024204B01941A6C39
:1044000042F080521A641B6C1D4A03F080530193E2
:10441000019B0294136823F4404343F40043136068
:104420001368099403F440430293029B0F940323FF
:10443000089301230B9310230C9310934FF4A8734C
:10444000119304230225129308A807230E951393B2
:10445000FFF774F978B90F23039305904FF4805355
:104460000790294603A804950693FFF70DFBB0FAC1
:1044700080F0400900E0204615B030BD0038024011
:104480000070004008B50120FFF76AFF30B9FFF760
:1044900067FF18B9FFF7AEFF00B9FEE708BD0000DF
:1044A000174AD2F8883010B543F47003154CC2F89F
:1044B00088302368002143F001032360A160236852
:1044C00023F0847323F4803323600F4B63602368ED
:1044D00023F4802323604FF00063E16093600B4B73
:1044E0000B4A1A60FEF740FEFFF7CCFF236A43F049
:1044F00008032362236A23F00803236210BD00BF70
:1045000000ED00E00038024010300024B00100202F
:104510000024F400054B186830B901221A60044BDE
:10452000044A1A60FDF7FCBE704700BF4016002029
:10453000D4170020000C004008B5044B1B680BB9D1
:10454000FFF7E8FF024B586A08BD00BF4016002085
:10455000000C0040044B054A13605863DA6842F0CF
:104560000202DA60704700BF000C0040D417002040
:10457000034B044A1360DA6822F00202DA607047E3
:10458000000C0040D4170020034A044B13606FF066
:1045900002021A61704700BFD4170020000C0040CF
:1045A000C36810B504462BB940F2E7120449054828
:1045B00002F030F8E36820461B68BDE81040184759
:1045C000F96801087A5C0108006900F0A5BB10B524
:1045D0000446006900F0B0FB2046FBF774FE20465D
:1045E00010BD0000F8B5114B436100F11C060446F4
:1045F0000D46174600211822304605F0FBFFAC425D
:10460000A6610BD02046FBF75EFE3CB1EB681BB108
:104610005B68294620469847EB68E36022463946A6
:1046200004F1140000F052FB2061F8BDA145000820
:10463000024B1B6803B11847704700BF44160020A7
:104640007047000008B5024C23689847FCE700BF9C
:10465000B4010020836A9B0804BF244B1B88F0B57B
:10466000046B08BF9B0804EB8306750748BF043E34
:104670004FF0807206E90600A6F14005A6F144025B
:10468000A6F10C074FF0000E42F804EFBA42FBD13E
:10469000C26946F8202CC278C562022A416323D041
:1046A000134A2260114A1268D2001DD5112B1BD962
:1046B000A3F1100251086FF007024A43A2F1380338
:1046C000334429464FF0CC30994204D041F8040CD1
:1046D00041F8080DF8E70832AB181A1F94423CBFA6
:1046E0004FF0CC3243F8042CF0BD00BF2069010824
:1046F000A52E5AE290F82520C36A0AB1603300E083
:1047000020331960704710B590F82540C36A0CB18A
:10471000603300E0203383E8060010BD08B50B4885
:1047200000F060FB0A4B18600A4800F05BFB0A4B84
:1047300018600A4800F056FB094B186005F066FA4D
:1047400000210846BDE80840FEF72FBAAC69010811
:10475000E41A0020C06901088016002028690108B9
:104760007C160020FFF76EBF10B5044600F01CFA5F
:1047700021460246BDE81040014801F0ADBF00BF30
:1047800044690108FFF754BF0449054AC1F10053C9
:1047900003F5BE33D3601161704700BF982200203B
:1047A000B801002000F0F6FBFFF7EEFF0348002100
:1047B00000F0A2FB00F07CF9FEE70000B801002049
:1047C000024B4FF0FF31186800F02CBB8016002020
:1047D000014B186800F04EBB8016002080F309885A
:1047E0007047EFF309807047684680F309885A489C
:1047F0000078C00714BF0220032080F3148870479C
:10480000DFF858C1EFF305831B0618BF6047EFF3CD
:104810001483DB0708BF604700DF7047DFF840C143
:10482000EFF305831B0618BF6047EFF31483DB0724
:1048300008BF604700DF7047EFF30980816911F816
:10484000021CE1BB90E80F1010B5E047BDE8104036
:10485000EFF3098C8CE80700424B93E80600914285
:1048600008BF704741B91EF0100F16D13E490868C5
:1048700020F00100086010E01EF0100F06BF2CEDC4
:10488000108A0120002081F825002CE9F00FC1F8E2
:104890002CC00CB401F04AF80CBC1A60D2F82CC041
:1048A000BCE8F00F92F8250000280EBF6FF0020E52
:1048B0006FF0120EBCEC108A8CF30988704710B5AB
:1048C0002A4A1268914209D8294C54F8214090E8AC
:1048D0000F10A047EFF3098C8CE80F0010BD10B546
:1048E00000F0AEFFBDE810401E4B93E80600914279
:1048F00008BF7047EFF3098C1EF0100F06BF2CEDB8
:10490000108A0120002081F825002CE9F00FC1F861
:104910002CC00CB401F00AF80CBC1A60D2F82CC000
:10492000BCE8F00F92F8250000280EBF6FF0020ED1
:104930006FF0120EBCEC108A8CF30988704710B52A
:1049400000F0D6FFFFF7CEBF10B500F0CFFF00F0AC
:10495000CFFFFFF7C7BF00002C690108EF55000823
:10496000095600082422002034EF00E00000000077
:10497000FCFFFFFF0B4A136830B5002433B19D687C
:10498000A94203D31C46491B1B68F7E703608160FB
:1049900013B19D68691A99600CB1206030BD106038
:1049A00030BD00BFE02100200C4A1368002123B174
:1049B000834205D019461B68F9E74FF0FF30704776
:1049C000036809B10B6000E0136003681BB19968CC
:1049D00082680A449A600020704700BFE0210020EE
:1049E000C0B1431C11D00C4B984211D80B4B1B6823
:1049F0004FF47A715A1E01FB0020B0FBF3F34FF61F
:104A0000FE70834206D898B270474FF6FF70704729
:104A10004FF6FE70704700BF00093D001C69010899
:104A200038B1830704D10378002B18BF00207047EA
:104A30000020704738B50E4D2878B0B90D4C23686A
:104A400093F8241000F0E8FF2368DA78FF2A03D1F6
:104A5000DA6A203282F309886168064A09B982E875
:104A60000A0001F08DF901232B70002038BD00BF32
:104A7000DD21002024220020014B1878704700BF60
:104A8000DD21002010B5EFF3108434B9EFF3058475
:104A90001CB9EFF31484E40702D4034B187810BD5B
:104AA000DFF808C000DF10BDDD210020794A0008D2
:104AB00010B588B0EFF31083002B33D1EFF30583EB
:104AC000002B2FD1FFF7DEFF28B9194C246814B151
:104AD000646804B1A047EFF3148404F00304022CCB
:104AE0000CD0032C16D0012C1ED008AC84F30988FE
:104AF000104C2478E40705D5022404E00D4C2478FA
:104B0000E4070BD4032484F31488BFF34F8FBFF35F
:104B10006F8F03E0074C2478E40705D4DFF818C052
:104B200000DF02E0822000E0FF2008B010BD00BFDF
:104B3000142200202C690108354A000870B50B4684
:104B40001646024608B9002070BD00680028FAD059
:104B5000B2F90440E51CADB2062DF4D8D5680DB10C
:104B6000126900E02A46211D41EA052100F092FF6A
:104B70000028E8D0094B0A4A013853F82040E36A7C
:104B80005A63084B1B6833B19B6823B13146E07808
:104B90009847E06300E0E663204670BD201A0020DD
:104BA000454E00081422002008B500F02DFF18B172
:104BB0000138024B53F8200008BD00BF201A002026
:104BC00010B5FFF72DFF044670B1084B1B681BB1F1
:104BD000DB680BB1C06B9847E07800F0B1FFFF28AD
:104BE0000CBF8120002010BD802010BD14220020A9
:104BF00010B5A8B1036883B1446864B101290ED827
:104C0000084B1B684BB123794BB9236001232371F7
:104C1000617122616061204610BD184610BD002000
:104C200010BD00BFD4210020F8B58307044624D16D
:104C300018B321B3144B1A68002312F1FF3643F165
:104C4000FF374FF47A70E0FB0167304639460FF0CA
:104C5000E9FD2379012B054606D0022B11D1204610
:104C6000FFF7A2FE68B902E002232371E06020464C
:104C70002946FFF77FFE0020F8BD8020F8BD862082
:104C8000F8BD8120F8BD00BF1C690108830710B57D
:104C900004460AD148B10379012B03D0022B06D177
:104CA000FFF782FE0020207110BD802010BD812002
:104CB00010BD830704D128B1436901691B6803E073
:104CC000002300E00346194618467047F0B5074632
:104CD0000E461546EFF31084B4B9EFF3058EBEF11E
:104CE000000F13D1EFF31484E40706D4084C2478A2
:104CF0001CB9BDE8F040FFF77BBF384631462A4675
:104D0000DFF810C000DFF0BD0020F0BD2046F0BD90
:104D1000DD210020F14B000810B5EFF3108434B909
:104D2000EFF305841CB9DFF80CC000DF10BD822052
:104D300010BD0000294C000810B5EFF3108434B901
:104D4000EFF305841CB9DFF80CC000DF10BD822032
:104D500010BD00008D4C000810B504460846DFF871
:104D60000CC000DF84E80300204610BDB34C0008EF
:104D700010B548B1046824B1237823B9204600F067
:104D800058FC204610BD002010BD70B510F0030483
:104D900005460E4611D180B10378032B0DD108468C
:104DA000FFF71EFE0146284600F0BCFC012806D194
:104DB000002E14BFC120812070BD802070BD204610
:104DC00070BD820708B50AD148B10378032B06D11C
:104DD00000F038FCFF280CBF8120002008BD802097
:104DE00008BD000070B50546EFF3108494B9EFF3E9
:104DF00005868EB9EFF31484E40706D4074C2478B3
:104E00001CB9BDE87040FFF7B3BF2846DFF810C0FB
:104E100000DF70BD002070BD204670BDDD21002088
:104E2000714D000810B5EFF3108434B9EFF3058429
:104E30001CB9DFF80CC000DF10BD822010BD0000DF
:104E40008B4D0008084808B54FF0FF310068FFF7A8
:104E5000E9FFDFF818C000DF0446FFF793FC2046A7
:104E6000DFF80CC000DFFEE7D8210020A94B0008C6
:104E7000C14B000810B5EFF3108434B9EFF305848B
:104E80001CB9DFF80CC000DF10BD822010BD00008F
:104E9000C34D00082DE9F04180460F461646EFF35A
:104EA0001084F4B9EFF30583E3B9EFF31483DB0760
:104EB00006D40E4B1B781BB9BDE8F041FFF73EBE90
:104EC0000B4D4FF0FF312868FFF7ACFF40463946E5
:104ED0003246DFF820C000DF04462868FFF7CAFF2B
:104EE00000E000242046BDE8F08100BFDD21002065
:104EF000D82100203D4B00080022FFF7CBBF10B5A2
:104F0000044660B1016859B1406860B103784BB99B
:104F10000431890089B200F039FA606810BD10BD13
:104F2000084610BD002010BD38B5114C23780BB9D0
:104F300000F0ACFE0F4B25781B68FF229A708DB9EC
:104F400029460D48FFF7DBFF0C4B2A46186029461F
:104F50000B48FFF7F3FD0B4B18600B48FFF742FFC0
:104F60000A4B186001232370094B0020187038BDCC
:104F7000DC21002024220020B0690108E01A002072
:104F800030690108D4210020C4690108D82100201B
:104F9000DD21002010B5EFF3108474B9EFF3058420
:104FA0005CB9EFF31484E40703D4BDE81040FFF7C5
:104FB000BBBFDFF80CC000DF10BD822010BD0000B9
:104FC000294F00082DE9F04F0C4685B08046E8B126
:104FD0000378012B1FD10846FFF702FD02A9024604
:104FE000404600F0E1F9012806D10020002C0246DD
:104FF000034618BF402003E000200246034610206D
:10500000029904460D4616461F4608E080240546D0
:105010000646074603E0002580242E462F462046FC
:10502000294632463B4605B0BDE8F08F70B50E46C6
:105030001446054660B15AB90378012B08D100F037
:1050400009FA38B12846314600F008FA204670BD0A
:10505000802070BD812070BDF8B5114B1C681E46C4
:10506000E4B1A3680F4F013BA360A268B2B9256801
:10507000386835602146FFF7D9FF10B10420FFF7EB
:1050800073FB6379012B04D1E1682046FFF772FCC2
:1050900001E0012323710DB12C46E6E7F8BD00BF06
:1050A000E0210020E01A00207FB50446164608469D
:1050B00001B112B18023236010E00B78012BF9D1EC
:1050C00002A900F0D2F9042808BF102301AD14BFD3
:1050D0000196019395E8070084E80700204604B094
:1050E00070BD000038B504461546EFF3108010B9C6
:1050F000EFF3058020B12A462046FFF7D5FF06E0F2
:1051000008461146DFF80CC000DF84E8070020469F
:1051100038BD0000C54F00087FB50A4C21684FF02C
:10512000FF3203A8FFF7DEFF039B102BF6D1049993
:1051300001A8FFF711FE019B002BEFD002989847C2
:10514000EBE700BFE01A002010B5038B427819434B
:10515000062A04460183438B03D133EA010219D1A5
:1051600005E0052A16D111EA030213D0428321EA91
:1051700003012183204600F0CFF80123204663700D
:10518000628B0821FFF7BFFA21460348BDE81040B3
:1051900000F004B810BD00BFE421002030B5027853
:1051A0008C784368013AD2B22BB19D78A54202D3E4
:1051B00018465B68F8E7022A4B60416003D803B1E8
:1051C0009960886030BD00238B6030BD02784368F1
:1051D000013A59684160022A4FF0000204D809B12F
:1051E00088605A609A6000E05A6018467047000074
:1051F000034B5A684260002282605860704700BFCB
:10520000E4210020114BDA6810B50AB19A8A0CE04B
:1052100000248A1AC460D86003619A82848210BD17
:10522000002CF5D0A38A1A4423468A42DC68F7D3BF
:10523000C460D860C468036104B12061521A92B29C
:105240008282998A8A1A9A8210BD00BFFC210020AE
:10525000F8B5174DEB68002B29D0AB8A154F013BF1
:10526000AB822E46AA8A12BBF46804B3A3683BB192
:1052700061685960616809B18B6062600023A36056
:1052800021460D48FFF78AFFA38AAB826378042B7F
:1052900001BFE38A3A689B18A38201236370E36825
:1052A000EB6000220BB11E61E2602261DAE7F8BD1B
:1052B000FC2100206C220020E421002083682BB117
:1052C00042685A6042685AB193607047054B5A6809
:1052D000904202D142685A6070471346002AF6D1C4
:1052E000704700BFE421002010B58468014624B94E
:1052F0004378012B0DD1074C03E023780BB9A46848
:10530000FBE70846FFF7DAFF2046BDE81040FFF74D
:1053100045BF10BDE4210020036910B573B1C26818
:10532000DA60C2683AB19C8A818A21449982136109
:105330000023C36000E09A820023036110BD0000D7
:1053400070B4114BDD78EFF31086EFF3108272B674
:105350009A78954211D901329A701A78541CA54254
:1053600008BF00241C7006B962B6954207D903EB4A
:10537000C20370BC586099607047002EF4D00220C0
:1053800070BCFFF7F1B900BF5C1A0020012310398F
:105390000370890800234370837043600381438155
:1053A0008381C1817047000070B585890446164627
:1053B000002D36D043891A1D013350F822200A608F
:1053C000C2899BB29A42438104BF00234381436850
:1053D000EBB14378022B1AD1FFF7F8FE0021054606
:1053E000FFF788F92389E9691A1D013344F822106F
:1053F000E2899BB29A42238108BF0023284608BF56
:105400002381FFF789FF284600F0C0FA1CE0EFF384
:105410001080EFF3108372B6013DA581A0B962B68A
:1054200070BD9AB142680A4B1AB11968FFF7B6FE0F
:1054300005E01B6843605A609860012343700821AF
:10544000304600F0C7FA01E0002070BD012070BDB9
:1054500024220020C2898089101A704708B5FFF7FE
:105460006FFFBDE8084000F0D9B9838910B5044644
:1054700003B34389043350F823300B604378022B85
:1054800004D10021FFF75CFF00F0C8F9EFF31083AF
:10549000EFF3108272B6A289013AA28103B962B613
:1054A0006389E28901339BB29A42638104D100236C
:1054B000638101E0184610BD042010BD436870B53B
:1054C00004460E46002B4CD04578022D1CD0032DEF
:1054D0000AD0012D62D1FFF779FE04463246102131
:1054E000FFF711F9657037E0084600F080F80546CF
:1054F000002853D02046FFF769FE29460446FFF7EF
:10550000F9F80123637027E0FFF760FE00210546EC
:10551000FFF7F0F82389E9691A1D44F82210EFF328
:105520001082EFF3108172B6A1890131A18102B915
:1055300062B6E28901339BB29A42238104BF002301
:10554000238101236B702846FFF7E6FE29461448A5
:10555000BDE87040FFF722BE2046FFF7DDFE214682
:10556000F5E78089E189884213D223891A1D44F81E
:105570002260EFF31082EFF3108572B60130A08144
:1055800002B962B601339BB2994208BF002323815E
:1055900070BD0320BDE87040FFF7E6B870BD00BFE6
:1055A000E4210020002ABBBF22F000420732033270
:1055B00022F00702A8BF22F0030210B5B4BF1023E7
:1055C0000C2392B1D4188C420FD8014403445442A6
:1055D00041600360826021449818814202D30051E7
:1055E0000346F9E70020186010BD012010BDEFF35D
:1055F000108372B6026803F001030AB111680160FA
:1056000003B962B610467047814203460DD3426823
:1056100091420AD2EFF3108072B61A680A6010F055
:105620000100196003D162B6704701207047002065
:105630007047032303700023438043608360C3608B
:10564000704700002DE9F84343880546002B61D0E0
:10565000324F81683A6891425CD1013B9BB24380F2
:1056600013B10020BDE8F8830B6A984203D1C368E8
:105670000B6206E0134623B1DA689542FAD1EA6874
:10568000DA6091F824300C6A3CB162681AB1927801
:10569000934238BF1346E468F6E78B706A68DFF818
:1056A000808042B32846FFF791FD21460646FFF76A
:1056B00021F83046FFF730FE336AEB604FF0010906
:1056C0003968D8F80430A5F80290AE6035628A785F
:1056D0009B789A4201D3304619E04046FFF75EFDC1
:1056E00031464046FFF75AFD0C4B1B6883F801908A
:1056F00086F801900AE0D8F8042092789A42B0D94E
:105700004046FFF74BFD3B6801225A70204600F0EF
:105710003DF9A6E7FF20BDE8F88300BF2422002062
:10572000E4210020438870B504460E46144D2BB981
:105730002A688260116AC160106203E08268296889
:105740008A4203D101336380002070BDB6B18B78EB
:105750009178994203D293708068FFF7C5FD626823
:1057600022B129682046FFF719FD03E02B6863602A
:105770005A609C600921304600F02CF9012070BD70
:1057800024220020034B00221A60034A1268DA80A8
:10579000704700BF18220020A869010808B50F4B08
:1057A0000F485A680F4B1968914205D01A60DA8881
:1057B000511E02680A449A809A8803889A420BD143
:1057C000084B064800221A60FFF700FDBDE80840BC
:1057D00001460248FFF7E2BC08BD00BFE4210020FB
:1057E0006C22002018220020426810B57AB1FFF721
:1057F000EDFC0446FFF790FD012161702046FEF7A5
:1058000079FF21460448BDE81040FFF7C7BC428835
:105810000132428010BD00BFE4210020054B1B78FF
:1058200023B9054B4FF080521A607047034B012299
:105830001A707047B516002004ED00E0B416002081
:105840001B4B186870B501231A4C4370FFF7D0FC4E
:1058500065782646A3780BB306EBC5035868027833
:105860001AB91989FFF770FC07E0012A03D199687A
:10587000FFF724FE01E0FFF7B7FFE37801359D4213
:1058800008BF0025EFF31083EFF3108272B6A27801
:10589000013AA270002BDDD162B6DBE7054B06486A
:1058A0005D70FFF793FCBDE8704000F055B800BF95
:1058B000242200205C1A0020E4210020084B1A68F2
:1058C000084B1A6000225A60072243F8042C064A4B
:1058D000136843F07F4313604FF0FF30704700BF01
:1058E000B869010814E000E020ED00E07047000016
:1058F00008B50B4B186801234370FFF779FCFFF7DD
:105900004DFF084A136801331360FFF7A1FCFFF74E
:10591000A3FB0548FFF75AFCBDE8084000F01CB89F
:10592000242200206C220020E4210020084B1B6868
:10593000DA78022A0AD01A6BDB6A9A4203D8126814
:10594000044B9A4202D00120FEF70EBF704700BF01
:1059500024220020A52E5AE2054B586002234370F2
:10596000044B1B681BB11B690BB1C06B1847704718
:10597000242200201422002008B50348FFF726FC4B
:10598000BDE80840FFF7E8BFE421002070B50446F9
:1059900018B9BDE87040FFF7EFBF0C4EA278306831
:1059A00083789A424FF0010508D9FFF721FC33684C
:1059B0005D702046BDE87040FFF7CEBF65702146A0
:1059C0000348BDE87040FFF7E9BB00BF2422002078
:1059D000E421002038B50D46014680B14FF6FF7333
:1059E0009842074C02D02068FFF70CFC236805485A
:1059F0005D70FFF7EBFBBDE83840FFF7ADBF38BD8A
:105A000024220020E4210020024B186800B1C07855
:105A1000704700BF2422002010B598B9194B1B68AD
:105A2000997083F82410184843689B788B4224D9D6
:105A3000144C2168FFF7B2FB236801225A70FFF76C
:105A40009BFF1AE0114B1B88984218D80138104B65
:105A500053F820409CB10B4BA1701B6884F82410B4
:105A60009C42E0D02046FFF73FFC6378012B04D135
:105A70000548FFF7ABFBFFF789FF002010BDFF20B3
:105A800010BD00BF24220020E42100202469010869
:105A9000201A00202DE9F84311F0FF0F0D46804633
:105AA00023481646994608BF0135FFF7A0FD044676
:105AB00008B9002638E01F4B06631B88DFF87CE03E
:105AC000280AA06200214E1CB342F2D30EEB8602DC
:105AD0000F4652F8042C3146002AF4D1EDB20123CE
