:020000040800F2
:1000000000800120D55B0008215C000869340008ED
:1000100071340008793400088134000800000000C1
:100020000000000000000000000000005144000833
:10003000215C000800000000E9440008F9440008C1
:10004000215C0008215C0008215C0008215C00089C
:10005000215C0008215C0008215C0008215C00088C
:10006000215C0008215C0008215C0008215C00087C
:10007000215C0008215C0008215C0008215C00086C
:10008000215C0008215C0008215C000800000000E1
:10009000000000000000000000000000215C0008DB
:1000A000215C0008215C0008215C0008215C00083C
:1000B000215C0008215C0008215C0008215C00082C
:1000C000215C0008215C0008215C0008215C00081C
:1000D000215C0008215C0008215C00080000000091
:1000E000215C0008215C0008215C00080000000081
:1000F000000000000000000000000000215C00087B
:1001000000000000215C0008215C0008215C000860
:1001100000000000000000000000000000000000DF
:10012000215C0008215C0008215C0008215C0008BB
:10013000215C00080000000000000000000000003A
:10014000000000000000000000000000215C00082A
:10015000215C0008215C0008215C0008215C00088B
:10016000215C0008215C0008000000000000000085
:10017000000000000000000000000000000000007F
:1001800000000000215C00080000000000000000EA
:10019000215C000810B5054C237833B9044B13B12A
:1001A0000448AFF300800123237010BD300D002000
:1001B000000000006C94010808B5034B1BB1034913
:1001C0000348AFF3008008BD00000000340D00209C
:1001D0006C940108A3F5803A704700BF174B002BC1
:1001E00008BF134B9D46FFF7F5FF00218B460F46D6
:1001F0001348144A121A0AF0DBFC0E4B002B00D0F5
:1002000098470D4B002B00D0984700200021040098
:100210000D000D48002802D00C4803F053FD09F0F2
:10022000D1FF2000290003F0F7FF03F0DFFE00BF3D
:100230000000080000000000754100080080012057
:10024000300D002060300020C53C00080000000098
:10025000F0B5002384681D4601269C420CD04268FC
:1002600052F82320916857680131B942916024BF48
:10027000167395600133F0E7F0BD034607C983E8C4
:1002800007007047704710B44268816854100346F5
:1002900001EB6200D20748BF0A591B685DF8044BA6
:1002A00048BFD3581847027B22B103680022DB689D
:1002B0000273184770470000034AC0E9002100227A
:1002C00082600273704700BFC07201087047C36844
:1002D00010B504460BB19B689847204610BD00003E
:1002E00038B50546064B45F8283B044602F061FA4E
:1002F0002846FFF7ECFF204602F0FAFA204638BD08
:10030000FC77010838B50546054B45F8103B044617
:10031000284602F04EFA2846FFF7E2FF204638BD95
:10032000B072010810B50446FFF7ECFF20465021DB
:1003300003F0AAFE204610BD10B50446FFF7D0FF1B
:100340002046402103F0A0FE204610BD30B52DED23
:10035000028B08EE103A1B4B826000F1100589B049
:10036000C0E900310446284602F0A6F91022164BD7
:1003700000930DEB0200154B03930021CDE901140E
:100380000AF016FC694604A8FFF777FFDFED107A44
:10039000039B079368EE277A17EE900A15F04AFE42
:1003A00002460B46284604A902F0E7F904A8FFF725
:1003B0008EFF6846FFF78BFF204609B0BDEC028B2D
:1003C00030BD00BFB0720108510200089C720108E4
:1003D000002474497047034607C983E80700704743
:1003E000704710B4426881685410034601EB620004
:1003F000D20748BF0A591B685DF8044B48BFD35861
:10040000184710B54FF48871044603F03DFE2046AE
:1004100010BD70B50446A4B1E068FFF7FAFF636B46
:10042000A56804F110061BB19B6804F128009847E9
:10043000304607F0B7FF2046382103F025FE2C4652
:10044000E9E770BD10B5064B03600446D0F84003E1
:10045000FFF7DFFF2046FFF739FF204610BD00BF42
:100460005874010810B50446FFF7ECFF20464FF41E
:10047000547103F009FE204610BD38B5044672B62B
:10048000FF25206901F0ECFF78B3D4F81831D4F8D7
:100490001C110133B3FBF5F2C2EB02229B1A8B4213
:1004A00023D0206901F014FFD4F81831D4F81C11BE
:1004B0000133B3FBF5F2C2EB02229B1A8B42E0D070
:1004C000D4F818312344C0B21876D4F81831013367
:1004D000B3FBF5F2C2EB02229B1AC4F81831D4F830
:1004E00020310133C4F82031CBE762B638BD0000BB
:1004F000F7B50546382003F09DFD00F118030361B0
:10050000D5E904630446F7181EB917B1174807F078
:10051000F5FE0F2B019308D9002201A904F1100068
:1005200007F01CFF019B2061A36120693A46314618
:1005300007F040FF019B226963610021D15404F15F
:100540002803102218460AF033FB6A6B1AB152686E
:1005500005F1280190476B6B63632B78237020466D
:100560000023C4E9023303B0F0BD00BFD07201081C
:10057000F8B505460E46FFF7BBFF46600446E8683F
:1005800018B12146FFF7F4FFE060AE68274676B168
:100590003046FFF7ADFFB86047600546F06818B118
:1005A0002946FFF7E5FFE860B6682F46EFE72046EB
:1005B000F8BD00002DE9FF4104460D460021164616
:1005C000DFF8CC80FFF778FE2E4B23602561FF22F9
:1005D00000250021FE27C4F8148004F118000AF059
:1005E000E7FAC4F81851FF22C4F81C712946C4F870
:1005F0002051C4F8248104F594700AF0D9FA04F566
:100600000D73C4F828522946C4F82C724FF4807236
:10061000C4F8305218460AF0CBFA04F54F71C4E919
:10062000D051C4F83403B06884F83C53C4E9D215FF
:10063000A0B1FFF79DFF03461A469B68002BFBD134
:10064000C4F8442303461A46DB68002BFBD17369C8
:10065000C4F84823C4F84C33C4F840030A4B009351
:1006600000220A4B206903936946CDE9012401F079
:1006700091FF039B13B19B6868469847204604B0DE
:10068000BDE8F081587401087B0400084473010838
:100690003C730108D0F8082110B50132D0F80441AC
:1006A000FF23B2FBF3F1C1EB0121521AA24215D094
:1006B000D0F808210132B2FBF3F3C3EB0323D31AC2
:1006C000C0F80831D0F8083103441B79D0F80C2168
:1006D000013ADBB2C0F80C21184610BD0023FBE73D
:1006E0002DE9F043D0F81C31D0F818110133FF2266
:1006F000B3FBF2F2C2EB02229B1A8B42ADF5097DED
:1007000004460BD01430FFF7C5FF2328064609D155
:1007100084F8340204F23523C4F834330DF5097D2E
:10072000BDE8F083D4F8343304F54D729342F5D02C
:100730000A286FD113F8032C3B2A6BD113F8022C33
:100740003B2A67D113F8013C0D2B63D104F50D78DA
:10075000344908AB01AA40460AF0E0FC022857D110
:1007600002AA01A948A807F081FE04F54F79D4F840
:1007700040734D4667B107F1100048A907F02EFEFF
:10078000D7E902320028AABF3D4617461F46F1E7C7
:10079000A94508D005F1100148A807F01FFE35EA69
:1007A000200528BF4D4648A807F0FCFD4D452FD039
:1007B0001D4B48AA03F1100C18685968174603C767
:1007C000083363453A46F7D11B883B80EE2200216F
:1007D0000DF599700AF0ECF96A4648A902A807F0ED
:1007E00045FE6B6B05F128002BB91049104840F20B
:1007F0003B2202F067FF1B6848AA08A998470D49E9
:10080000206948AB01AA01F0CEFD02A807F0CAFD9D
:10081000C4F83483D4F834331E70D4F8343301333D
:100820007AE700BFFA7201085073010804730108E7
:10083000237301082873010843691A6803691A427F
:1008400016BFC26982691B041360704710B5034B61
:1008500003600446FFF73AFD204610BD707401089E
:1008600010B50446FFF7F2FF20462C2103F00CFCE4
:10087000204610BD82B070B5064604AC84E80C007A
:100880003446FFF719FD04AD084B44F8103B0FCD7B
:100890000FC495E8070084E807003046B369326961
:1008A0001A60BDE8704002B0704700BF7074010864
:1008B00010B5034B03600446FFF708FD204610BD4A
:1008C000AC74010810B50446FFF7F2FF204618216A
:1008D00003F0DAFB204610BD437B10B504466BB134
:1008E000006903685B68984714F0D4FF02460B4622
:1008F00060690349BDE8104001F055BD10BD00BF5F
:100900008074010870B504461D461646FFF7D4FCF6
:10091000034B23600023C4E904656373204670BD64
:10092000AC74010837B5002305461446084601AAF1
:100930000A4901930AF0F2FB01280CD1019B0849F6
:10094000002BD4BF002301236B73204603B0BDE806
:1009500030400AF0D3BD0349F7E700BFB67D010878
:100960008C7401089274010807EE901A90ED087AD1
:10097000B4EEE77AF1EE10FA09D890ED097AB4EE08
:10098000E77AF1EE10FAACBF01200020704700209A
:10099000704700000000000010B50446084614F03F
:1009A00079FF09A3D3E9002314F0CCFF08A3D3E90E
:1009B000002314F011FE15F0BDFA0146201DBDE81C
:1009C000104001F04FBC00BF40BD19355F254F3FBF
:1009D000DD2406819543B33FF8B505461E460A4B14
:1009E00045F8043B04461746284601F005FC284616
:1009F00027626662142101F010FC2846034901F0C9
:100A000031FC2046F8BD00BFC4740108AC1C9A3DFF
:100A100010B5034B034A0446FFF7DEFF204610BD26
:100A20000000B8410000B8C110B5044B044640F8BE
:100A3000043B01F031FC204610BD00BFC474010826
:100A400007EE901A90ED2A7AB4EEE77AF1EE10FAFA
:100A500009D890ED2B7AB4EEE77AF1EE10FAACBF3C
:100A60000120002070470020704707EE901AF5EE35
:100A7000C07AF1EE10FA036A0CD5C26A1B04136047
:100A8000436CC26B1A60F0EEE77A17EE901A0430EE
:100A900001F0E8BB826A1360C36B826C1B041360B5
:100AA000F1E70000036AC26A04491B041360C36BC8
:100AB000826C1B041360043001F0D4BB0000C842F8
:100AC00038B51C2204460D4600210AF071F8204674
:100AD000294602F046F9204638BD0000F8B5054623
:100AE0001E46124B45F8043B04461746284601F0C3
:100AF00083FB394604F12000FFF7E2FF314604F1A1
:100B00003C00FFF7DDFFBDF9181004F1580001F0BB
:100B100055FB079BC4F8A830089BC4F8AC302846A6
:100B2000C82101F088FB2046F8BD00BFD47401083D
:100B300010B5044B044640F8043B01F0ADFB2046E1
:100B400010BD00BFD4740108704710B5044600689A
:100B500010B10368DB689847204610BD014B586A06
:100B600000B2704700080040014B00225A627047F3
:100B70000008004010B50421044603F085FA204621
:100B800010BD0000184A136B43F002031363174BA8
:100B9000196841F420411960596841F0C001596059
:100BA000996841F470419960D96841F42041D96055
:100BB000196A41F008511962596A5962136C43F07D
:100BC000040313640A4B01221A6003229A604FF255
:100BD000F1129A6111210022DA6119624FF6FF7158
:100BE0009A62D9625A62704700380240000402409B
:100BF0000008004010B5084C236853B9042003F0E6
:100C000019FA064A02602060FFF7BCFF044B226815
:100C10001A60206810BD00BF4C0D0020E874010868
:100C2000500D0020024A0349034803F049B800BFB1
:100C3000980100204B0B0008500D00200020704749
:100C400010B50446406803681B68984720816068B7
:100C50000368BDE810405B681847B0F908007047AA
:100C6000B0F9083007EE103A038A07EE903AB8EE72
:100C7000C77AF8EEE77AC7EE276AD0ED037AC6EEB8
:100C8000A77A17EE900A704713B50446FFF7D8FF0E
:100C9000B4F90830A06E07EE903A0368F8EEE77AF0
:100CA00001A9CDED017A1B68984707EE900AFDEE89
:100CB000E77A17EE903A18B214F0DAFDC4E9180199
:100CC00002B010BD08B5D0E9180115F0EBF800B27C
:100CD00008BDA0F15800FFF7F5BFD0B50446008A63
:100CE00014F0C6FD02460B46D4E9180114F054FF77
:100CF0000646E0680F4614F0CDFD02460B4630462E
:100D0000394614F049FF15F015F9D0BDA0F158008F
:100D1000FFF7E3BF034607C983E807007047704742
:100D200010B4426881685410034601EB6200D20798
:100D300048BF0A591B685DF8044B48BFD358184791
:100D400010B5044602F010F80146204601F0CCFC34
:100D5000014B2360204610BD0075010810B5044604
:100D600009482382C4E90002E16004F11800FFF79A
:100D7000E7FF064B03F108022833A365029B2260BC
:100D8000A366204610BD00BF20750108307501081C
:100D900010B5034B03600446FFF7A2FA204610BDCE
:100DA0000075010810B50446FFF7F2FF2046402108
:100DB00003F06AF9204610BD10B52DED028B0C2210
:100DC00088B00123CDE900231022154B90ED038A52
:100DD0000290044600210DEB0200039309F0E8FEA7
:100DE000694604A8FFF796FFDFED0E7A039B079391
:100DF00068EE277A17EE900A15F01CF902460B46AA
:100E000004F1180004A901F0B8FC04A8FFF75FFA88
:100E10006846FFF75CFA08B0BDEC028B10BD00BF5E
:100E20000C7501080024744903624FF42063838425
:100E30004FF07C5383624FF03F4310B5C362064BC3
:100E40000363064B4363064B8363029BC363039BAD
:100E50000364C0E9001210BD000020410000F04111
:100E600000009643C0E902237047D0E904017047AF
:100E7000406803685B6818472DE9F843056A044633
:100E800016461F4665B11046194615F053F82B68F3
:100E900001461B682846984714F0FCFC06460F469E
:100EA000E06A14F0F7FC32463B468046894614F06F
:100EB000D9FF40B194F82430013384F824304046FF
:100EC0004946BDE8F883A06A14F0E4FC32463B468C
:100ED0008046894614F0A8FF0028EBD1002384F84F
:100EE0002430B046B946EAE72DE9F04304460068ED
:100EF0002DED028B036883B05B68984708EE100AFB
:100F0000206803689B689847D4ED0E7AF0EEC88A93
:100F1000F4EEE87AF1EE10FA05460CD50022002333
:100F2000C4E90223C4E904234FF0FF3003B0BDEC51
:100F3000028BBDE8F083D4E90289206B29F00047D9
:100F400014F0A8FC42463B46464614F08BFF70B1B5
:100F5000D4ED0D7AF4EEE87AF1EE10FA07DD002216
:100F60000023C4E90423C4E906230120DEE7002DA1
:100F70003BD03046394614F0DDFF07EE900A666834
:100F800077EEC87A336817EE900A1F6814F082FC77
:100F900080468946CDE9008969463046B84714F055
:100FA000C9FF14F077FC02460B462046FFF764FFAA
:100FB00014F0C0FF94F8242094F825309A4217D9F1
:100FC000B5EE408AF1EE10FA12D1606803685B68F2
:100FD000984700230022C4E90223C4E90423002324
:100FE00084F824306FF00100A0E740464946C2E78C
:100FF00014F050FC06460F46C4E90467C4E90689AC
:10100000D4E902010022002314F00EFF0028ACD026
:10101000002DAAD007F1004326616361A5E770B5F2
:1010200014461D460646C06B14F034FC22462B467F
:1010300014F004FF48B1306C14F02CFC22462B460F
:1010400014F006FF003818BF012070BD034607C921
:1010500083E807007047704710B4426881685410F5
:10106000034601EB6200D20748BF0A591B685DF8CE
:10107000044B48BFD358184770B5037F012B044673
:1010800002D0022B44D070BDC068616903681B6840
:101090009847637F002B36D0256A002D33D094ED1E
:1010A000047ADFED237A67EE277A17EE900A14F0C0
:1010B000F1FB02460B462846FFF7D4FE206AFFF7F5
:1010C00013FF431C0DD11B49606801F06CF9A06847
:1010D00003685B689847206AFFF7CAFE02232377FC
:1010E000D1E7023001D11449EEE7A568206A2B68E8
:1010F0001E68FFF7BAFE14F01DFF3346014628466E
:10110000BDE870401847A068216903681B68F7E7CD
:10111000C068616903681B689847A06803685B68DA
:101120009847206A0028AED0BDE87040FFF7A0BE07
:1011300000001643607501088E75010810B504465D
:101140000C48A360029BE3600023236163610023DA
:101150006377039B2362C4E90002A16101F004FEEE
:10116000014604F1280001F0BFFA034BA3622046B8
:1011700010BD00BF6C7601080075010837B5044644
:101180001546084601AA184909F0C8FF012829D1C7
:10119000637F8BB19DED017ADFED147A67EE277ADC
:1011A00017EE900A14F076FB02460B46206AFFF712
:1011B00036FF88B90E4906E0A068019903689B686C
:1011C000984730B90B49284603B0BDE830400AF0D3
:1011D00095B9637F002BDDD1019B23610123064973
:1011E0002377F0E70549EEE7A375010800001643F1
:1011F000C6750108A67501088C740108927401086F
:1012000073B505461446084601AA0D4909F086FF44
:101210000128064611D1E868019903685B68984780
:1012200030B90849204602B0BDE870400AF066B9FE
:10123000019B05496B612E77F4E70449F2E700BF93
:10124000A3750108E87501088C74010892740108FF
:1012500037B504461546084601AA114909F05EFF54
:1012600001281AD1E068019903685B68984730B992
:101270000C49284603B0BDE830400AF03FB90023CE
:101280002361206A019B63610223237718B1002246
:101290000023FFF7E7FD0449EBE70449E9E700BF56
:1012A000A3750108E87501088C740108927401089F
:1012B00037B5002304461546084601AA0E49019396
:1012C00009F02CFF012814D1236A33B90B492846B1
:1012D00003B0BDE830400AF011B900232361019B3F
:1012E0000749002BD4BF0023012363770223237710
:1012F000EDE70449EBE700BFB67D01081176010870
:101300008C7401089274010810B52DED028B88B021
:10131000102200210123CDE9001390ED068A134B22
:10132000029004460DEB0200039309F041FC69466C
:1013300004A8FFF78BFEDFED0E7A039B079368EEA0
:10134000277A17EE900A14F075FE02460B4604F158
:10135000280004A901F011FA04A8FEF7B8FF6846B6
:10136000FEF7B5FF08B0BDEC028B10BD5876010842
:1013700000247449034607C983E807007047704793
:10138000034607C983E8070070477047034607C94B
:1013900083E807007047704770B44468856866103A
:1013A000034605EB6400E40748BFAC591B6848BF1F
:1013B000E35870BC184770B44468856866100346EB
:1013C00005EB6400E40748BFAC591B6848BFE3580D
:1013D00070BC184770B4446885686610034605EB16
:1013E0006400E40748BFAC591B6848BFE35870BCB1
:1013F00018470000D0ED056ADFED0F7AC0ED066AF0
:1014000091ED006AD0ED025A80ED056AB0EE677A80
:10141000A6EE257A90ED036AA6EE267AD0ED046A50
:1014200090ED016AE6EE267A77EE677AC0ED047AEF
:1014300017EE900A704700BF0000000010B5034B84
:101440000360044601F0E2F8204610BDCC770108A5
:10145000D0B5D0ED017A2DED028B08EE101AF4EE26
:10146000C87AF1EE10FA00F10C040BDA00F1140462
:1014700006D5D0ED027AB4EEE78AF1EE10FA01D982
:1014800000F11C04206814F005FA064618EE100A54
:101490000F4614F0FFF902460B463046394614F069
:1014A00051FA064660680F4614F0F4F902460B46FE
:1014B0003046394614F090F814F03CFDBDEC028B38
:1014C000D0BD000010B5044B044640F8283BFFF7A0
:1014D0005FFC204610BD00BF6C76010810B5054BBF
:1014E0008365054B044640F8183BFFF751FC204646
:1014F00010BD00BF587501082075010838B50546B4
:101500000024AB68A34207D96B6853F82400036832
:101510009B6898470134F4E738BD000070B5164C5D
:10152000164D174E20464FF47A3100F085FF1549CD
:10153000204600F038FF2946204600F034FF3146AF
:10154000204600F030FF1049204600F02CFF3146C5
:10155000204600F028FF2946204600F024FF0B49D2
:10156000204600F020FF0A48FFF726FC0948FFF755
:10157000CBFE002070BD00BFA00F002075760108D3
:1015800089760108707601089D7601087276010857
:10159000C80E0020380F002010B5FFF7BFFF04462B
:1015A00020B9064C2046FFF7A9FFFBE70246044995
:1015B000044800F0F8FE204610BD00BFD013002004
:1015C000B1760108A00F0020C36810B504460BB126
:1015D0009B689847204610BD70B5044694B1E068FA
:1015E000FFF7FAFF04F1100604F12800A568FFF7E1
:1015F000EBFF304606F0D6FE2046382102F044FDCF
:101600002C46EBE770BD10B504468068FFF7E4FF99
:10161000204610BD30B500240025C0E90045C0E9D2
:101620000245C0E90445D1E90045C0E90045D1E9DA
:101630000245C0E90245D1E90445C0E9044530BD91
:10164000D1E90223C0E90623D1E90423C0E9082334
:10165000D1E90023C0E90A23704700002DE9F04FCB
:101660002DED0E8B9FB00BAB01930AAB009383461D
:101670009246084609AB7A4908AA09F04FFD0428AA
:1016800040F0E480089814F005F9064609980F46E2
:1016900014F000F941EC180B0A9814F0FBF841EC37
:1016A000190B0B9814F0F6F804460D4602460B464B
:1016B0003046394614F046F953EC192B13F08CFFE1
:1016C000DBE9188941EC1A0B42464B462046294675
:1016D00014F038F953EC182B14F034F9424641EC6D
:1016E0001B0B4B463046394614F02CF9224641EC90
:1016F0001C0B2B462046294613F06EFF224641EC78
:101700001D0B2B4651EC1A0B14F046FA53EC1C2B14
:10171000CDE90C0151EC1B0B13F05EFF53EC1D2BBC
:1017200041EC1E0B3046394614F00CF902460B46CC
:1017300051EC1E0B13F04EFF53EC192B06460F46CF
:1017400019EE100A194613F047FF02460B463046C1
:10175000394613F03FFF22462B4614F01DFA42464D
:10176000CDE90E014B464046494614F0EBF853ECE8
:10177000182B14F0E7F853EC1A2B13F02DFF53EC51
:101780001B2B13F027FF53EC1C2B13F023FF2246D7
:101790002B4614F001FA334B0022CDE91223CDE998
:1017A000100142464B4651EC1D0B13F013FF22462D
:1017B0002B4601F1004114F0EFF94246CDE9140146
:1017C0004B462046294613F005FF22462B4614F0CF
:1017D000E3F90BF1080BCDE916010CA918A8FFF7E6
:1017E00019FF18AC5A461EAD234603CBAB4210601E
:1017F00051601C4602F10802F6D112A918A8FFF7A1
:1018000009FF18A95846FFF71BFF089814F042F883
:1018100002460B460B98CDE9062314F03BF8CDE9C0
:1018200004010A9814F036F8CDE90201099814F081
:1018300031F8DDE90623CDE900010B49504609F0F6
:101840004DFC1FB0BDEC0E8BBDE8F08F0749504634
:101850001FB0BDEC0E8BBDE8F04F09F04FBE00BFCE
:10186000C87601080000F03FD5760108927401089F
:1018700013B50DF1080C0CE90C00019B0260C0E9E6
:101880000131024BC36002B010BD00BF40770108B8
:1018900038B50D4610220021044609F089F9EB689D
:1018A0001BB15B68294620469847EB68E3602046F9
:1018B00038BD00F10803F7B50360044608460D463D
:1018C000164609F07DFE0F2805EB0007019007D9A9
:1018D000002201A9204606F041FD019B2060A36083
:1018E00020683A46294606F06FFD2046019B50F8D5
:1018F000182B63600021D1543146FFF7C9FF204601
:1019000003B0F0BD08B506F069FDC00F08BD2DE9B4
:10191000F0418D6804460F4690460E1D012065B1CA
:1019200005F110014046FFF7EDFFD5E9023200282E
:101930002E460CBF15461D46F1E7A0B1FB68B34229
:1019400004D1256066602046BDE8F081304606F08F
:10195000EBFB0546414605F11000FFF7D3FF20B130
:1019600000232360EEE73546F4E7C4E90050EAE7D8
:1019700000F10803F7B50360D1E9006304460D46A2
:10198000F7181EB917B1104806F0B8FC0F2B0193D9
:1019900007D9002201A9204606F0E0FC019B206047
:1019A000A36020683A46314606F004FD2046019BBC
:1019B00050F8182B63600021D15405F11801FFF78E
:1019C00067FF204603B0F0BDD07201082DE9F04159
:1019D000054638200E4602F02DFB05F110010446A5
:1019E0001030FFF7C5FF2B78E86823700023C4E9A7
:1019F0000233666018B12146FFF7E8FFE060AE6889
:101A000027464FF00008BEB1382002F013FB06F164
:101A1000100105461030FFF7ABFF33782B70C5E996
:101A20000288BD606F60F06818B12946FFF7CEFFED
:101A3000E860B6682F46E6E72046BDE8F081000082
:101A40002DE9F04F2DED068B4FF41653E9B003222C
:101A50000221BF48BF4F00F031FCBF4ABF49BC481C
:101A600002F02EF94FF07C534FF0000802934FF034
:101A70003F430193CDF8008015230A221321B84873
:101A8000FFF72CF8B44AB749B54802F019F92721F5
:101A900038460DF1B009FEF7BBFFAF4AB2493846F0
:101AA00002F00EF91C224146484609F081F82EAD9D
:101AB0000521484601F055F90FCD6C460FC42B683F
:101AC000236099E80C0041F28831A848A84CA94D40
:101AD000FEF7D0FEA04AA849A44802F0F1F8A74BAF
:101AE0002360A74B6360A74BA360E36000232361DF
:101AF0006361A361A44B19680691FFF77BF84FF46B
:101B00000063024606990094A048FFF727F9924A1D
:101B10009F499E4802F0D4F88D4B9C4A9D48642111
:101B2000FEF7F0FE8C4A9C499A4802F0C9F80FCDA6
:101B300026AC0FC495E8030026AE84E803000FCE60
:101B40004D460FC594E80300944E954B336085E8ED
:101B50000300944B7360CC46934BB360BCE80F001A
:101B600006F10C040FC495E80300874B84E80300DA
:101B700018688E4C13F08EFE824620468C4B40F83F
:101B8000083B9FED618B8B461822414609F010F807
:101B900000220023C4E90823C4E90A23C4E90E2370
:101BA000C4E91023C4E91223C4E91423C4E91623A9
:101BB00084ED0C8B56A3D3E900235046594613F00D
:101BC000C1FE55A3D3E9002313F0BCFE54A3D3E90F
:101BD000002341EC190B5046594613F0B3FE52A3B3
:101BE000D3E9002341EC1A0BCDE91A2302460B4638
:101BF00051EC190B13F0F0FC4DA3D3E9002313F0C3
:101C0000E9FC4DA3D3E9002313F0E4FC40A3D3E99E
:101C1000002313F0C1FF5246CDE91C015B4650463C
:101C2000594613F08FFE3CA3D3E9002313F08AFE3C
:101C300043A3D3E9002313F0CFFC53EC192B13F08B
:101C4000C9FC53EC1A2B13F0C5FC31A3D3E90023D4
:101C500013F0A2FF5246CDE91E015B463AA1D1E93D
:101C600000018DED208B13F0B5FC29A3D3E90023EF
:101C700001F1004113F090FF5246CDE922015B468D
:101C800023A1D1E9000113F0A5FC21A3D3E900238E
:101C900013F082FF1AAACDE9240111464846FFF746
:101CA000B9FCCE46BEE80F0004F1080CACE80F000A
:101CB00095E8030020AA8CE8030011464846FFF788
:101CC000A9FC04F108004946FFF7BAFC394D3A4B2C
:101CD00001933A4B2D490093284633462246FFF79D
:101CE000A3F8CDE9007528491D4B194A0968344805
:101CF000FFF724FA184A3349314801F0E1FF324B2B
:101D00002F49CDE92C3861E0000000000000F03FD1
:101D10007B14AE47E17AA43FEC51B81E85EBE93F56
:101D2000713D0AD7A370BD3F946588635DDCBE3FFB
:101D30004850FC1873D7823F0188BB7A15193D3F84
:101D4000882CD2C43BC0733F7B14AE47E17AB43FCA
:101D5000A00F0020A4130020980100203D140008CB
:101D6000140E0020310B0008290A00086C0D002019
:101D7000E00D00204C7701084D08000808770108A5
:101D8000721C47BF398EE33D9C010020C80E002025
:101D9000DD140008FC0D0020B108000888140020A4
:101DA00014770108D7FA62BED7FA623E20140020E9
:101DB00020770108980D002000006143000061C3F6
:101DC000380F0020C51400087D11000820A899E8EC
:101DD0000C00FFF74DFD794920AA4846FFF769FD41
:101DE000774B784916AEC6E900381AA896E80C0079
:101DF000FFF73EFD74491AAA36A8FFF75AFD734B48
:101E0000704912AFC7E90038304697E80C00FFF779
:101E10002FFD6F49324640A8FFF74BFD6D4B6949D6
:101E20000EADC5E90038384695E80C00FFF720FDF7
:101E300069493A464AA8FFF73CFD684B6849C5E93D
:101E40000038684BAB60684BEB602A4654A8FFF73C
:101E500030FD664B0C94664C6649CDE90A380AAAF7
:101E6000654B0D935EA8FFF724FD231DC4E90333E2
:101E7000062384F80480C4F80880C4F8148006930C
:101E8000C84663694BB1D4F810A041460AF110006E
:101E9000FFF738FD002840F08C804246214608A814
:101EA000FFF735FDDDE9083ABAF1000F1BD0002B32
:101EB0007CD1524B9A4579D00AF110014046FFF788
:101EC00021FD8346382002F0B5F8414607901030D6
:101ED000FFF74EFD494B07995246584606F03EF92A
:101EE000636901336361069B013B08F1280806938F
:101EF000C7D10DF5D078A8F1280808F11800FFF730
:101F000063FB404606F04EFAC845F4D10AA8FFF735
:101F10005BFB2846FFF758FB3846FFF755FB30467A
:101F2000FFF752FB1AA8FFF74FFB20A8FFF74CFB67
:101F30003349344A2E4801F0C3FEA06800232DA97E
:101F4000CDE92F118DF8B4302E93319388B1FFF77E
:101F50003DFD03461A469B68002BFBD12F9203469A
:101F60001A46DB68002BFBD1214B30925B69319321
:101F70002E904A4624492548FEF71CFB2E98FFF771
:101F80002BFB204A2249214801F09AFE214B22498D
:101F900022480322FEF7DAF91A4A21491F4869B09C
:101FA000BDEC068BBDE8F04F01F08ABE4FF0010B8F
:101FB00088E7BAF1000F7FF47CAF94E7F37601086D
:101FC00001120008380F0020F576010851120008B0
:101FD000F7760108B1120008757A01082509000892
:101FE000F9760108FC0D0020347701085D16000821
:101FF000540D0020FB76010828770108580D0020B9
:102000000716000898010020A00F0020541000209F
:102010004504000817B7D138A0010020D0130020D4
:102020000503000810B50446FFF708FA2046B4215E
:1020300002F02AF8204610BDD0E90E232DE9F04722
:10204000C0E91023D0E90C23C0E90E23D1E9002315
:10205000C0E90C238246064600F11807002400253B
:102060003146D1E90023D1E90C0113F06BFC0246A3
:102070000B462046294613F0AFFA0836B74204460D
:102080000D46EDD1DAE90823DAE9140113F05AFC20
:10209000DAE91289DAE9062306460F464046494640
:1020A00013F050FC0022002313F096FA02460B4670
:1020B0003046394613F090FA02460B462046294630
:1020C00013F088FADAE90A2313F066FD02460B469C
:1020D000CAE91489CAE91223BDE8F08708B50830B7
:1020E000FFF7AAFF08BDF0B5002487B00025CDE9B1
:1020F0000045CDE90245CDE9044503466F4600F1B0
:1021000030060DF1180C3A4603CA62453060716022
:10211000174606F10806F6D1C3E91245C3E914458E
:1021200007B0F0BD08B50830FFF7DDFF08BDFFF7C9
:1021300087BC704710B55021044601F0A5FF20462A
:1021400010BD0000F8B50546064655F8044B8CB99D
:102150000D4F386818B14FF0FF3102F0AFFF34680F
:1021600024B9284601F0C2FF2C463560386808B112
:1021700002F0BCFFAC4204D0044905488B2201F0B8
:10218000A1FA2046F8BD00BFA0270020647701080F
:102190008777010808B50348FFF7D4FFBDE808407A
:1021A00001F0ACBFAC14002008B50348FFF7CAFF2C
:1021B000BDE8084001F0C0BFAC14002037B50546AB
:1021C000084B45F8043B04460191FFF7E3FF0199F2
:1021D000284603F027FD2046FFF7E6FF204603B020
:1021E00030BD00BFB4770108C36810B504460BB119
:1021F0009B689847204610BD07B5002303760191E0
:10220000009001F00BFBDDE9000105F0B7FA01F0E9
:102210001BFB009803B05DF804FB07B5CDE9001087
:1022200001F0FCFADDE9001005F06CFB03B05DF88D
:1022300004EB01F009BB07B5CDE9001001F0EEFA9F
:10224000DDE9001005F0FEF903B05DF804EB01F0E4
:10225000FBBA037E10B504461BB901F04BFC012309
:10226000237610BD07B5CDE9000101F0D7FA00983B
:10227000FFF7EFFFDDE9000105F05EF903B05DF85F
:1022800004EB01F0E1BA037E10B504461BB101F086
:1022900047FC0023237610BD07B5019001F0BEFA7C
:1022A000019805F043F90198FFF7EDFF01F0CCFA32
:1022B000019803B05DF804FB7047000010B50446B8
:1022C00000F0FEF8014B2360204610BDCC770108DA
:1022D00038B5036804461B689847204600F0D1F8DB
:1022E000236805465B6820469847284638BD37B5C1
:1022F0000368019104461B6898470199204600F045
:10230000C3F8236805465B6820469847284603B013
:1023100030BD036837B51B680D4604469847013D3C
:1023200015F8011F19B12046FFF7E1FFF8E7236810
:10233000019120465B6898470199084603B030BD7B
:102340002DE9F0410368A0B00E4617461B6804460D
:1023500098473B463246012101A810F0A5F977289D
:10236000054610DC31463A4602A810F0D5F902A91C
:102370002046FFF7CEFF236820465B689847284633
:1023800020B0BDE8F081013001F068FE3A46804699
:10239000314610F0C1F941462046FFF7BAFF4046EA
:1023A00001F074FEE7E70EB403B503AA52F8041B6C
:1023B0000192FFF7C5FF02B05DF804EB03B0704770
:1023C0006FF01500704703681B69184703689B6925
:1023D000184703689B6A184700290CBF6FF0180064
:1023E00000207047012070476FF0150070476FF0B4
:1023F0001500704770477047416830B4034671B1AB
:10240000D0E9032000F0010402B944B1451001EB0A
:1024100060000CB149598A58996830BC104730BCEB
:10242000704700EB0113D3F89C3023B109311B68CE
:1024300000EB01101847704770B50646044656F881
:10244000443B0D461B6898473046294605F028FC5A
:102450002368C4F8B05020465B68BDE87040184758
:1024600038B50546044655F8443B1B68984728464E
:1024700005F0CAFB236805465B6820469847284656
:1024800038BD443004F010BE10B544300C4604F0A2
:102490001DFE204610BD884238B504460D460ED0BC
:1024A000FDF715FF10220021204608F081FBEB68A4
:1024B0001BB15B68294620469847EB68E36038BD4E
:1024C0002DE9F04F87B0002501932F4B03601026B4
:1024D0002E4B43600446C0E90355C0E905558846C4
:1024E00091468583324629468060203008F060FBA3
:1024F00004F144073246294604F1300008F058FB45
:1025000004F1900A2946A4F840504C22384608F0BD
:102510004FFB04F1A00B32462946504608F048FB19
:1025200032462946584608F043FB019BC4F8B030B8
:102530003246294602A808F03BFB02A95046FFF7A5
:10254000AAFF02A8FDF7C3FE3246294602A808F0FA
:102550002FFB02A95846FFF79EFF02A8FDF7B7FE22
:102560004A464146384605F0C1FBD4F8B01038461B
:1025700005F096FB38460649224604F039FD204610
:1025800007B0BDE8F08F00BFE4770108F923000829
:10259000232400082DE9FF410646154656F8443B22
:1025A0000F461B680446984701F038F92B01234475
:1025B000FA68D3F89C3005F10908AAB10BB901F00B
:1025C00099FA394604EB0810FFF765FF01223046FF
:1025D000294604F019FD01F037F923685B682046AD
:1025E00004B0BDE8F04118470BB101F099FA102290
:1025F0000021684608F0DCFA694604EB0810FFF792
:102600004AFF6846FDF763FE0022E0E71FB51A4B5C
:102610000360044610220021684608F0C9FA00222F
:1026200069462046FFF7B6FF6846FDF750FE1022C8
:102630000021684608F0BCFA012269462046FFF7EF
:10264000A9FF6846FDF743FE04F1A000FDF73FFE39
:1026500004F19000FDF73BFE04F13000FFF7C4FDEC
:1026600004F12000FFF7C0FDA06908B100F0F2FE00
:10267000204604B010BD00BFE477010810B5044641
:10268000FFF7C4FF2046B42101F0FEFC204610BD38
:1026900070B5D0E90813D0E902250446521845EB7D
:1026A000030300F015F9636B2BB104F128001B68DC
:1026B000BDE87040184770BD10B5044600F0DAF868
:1026C000084B236000220023C4E9082300211022C4
:1026D00004F1280008F06CFA012384F83830204611
:1026E00010BD00BFFC77010838B504460D4600F068
:1026F000D9F80A4B236000220023C4E908230021F3
:10270000102204F1280008F053FA2B6893F82030C7
:1027100083F0010384F83830204638BDFC77010887
:1027200070B5044615461E4601F078F8204600F0C4
:10273000D9F8C4E90856A06900F01BFE421946EB1F
:102740000103204600F0C4F8BDE8704001F07CB8F9
:10275000884238B504460D460ED0FDF7B8FD10226C
:102760000021204608F024FAEB681BB15B6829467B
:1027700020469847EB68E36038BDF8B504461D462F
:102780000F46164601F04AF8636B23B994F83830C7
:102790000BB101F0AFF9394604F12800FFF7D8FF7B
:1027A00032462B462046FFF7BBFFBDE8F84001F05C
:1027B0004BB81FB5044601F031F8204600F092F8FE
:1027C000636B23B194F838300BB101F0A9F91022F2
:1027D0000021684608F0ECF9694604F12800FFF78B
:1027E000B7FF6846FDF773FD04B0BDE8104001F087
:1027F0002BB8000010B5034B03600446FDF770FDD5
:10280000204610BD1078010810B50446FFF7F2FF0E
:102810002046402101F038FC204610BD1FB504467B
:1028200010220021684608F0C3F9636B23B15B688E
:1028300004F1280168469847636B03932046FFF72D
:10284000B8FF039B2BB90749074840F23B2200F031
:1028500039FF1B68684698476846FDF738FD04B0A5
:1028600010BD00BF047301082373010803689B684F
:1028700018470000094B10B5002203600023C0E98F
:1028800002230023C0E90433044600F087FD044915
:10289000A06100F0E7FC204610BD00BF24780108CD
:1028A0006D28000810B50446074B23600022002362
:1028B000C4E9022300230846A161C4E904330349A3
:1028C00000F0D0FC204610BD247801086D280008D7
:1028D00007B5009000F10801806900F002FD03B027
:1028E0005DF804FB00F10801806900F027BD0000DD
:1028F00010B5034B03600446FFF7F4FF204610BDFC
:1029000024780108036801221B6900211847036825
:1029100000221B6911461847034607C983E80700D0
:102920007047704710B4426881685410034601EB49
:102930006200D20748BF0A591B685DF8044B48BFC4
:10294000D358184738B504460D4600F067FF94F891
:1029500057302BB994F8563013B994F854307BB1F2
:1029600004F10800FFF725FF002384F85530A4F890
:1029700056300DB12046A847BDE8384000F064BF8E
:10298000A36CDB689847F7E710B5044600F046FFF4
:10299000A36C9B689847BDE8104000F055BF10B588
:1029A000044600F03BFFA36CDB689847BDE810408D
:1029B00000F04ABF10B5044600F030FF012384F850
:1029C0005730A36C5B699847BDE8104000F03CBFEE
:1029D00013B5044600F022FFA36CDB699847019011
:1029E00000F032FF019802B010BD000038B5044677
:1029F00000F011FF20B914491448C22200F062FE11
:102A000004F10800FFF7D5FE0023C4E9173384F86A
:102A10005530A4F856306366A36C012584F85850ED
:102A2000DB699847436802681F2B9ABF9D4005F1F8
:102A3000FF354FF0FF3502F5742303F23F23A566FF
:102A4000B3FBF2F3E36638BD30780108597801082A
:102A5000F8B504460E46083017461D46FFF72CFE13
:102A60000B4BA3603368A364069B013323650135D8
:102A7000002384F85430E56400F0D0FE736863608E
:102A800020462760FFF7B2FF00F0DEFE2046F8BDCB
:102A90001078010810B5044600F0C0FE2046FFF78C
:102AA000A5FFA36C1B689847BDE8104000F0CCBEA2
:102AB00010B5044600F0B2FE2046FFF797FFA36C66
:102AC0009B699847BDE8104000F0BEBE13B50446B0
:102AD000019100F0A0FE019920B90A490A48F022AC
:102AE00000F0F0FD94F8563043B1D4E9172090423D
:102AF00004D000F0A5FA031E18BF0123184602B047
:102B000010BD00BF307801085978010838B5044677
:102B100000F084FEA36C5B68984794F85430054637
:102B20003BB901462046FFF7D1FF10B1A36C5B69AA
:102B3000984700F089FE284638BD000038B50546A4
:102B40000C4600F068FE20B904490548FC2200F05C
:102B5000B9FDE86E6043043038BD00BF307801082D
:102B6000597801087FB504460D4600F054FE28B997
:102B70002C492D484FF4827200F0A4FD94F858308F
:102B8000A16E43B9636EE26CEB1A0B40934224BF13
:102B9000012384F85830E06D94F85830451B0D40FF
:102BA000216DEBB994F85560C6B9204B0093A9424A
:102BB00028BF29461E4B03932046CDE90164FFF749
:102BC000BDFF33460246694604F10800FFF7D5FD14
:102BD0006846FDF77CFB012384F8553004B070BDD6
:102BE0008D4219D3A36C1B699847A36C5B68984707
:102BF000002384F85830E36D6066181AA36E1840FD
:102C0000854205D2A36C5B6904B0BDE870401847EB
:102C1000236D8342E2D90546044B216D00930026C3
:102C2000C5E700BF3078010859780108792C000801
:102C30007C78010838B504460D4600F0EFFDA36C22
:102C40005B689847012384F8563094F85430C4E9FF
:102C50001750014633B92046FFF784FFBDE83840DE
:102C600000F0F2BDA36C28461B699847236E63668B
:102C7000002384F85830F1E713B5044600F0CEFD88
:102C8000002384F85530A36C5B6898470146D4E96B
:102C90001720904207D1A36C5B69984702B0BDE84A
:102CA000104000F0D1BD019100F0CAF9019900284F
:102CB000F1D12046FFF756FFF0E70000EFF3108355
:102CC00072B6054A117831B90449DB4303F00103B8
:102CD0000B70012313707047D5140020D41400200A
:102CE00008B5EFF31083DB4313F0010304D006496A
:102CF0000648362200F0E6FC054A1370054B1B78A7
:102D000003B162B608BD00BF88780108B378010836
:102D1000D5140020D4140020014B1878704700BF50
:102D2000D5140020F8B50F46044615461E4604F09B
:102D300073FA013710D020685EB1A36818600121D2
:102D4000204604F08DFA29462046BDE8F84004F0FC
:102D500083BAE3680004F1E7F8BD13460022FFF7E9
:102D6000E1BF0022FFF7F9BF014800F051B800BFF2
:102D7000D0780108014B186800F034B8AC0100208D
:102D8000014B1868FFF724BE18150020014B186886
:102D9000FFF78EBE18150020014B1868FFF70ABE1A
:102DA00018150020024B01461868FFF743BF00BF0B
:102DB00018150020014B1868FFF7F1BD1815002009
:102DC000014B1868FFF7E0BD18150020014B18688B
:102DD000FFF79CBE18150020014B1868FFF75ABE7C
:102DE0001815002010B5044600F018FD064B1B789E
:102DF0000BB9FFF7B9FF054B21461868FFF7A2FD95
:102E0000BDE8104000F020BD9015002018150020EE
:102E1000F0B50C4E0C4D85B0039000F0FFFC3378FC
:102E200003994BB9094F0A4A0124009423463846B6
:102E3000FFF70EFE2F60347000F006FD286805B025
:102E4000F0BD00BF901500201815002020150020AF
:102E5000FC7801081FB5431C10D105B05DF804FBD8
:102E600083420AD18968039004F074FA0398002120
:102E700005B05DF804EB04F0FBBA0C31B1F9003099
:102E80005A1CEDD10023024602490348009300F08A
:102E900017FE00BF2079010830010180884207B584
:102EA00002460AD0431C08D0013105D00023054951
:102EB0000548009300F004FE0146084603B05DF8A3
:102EC00004FB00BF3179010830010180B1F9003005
:102ED0005A1C01D118467047834201D14868704797
:102EE0000C31F3E7421C13B504460AD0FFF7EEFF9E
:102EF000431C06D10023044904480093224600F0F5
:102F0000DFFD02B010BD00BF427901083001018031
:102F1000B1F900305A1C01D118467047834201D1E3
:102F2000886870470C31F3E7421C13B504460AD099
:102F3000FFF7EEFF431C06D1002304490448009329
:102F4000224600F0BDFD02B010BD00BF627901084D
:102F5000300101802DE9F843456895F83A60044650
:102F6000002E49D103685B68984763681B6A8342F7
:102F700042D02C6AAF682862041B3048EB68874255
:102F800004EA030431D095F83B20D5E90A98A4FB64
:102F90000001D2B3C2F1200620FA02F401FA06F6CB
:102FA000A2F1200321FA03F334431C4321FA02F671
:102FB00019EB0000A2F1200C48EB0101C2F1200343
:102FC00006FA02F804FA0CFC24FA03F348EA0C08A7
:102FD00004FA02F248EA0308821A61EB0801BA42D5
:102FE00071F100030AD2C5E90A21D5E90C231219AF
:102FF00046EB0306C5E90C26BDE8F883013446F12B
:103000000006D21B61F10001EDE733463A4612F0AB
:10301000E1FF12EB090248EB0303BA42044673F1E5
:1030200000000E4602D2C5E90A23DEE7013441F171
:103030000006D21B63F10003F5E700BF40420F001A
:10304000824206D98A420BD9884294BF00200120CF
:103050007047884206D98A428CBF00200120704701
:103060000120704700207047F7B5466896F83A305F
:103070000546002B67D196F83930002B63D1FFF756
:1030800069FF6F687A68002A5FD0D7E90C01D2E93E
:103090000032984271EB020405D32B685B6903B0E0
:1030A000BDE8F04018471B1A62EB0101D7E90602A0
:1030B00098428A413C6906D3BA68294882420FD1B6
:1030C0009C4228BF1C463A6AFB6822441A40336A75
:1030D000934229D12349244840F21B1200F0F2FA0E
:1030E00097F83B00C8B1A0F1200CC0F1200281404C
:1030F00003FA0CFC23FA02F203FA00F01B4B41EA3C
:103100000C011143C01841F10001154A002312F0CF
:1031100061FF844228BF0446D5E7A2FB033002FBCF
:10312000010112481818EEE72B68019210461B693E
:1031300098472B685B689847019A0146306AFFF709
:103140007FFF0028A9D103B0F0BD3369306AF2686F
:1031500018442B681B69104003B0BDE8F0401847C5
:1031600040420F0080790108A17901083F420F0019
:103170002DE9F04F436893F8382085B00446002AC3
:1031800062D193F83A30002B5ED103681B689847F0
:103190002368DB699847066836B92D492D480096A3
:1031A0003346324600F08CFC1F23012202FA03F161
:1031B0008E425FFA83FA02D0013BF7D19A46D0F8EB
:1031C0000480A8F104031C2B4FF0000705D9224905
:1031D000224800973B463A46E4E7701E204D4FF0E8
:1031E000070947F1FF3109FA03F932463B46C9FBAB
:1031F000050112F0EFFE656823680390C5E90077CA
:103200005B688B4698470121039A286201FA08F807
:10321000656808F1FF33C5E90339C5E9062B0023CA
:1032200000222046C5E90A23C5E90C23AE6085F8D3
:103230003BA0298785F83A70FFF78CFE204605B041
:10324000BDE8F04FFFF710BF05B0BDE8F08F00BF3D
:10325000C57901080E010480DE79010805010480AA
:1032600040420F0038B505460C46FFF781FF00F0DD
:10327000D5FA6B681C60BDE8384000F0E5BA70B55F
:10328000044600F0CBFA2368DB689847636893F83C
:103290003A201AB1BDE8704000F0D6BA012283F896
:1032A000392063685B68A3B12046FFF753FE63686B
:1032B0005A68D3E90C60D2E90051AE4270EB0101CB
:1032C00007D3D16859601B68002BEAD090689847F3
:1032D000E7E76368002283F839202046FFF7C4FE41
:1032E000D8E7F7B5089F01900C4616461D4600F03A
:1032F00095FA0198FFF72EFE0198A7604368C4E98C
:1033000000655968002229B9E16062B95C60FFF785
:10331000ABFE0EE00F68BE424F6875EB0707F3D3B4
:103320000A46C968EFE7D460D3E90C23B242AB4147
:10333000EDD203B0BDE8F04000F086BA38B50546DE
:103340000C4600F06BFA6A685368A34209D1DB6847
:1033500053602846FFF788FEBDE8384000F074BA95
:103360001346002BF8D0DA68A242F9D1E268DA609D
:10337000F2E713B50446FFF7FBFE00F04FFA2046D4
:10338000FFF7E8FD6368D3E90C01CDE9000100F027
:103390005BFADDE9000102B010BD704700487047DC
:1033A0001C7A0108024B1B680BB102481847704792
:1033B000B00100201C7A010808B5BFF35F8F1D4BD8
:1033C000D3F89010080A10F0FC0FC1F3072104D1C4
:1033D00019491A483A2200F075F90022C3F89420DE
:1033E00010468A421FD11022C3F89C20144AC3F809
:1033F000A0201322C3F89C20124AC3F8A020112257
:10340000C3F89C20104AC3F8A020104AC3F89C209F
:103410000F4AC3F8A0200722C3F89420BFF34F8FB0
:10342000BFF36F8F08BDC3F89820C3F8A000013226
:10343000D7E700BF00ED00E0487A01086A7A01088A
:1034400039F00206390702133FF50B131200008012
:1034500039000213024B1B6803B11847704700BFC5
:10346000D8150020002070474FF0100300F00CB872
:103470004FF0200300F008B84FF0300300F004B81C
:103480004FF0400300F000B8EFF308804FF0040164
:1034900072460A4201D0EFF309809C46254B196819
:1034A00002680A60043142680A60043182680A6076
:1034B0000431C2680A600431F0C147460F6004312C
:1034C0004F460F60043157460F6004315F460F606E
:1034D000043102690A60083142690A600431826974
:1034E0000A600431C2690A600431034620334FF494
:1034F0000076324200D0043375464FF01006354254
:1035000000D148330C46103C2360EFF309820A6077
:103510000431EFF308820A60043172460A60043114
:10352000EFF314820A606046024B196800F07AF8E3
:10353000FEE70000347C0108F0B52C4E2C4F85B01E
:1035400000243546214656F8042B3846013400F055
:1035500049F90D2CF6D1AB6C02936B6C01932B6C7B
:10356000244C0093D5E90E23696B234800F03AF907
:103570002168224800F036F9E16AA26AA36AA06ACB
:10358000266BE76B000CCDE901670090C3F30723BE
:103590001B48D2B200F026F9A36A1E0603D5616B60
:1035A000184800F01FF9A36A180403D5A16B164848
:1035B00000F018F9EB6C190712D5144800F012F955
:1035C0002B6DDA070FD5124800F00CF9EB6C5B0796
:1035D0004CBF1048104805B0BDE8F04000F002B9FB
:1035E0000E4800F0FFF80E48EEE700BFDC150020A3
:1035F000777A010800ED00E0857A0108D47A0108A5
:10360000E27A0108317B01083F7B01084D7B01080C
:103610005C7B01088C7B0108987B01087C7B01089E
:10362000697B010813B50446154800F0DBF8302C1F
:1036300017D0402C1AD0202C1DD11248124C00F06B
:10364000D1F8124800F0CEF8FFF776FF104800F0EE
:10365000C9F8104A104900230093D26B204600F0AD
:103660002FFA0E480E4C00F0BDF8EAE70D480E4C5C
:1036700000F0B8F8E5E70D480D4C00F0B3F8E0E7CE
:10368000A47B0108CD7B01083E01FF80FA7B010885
:10369000057C0108DC150020247C0108DC7B010886
:1036A0003F01FF80E57B01084001FF80F07B0108BE
:1036B0003D01FF8006F032BE07F0CCBA06F0CABA70
:1036C00006F024B807B50B460092014600220148D7
:1036D00000F0F6F94401FF8003460122D3E84F0FC2
:1036E000C3E8412FC0B20029F8D17047D0E85F3F4E
:1036F0005B18C0E8523F002AF8D198B27047D0E872
:103700005F3F5B1AC0E8523F002AF8D198B2704779
:10371000D0E84F3FC0E8421FD8B2704700B589B02B
:1037200000F07CF8052101A8FFF71BFB114E124D9C
:103730000424039B019A1A60304600F0A9FC019B07
:10374000049A1B041360304600F0A2FC013CF0D147
:103750000424039B019A1A60284600F099FC019BFF
:10376000049A1B041360284600F092FC013CF0D13F
:10377000DEE700BFF0490200801A060007B50146E7
:1037800000220190022000F043FB00F047F801996D
:10379000084607F015FF01990246022000F038FBA9
:1037A00003B05DF804EB00F04FB8000000B5A3B023
:1037B00002460B4601A884210EF076FF832806D925
:1037C000074B1A681B79CDF883208DF887300028C5
:1037D00002DD01A8FFF7D2FF23B05DF804FB00BFB4
:1037E000387C01080FB407B504A951F8040B019106
:1037F000FFF7DCFF03B05DF804EB04B07047EFF3B4
:103800001080C04300F001007047EFF305800038DE
:1038100018BF01207047FFF77FBA000008B5FFF717
:103820004DFA064A1368591C04D1054905483F2240
:10383000FFF748FF0133136008BD00BF30160020BA
:103840003D7C0108687C0108044A136823B1013BF0
:1038500013600BB9FFF744BA704700BF3016002061
:1038600008B50B48FFF738FF28B1FFF7D7FFBFF3C4
:103870004F8F20BFFDE7FFF7C8FF08B1FFF74EFFEE
:10388000FFF7BDFF0028F9D0012000F0AFFB00BF1B
:1038900074160020F0B5214F8FB016461C2237EA6F
:1038A000200728BF07460D460DEB0200002107F058
:1038B0007FF91B4B03955B690493DA6B05925A6B96
:1038C0001B6B069201ACCDE90734CDE90176FFF719
:1038D000A5FF144A13680133012B136009D1264652
:1038E0000FCE114D0FC50FCE0FC50FCE0FC53368CC
:1038F0002B600FCC0D4D0FC50FCC0FC50FCC0FC5D6
:1039000023682B600A4B1B6813B1A5F13000984760
:10391000FFF79AFF00200FB0F0BD00BF0101FF804C
:10392000BC0200203416002040160020781600202B
:10393000381600202DE9BF43374C0F462168C1F3EC
:103940004173032B0CBF4D428DB2C1F30743814637
:10395000904632482A46FFF745FF6FF498731D449E
:10396000132D0FD8DFE805F00A3E4144474D4A5079
:103970000E0E0E0E0E0E0E0E0E0E0E53A1682848E1
:10398000FFF730FF4846FFF7F9FE61682548FFF76B
:1039900029FF4FB12448FFF7F1FE3846FFF7EEFE4E
:1039A00022484146FFF71EFFA1682148FFF71AFF92
:1039B000E268E36951681F480293A3690193636950
:1039C0000093002908BF014623691B48FFF70AFF3F
:1039D00021681A48FFF706FF194804B0BDE8B04354
:1039E000FFF700BFA1681748CAE7A1681648C7E7F4
:1039F000A1681648C4E7A1681548C1E7A168154841
:103A0000BEE7A1681448BBE7A1681448B8E71448AA
:103A1000FFF7E8FEB6E700BF78160020A37C010898
:103A2000F47C01089C7D0108AD7D0108B57D01088D
:103A3000B97D0108997C0108CD7D0108257E01082A
:103A4000747E01080A7D01081A7D0108297D01089C
:103A50003C7D0108507D0108647D0108737D0108EB
:103A6000897D01080FB41FB50D48CDF804E0012190
:103A7000FFF74EFE019A044680B901460948FFF758
:103A800009FF094822462146FFF754FF069807A977
:103A90000391FFF78BFE0548FFF770FEFFF7E0FE8E
:103AA0003C1600200001FF808E7E0108227C010868
:103AB00000207047014B1878C0B270473C160020B8
:103AC00080B506460C460A480121F04617461D46B9
:103AD000FFF71EFE48B9424639463046FFF7DAFE88
:103AE000029A29462046FFF725FFFFF7B9FE00BFDF
:103AF0003C16002013B5074C01212046FFF7F6FDC8
:103B0000034628B90090228803490448FFF7D8FFEC
:103B100002B010BDAC160020A37E01082301048072
:103B200013B5094C01212046FFF7E9FD4FF6FF735D
:103B3000984206D100232288044905480093FFF7E4
:103B4000BFFF02B010BD00BFAC160020C57E01084B
:103B500024010480034B188880B2B0FA80F0400939
:103B6000704700BFAC16002008B5FFF757FEFFF7FF
:103B7000F1FF28B104F092F9BDE80840FFF764BEF8
:103B800004F080F9F8E76FF01C0070476FF0150043
:103B9000704701207047002070477047034B18683A
:103BA00018B14FF0FF3101F089BA7047A02700200B
:103BB000024B186808B101F099BA7047A02700209D
:103BC000F8B5074E15460C468F18BC4205D014F8C0
:103BD000011B304603F07AFAF7E72846F8BD00BF2C
:103BE000582F002038B511F001048DB205D00848D7
:103BF00004F00AF8041E18BF0124EB0605D504489A
:103C000004F018F808B144F01004204638BD00BF95
:103C1000582F002010B5044606F078FB204610BD52
:103C200010B50C462AB1044803F03EFA207001207A
:103C300010BD1046FCE700BF582F002038B51D46C8
:103C4000074B0360074B1B68044633B9064804F072
:103C50004DF80548294604F023F8204638BD00BF3A
:103C60002C800108A42F0020582F0020002070472E
:103C70000020704707B500230249034800931A4605
:103C8000FFF71EFFE37E01082901018008B501202E
:103C900000F0ACF9074A084913681844884289BF04
:103CA000064B10600C224FF0FF308CBF1A60184694
:103CB000704700BFB4020020007C01205830002073
:103CC000012070470120704708B500F0A7FA08BD31
:103CD00008B500F0ABFA08BD10B50446037803F050
:103CE0000303012B08D0FFF759FF237803F00302E9
:103CF000012A03D1FFF75CFF00200AE02AB1054941
:103D0000054840F2E652FFF7DDFC43F00203237062
:103D1000012010BDED7E01081A7F010808B5037867
:103D200003F00302022A05D00749084840F2EF5287
:103D3000FFF7C8FC23F0030343F001030370BDE861
:103D40000840FFF735BF00BFED7E0108387F01084E
:103D50003F2870B504462FDC184E56F820305A1C08
:103D600013D1022811DCFFF783FF034658B9204620
:103D7000FFF77CFF034630B9114D2B78BFF35B8F03
:103D8000DB0704D50F4B46F82430184670BD284693
:103D9000FFF7A2FF0028F5D04FF4165303220221AB
:103DA0000848FFF74BFF084A08490648FFF788FF15
:103DB0002846FFF7B3FFE5E70023E6E7B40100205C
:103DC000B0160020B4160020980100209B3B00088C
:103DD00038B50546FFF7BCFF0B4B002443F82540E0
:103DE00030B905F0CFFC092303604FF0FF3038BD38
:103DF00003685B699847051E04DA05F0C3FC6D4251
:103E00000560F2E72046F2E7B4010020FFF7E0BFCB
:103E100013B5CDE90021FFF79BFFDDE9002140B993
:103E200005F0B0FC092303604FF0FF34204602B0D8
:103E300010BD0368DB689847041EF7DA05F0A2FCA2
:103E400064420460F0E7000073B505460E46144670
:103E5000FFF7DBFC30B100230E490F4800932A46E0
:103E6000FFF72EFEFFF7CBFC0028F4D0201E07DA68
:103E700005F088FC162303604FF0FF3002B070BDE0
:103E8000FCD0024631462846FFF7C2FF40EAE07008
:103E9000F4E700BF6F7F01082F01018013B5CDE962
:103EA0000021FFF755FFDDE9002140B905F06AFC6C
:103EB000092303604FF0FF34204602B010BD0368B1
:103EC0009B689847041EF7DA05F05CFC64420460C6
:103ED000F0E7000073B504460E461546FFF795FC63
:103EE00030B100230D490E4800932246FFF7E8FD4C
:103EF000FFF785FC0028F4D0002D07DB2A46314669
:103F0000204602B0BDE87040FFF7C8BF05F03AFC9C
:103F1000162303604FF0FF3002B070BDA97F010887
:103F20002F01018010B5FFF713FF044628B905F0F3
:103F300029FC09230360204610BD0368DB6998470C
:103F4000041EF8DA05F01EFC644204600024F2E767
:103F5000FFF7E8BF13B5CDE90021FFF7F9FEDDE972
:103F6000002140B905F00EFC092303604FF0FF3437
:103F7000204602B010BD03681B699847041EF7DA9B
:103F800005F000FC64420460F0E7FFF7E3BF10B502
:103F9000FFF7DEFE30B905F0F5FB092303604FF0B3
:103FA000FF3010BD03689B699847041E04DA05F0D2
:103FB000E9FB64420460F2E70020F2E70A4D08B52D
:103FC0002B680446986805F00FFD2B68D86805F04B
:103FD0000BFD0120FFF7DBFF0220FFF7D8FF0CB13C
:103FE000FFF79CFBFEE700BF6C03002008B5FFF75E
:103FF000E5FF38B50D46FFF7ABFE044630B905F0D6
:10400000C1FB092303604FF0FF3038BD0368DB6953
:104010009847002814BF4FF400534FF400436B60DF
:10402000236820469B6A984728610020EDE7FFF748
:10403000E0BF00001FB5039006F060F9039A034645
:1040400020B9009003490448FFF73AFD05B05DF838
:1040500004FB00BFE57F01081F0101801FB503902D
:1040600006F04CF9039A034620B90090034904482E
:10407000FFF726FD05B05DF804FB00BF02800108D4
:104080001F01018006F042B906F040B906F03EB9C2
:10409000034A516A536A5B1A8342FBD3704700BFDD
:1040A000000C00401FB5002303620D4B002918BF10
:1040B0000B460093031D02931C230446039368469A
:1040C0000B23019300F0E2FF206038B9FFF7F2FC08
:1040D00020B9044904483822FFF7F4FA04B010BDAF
:1040E000808001089A800108BB80010810B500217A
:1040F0000446FFF7D7FF204610BD000037B5044641
:104100004FF0FF31006800F0D9FF054628B9236A57
:1041100001332362002003B030BDFFF7CBFC034620
:104120000028F7D10249034800932A46FFF7C8FC4C
:10413000DF800108150102801FB50446006800F009
:10414000D5FF024628B9236A013B2362104604B01A
:1041500010BD0390FFF7AEFC039A03460028F5D18B
:10416000024903480093FFF7ABFC00BFF180010850
:104170001701028008B5094B094A1A60094B9B1ABE
:10418000094A1360094B0A4A1A600A4B9B1A0A4AE9
:10419000136000F051F800F07DF800BF24170020F4
:1041A000007C01200080012020170020BC16002088
:1041B00060300020007C0120B81600200E4838B581
:1041C0000E4B03600B250E4B45601C24C4608360BE
:1041D00000F05CFF0B4B18600B480C4BC460C0E94F
:1041E00000350B4B836000F051FF0A4B1860BDE8AF
:1041F000384005F0E7BF00BFF01600200581010838
:104200000417002000170020C016002012810108AA
:10421000D4160020D0160020FDF7BEB9024B4FF097
:10422000FF31186800F04ABF00170020014B1868E2
:1042300000F05CBF0017002008B5FFF7BDF80C4B7D
:104240000C4998684FF00053C21802F1604212689E
:1042500043F8042B8B42F7D1054B4FF000529A6084
:1042600003F03EF803F0EEFEBDE8084000F010B8A1
:1042700000ED00E094010020704708B5FFF79EFFB5
:10428000FFF7FAFFFFF714FCBDE80840FFF7C4BFD3
:1042900000F03CBA07B51748174B03600B23436087
:1042A0001C23164CC360164B8360164B23614FF4DE
:1042B000805363614423E360134BA3601823A3611D
:1042C000124B236000F0E2FE114B224618600021E1
:1042D000104801F0E9FA034628B90F490090224638
:1042E0000E48FFF7EDFB00F029FA00230C4900937C
:1042F0001A46F5E7902700201C8101082827002096
:10430000A4270020281700204C2700202C8101081A
:10431000A02700207B420008318101081D01018097
:104320004D81010873B506460C461546FFF7C2FBE2
:1043300058B906342ABF064B064953F82410002307
:10434000009332462846FFF7BBFB02B070BD00BFAA
:10435000188301086A82010808B500F071F80000AE
:1043600007B50023421E00930023042A19D8DFE872
:1043700002F003080C1014000C490D480122FFF74D
:104380009FFB0C490C480222F9E70C490C48032218
:10439000F5E70C490C480422F1E70C490C480522CA
:1043A000EDE702460B490C48E9E700BF62810108CE
:1043B000250102808381010826010280A88101086D
:1043C00027010280DD81010828010280188201088E
:1043D0002A0102805882010800010280014A014638
:1043E000FFF7A0BF31010180014AFFF79BBF00BF6B
:1043F00032010180014AFFF795BF00BF3301018000
:10440000014AFFF78FBF00BF3801018010B501F0EE
:1044100063FA034B1B6813B1BDE81040184710BD89
:10442000C027002008B5FFF7F9F9FFF763FBFFF796
:104430009BFBFFF775FBBDE80840FFF705BA0000DE
:1044400008B5024C23689847FCE700BFB80200207B
:104450001EF0040F0CBFEFF30880EFF309808169B1
:1044600011F8021C91BB01B590E80F10E047BDE8C0
:1044700000508CE80300244B93E80600914208BFEB
:10448000704741B91EF0100F10D12049086820F084
:10449000010008600AE02CE9F00F1EF0100F08BFC1
:1044A0002CED108AC1F838C081F822E01A6092F829
:1044B0002210906B61F0FF0E1EF0100F08BFB0ECE1
:1044C000108AB0E8F00F80F309887047104A13682B
:1044D0009942FAD801B552F821C00FC8E047BDE8AB
:1044E0000050CCF80000704701B500F05DFEBDE85B
:1044F0000140EFF3098CBEE701B500F01DFEBDE8F9
:104500000140EFF3098CB6E7D002002034EF00E061
:10451000F0830108EFF310832BB9EFF3118000381B
:1045200018BF0120704701207047000070B5484C4B
:10453000217A012900F08A8031B14FF0FF30FFF776
:104540004DFF4FF0FF3070BD424D9C2204F108003A
:1045500006F02EFBD5E90B61EB68E3652B8AA4F826
:1045600054303046AB68236400F0FEF808B1C4F85C
:104570008060D5E90561304600F0F6F808B9D4F856
:1045800080606667D5E90761304600F0EDF808B94C
:10459000D4F88060A667D5E90961304600F0E4F8F8
:1045A00008B9D4F88060E6676E6B3EB1D6E90223A5
:1045B0003168304600F042F9C4F88460AE6B3EB119
:1045C000D6E902233168304600F038F9C4F8886033
:1045D000EE6B3EB1D6E902233168304600F02EF989
:1045E000C4F88C602E6C3EB1D6E9022331683046A7
:1045F00000F024F9C4F890606E6C3EB1D6E9022355
:104600003168304600F01AF9C4F89460AE6C3EB1DF
:10461000D6E902233168304600F010F9C4F89860FA
:10462000EE6C3EB1D6E902233168304600F006F95F
:10463000C4F89C602D6D3DB1D5E902232968284658
:1046400000F0FCF8C4F8A0500123237200207AE7A0
:10465000BC0200208883010870B5264D2B7A012BFF
:1046600007D06FF00600FFF7B9FE4FF0FF34204689
:1046700070BD01F0F9F810B94FF0FF30F3E71E4AB2
:104680001E4E1F497068FF2382F8223092F82230B4
:10469000D26863F0FF03DB4314BFB3FA83F3202334
:1046A000C3F12003C2F30222934298BF531CFE229F
:1046B00002FA03F3104ADBB2D37701F085F904461E
:1046C0000028D9D101F0B8F9286101F09DF90D4811
:1046D00000F0AAFE00F00AFF336813F0010F4FF05C
:1046E000020303D083F314882B72C0E7032282F302
:1046F0001488F9E7BC02002000ED00E0888301087F
:10470000F9440008D80200207047000008B5FFF700
:10471000FBFFEFF3058333B16FF00500FFF75EFE9B
:104720006FF0050008BDFFF7F5FE0028F4D1DFF8B3
:1047300008C000DFF6E700BF2D45000808B5EFF31D
:10474000058333B16FF00500FFF748FE6FF00500F9
:1047500008BDFFF7DFFE0028F4D1DFF808C000DF56
:10476000F6E700BF5946000810B598B140EA0103CA
:1047700013F007030ED117290AD901600839102256
:104780000C18846042600B5081684A60C36001234A
:10479000184610BD0023FBE7F0B5034670B369B3BC
:1047A00032F003002AD10F3121F0070103F108068E
:1047B000344636686568301B25F00305401B81428E
:1047C00003D930680028F3D1F0BD5F681D680F443D
:1047D0005F602B44083B5868874288BF5F6063680E
:1047E0000A431BB9626004F10800EDE723F00303FC
:1047F000E018E650426020600830E5E70020E3E77B
:1048000010B580B1C1B1A1F1080400F10803002284
:10481000A34209D1596821F003044168091B416092
:104820003AB95A60012010BD19681A4621B10B46E9
:10483000EEE71B681360F5E70846F4E730B5C0B152
:1048400089B1C2B1CBB10024C0E9014202FB01F43D
:104850001D190160C360436105611846013904D127
:10486000A21A99500121084630BD851805602846D6
:10487000F4E70146F7E71146F5E71946F3E710B507
:104880000346A8B100F1140252E8000F10B9BFF3BB
:104890002F8F04E0016842E8001404B1F4E738B156
:1048A000043353E8002F511C43E8001404B1F8E727
:1048B00010BD30B5F0B1C3688B421BD803698B4281
:1048C00018D900F114031A680A60BFF35F8F53E828
:1048D000002F0C689442F6D143E8001505B1F2E7C9
:1048E000043050E8003F5A1E40E8002101B1F8E7CB
:1048F000002030BD6FF00300FBE7EFF310832BB90E
:10490000EFF31180003818BF012070470120704775
:10491000D1E9013223B19A608A681AB153607047B5
:10492000C262F9E7036370472DE9F84F88460746EE
:1049300000B131B96FF003010020FFF761FD0024E1
:1049400077E0CE1C26F003060C36B0FA80F104D0D6
:10495000B6FA86F30B441F2BECDD06FB07FAF2B127
:1049600094683CB1A30702D1D368332B05D86FF00C
:104970000801E1E7D368002BF9D1D2E90453D2F85A
:1049800000903DB115F0030B01D19A4554D96FF059
:104990000901D1E7002BFAD11CB19B460CE09146EE
:1049A0001546274BD3F8A000D8B1FFF768FF04469F
:1049B000A0B14FF0010B35BB214B0022D86F5146FF
:1049C000FFF7EAFE0546C0B9BBF1000F06D01C4B4D
:1049D000D3F8A000214658B1FFF76BFF6FF0040138
:1049E000AAE7D3F8800001223421FFF7D5FEDEE7E5
:1049F000D3F88000FFF704FFF0E75246002106F0ED
:104A0000D7F84BF0020BFA2323700023C4E9098383
:104A1000C4E90B33A36032462B4684F802B0C4F8D5
:104A20000490394604F10C00FFF708FF044B054AD7
:104A30001A672046BDE8F88F002CE4D1B1E700BF2B
:104A4000BC020020D54A000810B500F1280353E845
:104A5000002F12B9BFF32F8F04E0511E43E800145A
:104A600004B1F4E70AB9002010BDC06A0122002891
:104A7000F9D0811CD1E84F3FC1E8442F04B1F9E7D8
:104A8000DBB2002BF0D08068F1E7036B30B5E3B107
:104A9000CD780024DA78AA420FD31A46C1E901245E
:104AA0008AB19160A4B16160283050E8003F5A1C7F
:104AB00040E8002101B1F8E730BD5A681C46002AE1
:104AC000ECD01346E6E7C162ECE7C1E90133C1620D
:104AD0000163E9E7F8B5877804468FB3C5680146F6
:104AE00000272846FFF714FF277005F10C04204625
:104AF000FFF7DFFEAB68002B48D02046FFF7BFFE74
:104B00000446002842D0284600F08EFC3A4606466D
:104B1000394600F021FD304600F0CAFC6A6A81681F
:104B2000064604F10C0005F02DFFF9232370A77051
:104B3000F368E37021462846BDE8F840FFF7A5BFBB
:104B40008568AB68002BF5D05B78832BF2D12846C3
:104B500000F06AFC3A460646394600F0FDFC304655
:104B600000F0A6FC06466A6A806804F10C0105F0B4
:104B700009FFF3680BB1E2781A7000232370214615
:104B800005F10C00BDE8F840FFF793BEF8BD00004A
:104B90002DE9F0410C4617469846054618B10378B2
:104BA000FA2B00D141B928466FF00301FFF728FC2A
:104BB0006FF00300BDE8F0818368C3B15B78832B9D
:104BC00015D100F031FC01220646002100F0C4FCA2
:104BD000304600F06DFC06466A6A8068214605F0A2
:104BE000D1FEF0680028E5D007700020E2E705F16B
:104BF0000C00FFF744FE064670B121466A6A0C308D
:104C000005F0C0FE0024F9233370B470F77031460C
:104C10002846FFF73AFFE8E7B8F1000F10D0414609
:104C2000932000F0ADFD40B1074B2846596900F0D4
:104C3000E9FBEFF30983C3E902476FF00100B9E72D
:104C40006FF00200B6E700BFBC0200202DE9F04182
:104C50000F4615469846044618B10378FA2B00D142
:104C600041B920466FF00301FFF7CAFB6FF0030064
:104C7000BDE8F081FFF7E8FE064600283AD001467D
:104C80002046FFF745FE626A06F10C01384605F042
:104C900079FE0DB1F3782B70002504F10C07357007
:104CA00031463846FFF705FEA3680BB90020DFE761
:104CB0003846FFF7E4FD06460028F7D0204600F00E
:104CC000B3FB29460746012200F046FC384600F0B7
:104CD000EFFB626A8168074606F10C0005F052FEA0
:104CE000F9233370B570FB68F37031462046FFF747
:104CF000CCFEDBE7B8F1000F10D04146832000F076
:104D00003FFD40B1074B2046596900F07BFBEFF3B4
:104D10000983C3E902756FF00100A9E76FF0020093
:104D2000A6E700BFBC02002010B50446EFF30583E0
:104D300033B100206FF00501FFF762FB002010BDCA
:104D4000FFF7DBFD0028F4D1DFF808C0204600DFC4
:104D5000F5E700BF294900082DE9F04106460F4656
:104D600090461C46EFF305834BB196B930466FF081
:104D70000301FFF745FB6FF00300BDE8F081FFF78B
:104D8000BCFD0028F1D1DFF84CC03046234600DFDF
:104D9000F3E73378FA2BE9D1002FE7D0002CE5D1E7
:104DA00006F10C00FFF76BFD054680B1726A3946CB
:104DB0000C3005F0E7FDF9232846C5E901762B7094
:104DC000AC7085F8038000F037FA2046D5E76FF025
:104DD0000200D2E7914B0008F8B504460F4616468C
:104DE0001D46EFF3058343B18CB920466FF00301F4
:104DF000FFF706FB6FF00300F8BDFFF77EFD00280C
:104E0000F2D1DFF848C020462B4600DFF4E72378D4
:104E1000FA2BEAD1002FE8D0002DE6D12046FFF78B
:104E200013FE054670B100F10C01626A384605F0C8
:104E3000A9FD0EB1EB7833702846EC6000F0FCF968
:104E40000020D9E76FF00200D6E700BF4D4C000804
:104E5000EFF310832BB9EFF31180003818BF012056
:104E6000704701207047000070B5A8B38468D0E98E
:104E700000566CB114F0030302D1C2681B2A1AD881
:104E80006FF008010020FFF7B5FA0024204670BD3E
:104E9000C368002BF4D1124BD3F8940030B9D3F887
:104EA000800001221C21FFF777FC01E0FFF7E7FCFF
:104EB000044660B10123F522A3700023C4E9023344
:104EC000C4E904332270E67065602376DEE76FF094
:104ED0000401FFF78FFAD9E705460646DBE700BF76
:104EE000BC020020284B70B55D6904460E4635B9FA
:104EF0006FF00701FFF77EFA4FF0FF3070BD10B181
:104F00000378F52B07D020466FF00301FFF772FA04
:104F10006FF00300F2E7037E53B9EA6AC560C0E9A7
:104F2000043202B11061EC62012323760020E5E730
:104F3000C278D1070DD5C168A9420AD1FF2B06D18D
:104F40006FF00F01FFF756FA6FF00200D6E701335A
:104F5000EBE7002EF8D093070AD5E06895F92030EA
:104F600090F920209A4203DA80F8203000F06EFA9F
:104F70003146532000F004FC18B12946204600F0C9
:104F800041FA6FF00100B9E7BC02002038B52E4BA2
:104F90005A69044632B96FF00701FFF72BFA4FF058
:104FA000FF3038BD10B10378F52B07D020466FF0E5
:104FB0000301FFF71FFA6FF00300F2E7037E33B936
:104FC0006FF00E01FFF716FA6FF00200E9E7C16813
:104FD000914202D06FF00D01F4E7013BDBB20376A2
:104FE00023BB43690BB101691961216901B34B61AD
:104FF000E3789B0705D592F92110D36AD3B982F8DB
:105000002010A3687BB1204600F00EFA002205466E
:10501000114600F0A1FAEB6A6361002323610123CA
:10502000E560EC622376002000F06AFA0020B8E721
:10503000D362DDE7986820B190F920008142B8BFC3
:1050400001465B69DAE700BFBC0200202DE9F041B0
:105050000446002601270CB9BDE8F081E378D4F8B6
:1050600014801B0710D5A36826766BB1204600F08C
:10507000DBF900220546114600F06EFAEB6AE560A6
:10508000C4E90463EC6227764446E4E708B50246C7
:10509000EFF3058333B100206FF00501FFF7AAF9A4
:1050A000002008BDFFF7D4FE0028F4D1DFF808C0C7
:1050B000104600DFF5E700BF694E000808B502465C
:1050C000EFF305833BB110466FF00501FFF792F94E
:1050D0006FF0050008BDFFF7BBFE0028F3D1DFF835
:1050E00008C0104600DFF5E7E54E000808B50246A7
:1050F000EFF305833BB110466FF00501FFF77AF936
:105100006FF0050008BDFFF7A3FE0028F3D1DFF81C
:1051100008C0104600DFF5E78D4F000810B5D0E855
:105120005F3F5A1C914200D80022C0E8542F04B1BE
:10513000F5E798B210BD000038B51A4C00F078FCC5
:10514000E3680133E360236D03B1984700F098F9F9
:10515000002000F0D5F9236C1BB3A26BA1698A4231
:1051600002D0A163E3631CE0E36BB3B9237A022BA3
:1051700017D1656AADB195F9201092F920309942A6
:105180000FD1284600F059F9A06B00F071F92846BC
:1051900000F0ACF9236CA563E4E7013BE363002B6B
:1051A000E4D038BDBC02002070B5224C04F1560595
:1051B00004F15A06B4F85410D5E85F3F13B9BFF3B1
:1051C0002F8F04E05A1EC5E8502F00B1F4E79BB2C0
:1051D0005BB33046FFF7A2FFE36D53F8200020B326
:1051E0000378F13B082BE5D801A252F823F000BF69
:1051F00015520008B55100081B520008B5510008AF
:10520000B55100081F52000823520008B55100088C
:1052100027520008236E9847CCE7636EFBE7A36E26
:10522000F9E7E36EF7E7236FF5E7BDE8704000208C
:1052300000F066B9BC02002070B5164C0546B4F803
:10524000541004F15602D2E85F3F994202D8BFF3EE
:105250002F8F04E0581CC2E8560F06B1F3E79BB24B
:10526000994205D829460220BDE87040FFF778B87A
:1052700004F15800FFF752FFE36D43F82050637AC2
:1052800023B9054B4FF080525A6070BD0123A372C1
:10529000FBE700BFBC02002000ED00E0EFF310834D
:1052A0002BB9EFF31180003818BF0120704701209F
:1052B0007047000010B50A4A90F92010012343708E
:1052C000536A1C321BB193F920408C4205DCC0E9C3
:1052D0000232906003B1D86010BD1A469B68F1E7B6
:1052E000BC020020014B5869704700BFBC0200207F
:1052F00010B50023038083789A07044608D513F07D
:10530000100F016B0E4B0FD0D3F88400FFF7D1FACA
:10531000A378DB0712D50A4BD3F88800214638B1B1
:10532000BDE81040FFF7C5BA586FFFF769FAEFE71D
:10533000BDE81040D3F88000FFF762BA10BD00BF8F
:10534000BC02002008B5FFF761F8DFF810C000DFED
:105350004FF0FF310020FFF747F8FEE7055800083F
:1053600010B5C469621CD0E904310AD103B1596196
:1053700042691AB113610023436101E0064A1363D5
:1053800010BD1BB1DA6959612244DA614269002A11
:10539000F0D1014AD362F3E7BC020020930710B5B5
:1053A00002F0010422D400F1280384B153E8000F75
:1053B00000EA01028A4203D0BFF32F8F002005E0EC
:1053C00020EA010243E8002404B1EFE710BD53E8EE
:1053D000000F084203D1BFF32F8F002005E020EA21
:1053E000010243E8002404B1F1E7EFE7806A01EA33
:1053F00000031CB18B4218BF0020E7E7002B08BF59
:105400000020E3E710B591F9202083681BB193F9E0
:105410002040944205DAC1E90230816003B1D960CD
:1054200010BD18469B68F1E783689A68826002B1F4
:10543000D0600022DA6018467047C2682AB18368DB
:10544000936003B1DA600023C360704710B504466F
:1054500064B12378F12B07D0FFF7EFFF0146204618
:10546000BDE81040FFF7CEBFE468F1E710BD0000D3
:105470000123014643700148FFF7C4BFD802002052
:1054800038B50A4DEC6A84B1E369013BE36163B965
:105490002046FFF7D2FFFFF7EBFF246924B1E36951
:1054A000002BF5D000236361EC6238BDBC02002004
:1054B00090F82230826B13F0100F0CBF6020202078
:1054C00010447047074B596951B10B6B8A6B93427B
:1054D00003D21A68044B9A4202D00120FEF740BF63
:1054E000704700BFBC020020A52E5AE208B5022377
:1054F0004370024B9861FFF7E5FF08BDBC02002036
:1055000010B5144B04461A7A5969A0B9022A1FD162
:105510005C6AECB194F9202091F920309A4217DDB1
:105520002046FFF78AFF0846FFF7C4FE2046BDE885
:105530001040FFF7DBBF022A05D190F9202091F936
:1055400020309A42EFDC2046BDE81040FFF790BFC4
:1055500010BD00BFBC02002038B505461446FFF759
:10556000A7FF01602846FFF7FBFE1CB1BDE83840ED
:10557000FFF7C6BFBDE83840FFF77ABF10B54378E4
:10558000332B04460CD1416A90F82320FFF706FF25
:10559000014628B120460022BDE81040FFF7DCBFDD
:1055A00010BD00002DE9F04F85B00391019028B99E
:1055B0006FF00301FEF718FF0024BEE0002A4AD076
:1055C000966846B1B00702D1D368432B06D86FF076
:1055D00008010020EEE7D368002BF8D1D2E9044996
:1055E000976944B1610703D1B9F1000F40F0B18070
:1055F0006FF00A01EDE72FB1791E372903D96FF05B
:105600000B01E6E71827B9F1000F40F0A680D2E9B8
:1056100000B3029366BB554DD5F8880008B3FFF779
:105620002EF9064600283DD04FF00108DFF83CA1D6
:10563000002C42D1B9F1000F1DD14D4BDAF8840096
:10564000D3F85490B8B1FFF71AF90546E0B148F025
:105650001008344623E093461446182791460292D8
:10566000D9E7D5F8800001224421FFF795F8D8E763
:105670004FF00008DAE7DAF8740022464946FFF7EF
:105680008BF805460028E4D1B8F1000F13D0DAF802
:10569000885031464DB12846FFF70BF9002548F0F8
:1056A000020864B96FF0040193E7DAF88000FFF7AD
:1056B000A7F82C46F3E74546F1E72546344640F285
:1056C000F11222800022C4E90222C4E90422C4E9C2
:1056D0000622C4E90922C4E90B25A9F14002029B74
:1056E000E3702A44019BA2637FB2224AE363FD2157
:1056F00084F80280C4F804B084F8207084F8217023
:105700006184C4F834902A60194A1268530718D487
:10571000A36B34221846002105F04AFA164A426368
:10572000019A82634FF08072C263039A0262134B44
:10573000CAF860302046FFF7E3FE204605B0BDE81A
:10574000F08F29F00302443ACC21281D05F030FAED
:10575000DEE7002F7FF450AF182719F0070F7FF412
:1057600047AFB9F1470F3FF652AF41E7BC02002007
:1057700088830108A52E5AE2455300087D5500088C
:1057800038B51E4C237A022B34D1636A002B33D0F8
:1057900063694A1C587015D1226B00216AB94FF019
:1057A000FF30C3E90421D86151B10B611448FFF700
:1057B0003BFEFFF79BFE012038BD11461269EDE765
:1057C0002363F3E7E26A002012B1D569A9420BD244
:1057D000C3E90420D96158B10361002AE6D0D06939
:1057E0005361411AD161E1E71046491B1269EBE7A9
:1057F000E362F2E70020DFE71846DDE7BC020020A5
:10580000D802002038B5164D2B7A022B27D16B6AAF
:105810002BB36C69E06AFFF719FCA06918B100228C
:105820001146FFF799FEEFF309830E48A363FFF7D4
:10583000FBFDFFF75BFE00236B61E378DB0701D51F
:10584000A36923B12046BDE83840FFF751BD0422CB
:105850006270E3606B6BA36003B1DC606C6338BDA6
:10586000BC020020D802002038B50B4C0B48A26DBA
:105870000B4D0021FFF796FE636EA8624BB1E26DFF
:1058800008480021FFF78EFEA864003818BF0120E9
:1058900038BD0120FCE700BF888301085943000898
:1058A000BC0200208D59000810B50446EFF30583B3
:1058B00033B100206FF00501FEF796FD002010BD0A
:1058C000FFF7ECFC0028F4D1DFF808C0204600DF29
:1058D000F5E700BFA555000808B5EFF3058313B140
:1058E000054B586908BDFFF7D9FC0028F8D1DFF84F
:1058F0000CC000DFF6E700BFBC020020E552000844
:1059000030B50C4D6B6C002213B11C698C420AD966
:10591000C0E9022301611BB11C699860611A196119
:105920002AB1D06030BD1A46091BDB68ECE7686419
:10593000F8E700BFBC02002070B5134D6C6C04B3D7
:105940002369013B236101262369D3B9E3680BB1C5
:10595000A2689A606B640023E86C1A4604F118018F
:10596000FFF7FAF918B121460320FEF7F9FCE378B6
:10597000012B07D161692046FFF7C2FF6C6C002C38
:10598000E2D170BD6670F9E7BC0200200B4B0C4CF5
:1059900007B51A6E586E0821FFF7C6F9094BE06487
:1059A0002365E06C4FF0FF3300226946FFF714FADD
:1059B0000028F6D1DDE900309847F2E78883010836
:1059C000BC02002039590008A8B10C4B1B68B3FB7E
:1059D000F0F00138B0F1807F0DD2094BFF2283F83F
:1059E00023204FF0E02306221A61586100209861BD
:1059F000044B187070474FF0FF3070476003002071
:105A000000ED00E0102E0020074B1A782AB100228A
:105A10001A70064B4FF080625A604FF0E022136913
:105A200043F0010313617047102E002000ED00E0E9
:105A30004FF0E0231B6970474FF0FF3070470000C4
:105A40000F49D1F8883043F47003C1F888300D4B0A
:105A50001A68002042F001021A6098601A6822F069
:105A6000847222F480321A60074A5A601A6822F45B
:105A700080221A60D8604FF000638B60704700BFCF
:105A800000ED00E0003802401030002430B595B041
:105A9000234B002401941A6C42F080521A641B6C50
:105AA000204A03F080530193019B0294136823F46E
:105AB000404343F400431360136803F440430293EC
:105AC000A042029B4FF0010308930CBF4FF48033B8
:105AD0004FF4A023099302254FF48003CDE90E5320
